{"abi":[{"type":"constructor","inputs":[{"name":"_stakedUSDeAddress","type":"address","internalType":"address"}],"stateMutability":"nonpayable"},{"type":"function","name":"getRate","inputs":[],"outputs":[{"name":"","type":"uint256","internalType":"uint256"}],"stateMutability":"view"},{"type":"function","name":"stakedUSDe","inputs":[],"outputs":[{"name":"","type":"address","internalType":"contract StakedUSDeV2"}],"stateMutability":"view"},{"type":"error","name":"ZeroAddressException","inputs":[]}],"bytecode":{"object":"0x60a060405234801561000f575f80fd5b506040516105863803806105868339818101604052810190610031919061012e565b5f73ffffffffffffffffffffffffffffffffffffffff168173ffffffffffffffffffffffffffffffffffffffff1603610096576040517fb2335f2e00000000000000000000000000000000000000000000000000000000815260040160405180910390fd5b8073ffffffffffffffffffffffffffffffffffffffff1660808173ffffffffffffffffffffffffffffffffffffffff168152505050610159565b5f80fd5b5f73ffffffffffffffffffffffffffffffffffffffff82169050919050565b5f6100fd826100d4565b9050919050565b61010d816100f3565b8114610117575f80fd5b50565b5f8151905061012881610104565b92915050565b5f60208284031215610143576101426100d0565b5b5f6101508482850161011a565b91505092915050565b60805161040961017d5f395f8181607601528181609c015261014501526104095ff3fe608060405234801561000f575f80fd5b5060043610610034575f3560e01c80634e575d4b14610038578063679aefce14610056575b5f80fd5b610040610074565b60405161004d9190610265565b60405180910390f35b61005e610098565b60405161006b9190610296565b60405180910390f35b7f000000000000000000000000000000000000000000000000000000000000000081565b5f807f000000000000000000000000000000000000000000000000000000000000000073ffffffffffffffffffffffffffffffffffffffff166318160ddd6040518163ffffffff1660e01b8152600401602060405180830381865afa158015610103573d5f803e3d5ffd5b505050506040513d601f19601f8201168201806040525081019061012791906102dd565b90505f8103610139575f9150506101e8565b80670de0b6b3a76400007f000000000000000000000000000000000000000000000000000000000000000073ffffffffffffffffffffffffffffffffffffffff166301e1d1146040518163ffffffff1660e01b8152600401602060405180830381865afa1580156101ac573d5f803e3d5ffd5b505050506040513d601f19601f820116820180604052508101906101d091906102dd565b6101da9190610335565b6101e491906103a3565b9150505b90565b5f73ffffffffffffffffffffffffffffffffffffffff82169050919050565b5f819050919050565b5f61022d610228610223846101eb565b61020a565b6101eb565b9050919050565b5f61023e82610213565b9050919050565b5f61024f82610234565b9050919050565b61025f81610245565b82525050565b5f6020820190506102785f830184610256565b92915050565b5f819050919050565b6102908161027e565b82525050565b5f6020820190506102a95f830184610287565b92915050565b5f80fd5b6102bc8161027e565b81146102c6575f80fd5b50565b5f815190506102d7816102b3565b92915050565b5f602082840312156102f2576102f16102af565b5b5f6102ff848285016102c9565b91505092915050565b7f4e487b71000000000000000000000000000000000000000000000000000000005f52601160045260245ffd5b5f61033f8261027e565b915061034a8361027e565b92508282026103588161027e565b9150828204841483151761036f5761036e610308565b5b5092915050565b7f4e487b71000000000000000000000000000000000000000000000000000000005f52601260045260245ffd5b5f6103ad8261027e565b91506103b88361027e565b9250826103c8576103c7610376565b5b82820490509291505056fea2646970667358221220fc8501b5e2459e269b9711104e5e604b8b2d96b2247afd383172a0d2829a160464736f6c63430008140033","linkReferences":{}},"methodIdentifiers":{"getRate()":"679aefce","stakedUSDe()":"4e575d4b"},"id":1}