{"abi":[{"type":"function","name":"changeProxyAdmin","inputs":[{"name":"proxy","type":"address","internalType":"contract ITransparentUpgradeableProxy"},{"name":"newAdmin","type":"address","internalType":"address"}],"outputs":[],"stateMutability":"nonpayable"},{"type":"function","name":"getProxyAdmin","inputs":[{"name":"proxy","type":"address","internalType":"contract ITransparentUpgradeableProxy"}],"outputs":[{"name":"","type":"address","internalType":"address"}],"stateMutability":"view"},{"type":"function","name":"getProxyImplementation","inputs":[{"name":"proxy","type":"address","internalType":"contract ITransparentUpgradeableProxy"}],"outputs":[{"name":"","type":"address","internalType":"address"}],"stateMutability":"view"},{"type":"function","name":"owner","inputs":[],"outputs":[{"name":"","type":"address","internalType":"address"}],"stateMutability":"view"},{"type":"function","name":"renounceOwnership","inputs":[],"outputs":[],"stateMutability":"nonpayable"},{"type":"function","name":"transferOwnership","inputs":[{"name":"newOwner","type":"address","internalType":"address"}],"outputs":[],"stateMutability":"nonpayable"},{"type":"function","name":"upgrade","inputs":[{"name":"proxy","type":"address","internalType":"contract ITransparentUpgradeableProxy"},{"name":"implementation","type":"address","internalType":"address"}],"outputs":[],"stateMutability":"nonpayable"},{"type":"function","name":"upgradeAndCall","inputs":[{"name":"proxy","type":"address","internalType":"contract ITransparentUpgradeableProxy"},{"name":"implementation","type":"address","internalType":"address"},{"name":"data","type":"bytes","internalType":"bytes"}],"outputs":[],"stateMutability":"payable"},{"type":"event","name":"OwnershipTransferred","inputs":[{"name":"previousOwner","type":"address","indexed":true,"internalType":"address"},{"name":"newOwner","type":"address","indexed":true,"internalType":"address"}],"anonymous":false}],"bytecode":{"object":"0x608060405234801561000f575f80fd5b5061002c61002161003160201b60201c565b61003860201b60201c565b6100f9565b5f33905090565b5f805f9054906101000a900473ffffffffffffffffffffffffffffffffffffffff169050815f806101000a81548173ffffffffffffffffffffffffffffffffffffffff021916908373ffffffffffffffffffffffffffffffffffffffff1602179055508173ffffffffffffffffffffffffffffffffffffffff168173ffffffffffffffffffffffffffffffffffffffff167f8be0079c531659141344cd1fd0a4f28419497f9722a3daafe3b4186f6b6457e060405160405180910390a35050565b610c5d806101065f395ff3fe60806040526004361061007a575f3560e01c80639623609d1161004d5780639623609d1461012257806399a88ec41461013e578063f2fde38b14610166578063f3b7dead1461018e5761007a565b8063204e1c7a1461007e578063715018a6146100ba5780637eff275e146100d05780638da5cb5b146100f8575b5f80fd5b348015610089575f80fd5b506100a4600480360381019061009f91906106bf565b6101ca565b6040516100b191906106f9565b60405180910390f35b3480156100c5575f80fd5b506100ce610258565b005b3480156100db575f80fd5b506100f660048036038101906100f1919061073c565b61026b565b005b348015610103575f80fd5b5061010c6102dd565b60405161011991906106f9565b60405180910390f35b61013c600480360381019061013791906108b6565b610304565b005b348015610149575f80fd5b50610164600480360381019061015f919061073c565b61037b565b005b348015610171575f80fd5b5061018c60048036038101906101879190610922565b6103ed565b005b348015610199575f80fd5b506101b460048036038101906101af91906106bf565b61046f565b6040516101c191906106f9565b60405180910390f35b5f805f8373ffffffffffffffffffffffffffffffffffffffff166040516101f0906109a1565b5f60405180830381855afa9150503d805f8114610228576040519150601f19603f3d011682016040523d82523d5f602084013e61022d565b606091505b50915091508161023b575f80fd5b8080602001905181019061024f91906109f0565b92505050919050565b6102606104fd565b6102695f61057b565b565b6102736104fd565b8173ffffffffffffffffffffffffffffffffffffffff16638f283970826040518263ffffffff1660e01b81526004016102ac91906106f9565b5f604051808303815f87803b1580156102c3575f80fd5b505af11580156102d5573d5f803e3d5ffd5b505050505050565b5f805f9054906101000a900473ffffffffffffffffffffffffffffffffffffffff16905090565b61030c6104fd565b8273ffffffffffffffffffffffffffffffffffffffff16634f1ef2863484846040518463ffffffff1660e01b8152600401610348929190610a95565b5f604051808303818588803b15801561035f575f80fd5b505af1158015610371573d5f803e3d5ffd5b5050505050505050565b6103836104fd565b8173ffffffffffffffffffffffffffffffffffffffff16633659cfe6826040518263ffffffff1660e01b81526004016103bc91906106f9565b5f604051808303815f87803b1580156103d3575f80fd5b505af11580156103e5573d5f803e3d5ffd5b505050505050565b6103f56104fd565b5f73ffffffffffffffffffffffffffffffffffffffff168173ffffffffffffffffffffffffffffffffffffffff1603610463576040517f08c379a000000000000000000000000000000000000000000000000000000000815260040161045a90610b43565b60405180910390fd5b61046c8161057b565b50565b5f805f8373ffffffffffffffffffffffffffffffffffffffff1660405161049590610bab565b5f60405180830381855afa9150503d805f81146104cd576040519150601f19603f3d011682016040523d82523d5f602084013e6104d2565b606091505b5091509150816104e0575f80fd5b808060200190518101906104f491906109f0565b92505050919050565b61050561063c565b73ffffffffffffffffffffffffffffffffffffffff166105236102dd565b73ffffffffffffffffffffffffffffffffffffffff1614610579576040517f08c379a000000000000000000000000000000000000000000000000000000000815260040161057090610c09565b60405180910390fd5b565b5f805f9054906101000a900473ffffffffffffffffffffffffffffffffffffffff169050815f806101000a81548173ffffffffffffffffffffffffffffffffffffffff021916908373ffffffffffffffffffffffffffffffffffffffff1602179055508173ffffffffffffffffffffffffffffffffffffffff168173ffffffffffffffffffffffffffffffffffffffff167f8be0079c531659141344cd1fd0a4f28419497f9722a3daafe3b4186f6b6457e060405160405180910390a35050565b5f33905090565b5f604051905090565b5f80fd5b5f80fd5b5f73ffffffffffffffffffffffffffffffffffffffff82169050919050565b5f61067d82610654565b9050919050565b5f61068e82610673565b9050919050565b61069e81610684565b81146106a8575f80fd5b50565b5f813590506106b981610695565b92915050565b5f602082840312156106d4576106d361064c565b5b5f6106e1848285016106ab565b91505092915050565b6106f381610673565b82525050565b5f60208201905061070c5f8301846106ea565b92915050565b61071b81610673565b8114610725575f80fd5b50565b5f8135905061073681610712565b92915050565b5f80604083850312156107525761075161064c565b5b5f61075f858286016106ab565b925050602061077085828601610728565b9150509250929050565b5f80fd5b5f80fd5b5f601f19601f8301169050919050565b7f4e487b71000000000000000000000000000000000000000000000000000000005f52604160045260245ffd5b6107c882610782565b810181811067ffffffffffffffff821117156107e7576107e6610792565b5b80604052505050565b5f6107f9610643565b905061080582826107bf565b919050565b5f67ffffffffffffffff82111561082457610823610792565b5b61082d82610782565b9050602081019050919050565b828183375f83830152505050565b5f61085a6108558461080a565b6107f0565b9050828152602081018484840111156108765761087561077e565b5b61088184828561083a565b509392505050565b5f82601f83011261089d5761089c61077a565b5b81356108ad848260208601610848565b91505092915050565b5f805f606084860312156108cd576108cc61064c565b5b5f6108da868287016106ab565b93505060206108eb86828701610728565b925050604084013567ffffffffffffffff81111561090c5761090b610650565b5b61091886828701610889565b9150509250925092565b5f602082840312156109375761093661064c565b5b5f61094484828501610728565b91505092915050565b5f81905092915050565b7f5c60da1b000000000000000000000000000000000000000000000000000000005f82015250565b5f61098b60048361094d565b915061099682610957565b600482019050919050565b5f6109ab8261097f565b9150819050919050565b5f6109bf82610654565b9050919050565b6109cf816109b5565b81146109d9575f80fd5b50565b5f815190506109ea816109c6565b92915050565b5f60208284031215610a0557610a0461064c565b5b5f610a12848285016109dc565b91505092915050565b5f81519050919050565b5f82825260208201905092915050565b5f5b83811015610a52578082015181840152602081019050610a37565b5f8484015250505050565b5f610a6782610a1b565b610a718185610a25565b9350610a81818560208601610a35565b610a8a81610782565b840191505092915050565b5f604082019050610aa85f8301856106ea565b8181036020830152610aba8184610a5d565b90509392505050565b5f82825260208201905092915050565b7f4f776e61626c653a206e6577206f776e657220697320746865207a65726f20615f8201527f6464726573730000000000000000000000000000000000000000000000000000602082015250565b5f610b2d602683610ac3565b9150610b3882610ad3565b604082019050919050565b5f6020820190508181035f830152610b5a81610b21565b9050919050565b7ff851a440000000000000000000000000000000000000000000000000000000005f82015250565b5f610b9560048361094d565b9150610ba082610b61565b600482019050919050565b5f610bb582610b89565b9150819050919050565b7f4f776e61626c653a2063616c6c6572206973206e6f7420746865206f776e65725f82015250565b5f610bf3602083610ac3565b9150610bfe82610bbf565b602082019050919050565b5f6020820190508181035f830152610c2081610be7565b905091905056fea264697066735822122004d44c7e9ab8636336ec02332edbd55b354e4cd1eaccfce12e796fd77b656e3164736f6c63430008140033","linkReferences":{}},"methodIdentifiers":{"changeProxyAdmin(address,address)":"7eff275e","getProxyAdmin(address)":"f3b7dead","getProxyImplementation(address)":"204e1c7a","owner()":"8da5cb5b","renounceOwnership()":"715018a6","transferOwnership(address)":"f2fde38b","upgrade(address,address)":"99a88ec4","upgradeAndCall(address,address,bytes)":"9623609d"},"id":61}