{"abi":[{"type":"constructor","inputs":[{"name":"_asset","type":"address","internalType":"contract IERC20"},{"name":"_initialRewarder","type":"address","internalType":"address"},{"name":"_owner","type":"address","internalType":"address"}],"stateMutability":"nonpayable"},{"type":"function","name":"DEFAULT_ADMIN_ROLE","inputs":[],"outputs":[{"name":"","type":"bytes32","internalType":"bytes32"}],"stateMutability":"view"},{"type":"function","name":"DOMAIN_SEPARATOR","inputs":[],"outputs":[{"name":"","type":"bytes32","internalType":"bytes32"}],"stateMutability":"view"},{"type":"function","name":"acceptAdmin","inputs":[],"outputs":[],"stateMutability":"nonpayable"},{"type":"function","name":"addToBlacklist","inputs":[{"name":"target","type":"address","internalType":"address"},{"name":"isFullBlacklisting","type":"bool","internalType":"bool"}],"outputs":[],"stateMutability":"nonpayable"},{"type":"function","name":"allowance","inputs":[{"name":"owner","type":"address","internalType":"address"},{"name":"spender","type":"address","internalType":"address"}],"outputs":[{"name":"","type":"uint256","internalType":"uint256"}],"stateMutability":"view"},{"type":"function","name":"approve","inputs":[{"name":"spender","type":"address","internalType":"address"},{"name":"amount","type":"uint256","internalType":"uint256"}],"outputs":[{"name":"","type":"bool","internalType":"bool"}],"stateMutability":"nonpayable"},{"type":"function","name":"asset","inputs":[],"outputs":[{"name":"","type":"address","internalType":"address"}],"stateMutability":"view"},{"type":"function","name":"balanceOf","inputs":[{"name":"account","type":"address","internalType":"address"}],"outputs":[{"name":"","type":"uint256","internalType":"uint256"}],"stateMutability":"view"},{"type":"function","name":"convertToAssets","inputs":[{"name":"shares","type":"uint256","internalType":"uint256"}],"outputs":[{"name":"","type":"uint256","internalType":"uint256"}],"stateMutability":"view"},{"type":"function","name":"convertToShares","inputs":[{"name":"assets","type":"uint256","internalType":"uint256"}],"outputs":[{"name":"","type":"uint256","internalType":"uint256"}],"stateMutability":"view"},{"type":"function","name":"decimals","inputs":[],"outputs":[{"name":"","type":"uint8","internalType":"uint8"}],"stateMutability":"pure"},{"type":"function","name":"decreaseAllowance","inputs":[{"name":"spender","type":"address","internalType":"address"},{"name":"subtractedValue","type":"uint256","internalType":"uint256"}],"outputs":[{"name":"","type":"bool","internalType":"bool"}],"stateMutability":"nonpayable"},{"type":"function","name":"deposit","inputs":[{"name":"assets","type":"uint256","internalType":"uint256"},{"name":"receiver","type":"address","internalType":"address"}],"outputs":[{"name":"","type":"uint256","internalType":"uint256"}],"stateMutability":"nonpayable"},{"type":"function","name":"eip712Domain","inputs":[],"outputs":[{"name":"fields","type":"bytes1","internalType":"bytes1"},{"name":"name","type":"string","internalType":"string"},{"name":"version","type":"string","internalType":"string"},{"name":"chainId","type":"uint256","internalType":"uint256"},{"name":"verifyingContract","type":"address","internalType":"address"},{"name":"salt","type":"bytes32","internalType":"bytes32"},{"name":"extensions","type":"uint256[]","internalType":"uint256[]"}],"stateMutability":"view"},{"type":"function","name":"getRoleAdmin","inputs":[{"name":"role","type":"bytes32","internalType":"bytes32"}],"outputs":[{"name":"","type":"bytes32","internalType":"bytes32"}],"stateMutability":"view"},{"type":"function","name":"getUnvestedAmount","inputs":[],"outputs":[{"name":"","type":"uint256","internalType":"uint256"}],"stateMutability":"view"},{"type":"function","name":"grantRole","inputs":[{"name":"role","type":"bytes32","internalType":"bytes32"},{"name":"account","type":"address","internalType":"address"}],"outputs":[],"stateMutability":"nonpayable"},{"type":"function","name":"hasRole","inputs":[{"name":"role","type":"bytes32","internalType":"bytes32"},{"name":"account","type":"address","internalType":"address"}],"outputs":[{"name":"","type":"bool","internalType":"bool"}],"stateMutability":"view"},{"type":"function","name":"increaseAllowance","inputs":[{"name":"spender","type":"address","internalType":"address"},{"name":"addedValue","type":"uint256","internalType":"uint256"}],"outputs":[{"name":"","type":"bool","internalType":"bool"}],"stateMutability":"nonpayable"},{"type":"function","name":"lastDistributionTimestamp","inputs":[],"outputs":[{"name":"","type":"uint256","internalType":"uint256"}],"stateMutability":"view"},{"type":"function","name":"maxDeposit","inputs":[{"name":"","type":"address","internalType":"address"}],"outputs":[{"name":"","type":"uint256","internalType":"uint256"}],"stateMutability":"view"},{"type":"function","name":"maxMint","inputs":[{"name":"","type":"address","internalType":"address"}],"outputs":[{"name":"","type":"uint256","internalType":"uint256"}],"stateMutability":"view"},{"type":"function","name":"maxRedeem","inputs":[{"name":"owner","type":"address","internalType":"address"}],"outputs":[{"name":"","type":"uint256","internalType":"uint256"}],"stateMutability":"view"},{"type":"function","name":"maxWithdraw","inputs":[{"name":"owner","type":"address","internalType":"address"}],"outputs":[{"name":"","type":"uint256","internalType":"uint256"}],"stateMutability":"view"},{"type":"function","name":"mint","inputs":[{"name":"shares","type":"uint256","internalType":"uint256"},{"name":"receiver","type":"address","internalType":"address"}],"outputs":[{"name":"","type":"uint256","internalType":"uint256"}],"stateMutability":"nonpayable"},{"type":"function","name":"name","inputs":[],"outputs":[{"name":"","type":"string","internalType":"string"}],"stateMutability":"view"},{"type":"function","name":"nonces","inputs":[{"name":"owner","type":"address","internalType":"address"}],"outputs":[{"name":"","type":"uint256","internalType":"uint256"}],"stateMutability":"view"},{"type":"function","name":"owner","inputs":[],"outputs":[{"name":"","type":"address","internalType":"address"}],"stateMutability":"view"},{"type":"function","name":"permit","inputs":[{"name":"owner","type":"address","internalType":"address"},{"name":"spender","type":"address","internalType":"address"},{"name":"value","type":"uint256","internalType":"uint256"},{"name":"deadline","type":"uint256","internalType":"uint256"},{"name":"v","type":"uint8","internalType":"uint8"},{"name":"r","type":"bytes32","internalType":"bytes32"},{"name":"s","type":"bytes32","internalType":"bytes32"}],"outputs":[],"stateMutability":"nonpayable"},{"type":"function","name":"previewDeposit","inputs":[{"name":"assets","type":"uint256","internalType":"uint256"}],"outputs":[{"name":"","type":"uint256","internalType":"uint256"}],"stateMutability":"view"},{"type":"function","name":"previewMint","inputs":[{"name":"shares","type":"uint256","internalType":"uint256"}],"outputs":[{"name":"","type":"uint256","internalType":"uint256"}],"stateMutability":"view"},{"type":"function","name":"previewRedeem","inputs":[{"name":"shares","type":"uint256","internalType":"uint256"}],"outputs":[{"name":"","type":"uint256","internalType":"uint256"}],"stateMutability":"view"},{"type":"function","name":"previewWithdraw","inputs":[{"name":"assets","type":"uint256","internalType":"uint256"}],"outputs":[{"name":"","type":"uint256","internalType":"uint256"}],"stateMutability":"view"},{"type":"function","name":"redeem","inputs":[{"name":"shares","type":"uint256","internalType":"uint256"},{"name":"receiver","type":"address","internalType":"address"},{"name":"owner","type":"address","internalType":"address"}],"outputs":[{"name":"","type":"uint256","internalType":"uint256"}],"stateMutability":"nonpayable"},{"type":"function","name":"redistributeLockedAmount","inputs":[{"name":"from","type":"address","internalType":"address"},{"name":"to","type":"address","internalType":"address"}],"outputs":[],"stateMutability":"nonpayable"},{"type":"function","name":"removeFromBlacklist","inputs":[{"name":"target","type":"address","internalType":"address"},{"name":"isFullBlacklisting","type":"bool","internalType":"bool"}],"outputs":[],"stateMutability":"nonpayable"},{"type":"function","name":"renounceRole","inputs":[{"name":"","type":"bytes32","internalType":"bytes32"},{"name":"","type":"address","internalType":"address"}],"outputs":[],"stateMutability":"nonpayable"},{"type":"function","name":"rescueTokens","inputs":[{"name":"token","type":"address","internalType":"address"},{"name":"amount","type":"uint256","internalType":"uint256"},{"name":"to","type":"address","internalType":"address"}],"outputs":[],"stateMutability":"nonpayable"},{"type":"function","name":"revokeRole","inputs":[{"name":"role","type":"bytes32","internalType":"bytes32"},{"name":"account","type":"address","internalType":"address"}],"outputs":[],"stateMutability":"nonpayable"},{"type":"function","name":"supportsInterface","inputs":[{"name":"interfaceId","type":"bytes4","internalType":"bytes4"}],"outputs":[{"name":"","type":"bool","internalType":"bool"}],"stateMutability":"view"},{"type":"function","name":"symbol","inputs":[],"outputs":[{"name":"","type":"string","internalType":"string"}],"stateMutability":"view"},{"type":"function","name":"totalAssets","inputs":[],"outputs":[{"name":"","type":"uint256","internalType":"uint256"}],"stateMutability":"view"},{"type":"function","name":"totalSupply","inputs":[],"outputs":[{"name":"","type":"uint256","internalType":"uint256"}],"stateMutability":"view"},{"type":"function","name":"transfer","inputs":[{"name":"to","type":"address","internalType":"address"},{"name":"amount","type":"uint256","internalType":"uint256"}],"outputs":[{"name":"","type":"bool","internalType":"bool"}],"stateMutability":"nonpayable"},{"type":"function","name":"transferAdmin","inputs":[{"name":"newAdmin","type":"address","internalType":"address"}],"outputs":[],"stateMutability":"nonpayable"},{"type":"function","name":"transferFrom","inputs":[{"name":"from","type":"address","internalType":"address"},{"name":"to","type":"address","internalType":"address"},{"name":"amount","type":"uint256","internalType":"uint256"}],"outputs":[{"name":"","type":"bool","internalType":"bool"}],"stateMutability":"nonpayable"},{"type":"function","name":"transferInRewards","inputs":[{"name":"amount","type":"uint256","internalType":"uint256"}],"outputs":[],"stateMutability":"nonpayable"},{"type":"function","name":"vestingAmount","inputs":[],"outputs":[{"name":"","type":"uint256","internalType":"uint256"}],"stateMutability":"view"},{"type":"function","name":"withdraw","inputs":[{"name":"assets","type":"uint256","internalType":"uint256"},{"name":"receiver","type":"address","internalType":"address"},{"name":"owner","type":"address","internalType":"address"}],"outputs":[{"name":"","type":"uint256","internalType":"uint256"}],"stateMutability":"nonpayable"},{"type":"event","name":"AdminTransferRequested","inputs":[{"name":"oldAdmin","type":"address","indexed":true,"internalType":"address"},{"name":"newAdmin","type":"address","indexed":true,"internalType":"address"}],"anonymous":false},{"type":"event","name":"AdminTransferred","inputs":[{"name":"oldAdmin","type":"address","indexed":true,"internalType":"address"},{"name":"newAdmin","type":"address","indexed":true,"internalType":"address"}],"anonymous":false},{"type":"event","name":"Approval","inputs":[{"name":"owner","type":"address","indexed":true,"internalType":"address"},{"name":"spender","type":"address","indexed":true,"internalType":"address"},{"name":"value","type":"uint256","indexed":false,"internalType":"uint256"}],"anonymous":false},{"type":"event","name":"Deposit","inputs":[{"name":"sender","type":"address","indexed":true,"internalType":"address"},{"name":"owner","type":"address","indexed":true,"internalType":"address"},{"name":"assets","type":"uint256","indexed":false,"internalType":"uint256"},{"name":"shares","type":"uint256","indexed":false,"internalType":"uint256"}],"anonymous":false},{"type":"event","name":"EIP712DomainChanged","inputs":[],"anonymous":false},{"type":"event","name":"LockedAmountRedistributed","inputs":[{"name":"from","type":"address","indexed":true,"internalType":"address"},{"name":"to","type":"address","indexed":true,"internalType":"address"},{"name":"amount","type":"uint256","indexed":false,"internalType":"uint256"}],"anonymous":false},{"type":"event","name":"RewardsReceived","inputs":[{"name":"amount","type":"uint256","indexed":false,"internalType":"uint256"}],"anonymous":false},{"type":"event","name":"RoleAdminChanged","inputs":[{"name":"role","type":"bytes32","indexed":true,"internalType":"bytes32"},{"name":"previousAdminRole","type":"bytes32","indexed":true,"internalType":"bytes32"},{"name":"newAdminRole","type":"bytes32","indexed":true,"internalType":"bytes32"}],"anonymous":false},{"type":"event","name":"RoleGranted","inputs":[{"name":"role","type":"bytes32","indexed":true,"internalType":"bytes32"},{"name":"account","type":"address","indexed":true,"internalType":"address"},{"name":"sender","type":"address","indexed":true,"internalType":"address"}],"anonymous":false},{"type":"event","name":"RoleRevoked","inputs":[{"name":"role","type":"bytes32","indexed":true,"internalType":"bytes32"},{"name":"account","type":"address","indexed":true,"internalType":"address"},{"name":"sender","type":"address","indexed":true,"internalType":"address"}],"anonymous":false},{"type":"event","name":"Transfer","inputs":[{"name":"from","type":"address","indexed":true,"internalType":"address"},{"name":"to","type":"address","indexed":true,"internalType":"address"},{"name":"value","type":"uint256","indexed":false,"internalType":"uint256"}],"anonymous":false},{"type":"event","name":"Withdraw","inputs":[{"name":"sender","type":"address","indexed":true,"internalType":"address"},{"name":"receiver","type":"address","indexed":true,"internalType":"address"},{"name":"owner","type":"address","indexed":true,"internalType":"address"},{"name":"assets","type":"uint256","indexed":false,"internalType":"uint256"},{"name":"shares","type":"uint256","indexed":false,"internalType":"uint256"}],"anonymous":false},{"type":"error","name":"CantBlacklistOwner","inputs":[]},{"type":"error","name":"InvalidAdminChange","inputs":[]},{"type":"error","name":"InvalidAmount","inputs":[]},{"type":"error","name":"InvalidShortString","inputs":[]},{"type":"error","name":"InvalidToken","inputs":[]},{"type":"error","name":"InvalidZeroAddress","inputs":[]},{"type":"error","name":"MinSharesViolation","inputs":[]},{"type":"error","name":"NotPendingAdmin","inputs":[]},{"type":"error","name":"OperationNotAllowed","inputs":[]},{"type":"error","name":"StillVesting","inputs":[]},{"type":"error","name":"StringTooLong","inputs":[{"name":"str","type":"string","internalType":"string"}]}],"bytecode":{"object":"0x6101a060405234801562000011575f80fd5b50604051620067b4380380620067b48339818101604052810190620000379190620009f4565b826040518060400160405280600581526020017f7355534465000000000000000000000000000000000000000000000000000000815250806040518060400160405280600181526020017f31000000000000000000000000000000000000000000000000000000000000008152506040518060400160405280600b81526020017f5374616b656420555344650000000000000000000000000000000000000000008152506040518060400160405280600581526020017f7355534465000000000000000000000000000000000000000000000000000000815250600160038190555081600790816200012a919062000cb1565b5080600890816200013c919062000cb1565b505050620001556009836200038160201b90919060201c565b610120818152505062000173600a826200038160201b90919060201c565b6101408181525050818051906020012060e08181525050808051906020012061010081815250504660a08181525050620001b2620003d660201b60201c565b608081815250503073ffffffffffffffffffffffffffffffffffffffff1660c08173ffffffffffffffffffffffffffffffffffffffff16815250505050505f8062000203836200043260201b60201c565b91509150816200021557601262000217565b805b60ff166101808160ff16815250508273ffffffffffffffffffffffffffffffffffffffff166101608173ffffffffffffffffffffffffffffffffffffffff16815250505050505f73ffffffffffffffffffffffffffffffffffffffff168173ffffffffffffffffffffffffffffffffffffffff161480620002c357505f73ffffffffffffffffffffffffffffffffffffffff168273ffffffffffffffffffffffffffffffffffffffff16145b80620002fa57505f73ffffffffffffffffffffffffffffffffffffffff168373ffffffffffffffffffffffffffffffffffffffff16145b1562000332576040517ff6b2911f00000000000000000000000000000000000000000000000000000000815260040160405180910390fd5b620003647fbeec13769b5f410b0584f69811bfd923818456d5edcf426b0e31cf90eed7a3f6836200056560201b60201c565b620003785f801b826200056560201b60201c565b5050506200102d565b5f602083511015620003a6576200039e836200069a60201b60201c565b9050620003d0565b82620003b8836200070460201b60201c565b5f019081620003c8919062000cb1565b5060ff5f1b90505b92915050565b5f7f8b73c3c69bb8fe3d512ecc4cf759cc79239f7b179b0ffacaa9a75d522b39400f60e0516101005146306040516020016200041795949392919062000dd1565b60405160208183030381529060405280519060200120905090565b5f805f808473ffffffffffffffffffffffffffffffffffffffff1663313ce56760e01b604051602401604051602081830303815290604052907bffffffffffffffffffffffffffffffffffffffffffffffffffffffff19166020820180517bffffffffffffffffffffffffffffffffffffffffffffffffffffffff8381831617835250505050604051620004c7919062000ea0565b5f60405180830381855afa9150503d805f811462000501576040519150601f19603f3d011682016040523d82523d5f602084013e62000506565b606091505b50915091508180156200051b57506020815110155b1562000557575f8180602001905181019062000538919062000ee7565b905060ff8016811162000555576001819450945050505062000560565b505b5f809350935050505b915091565b5f801b820362000684578073ffffffffffffffffffffffffffffffffffffffff1660015f9054906101000a900473ffffffffffffffffffffffffffffffffffffffff1673ffffffffffffffffffffffffffffffffffffffff167ff8ccb027dfcd135e000e9d45e6cc2d662578a8825d4c45b5e32e0adf67e79ec660405160405180910390a36200061f5f801b60015f9054906101000a900473ffffffffffffffffffffffffffffffffffffffff166200070d60201b60201c565b8060015f6101000a81548173ffffffffffffffffffffffffffffffffffffffff021916908373ffffffffffffffffffffffffffffffffffffffff16021790555060025f6101000a81549073ffffffffffffffffffffffffffffffffffffffff02191690555b620006968282620007f860201b60201c565b5050565b5f80829050601f81511115620006e957826040517f305a27a9000000000000000000000000000000000000000000000000000000008152600401620006e0919062000f77565b60405180910390fd5b805181620006f79062000fbe565b5f1c175f1b915050919050565b5f819050919050565b6200071f8282620008e360201b60201c565b15620007f4575f805f8481526020019081526020015f205f015f8373ffffffffffffffffffffffffffffffffffffffff1673ffffffffffffffffffffffffffffffffffffffff1681526020019081526020015f205f6101000a81548160ff021916908315150217905550620007996200094660201b60201c565b73ffffffffffffffffffffffffffffffffffffffff168173ffffffffffffffffffffffffffffffffffffffff16837ff6391f5c32d9c69d2a47ea670b442974b53935d1edc7fd64eb21e047a839171b60405160405180910390a45b5050565b6200080a8282620008e360201b60201c565b620008df5760015f808481526020019081526020015f205f015f8373ffffffffffffffffffffffffffffffffffffffff1673ffffffffffffffffffffffffffffffffffffffff1681526020019081526020015f205f6101000a81548160ff021916908315150217905550620008846200094660201b60201c565b73ffffffffffffffffffffffffffffffffffffffff168173ffffffffffffffffffffffffffffffffffffffff16837f2f8788117e7eff1d82e926ec794901d17c78024a50270940304540a733656f0d60405160405180910390a45b5050565b5f805f8481526020019081526020015f205f015f8373ffffffffffffffffffffffffffffffffffffffff1673ffffffffffffffffffffffffffffffffffffffff1681526020019081526020015f205f9054906101000a900460ff16905092915050565b5f33905090565b5f80fd5b5f73ffffffffffffffffffffffffffffffffffffffff82169050919050565b5f6200097c8262000951565b9050919050565b5f6200098f8262000970565b9050919050565b620009a18162000983565b8114620009ac575f80fd5b50565b5f81519050620009bf8162000996565b92915050565b620009d08162000970565b8114620009db575f80fd5b50565b5f81519050620009ee81620009c5565b92915050565b5f805f6060848603121562000a0e5762000a0d6200094d565b5b5f62000a1d86828701620009af565b935050602062000a3086828701620009de565b925050604062000a4386828701620009de565b9150509250925092565b5f81519050919050565b7f4e487b71000000000000000000000000000000000000000000000000000000005f52604160045260245ffd5b7f4e487b71000000000000000000000000000000000000000000000000000000005f52602260045260245ffd5b5f600282049050600182168062000ac957607f821691505b60208210810362000adf5762000ade62000a84565b5b50919050565b5f819050815f5260205f209050919050565b5f6020601f8301049050919050565b5f82821b905092915050565b5f6008830262000b437fffffffffffffffffffffffffffffffffffffffffffffffffffffffffffffffff8262000b06565b62000b4f868362000b06565b95508019841693508086168417925050509392505050565b5f819050919050565b5f819050919050565b5f62000b9962000b9362000b8d8462000b67565b62000b70565b62000b67565b9050919050565b5f819050919050565b62000bb48362000b79565b62000bcc62000bc38262000ba0565b84845462000b12565b825550505050565b5f90565b62000be262000bd4565b62000bef81848462000ba9565b505050565b5b8181101562000c165762000c0a5f8262000bd8565b60018101905062000bf5565b5050565b601f82111562000c655762000c2f8162000ae5565b62000c3a8462000af7565b8101602085101562000c4a578190505b62000c6262000c598562000af7565b83018262000bf4565b50505b505050565b5f82821c905092915050565b5f62000c875f198460080262000c6a565b1980831691505092915050565b5f62000ca1838362000c76565b9150826002028217905092915050565b62000cbc8262000a4d565b67ffffffffffffffff81111562000cd85762000cd762000a57565b5b62000ce4825462000ab1565b62000cf182828562000c1a565b5f60209050601f83116001811462000d27575f841562000d12578287015190505b62000d1e858262000c94565b86555062000d8d565b601f19841662000d378662000ae5565b5f5b8281101562000d605784890151825560018201915060208501945060208101905062000d39565b8683101562000d80578489015162000d7c601f89168262000c76565b8355505b6001600288020188555050505b505050505050565b5f819050919050565b62000da98162000d95565b82525050565b62000dba8162000b67565b82525050565b62000dcb8162000970565b82525050565b5f60a08201905062000de65f83018862000d9e565b62000df5602083018762000d9e565b62000e04604083018662000d9e565b62000e13606083018562000daf565b62000e22608083018462000dc0565b9695505050505050565b5f81519050919050565b5f81905092915050565b5f5b8381101562000e5f57808201518184015260208101905062000e42565b5f8484015250505050565b5f62000e768262000e2c565b62000e82818562000e36565b935062000e9481856020860162000e40565b80840191505092915050565b5f62000ead828462000e6a565b915081905092915050565b62000ec38162000b67565b811462000ece575f80fd5b50565b5f8151905062000ee18162000eb8565b92915050565b5f6020828403121562000eff5762000efe6200094d565b5b5f62000f0e8482850162000ed1565b91505092915050565b5f82825260208201905092915050565b5f601f19601f8301169050919050565b5f62000f438262000a4d565b62000f4f818562000f17565b935062000f6181856020860162000e40565b62000f6c8162000f27565b840191505092915050565b5f6020820190508181035f83015262000f91818462000f37565b905092915050565b5f819050602082019050919050565b5f62000fb5825162000d95565b80915050919050565b5f62000fca8262000e2c565b8262000fd68462000f99565b905062000fe38162000fa8565b925060208210156200102657620010217fffffffffffffffffffffffffffffffffffffffffffffffffffffffffffffffff8360200360080262000b06565b831692505b5050919050565b60805160a05160c05160e05161010051610120516101405161016051610180516157166200109e5f395f50505f8181610d97015281816130fa015261337901525f6110a801525f61107401525f6130a501525f61308401525f61233e01525f61239401525f6123bd01526157165ff3fe608060405234801561000f575f80fd5b50600436106102b8575f3560e01c806384b0196e11610180578063ba087652116100e7578063d505accf116100a0578063dd62ed3e1161007a578063dd62ed3e14610980578063e7c2a608146109b0578063ef8b30f7146109ce578063f298f42c146109fe576102b8565b8063d505accf14610918578063d547741f14610934578063d905777e14610950576102b8565b8063ba08765214610820578063c336a08414610850578063c63d75b61461086c578063c6e6f5921461089c578063c80ef110146108cc578063ce96cb77146108e8576102b8565b8063a217fddf11610139578063a217fddf14610726578063a457c2d714610744578063a9059cbb14610774578063b37fd190146107a4578063b3d7f6b9146107c0578063b460af94146107f0576102b8565b806384b0196e1461064a5780638da5cb5b1461066e57806391d148541461068c57806394bf804d146106bc57806395d89b41146106ec578063a0776b821461070a576102b8565b80632f2ff15d11610224578063402d267d116101dd578063402d267d1461053e5780634cdad5061461056e5780636e553f651461059e57806370a08231146105ce57806375829def146105fe5780637ecebe001461061a576102b8565b80632f2ff15d1461047c578063313ce567146104985780633644e515146104b657806336568abe146104d457806338d52e0f146104f0578063395093511461050e576102b8565b80630a28a477116102765780630a28a477146103a65780630e18b681146103d657806318160ddd146103e057806320950933146103fe57806323b872dd1461041c578063248a9ca31461044c576102b8565b8062728f76146102bc57806301e1d114146102da57806301ffc9a7146102f857806306fdde031461032857806307a2d13a14610346578063095ea7b314610376575b5f80fd5b6102c4610a1a565b6040516102d19190613c4c565b60405180910390f35b6102e2610a20565b6040516102ef9190613c4c565b60405180910390f35b610312600480360381019061030d9190613cbe565b610ab7565b60405161031f9190613d03565b60405180910390f35b610330610b30565b60405161033d9190613da6565b60405180910390f35b610360600480360381019061035b9190613df0565b610bc0565b60405161036d9190613c4c565b60405180910390f35b610390600480360381019061038b9190613e75565b610bd2565b60405161039d9190613d03565b60405180910390f35b6103c060048036038101906103bb9190613df0565b610bf4565b6040516103cd9190613c4c565b60405180910390f35b6103de610c07565b005b6103e8610c9b565b6040516103f59190613c4c565b60405180910390f35b610406610ca4565b6040516104139190613c4c565b60405180910390f35b61043660048036038101906104319190613eb3565b610caa565b6040516104439190613d03565b60405180910390f35b61046660048036038101906104619190613f36565b610cd8565b6040516104739190613f70565b60405180910390f35b61049660048036038101906104919190613f89565b610cf4565b005b6104a0610d4c565b6040516104ad9190613fe2565b60405180910390f35b6104be610d54565b6040516104cb9190613f70565b60405180910390f35b6104ee60048036038101906104e99190613f89565b610d62565b005b6104f8610d94565b604051610505919061400a565b60405180910390f35b61052860048036038101906105239190613e75565b610dbb565b6040516105359190613d03565b60405180910390f35b61055860048036038101906105539190614023565b610df1565b6040516105659190613c4c565b60405180910390f35b61058860048036038101906105839190613df0565b610e1a565b6040516105959190613c4c565b60405180910390f35b6105b860048036038101906105b3919061404e565b610e2c565b6040516105c59190613c4c565b60405180910390f35b6105e860048036038101906105e39190614023565b610ea1565b6040516105f59190613c4c565b60405180910390f35b61061860048036038101906106139190614023565b610ee7565b005b610634600480360381019061062f9190614023565b611017565b6040516106419190613c4c565b60405180910390f35b610652611064565b604051610665979695949392919061417d565b60405180910390f35b610676611161565b604051610683919061400a565b60405180910390f35b6106a660048036038101906106a19190613f89565b611189565b6040516106b39190613d03565b60405180910390f35b6106d660048036038101906106d1919061404e565b6111ec565b6040516106e39190613c4c565b60405180910390f35b6106f4611261565b6040516107019190613da6565b60405180910390f35b610724600480360381019061071f91906141ff565b6112f1565b005b61072e611480565b60405161073b9190613f70565b60405180910390f35b61075e60048036038101906107599190613e75565b611486565b60405161076b9190613d03565b60405180910390f35b61078e60048036038101906107899190613e75565b6114fb565b60405161079b9190613d03565b60405180910390f35b6107be60048036038101906107b9919061423d565b61151d565b005b6107da60048036038101906107d59190613df0565b6115d6565b6040516107e79190613c4c565b60405180910390f35b61080a6004803603810190610805919061428d565b6115e9565b6040516108179190613c4c565b60405180910390f35b61083a6004803603810190610835919061428d565b611660565b6040516108479190613c4c565b60405180910390f35b61086a60048036038101906108659190614307565b6116d7565b005b61088660048036038101906108819190614023565b611761565b6040516108939190613c4c565b60405180910390f35b6108b660048036038101906108b19190613df0565b61178a565b6040516108c39190613c4c565b60405180910390f35b6108e660048036038101906108e19190613df0565b61179c565b005b61090260048036038101906108fd9190614023565b611889565b60405161090f9190613c4c565b60405180910390f35b610932600480360381019061092d919061436f565b6118a3565b005b61094e60048036038101906109499190613f89565b6119e2565b005b61096a60048036038101906109659190614023565b611a3a565b6040516109779190613c4c565b60405180910390f35b61099a600480360381019061099591906141ff565b611a4b565b6040516109a79190613c4c565b60405180910390f35b6109b8611acd565b6040516109c59190613c4c565b60405180910390f35b6109e860048036038101906109e39190613df0565b611b1c565b6040516109f59190613c4c565b60405180910390f35b610a186004803603810190610a139190614307565b611b2e565b005b600d5481565b5f610a29611acd565b610a31610d94565b73ffffffffffffffffffffffffffffffffffffffff166370a08231306040518263ffffffff1660e01b8152600401610a69919061400a565b602060405180830381865afa158015610a84573d5f803e3d5ffd5b505050506040513d601f19601f82011682018060405250810190610aa89190614420565b610ab29190614478565b905090565b5f7f7965db0b000000000000000000000000000000000000000000000000000000007bffffffffffffffffffffffffffffffffffffffffffffffffffffffff1916827bffffffffffffffffffffffffffffffffffffffffffffffffffffffff19161480610b295750610b2882611c26565b5b9050919050565b606060078054610b3f906144d8565b80601f0160208091040260200160405190810160405280929190818152602001828054610b6b906144d8565b8015610bb65780601f10610b8d57610100808354040283529160200191610bb6565b820191905f5260205f20905b815481529060010190602001808311610b9957829003601f168201915b5050505050905090565b5f610bcb825f611c8f565b9050919050565b5f80610bdc611ce7565b9050610be9818585611cee565b600191505092915050565b5f610c00826001611eb1565b9050919050565b60025f9054906101000a900473ffffffffffffffffffffffffffffffffffffffff1673ffffffffffffffffffffffffffffffffffffffff163373ffffffffffffffffffffffffffffffffffffffff1614610c8d576040517f058d9a1b00000000000000000000000000000000000000000000000000000000815260040160405180910390fd5b610c995f801b33611f09565b565b5f600654905090565b600e5481565b5f80610cb4611ce7565b9050610cc185828561202d565b610ccc8585856120b8565b60019150509392505050565b5f805f8381526020019081526020015f20600101549050919050565b5f801b610d0081612327565b825f801b8103610d3c576040517f6317a0fa00000000000000000000000000000000000000000000000000000000815260040160405180910390fd5b610d468484611f09565b50505050565b5f6012905090565b5f610d5d61233b565b905090565b6040517ff50a3b5200000000000000000000000000000000000000000000000000000000815260040160405180910390fd5b5f7f0000000000000000000000000000000000000000000000000000000000000000905090565b5f80610dc5611ce7565b9050610de6818585610dd78589611a4b565b610de19190614508565b611cee565b600191505092915050565b5f7fffffffffffffffffffffffffffffffffffffffffffffffffffffffffffffffff9050919050565b5f610e25825f611c8f565b9050919050565b5f610e3682610df1565b831115610e78576040517f08c379a0000000000000000000000000000000000000000000000000000000008152600401610e6f90614585565b60405180910390fd5b5f610e8284611b1c565b9050610e97610e8f611ce7565b8486846123f1565b8091505092915050565b5f60045f8373ffffffffffffffffffffffffffffffffffffffff1673ffffffffffffffffffffffffffffffffffffffff1681526020019081526020015f20549050919050565b5f801b610ef381612327565b3373ffffffffffffffffffffffffffffffffffffffff168273ffffffffffffffffffffffffffffffffffffffff1603610f58576040517f6317a0fa00000000000000000000000000000000000000000000000000000000815260040160405180910390fd5b8160025f6101000a81548173ffffffffffffffffffffffffffffffffffffffff021916908373ffffffffffffffffffffffffffffffffffffffff1602179055508173ffffffffffffffffffffffffffffffffffffffff1660015f9054906101000a900473ffffffffffffffffffffffffffffffffffffffff1673ffffffffffffffffffffffffffffffffffffffff167fefdcbba819467e00b0262c12892dda980bac68580b72178e57a162368b80876660405160405180910390a35050565b5f61105d600b5f8473ffffffffffffffffffffffffffffffffffffffff1673ffffffffffffffffffffffffffffffffffffffff1681526020019081526020015f20612523565b9050919050565b5f6060805f805f60606110a160097f000000000000000000000000000000000000000000000000000000000000000061252f90919063ffffffff16565b6110d5600a7f000000000000000000000000000000000000000000000000000000000000000061252f90919063ffffffff16565b46305f801b5f67ffffffffffffffff8111156110f4576110f36145a3565b5b6040519080825280602002602001820160405280156111225781602001602082028036833780820191505090505b507f0f00000000000000000000000000000000000000000000000000000000000000959493929190965096509650965096509650965090919293949596565b5f60015f9054906101000a900473ffffffffffffffffffffffffffffffffffffffff16905090565b5f805f8481526020019081526020015f205f015f8373ffffffffffffffffffffffffffffffffffffffff1673ffffffffffffffffffffffffffffffffffffffff1681526020019081526020015f205f9054906101000a900460ff16905092915050565b5f6111f682611761565b831115611238576040517f08c379a000000000000000000000000000000000000000000000000000000000815260040161122f9061461a565b60405180910390fd5b5f611242846115d6565b905061125761124f611ce7565b8483876123f1565b8091505092915050565b606060088054611270906144d8565b80601f016020809104026020016040519081016040528092919081815260200182805461129c906144d8565b80156112e75780601f106112be576101008083540402835291602001916112e7565b820191905f5260205f20905b8154815290600101906020018083116112ca57829003601f168201915b5050505050905090565b6112f96125dc565b5f801b61130581612327565b61132f7f0a4af4bcc1942295207d9f047442ebdae6170a6e324850f758b14cf99b65c3bd84611189565b801561136257506113607f0a4af4bcc1942295207d9f047442ebdae6170a6e324850f758b14cf99b65c3bd83611189565b155b15611441575f61137184610ea1565b90505f61137d82610e1a565b9050611389858361262b565b5f73ffffffffffffffffffffffffffffffffffffffff168473ffffffffffffffffffffffffffffffffffffffff16036113ca576113c5816127f0565b6113d5565b6113d48483612842565b5b8373ffffffffffffffffffffffffffffffffffffffff168573ffffffffffffffffffffffffffffffffffffffff167fb8ef21f2b52f8ca740012254a6b10f17d2fd6e589f97ebf401fde0e8b9218937846040516114329190613c4c565b60405180910390a35050611473565b6040517ff50a3b5200000000000000000000000000000000000000000000000000000000815260040160405180910390fd5b5061147c612991565b5050565b5f801b81565b5f80611490611ce7565b90505f61149d8286611a4b565b9050838110156114e2576040517f08c379a00000000000000000000000000000000000000000000000000000000081526004016114d9906146a8565b60405180910390fd5b6114ef8286868403611cee565b60019250505092915050565b5f80611505611ce7565b90506115128185856120b8565b600191505092915050565b6115256125dc565b5f801b61153181612327565b611539610d94565b73ffffffffffffffffffffffffffffffffffffffff168473ffffffffffffffffffffffffffffffffffffffff160361159d576040517fc1ab6dc100000000000000000000000000000000000000000000000000000000815260040160405180910390fd5b6115c882848673ffffffffffffffffffffffffffffffffffffffff1661299b9092919063ffffffff16565b506115d1612991565b505050565b5f6115e2826001611c8f565b9050919050565b5f6115f382611889565b841115611635576040517f08c379a000000000000000000000000000000000000000000000000000000000815260040161162c90614710565b60405180910390fd5b5f61163f85610bf4565b905061165561164c611ce7565b85858885612a21565b809150509392505050565b5f61166a82611a3a565b8411156116ac576040517f08c379a00000000000000000000000000000000000000000000000000000000081526004016116a390614778565b60405180910390fd5b5f6116b685610e1a565b90506116cc6116c3611ce7565b85858489612a21565b809150509392505050565b7ff988e4fb62b8e14f4820fed03192306ddf4d7dbfa215595ba1c6ba4b76b369ee61170181612327565b5f8261172d577f8f7080408a06296c6347c87c115ad99669141ae35eae974c12dff8bd01680cb661174f565b7f0a4af4bcc1942295207d9f047442ebdae6170a6e324850f758b14cf99b65c3bd5b905061175b8185612b86565b50505050565b5f7fffffffffffffffffffffffffffffffffffffffffffffffffffffffffffffffff9050919050565b5f611795825f611eb1565b9050919050565b6117a46125dc565b7fbeec13769b5f410b0584f69811bfd923818456d5edcf426b0e31cf90eed7a3f66117ce81612327565b815f8103611808576040517f2c5211c600000000000000000000000000000000000000000000000000000000815260040160405180910390fd5b611811836127f0565b61184533308561181f610d94565b73ffffffffffffffffffffffffffffffffffffffff16612c60909392919063ffffffff16565b7fbb28dd7cd6be6f61828ea9158a04c5182c716a946a6d2f31f4864edb87471aa6836040516118749190613c4c565b60405180910390a15050611886612991565b50565b5f61189c61189683610ea1565b5f611c8f565b9050919050565b834211156118e6576040517f08c379a00000000000000000000000000000000000000000000000000000000081526004016118dd906147e0565b60405180910390fd5b5f7f6e71edae12b1b97f4d1f60370fef10105fa2faae0126114a169c64845d6126c98888886119148c612ce9565b8960405160200161192a969594939291906147fe565b6040516020818303038152906040528051906020012090505f61194c82612d44565b90505f61195b82878787612d5d565b90508973ffffffffffffffffffffffffffffffffffffffff168173ffffffffffffffffffffffffffffffffffffffff16146119cb576040517f08c379a00000000000000000000000000000000000000000000000000000000081526004016119c2906148a7565b60405180910390fd5b6119d68a8a8a611cee565b50505050505050505050565b5f801b6119ee81612327565b825f801b8103611a2a576040517f6317a0fa00000000000000000000000000000000000000000000000000000000815260040160405180910390fd5b611a348484612b86565b50505050565b5f611a4482610ea1565b9050919050565b5f60055f8473ffffffffffffffffffffffffffffffffffffffff1673ffffffffffffffffffffffffffffffffffffffff1681526020019081526020015f205f8373ffffffffffffffffffffffffffffffffffffffff1673ffffffffffffffffffffffffffffffffffffffff1681526020019081526020015f2054905092915050565b5f80600e5442611add9190614478565b90506170808110611af1575f915050611b19565b5f81617080039050617080600d5482611b0a91906148c5565b611b149190614933565b925050505b90565b5f611b27825f611eb1565b9050919050565b7ff988e4fb62b8e14f4820fed03192306ddf4d7dbfa215595ba1c6ba4b76b369ee611b5881612327565b82611b61611161565b73ffffffffffffffffffffffffffffffffffffffff168173ffffffffffffffffffffffffffffffffffffffff1603611bc5576040517ffe7c574000000000000000000000000000000000000000000000000000000000815260040160405180910390fd5b5f83611bf1577f8f7080408a06296c6347c87c115ad99669141ae35eae974c12dff8bd01680cb6611c13565b7f0a4af4bcc1942295207d9f047442ebdae6170a6e324850f758b14cf99b65c3bd5b9050611c1f8186611f09565b5050505050565b5f7f01ffc9a7000000000000000000000000000000000000000000000000000000007bffffffffffffffffffffffffffffffffffffffffffffffffffffffff1916827bffffffffffffffffffffffffffffffffffffffffffffffffffffffff1916149050919050565b5f611cdf6001611c9d610a20565b611ca79190614508565b611caf612d86565b600a611cbb9190614a92565b611cc3610c9b565b611ccd9190614508565b8486612d8a909392919063ffffffff16565b905092915050565b5f33905090565b5f73ffffffffffffffffffffffffffffffffffffffff168373ffffffffffffffffffffffffffffffffffffffff1603611d5c576040517f08c379a0000000000000000000000000000000000000000000000000000000008152600401611d5390614b4c565b60405180910390fd5b5f73ffffffffffffffffffffffffffffffffffffffff168273ffffffffffffffffffffffffffffffffffffffff1603611dca576040517f08c379a0000000000000000000000000000000000000000000000000000000008152600401611dc190614bda565b60405180910390fd5b8060055f8573ffffffffffffffffffffffffffffffffffffffff1673ffffffffffffffffffffffffffffffffffffffff1681526020019081526020015f205f8473ffffffffffffffffffffffffffffffffffffffff1673ffffffffffffffffffffffffffffffffffffffff1681526020019081526020015f20819055508173ffffffffffffffffffffffffffffffffffffffff168373ffffffffffffffffffffffffffffffffffffffff167f8c5be1e5ebec7d5bd14f71427d1e84f3dd0314c0f7b2291e5b200ac8c7c3b92583604051611ea49190613c4c565b60405180910390a3505050565b5f611f01611ebd612d86565b600a611ec99190614a92565b611ed1610c9b565b611edb9190614508565b6001611ee5610a20565b611eef9190614508565b8486612d8a909392919063ffffffff16565b905092915050565b5f801b820361201f578073ffffffffffffffffffffffffffffffffffffffff1660015f9054906101000a900473ffffffffffffffffffffffffffffffffffffffff1673ffffffffffffffffffffffffffffffffffffffff167ff8ccb027dfcd135e000e9d45e6cc2d662578a8825d4c45b5e32e0adf67e79ec660405160405180910390a3611fba5f801b60015f9054906101000a900473ffffffffffffffffffffffffffffffffffffffff16612b86565b8060015f6101000a81548173ffffffffffffffffffffffffffffffffffffffff021916908373ffffffffffffffffffffffffffffffffffffffff16021790555060025f6101000a81549073ffffffffffffffffffffffffffffffffffffffff02191690555b6120298282612dfe565b5050565b5f6120388484611a4b565b90507fffffffffffffffffffffffffffffffffffffffffffffffffffffffffffffffff81146120b257818110156120a4576040517f08c379a000000000000000000000000000000000000000000000000000000000815260040161209b90614c42565b60405180910390fd5b6120b18484848403611cee565b5b50505050565b5f73ffffffffffffffffffffffffffffffffffffffff168373ffffffffffffffffffffffffffffffffffffffff1603612126576040517f08c379a000000000000000000000000000000000000000000000000000000000815260040161211d90614cd0565b60405180910390fd5b5f73ffffffffffffffffffffffffffffffffffffffff168273ffffffffffffffffffffffffffffffffffffffff1603612194576040517f08c379a000000000000000000000000000000000000000000000000000000000815260040161218b90614d5e565b60405180910390fd5b61219f838383612ed8565b5f60045f8573ffffffffffffffffffffffffffffffffffffffff1673ffffffffffffffffffffffffffffffffffffffff1681526020019081526020015f2054905081811015612223576040517f08c379a000000000000000000000000000000000000000000000000000000000815260040161221a90614dec565b60405180910390fd5b81810360045f8673ffffffffffffffffffffffffffffffffffffffff1673ffffffffffffffffffffffffffffffffffffffff1681526020019081526020015f20819055508160045f8573ffffffffffffffffffffffffffffffffffffffff1673ffffffffffffffffffffffffffffffffffffffff1681526020019081526020015f205f82825401925050819055508273ffffffffffffffffffffffffffffffffffffffff168473ffffffffffffffffffffffffffffffffffffffff167fddf252ad1be2c89b69c2b068fc378daa952ba7f163c4a11628f55a4df523b3ef8460405161230e9190613c4c565b60405180910390a3612321848484612fd7565b50505050565b61233881612333611ce7565b612fdc565b50565b5f7f000000000000000000000000000000000000000000000000000000000000000073ffffffffffffffffffffffffffffffffffffffff163073ffffffffffffffffffffffffffffffffffffffff161480156123b657507f000000000000000000000000000000000000000000000000000000000000000046145b156123e3577f000000000000000000000000000000000000000000000000000000000000000090506123ee565b6123eb613060565b90505b90565b6123f96125dc565b815f8103612433576040517f2c5211c600000000000000000000000000000000000000000000000000000000815260040160405180910390fd5b815f810361246d576040517f2c5211c600000000000000000000000000000000000000000000000000000000815260040160405180910390fd5b6124977f8f7080408a06296c6347c87c115ad99669141ae35eae974c12dff8bd01680cb687611189565b806124c857506124c77f8f7080408a06296c6347c87c115ad99669141ae35eae974c12dff8bd01680cb686611189565b5b156124ff576040517ff50a3b5200000000000000000000000000000000000000000000000000000000815260040160405180910390fd5b61250b868686866130f5565b612513613198565b505061251d612991565b50505050565b5f815f01549050919050565b606060ff5f1b831461254b57612544836131f3565b90506125d6565b818054612557906144d8565b80601f0160208091040260200160405190810160405280929190818152602001828054612583906144d8565b80156125ce5780601f106125a5576101008083540402835291602001916125ce565b820191905f5260205f20905b8154815290600101906020018083116125b157829003601f168201915b505050505090505b92915050565b600260035403612621576040517f08c379a000000000000000000000000000000000000000000000000000000000815260040161261890614e54565b60405180910390fd5b6002600381905550565b5f73ffffffffffffffffffffffffffffffffffffffff168273ffffffffffffffffffffffffffffffffffffffff1603612699576040517f08c379a000000000000000000000000000000000000000000000000000000000815260040161269090614ee2565b60405180910390fd5b6126a4825f83612ed8565b5f60045f8473ffffffffffffffffffffffffffffffffffffffff1673ffffffffffffffffffffffffffffffffffffffff1681526020019081526020015f2054905081811015612728576040517f08c379a000000000000000000000000000000000000000000000000000000000815260040161271f90614f70565b60405180910390fd5b81810360045f8573ffffffffffffffffffffffffffffffffffffffff1673ffffffffffffffffffffffffffffffffffffffff1681526020019081526020015f20819055508160065f82825403925050819055505f73ffffffffffffffffffffffffffffffffffffffff168373ffffffffffffffffffffffffffffffffffffffff167fddf252ad1be2c89b69c2b068fc378daa952ba7f163c4a11628f55a4df523b3ef846040516127d89190613c4c565b60405180910390a36127eb835f84612fd7565b505050565b5f6127f9611acd565b1115612831576040517f010133de00000000000000000000000000000000000000000000000000000000815260040160405180910390fd5b80600d8190555042600e8190555050565b5f73ffffffffffffffffffffffffffffffffffffffff168273ffffffffffffffffffffffffffffffffffffffff16036128b0576040517f08c379a00000000000000000000000000000000000000000000000000000000081526004016128a790614fd8565b60405180910390fd5b6128bb5f8383612ed8565b8060065f8282546128cc9190614508565b925050819055508060045f8473ffffffffffffffffffffffffffffffffffffffff1673ffffffffffffffffffffffffffffffffffffffff1681526020019081526020015f205f82825401925050819055508173ffffffffffffffffffffffffffffffffffffffff165f73ffffffffffffffffffffffffffffffffffffffff167fddf252ad1be2c89b69c2b068fc378daa952ba7f163c4a11628f55a4df523b3ef8360405161297a9190613c4c565b60405180910390a361298d5f8383612fd7565b5050565b6001600381905550565b612a1c8363a9059cbb60e01b84846040516024016129ba929190614ff6565b604051602081830303815290604052907bffffffffffffffffffffffffffffffffffffffffffffffffffffffff19166020820180517bffffffffffffffffffffffffffffffffffffffffffffffffffffffff8381831617835250505050613265565b505050565b612a296125dc565b815f8103612a63576040517f2c5211c600000000000000000000000000000000000000000000000000000000815260040160405180910390fd5b815f8103612a9d576040517f2c5211c600000000000000000000000000000000000000000000000000000000815260040160405180910390fd5b612ac77f0a4af4bcc1942295207d9f047442ebdae6170a6e324850f758b14cf99b65c3bd88611189565b80612af85750612af77f0a4af4bcc1942295207d9f047442ebdae6170a6e324850f758b14cf99b65c3bd87611189565b5b80612b295750612b287f0a4af4bcc1942295207d9f047442ebdae6170a6e324850f758b14cf99b65c3bd86611189565b5b15612b60576040517ff50a3b5200000000000000000000000000000000000000000000000000000000815260040160405180910390fd5b612b6d878787878761332b565b612b75613198565b5050612b7f612991565b5050505050565b612b908282611189565b15612c5c575f805f8481526020019081526020015f205f015f8373ffffffffffffffffffffffffffffffffffffffff1673ffffffffffffffffffffffffffffffffffffffff1681526020019081526020015f205f6101000a81548160ff021916908315150217905550612c01611ce7565b73ffffffffffffffffffffffffffffffffffffffff168173ffffffffffffffffffffffffffffffffffffffff16837ff6391f5c32d9c69d2a47ea670b442974b53935d1edc7fd64eb21e047a839171b60405160405180910390a45b5050565b612ce3846323b872dd60e01b858585604051602401612c819392919061501d565b604051602081830303815290604052907bffffffffffffffffffffffffffffffffffffffffffffffffffffffff19166020820180517bffffffffffffffffffffffffffffffffffffffffffffffffffffffff8381831617835250505050613265565b50505050565b5f80600b5f8473ffffffffffffffffffffffffffffffffffffffff1673ffffffffffffffffffffffffffffffffffffffff1681526020019081526020015f209050612d3381612523565b9150612d3e81613424565b50919050565b5f612d56612d5061233b565b83613438565b9050919050565b5f805f612d6c87878787613478565b91509150612d7981613550565b8192505050949350505050565b5f90565b5f80612d978686866136b5565b905060016002811115612dad57612dac615052565b5b836002811115612dc057612dbf615052565b5b148015612ddd57505f8480612dd857612dd7614906565b5b868809115b15612df257600181612def9190614508565b90505b80915050949350505050565b612e088282611189565b612ed45760015f808481526020019081526020015f205f015f8373ffffffffffffffffffffffffffffffffffffffff1673ffffffffffffffffffffffffffffffffffffffff1681526020019081526020015f205f6101000a81548160ff021916908315150217905550612e79611ce7565b73ffffffffffffffffffffffffffffffffffffffff168173ffffffffffffffffffffffffffffffffffffffff16837f2f8788117e7eff1d82e926ec794901d17c78024a50270940304540a733656f0d60405160405180910390a45b5050565b612f027f0a4af4bcc1942295207d9f047442ebdae6170a6e324850f758b14cf99b65c3bd84611189565b8015612f3a57505f73ffffffffffffffffffffffffffffffffffffffff168273ffffffffffffffffffffffffffffffffffffffff1614155b15612f71576040517ff50a3b5200000000000000000000000000000000000000000000000000000000815260040160405180910390fd5b612f9b7f0a4af4bcc1942295207d9f047442ebdae6170a6e324850f758b14cf99b65c3bd83611189565b15612fd2576040517ff50a3b5200000000000000000000000000000000000000000000000000000000815260040160405180910390fd5b505050565b505050565b612fe68282611189565b61305c57612ff3816137bf565b613000835f1c60206137ec565b60405160200161301192919061514d565b6040516020818303038152906040526040517f08c379a00000000000000000000000000000000000000000000000000000000081526004016130539190613da6565b60405180910390fd5b5050565b5f7f8b73c3c69bb8fe3d512ecc4cf759cc79239f7b179b0ffacaa9a75d522b39400f7f00000000000000000000000000000000000000000000000000000000000000007f000000000000000000000000000000000000000000000000000000000000000046306040516020016130da959493929190615186565b60405160208183030381529060405280519060200120905090565b6131217f0000000000000000000000000000000000000000000000000000000000000000853085612c60565b61312b8382612842565b8273ffffffffffffffffffffffffffffffffffffffff168473ffffffffffffffffffffffffffffffffffffffff167fdcbc1c05240f31ff3ad067ef1ee35ce4997762752e3a095284754544f4c709d7848460405161318a9291906151d7565b60405180910390a350505050565b5f6131a1610c9b565b90505f811180156131b95750670de0b6b3a764000081105b156131f0576040517fb4b836aa00000000000000000000000000000000000000000000000000000000815260040160405180910390fd5b50565b60605f6131ff83613a21565b90505f602067ffffffffffffffff81111561321d5761321c6145a3565b5b6040519080825280601f01601f19166020018201604052801561324f5781602001600182028036833780820191505090505b5090508181528360208201528092505050919050565b5f6132c6826040518060400160405280602081526020017f5361666545524332303a206c6f772d6c6576656c2063616c6c206661696c65648152508573ffffffffffffffffffffffffffffffffffffffff16613a6f9092919063ffffffff16565b90505f815114806132e75750808060200190518101906132e69190615212565b5b613326576040517f08c379a000000000000000000000000000000000000000000000000000000000815260040161331d906152ad565b60405180910390fd5b505050565b8273ffffffffffffffffffffffffffffffffffffffff168573ffffffffffffffffffffffffffffffffffffffff161461336a5761336983868361202d565b5b613374838261262b565b61339f7f0000000000000000000000000000000000000000000000000000000000000000858461299b565b8273ffffffffffffffffffffffffffffffffffffffff168473ffffffffffffffffffffffffffffffffffffffff168673ffffffffffffffffffffffffffffffffffffffff167ffbde797d201c681b91056529119e0b02407c7bb96a4a2c75c01fc9667232c8db85856040516134159291906151d7565b60405180910390a45050505050565b6001815f015f828254019250508190555050565b5f6040517f190100000000000000000000000000000000000000000000000000000000000081528360028201528260228201526042812091505092915050565b5f807f7fffffffffffffffffffffffffffffff5d576e7357a4501ddfe92f46681b20a0835f1c11156134b0575f600391509150613547565b5f6001878787876040515f81526020016040526040516134d394939291906152cb565b6020604051602081039080840390855afa1580156134f3573d5f803e3d5ffd5b5050506020604051035190505f73ffffffffffffffffffffffffffffffffffffffff168173ffffffffffffffffffffffffffffffffffffffff160361353f575f60019250925050613547565b805f92509250505b94509492505050565b5f600481111561356357613562615052565b5b81600481111561357657613575615052565b5b03156136b257600160048111156135905761358f615052565b5b8160048111156135a3576135a2615052565b5b036135e3576040517f08c379a00000000000000000000000000000000000000000000000000000000081526004016135da90615358565b60405180910390fd5b600260048111156135f7576135f6615052565b5b81600481111561360a57613609615052565b5b0361364a576040517f08c379a0000000000000000000000000000000000000000000000000000000008152600401613641906153c0565b60405180910390fd5b6003600481111561365e5761365d615052565b5b81600481111561367157613670615052565b5b036136b1576040517f08c379a00000000000000000000000000000000000000000000000000000000081526004016136a89061544e565b60405180910390fd5b5b50565b5f805f80198587098587029250828110838203039150505f81036136ed578382816136e3576136e2614906565b5b04925050506137b8565b80841161372f576040517f08c379a0000000000000000000000000000000000000000000000000000000008152600401613726906154b6565b60405180910390fd5b5f8486880990508281118203915080830392505f60018619018616905080860495508084049350600181825f0304019050808302841793505f600287600302189050808702600203810290508087026002038102905080870260020381029050808702600203810290508087026002038102905080870260020381029050808502955050505050505b9392505050565b60606137e58273ffffffffffffffffffffffffffffffffffffffff16601460ff166137ec565b9050919050565b60605f60028360026137fe91906148c5565b6138089190614508565b67ffffffffffffffff811115613821576138206145a3565b5b6040519080825280601f01601f1916602001820160405280156138535781602001600182028036833780820191505090505b5090507f3000000000000000000000000000000000000000000000000000000000000000815f8151811061388a576138896154d4565b5b60200101907effffffffffffffffffffffffffffffffffffffffffffffffffffffffffffff191690815f1a9053507f7800000000000000000000000000000000000000000000000000000000000000816001815181106138ed576138ec6154d4565b5b60200101907effffffffffffffffffffffffffffffffffffffffffffffffffffffffffffff191690815f1a9053505f600184600261392b91906148c5565b6139359190614508565b90505b60018111156139d4577f3031323334353637383961626364656600000000000000000000000000000000600f861660108110613977576139766154d4565b5b1a60f81b82828151811061398e5761398d6154d4565b5b60200101907effffffffffffffffffffffffffffffffffffffffffffffffffffffffffffff191690815f1a905350600485901c9450806139cd90615501565b9050613938565b505f8414613a17576040517f08c379a0000000000000000000000000000000000000000000000000000000008152600401613a0e90615572565b60405180910390fd5b8091505092915050565b5f8060ff835f1c169050601f811115613a66576040517fb3512b0c00000000000000000000000000000000000000000000000000000000815260040160405180910390fd5b80915050919050565b6060613a7d84845f85613a86565b90509392505050565b606082471015613acb576040517f08c379a0000000000000000000000000000000000000000000000000000000008152600401613ac290615600565b60405180910390fd5b5f808673ffffffffffffffffffffffffffffffffffffffff168587604051613af39190615662565b5f6040518083038185875af1925050503d805f8114613b2d576040519150601f19603f3d011682016040523d82523d5f602084013e613b32565b606091505b5091509150613b4387838387613b4f565b92505050949350505050565b60608315613bb0575f835103613ba857613b6885613bc3565b613ba7576040517f08c379a0000000000000000000000000000000000000000000000000000000008152600401613b9e906156c2565b60405180910390fd5b5b829050613bbb565b613bba8383613be5565b5b949350505050565b5f808273ffffffffffffffffffffffffffffffffffffffff163b119050919050565b5f82511115613bf75781518083602001fd5b806040517f08c379a0000000000000000000000000000000000000000000000000000000008152600401613c2b9190613da6565b60405180910390fd5b5f819050919050565b613c4681613c34565b82525050565b5f602082019050613c5f5f830184613c3d565b92915050565b5f80fd5b5f7fffffffff0000000000000000000000000000000000000000000000000000000082169050919050565b613c9d81613c69565b8114613ca7575f80fd5b50565b5f81359050613cb881613c94565b92915050565b5f60208284031215613cd357613cd2613c65565b5b5f613ce084828501613caa565b91505092915050565b5f8115159050919050565b613cfd81613ce9565b82525050565b5f602082019050613d165f830184613cf4565b92915050565b5f81519050919050565b5f82825260208201905092915050565b5f5b83811015613d53578082015181840152602081019050613d38565b5f8484015250505050565b5f601f19601f8301169050919050565b5f613d7882613d1c565b613d828185613d26565b9350613d92818560208601613d36565b613d9b81613d5e565b840191505092915050565b5f6020820190508181035f830152613dbe8184613d6e565b905092915050565b613dcf81613c34565b8114613dd9575f80fd5b50565b5f81359050613dea81613dc6565b92915050565b5f60208284031215613e0557613e04613c65565b5b5f613e1284828501613ddc565b91505092915050565b5f73ffffffffffffffffffffffffffffffffffffffff82169050919050565b5f613e4482613e1b565b9050919050565b613e5481613e3a565b8114613e5e575f80fd5b50565b5f81359050613e6f81613e4b565b92915050565b5f8060408385031215613e8b57613e8a613c65565b5b5f613e9885828601613e61565b9250506020613ea985828601613ddc565b9150509250929050565b5f805f60608486031215613eca57613ec9613c65565b5b5f613ed786828701613e61565b9350506020613ee886828701613e61565b9250506040613ef986828701613ddc565b9150509250925092565b5f819050919050565b613f1581613f03565b8114613f1f575f80fd5b50565b5f81359050613f3081613f0c565b92915050565b5f60208284031215613f4b57613f4a613c65565b5b5f613f5884828501613f22565b91505092915050565b613f6a81613f03565b82525050565b5f602082019050613f835f830184613f61565b92915050565b5f8060408385031215613f9f57613f9e613c65565b5b5f613fac85828601613f22565b9250506020613fbd85828601613e61565b9150509250929050565b5f60ff82169050919050565b613fdc81613fc7565b82525050565b5f602082019050613ff55f830184613fd3565b92915050565b61400481613e3a565b82525050565b5f60208201905061401d5f830184613ffb565b92915050565b5f6020828403121561403857614037613c65565b5b5f61404584828501613e61565b91505092915050565b5f806040838503121561406457614063613c65565b5b5f61407185828601613ddc565b925050602061408285828601613e61565b9150509250929050565b5f7fff0000000000000000000000000000000000000000000000000000000000000082169050919050565b6140c08161408c565b82525050565b5f81519050919050565b5f82825260208201905092915050565b5f819050602082019050919050565b6140f881613c34565b82525050565b5f61410983836140ef565b60208301905092915050565b5f602082019050919050565b5f61412b826140c6565b61413581856140d0565b9350614140836140e0565b805f5b8381101561417057815161415788826140fe565b975061416283614115565b925050600181019050614143565b5085935050505092915050565b5f60e0820190506141905f83018a6140b7565b81810360208301526141a28189613d6e565b905081810360408301526141b68188613d6e565b90506141c56060830187613c3d565b6141d26080830186613ffb565b6141df60a0830185613f61565b81810360c08301526141f18184614121565b905098975050505050505050565b5f806040838503121561421557614214613c65565b5b5f61422285828601613e61565b925050602061423385828601613e61565b9150509250929050565b5f805f6060848603121561425457614253613c65565b5b5f61426186828701613e61565b935050602061427286828701613ddc565b925050604061428386828701613e61565b9150509250925092565b5f805f606084860312156142a4576142a3613c65565b5b5f6142b186828701613ddc565b93505060206142c286828701613e61565b92505060406142d386828701613e61565b9150509250925092565b6142e681613ce9565b81146142f0575f80fd5b50565b5f81359050614301816142dd565b92915050565b5f806040838503121561431d5761431c613c65565b5b5f61432a85828601613e61565b925050602061433b858286016142f3565b9150509250929050565b61434e81613fc7565b8114614358575f80fd5b50565b5f8135905061436981614345565b92915050565b5f805f805f805f60e0888a03121561438a57614389613c65565b5b5f6143978a828b01613e61565b97505060206143a88a828b01613e61565b96505060406143b98a828b01613ddc565b95505060606143ca8a828b01613ddc565b94505060806143db8a828b0161435b565b93505060a06143ec8a828b01613f22565b92505060c06143fd8a828b01613f22565b91505092959891949750929550565b5f8151905061441a81613dc6565b92915050565b5f6020828403121561443557614434613c65565b5b5f6144428482850161440c565b91505092915050565b7f4e487b71000000000000000000000000000000000000000000000000000000005f52601160045260245ffd5b5f61448282613c34565b915061448d83613c34565b92508282039050818111156144a5576144a461444b565b5b92915050565b7f4e487b71000000000000000000000000000000000000000000000000000000005f52602260045260245ffd5b5f60028204905060018216806144ef57607f821691505b602082108103614502576145016144ab565b5b50919050565b5f61451282613c34565b915061451d83613c34565b92508282019050808211156145355761453461444b565b5b92915050565b7f455243343632363a206465706f736974206d6f7265207468616e206d617800005f82015250565b5f61456f601e83613d26565b915061457a8261453b565b602082019050919050565b5f6020820190508181035f83015261459c81614563565b9050919050565b7f4e487b71000000000000000000000000000000000000000000000000000000005f52604160045260245ffd5b7f455243343632363a206d696e74206d6f7265207468616e206d617800000000005f82015250565b5f614604601b83613d26565b915061460f826145d0565b602082019050919050565b5f6020820190508181035f830152614631816145f8565b9050919050565b7f45524332303a2064656372656173656420616c6c6f77616e63652062656c6f775f8201527f207a65726f000000000000000000000000000000000000000000000000000000602082015250565b5f614692602583613d26565b915061469d82614638565b604082019050919050565b5f6020820190508181035f8301526146bf81614686565b9050919050565b7f455243343632363a207769746864726177206d6f7265207468616e206d6178005f82015250565b5f6146fa601f83613d26565b9150614705826146c6565b602082019050919050565b5f6020820190508181035f830152614727816146ee565b9050919050565b7f455243343632363a2072656465656d206d6f7265207468616e206d61780000005f82015250565b5f614762601d83613d26565b915061476d8261472e565b602082019050919050565b5f6020820190508181035f83015261478f81614756565b9050919050565b7f45524332305065726d69743a206578706972656420646561646c696e650000005f82015250565b5f6147ca601d83613d26565b91506147d582614796565b602082019050919050565b5f6020820190508181035f8301526147f7816147be565b9050919050565b5f60c0820190506148115f830189613f61565b61481e6020830188613ffb565b61482b6040830187613ffb565b6148386060830186613c3d565b6148456080830185613c3d565b61485260a0830184613c3d565b979650505050505050565b7f45524332305065726d69743a20696e76616c6964207369676e617475726500005f82015250565b5f614891601e83613d26565b915061489c8261485d565b602082019050919050565b5f6020820190508181035f8301526148be81614885565b9050919050565b5f6148cf82613c34565b91506148da83613c34565b92508282026148e881613c34565b915082820484148315176148ff576148fe61444b565b5b5092915050565b7f4e487b71000000000000000000000000000000000000000000000000000000005f52601260045260245ffd5b5f61493d82613c34565b915061494883613c34565b92508261495857614957614906565b5b828204905092915050565b5f8160011c9050919050565b5f808291508390505b60018511156149b8578086048111156149945761499361444b565b5b60018516156149a35780820291505b80810290506149b185614963565b9450614978565b94509492505050565b5f826149d05760019050614a8b565b816149dd575f9050614a8b565b81600181146149f357600281146149fd57614a2c565b6001915050614a8b565b60ff841115614a0f57614a0e61444b565b5b8360020a915084821115614a2657614a2561444b565b5b50614a8b565b5060208310610133831016604e8410600b8410161715614a615782820a905083811115614a5c57614a5b61444b565b5b614a8b565b614a6e848484600161496f565b92509050818404811115614a8557614a8461444b565b5b81810290505b9392505050565b5f614a9c82613c34565b9150614aa783613fc7565b9250614ad47fffffffffffffffffffffffffffffffffffffffffffffffffffffffffffffffff84846149c1565b905092915050565b7f45524332303a20617070726f76652066726f6d20746865207a65726f206164645f8201527f7265737300000000000000000000000000000000000000000000000000000000602082015250565b5f614b36602483613d26565b9150614b4182614adc565b604082019050919050565b5f6020820190508181035f830152614b6381614b2a565b9050919050565b7f45524332303a20617070726f766520746f20746865207a65726f2061646472655f8201527f7373000000000000000000000000000000000000000000000000000000000000602082015250565b5f614bc4602283613d26565b9150614bcf82614b6a565b604082019050919050565b5f6020820190508181035f830152614bf181614bb8565b9050919050565b7f45524332303a20696e73756666696369656e7420616c6c6f77616e63650000005f82015250565b5f614c2c601d83613d26565b9150614c3782614bf8565b602082019050919050565b5f6020820190508181035f830152614c5981614c20565b9050919050565b7f45524332303a207472616e736665722066726f6d20746865207a65726f2061645f8201527f6472657373000000000000000000000000000000000000000000000000000000602082015250565b5f614cba602583613d26565b9150614cc582614c60565b604082019050919050565b5f6020820190508181035f830152614ce781614cae565b9050919050565b7f45524332303a207472616e7366657220746f20746865207a65726f20616464725f8201527f6573730000000000000000000000000000000000000000000000000000000000602082015250565b5f614d48602383613d26565b9150614d5382614cee565b604082019050919050565b5f6020820190508181035f830152614d7581614d3c565b9050919050565b7f45524332303a207472616e7366657220616d6f756e74206578636565647320625f8201527f616c616e63650000000000000000000000000000000000000000000000000000602082015250565b5f614dd6602683613d26565b9150614de182614d7c565b604082019050919050565b5f6020820190508181035f830152614e0381614dca565b9050919050565b7f5265656e7472616e637947756172643a207265656e7472616e742063616c6c005f82015250565b5f614e3e601f83613d26565b9150614e4982614e0a565b602082019050919050565b5f6020820190508181035f830152614e6b81614e32565b9050919050565b7f45524332303a206275726e2066726f6d20746865207a65726f206164647265735f8201527f7300000000000000000000000000000000000000000000000000000000000000602082015250565b5f614ecc602183613d26565b9150614ed782614e72565b604082019050919050565b5f6020820190508181035f830152614ef981614ec0565b9050919050565b7f45524332303a206275726e20616d6f756e7420657863656564732062616c616e5f8201527f6365000000000000000000000000000000000000000000000000000000000000602082015250565b5f614f5a602283613d26565b9150614f6582614f00565b604082019050919050565b5f6020820190508181035f830152614f8781614f4e565b9050919050565b7f45524332303a206d696e7420746f20746865207a65726f2061646472657373005f82015250565b5f614fc2601f83613d26565b9150614fcd82614f8e565b602082019050919050565b5f6020820190508181035f830152614fef81614fb6565b9050919050565b5f6040820190506150095f830185613ffb565b6150166020830184613c3d565b9392505050565b5f6060820190506150305f830186613ffb565b61503d6020830185613ffb565b61504a6040830184613c3d565b949350505050565b7f4e487b71000000000000000000000000000000000000000000000000000000005f52602160045260245ffd5b5f81905092915050565b7f416363657373436f6e74726f6c3a206163636f756e74200000000000000000005f82015250565b5f6150bd60178361507f565b91506150c882615089565b601782019050919050565b5f6150dd82613d1c565b6150e7818561507f565b93506150f7818560208601613d36565b80840191505092915050565b7f206973206d697373696e6720726f6c65200000000000000000000000000000005f82015250565b5f61513760118361507f565b915061514282615103565b601182019050919050565b5f615157826150b1565b915061516382856150d3565b915061516e8261512b565b915061517a82846150d3565b91508190509392505050565b5f60a0820190506151995f830188613f61565b6151a66020830187613f61565b6151b36040830186613f61565b6151c06060830185613c3d565b6151cd6080830184613ffb565b9695505050505050565b5f6040820190506151ea5f830185613c3d565b6151f76020830184613c3d565b9392505050565b5f8151905061520c816142dd565b92915050565b5f6020828403121561522757615226613c65565b5b5f615234848285016151fe565b91505092915050565b7f5361666545524332303a204552433230206f7065726174696f6e20646964206e5f8201527f6f74207375636365656400000000000000000000000000000000000000000000602082015250565b5f615297602a83613d26565b91506152a28261523d565b604082019050919050565b5f6020820190508181035f8301526152c48161528b565b9050919050565b5f6080820190506152de5f830187613f61565b6152eb6020830186613fd3565b6152f86040830185613f61565b6153056060830184613f61565b95945050505050565b7f45434453413a20696e76616c6964207369676e617475726500000000000000005f82015250565b5f615342601883613d26565b915061534d8261530e565b602082019050919050565b5f6020820190508181035f83015261536f81615336565b9050919050565b7f45434453413a20696e76616c6964207369676e6174757265206c656e677468005f82015250565b5f6153aa601f83613d26565b91506153b582615376565b602082019050919050565b5f6020820190508181035f8301526153d78161539e565b9050919050565b7f45434453413a20696e76616c6964207369676e6174757265202773272076616c5f8201527f7565000000000000000000000000000000000000000000000000000000000000602082015250565b5f615438602283613d26565b9150615443826153de565b604082019050919050565b5f6020820190508181035f8301526154658161542c565b9050919050565b7f4d6174683a206d756c446976206f766572666c6f7700000000000000000000005f82015250565b5f6154a0601583613d26565b91506154ab8261546c565b602082019050919050565b5f6020820190508181035f8301526154cd81615494565b9050919050565b7f4e487b71000000000000000000000000000000000000000000000000000000005f52603260045260245ffd5b5f61550b82613c34565b91505f820361551d5761551c61444b565b5b600182039050919050565b7f537472696e67733a20686578206c656e67746820696e73756666696369656e745f82015250565b5f61555c602083613d26565b915061556782615528565b602082019050919050565b5f6020820190508181035f83015261558981615550565b9050919050565b7f416464726573733a20696e73756666696369656e742062616c616e636520666f5f8201527f722063616c6c0000000000000000000000000000000000000000000000000000602082015250565b5f6155ea602683613d26565b91506155f582615590565b604082019050919050565b5f6020820190508181035f830152615617816155de565b9050919050565b5f81519050919050565b5f81905092915050565b5f61563c8261561e565b6156468185615628565b9350615656818560208601613d36565b80840191505092915050565b5f61566d8284615632565b915081905092915050565b7f416464726573733a2063616c6c20746f206e6f6e2d636f6e74726163740000005f82015250565b5f6156ac601d83613d26565b91506156b782615678565b602082019050919050565b5f6020820190508181035f8301526156d9816156a0565b905091905056fea2646970667358221220eeb7848bae373b2a61f9431cdfbebdc89892a37bf447efe9e5d9447f762e1b8d64736f6c63430008140033","linkReferences":{}},"methodIdentifiers":{"DEFAULT_ADMIN_ROLE()":"a217fddf","DOMAIN_SEPARATOR()":"3644e515","acceptAdmin()":"0e18b681","addToBlacklist(address,bool)":"f298f42c","allowance(address,address)":"dd62ed3e","approve(address,uint256)":"095ea7b3","asset()":"38d52e0f","balanceOf(address)":"70a08231","convertToAssets(uint256)":"07a2d13a","convertToShares(uint256)":"c6e6f592","decimals()":"313ce567","decreaseAllowance(address,uint256)":"a457c2d7","deposit(uint256,address)":"6e553f65","eip712Domain()":"84b0196e","getRoleAdmin(bytes32)":"248a9ca3","getUnvestedAmount()":"e7c2a608","grantRole(bytes32,address)":"2f2ff15d","hasRole(bytes32,address)":"91d14854","increaseAllowance(address,uint256)":"39509351","lastDistributionTimestamp()":"20950933","maxDeposit(address)":"402d267d","maxMint(address)":"c63d75b6","maxRedeem(address)":"d905777e","maxWithdraw(address)":"ce96cb77","mint(uint256,address)":"94bf804d","name()":"06fdde03","nonces(address)":"7ecebe00","owner()":"8da5cb5b","permit(address,address,uint256,uint256,uint8,bytes32,bytes32)":"d505accf","previewDeposit(uint256)":"ef8b30f7","previewMint(uint256)":"b3d7f6b9","previewRedeem(uint256)":"4cdad506","previewWithdraw(uint256)":"0a28a477","redeem(uint256,address,address)":"ba087652","redistributeLockedAmount(address,address)":"a0776b82","removeFromBlacklist(address,bool)":"c336a084","renounceRole(bytes32,address)":"36568abe","rescueTokens(address,uint256,address)":"b37fd190","revokeRole(bytes32,address)":"d547741f","supportsInterface(bytes4)":"01ffc9a7","symbol()":"95d89b41","totalAssets()":"01e1d114","totalSupply()":"18160ddd","transfer(address,uint256)":"a9059cbb","transferAdmin(address)":"75829def","transferFrom(address,address,uint256)":"23b872dd","transferInRewards(uint256)":"c80ef110","vestingAmount()":"00728f76","withdraw(uint256,address,address)":"b460af94"},"id":5}