{"abi":[{"type":"constructor","inputs":[{"name":"_usde","type":"address","internalType":"contract IUSDe"},{"name":"_weth","type":"address","internalType":"contract IWETH9"},{"name":"_assets","type":"address[]","internalType":"address[]"},{"name":"_custodians","type":"address[]","internalType":"address[]"},{"name":"_admin","type":"address","internalType":"address"},{"name":"_maxMintPerBlock","type":"uint256","internalType":"uint256"},{"name":"_maxRedeemPerBlock","type":"uint256","internalType":"uint256"}],"stateMutability":"nonpayable"},{"type":"receive","stateMutability":"payable"},{"type":"function","name":"DEFAULT_ADMIN_ROLE","inputs":[],"outputs":[{"name":"","type":"bytes32","internalType":"bytes32"}],"stateMutability":"view"},{"type":"function","name":"acceptAdmin","inputs":[],"outputs":[],"stateMutability":"nonpayable"},{"type":"function","name":"addCustodianAddress","inputs":[{"name":"custodian","type":"address","internalType":"address"}],"outputs":[],"stateMutability":"nonpayable"},{"type":"function","name":"addSupportedAsset","inputs":[{"name":"asset","type":"address","internalType":"address"}],"outputs":[],"stateMutability":"nonpayable"},{"type":"function","name":"confirmDelegatedSigner","inputs":[{"name":"_delegatedBy","type":"address","internalType":"address"}],"outputs":[],"stateMutability":"nonpayable"},{"type":"function","name":"delegatedSigner","inputs":[{"name":"","type":"address","internalType":"address"},{"name":"","type":"address","internalType":"address"}],"outputs":[{"name":"","type":"uint8","internalType":"enum IEthenaMinting.DelegatedSignerStatus"}],"stateMutability":"view"},{"type":"function","name":"disableMintRedeem","inputs":[],"outputs":[],"stateMutability":"nonpayable"},{"type":"function","name":"encodeOrder","inputs":[{"name":"order","type":"tuple","internalType":"struct IEthenaMinting.Order","components":[{"name":"order_type","type":"uint8","internalType":"enum IEthenaMinting.OrderType"},{"name":"expiry","type":"uint256","internalType":"uint256"},{"name":"nonce","type":"uint256","internalType":"uint256"},{"name":"benefactor","type":"address","internalType":"address"},{"name":"beneficiary","type":"address","internalType":"address"},{"name":"collateral_asset","type":"address","internalType":"address"},{"name":"collateral_amount","type":"uint256","internalType":"uint256"},{"name":"usde_amount","type":"uint256","internalType":"uint256"}]}],"outputs":[{"name":"","type":"bytes","internalType":"bytes"}],"stateMutability":"pure"},{"type":"function","name":"getDomainSeparator","inputs":[],"outputs":[{"name":"","type":"bytes32","internalType":"bytes32"}],"stateMutability":"view"},{"type":"function","name":"getRoleAdmin","inputs":[{"name":"role","type":"bytes32","internalType":"bytes32"}],"outputs":[{"name":"","type":"bytes32","internalType":"bytes32"}],"stateMutability":"view"},{"type":"function","name":"grantRole","inputs":[{"name":"role","type":"bytes32","internalType":"bytes32"},{"name":"account","type":"address","internalType":"address"}],"outputs":[],"stateMutability":"nonpayable"},{"type":"function","name":"hasRole","inputs":[{"name":"role","type":"bytes32","internalType":"bytes32"},{"name":"account","type":"address","internalType":"address"}],"outputs":[{"name":"","type":"bool","internalType":"bool"}],"stateMutability":"view"},{"type":"function","name":"hashOrder","inputs":[{"name":"order","type":"tuple","internalType":"struct IEthenaMinting.Order","components":[{"name":"order_type","type":"uint8","internalType":"enum IEthenaMinting.OrderType"},{"name":"expiry","type":"uint256","internalType":"uint256"},{"name":"nonce","type":"uint256","internalType":"uint256"},{"name":"benefactor","type":"address","internalType":"address"},{"name":"beneficiary","type":"address","internalType":"address"},{"name":"collateral_asset","type":"address","internalType":"address"},{"name":"collateral_amount","type":"uint256","internalType":"uint256"},{"name":"usde_amount","type":"uint256","internalType":"uint256"}]}],"outputs":[{"name":"","type":"bytes32","internalType":"bytes32"}],"stateMutability":"view"},{"type":"function","name":"isSupportedAsset","inputs":[{"name":"asset","type":"address","internalType":"address"}],"outputs":[{"name":"","type":"bool","internalType":"bool"}],"stateMutability":"view"},{"type":"function","name":"maxMintPerBlock","inputs":[],"outputs":[{"name":"","type":"uint256","internalType":"uint256"}],"stateMutability":"view"},{"type":"function","name":"maxRedeemPerBlock","inputs":[],"outputs":[{"name":"","type":"uint256","internalType":"uint256"}],"stateMutability":"view"},{"type":"function","name":"mint","inputs":[{"name":"order","type":"tuple","internalType":"struct IEthenaMinting.Order","components":[{"name":"order_type","type":"uint8","internalType":"enum IEthenaMinting.OrderType"},{"name":"expiry","type":"uint256","internalType":"uint256"},{"name":"nonce","type":"uint256","internalType":"uint256"},{"name":"benefactor","type":"address","internalType":"address"},{"name":"beneficiary","type":"address","internalType":"address"},{"name":"collateral_asset","type":"address","internalType":"address"},{"name":"collateral_amount","type":"uint256","internalType":"uint256"},{"name":"usde_amount","type":"uint256","internalType":"uint256"}]},{"name":"route","type":"tuple","internalType":"struct IEthenaMinting.Route","components":[{"name":"addresses","type":"address[]","internalType":"address[]"},{"name":"ratios","type":"uint256[]","internalType":"uint256[]"}]},{"name":"signature","type":"tuple","internalType":"struct IEthenaMinting.Signature","components":[{"name":"signature_type","type":"uint8","internalType":"enum IEthenaMinting.SignatureType"},{"name":"signature_bytes","type":"bytes","internalType":"bytes"}]}],"outputs":[],"stateMutability":"nonpayable"},{"type":"function","name":"mintWETH","inputs":[{"name":"order","type":"tuple","internalType":"struct IEthenaMinting.Order","components":[{"name":"order_type","type":"uint8","internalType":"enum IEthenaMinting.OrderType"},{"name":"expiry","type":"uint256","internalType":"uint256"},{"name":"nonce","type":"uint256","internalType":"uint256"},{"name":"benefactor","type":"address","internalType":"address"},{"name":"beneficiary","type":"address","internalType":"address"},{"name":"collateral_asset","type":"address","internalType":"address"},{"name":"collateral_amount","type":"uint256","internalType":"uint256"},{"name":"usde_amount","type":"uint256","internalType":"uint256"}]},{"name":"route","type":"tuple","internalType":"struct IEthenaMinting.Route","components":[{"name":"addresses","type":"address[]","internalType":"address[]"},{"name":"ratios","type":"uint256[]","internalType":"uint256[]"}]},{"name":"signature","type":"tuple","internalType":"struct IEthenaMinting.Signature","components":[{"name":"signature_type","type":"uint8","internalType":"enum IEthenaMinting.SignatureType"},{"name":"signature_bytes","type":"bytes","internalType":"bytes"}]}],"outputs":[],"stateMutability":"nonpayable"},{"type":"function","name":"mintedPerBlock","inputs":[{"name":"","type":"uint256","internalType":"uint256"}],"outputs":[{"name":"","type":"uint256","internalType":"uint256"}],"stateMutability":"view"},{"type":"function","name":"owner","inputs":[],"outputs":[{"name":"","type":"address","internalType":"address"}],"stateMutability":"view"},{"type":"function","name":"redeem","inputs":[{"name":"order","type":"tuple","internalType":"struct IEthenaMinting.Order","components":[{"name":"order_type","type":"uint8","internalType":"enum IEthenaMinting.OrderType"},{"name":"expiry","type":"uint256","internalType":"uint256"},{"name":"nonce","type":"uint256","internalType":"uint256"},{"name":"benefactor","type":"address","internalType":"address"},{"name":"beneficiary","type":"address","internalType":"address"},{"name":"collateral_asset","type":"address","internalType":"address"},{"name":"collateral_amount","type":"uint256","internalType":"uint256"},{"name":"usde_amount","type":"uint256","internalType":"uint256"}]},{"name":"signature","type":"tuple","internalType":"struct IEthenaMinting.Signature","components":[{"name":"signature_type","type":"uint8","internalType":"enum IEthenaMinting.SignatureType"},{"name":"signature_bytes","type":"bytes","internalType":"bytes"}]}],"outputs":[],"stateMutability":"nonpayable"},{"type":"function","name":"redeemedPerBlock","inputs":[{"name":"","type":"uint256","internalType":"uint256"}],"outputs":[{"name":"","type":"uint256","internalType":"uint256"}],"stateMutability":"view"},{"type":"function","name":"removeCollateralManagerRole","inputs":[{"name":"collateralManager","type":"address","internalType":"address"}],"outputs":[],"stateMutability":"nonpayable"},{"type":"function","name":"removeCustodianAddress","inputs":[{"name":"custodian","type":"address","internalType":"address"}],"outputs":[],"stateMutability":"nonpayable"},{"type":"function","name":"removeDelegatedSigner","inputs":[{"name":"_removedSigner","type":"address","internalType":"address"}],"outputs":[],"stateMutability":"nonpayable"},{"type":"function","name":"removeMinterRole","inputs":[{"name":"minter","type":"address","internalType":"address"}],"outputs":[],"stateMutability":"nonpayable"},{"type":"function","name":"removeRedeemerRole","inputs":[{"name":"redeemer","type":"address","internalType":"address"}],"outputs":[],"stateMutability":"nonpayable"},{"type":"function","name":"removeSupportedAsset","inputs":[{"name":"asset","type":"address","internalType":"address"}],"outputs":[],"stateMutability":"nonpayable"},{"type":"function","name":"renounceRole","inputs":[{"name":"role","type":"bytes32","internalType":"bytes32"},{"name":"account","type":"address","internalType":"address"}],"outputs":[],"stateMutability":"nonpayable"},{"type":"function","name":"revokeRole","inputs":[{"name":"role","type":"bytes32","internalType":"bytes32"},{"name":"account","type":"address","internalType":"address"}],"outputs":[],"stateMutability":"nonpayable"},{"type":"function","name":"setDelegatedSigner","inputs":[{"name":"_delegateTo","type":"address","internalType":"address"}],"outputs":[],"stateMutability":"nonpayable"},{"type":"function","name":"setMaxMintPerBlock","inputs":[{"name":"_maxMintPerBlock","type":"uint256","internalType":"uint256"}],"outputs":[],"stateMutability":"nonpayable"},{"type":"function","name":"setMaxRedeemPerBlock","inputs":[{"name":"_maxRedeemPerBlock","type":"uint256","internalType":"uint256"}],"outputs":[],"stateMutability":"nonpayable"},{"type":"function","name":"supportsInterface","inputs":[{"name":"interfaceId","type":"bytes4","internalType":"bytes4"}],"outputs":[{"name":"","type":"bool","internalType":"bool"}],"stateMutability":"view"},{"type":"function","name":"transferAdmin","inputs":[{"name":"newAdmin","type":"address","internalType":"address"}],"outputs":[],"stateMutability":"nonpayable"},{"type":"function","name":"transferToCustody","inputs":[{"name":"wallet","type":"address","internalType":"address"},{"name":"asset","type":"address","internalType":"address"},{"name":"amount","type":"uint256","internalType":"uint256"}],"outputs":[],"stateMutability":"nonpayable"},{"type":"function","name":"usde","inputs":[],"outputs":[{"name":"","type":"address","internalType":"contract IUSDe"}],"stateMutability":"view"},{"type":"function","name":"verifyNonce","inputs":[{"name":"sender","type":"address","internalType":"address"},{"name":"nonce","type":"uint256","internalType":"uint256"}],"outputs":[{"name":"","type":"uint256","internalType":"uint256"},{"name":"","type":"uint256","internalType":"uint256"},{"name":"","type":"uint256","internalType":"uint256"}],"stateMutability":"view"},{"type":"function","name":"verifyOrder","inputs":[{"name":"order","type":"tuple","internalType":"struct IEthenaMinting.Order","components":[{"name":"order_type","type":"uint8","internalType":"enum IEthenaMinting.OrderType"},{"name":"expiry","type":"uint256","internalType":"uint256"},{"name":"nonce","type":"uint256","internalType":"uint256"},{"name":"benefactor","type":"address","internalType":"address"},{"name":"beneficiary","type":"address","internalType":"address"},{"name":"collateral_asset","type":"address","internalType":"address"},{"name":"collateral_amount","type":"uint256","internalType":"uint256"},{"name":"usde_amount","type":"uint256","internalType":"uint256"}]},{"name":"signature","type":"tuple","internalType":"struct IEthenaMinting.Signature","components":[{"name":"signature_type","type":"uint8","internalType":"enum IEthenaMinting.SignatureType"},{"name":"signature_bytes","type":"bytes","internalType":"bytes"}]}],"outputs":[{"name":"taker_order_hash","type":"bytes32","internalType":"bytes32"}],"stateMutability":"view"},{"type":"function","name":"verifyRoute","inputs":[{"name":"route","type":"tuple","internalType":"struct IEthenaMinting.Route","components":[{"name":"addresses","type":"address[]","internalType":"address[]"},{"name":"ratios","type":"uint256[]","internalType":"uint256[]"}]}],"outputs":[{"name":"","type":"bool","internalType":"bool"}],"stateMutability":"view"},{"type":"event","name":"AdminTransferRequested","inputs":[{"name":"oldAdmin","type":"address","indexed":true,"internalType":"address"},{"name":"newAdmin","type":"address","indexed":true,"internalType":"address"}],"anonymous":false},{"type":"event","name":"AdminTransferred","inputs":[{"name":"oldAdmin","type":"address","indexed":true,"internalType":"address"},{"name":"newAdmin","type":"address","indexed":true,"internalType":"address"}],"anonymous":false},{"type":"event","name":"AssetAdded","inputs":[{"name":"asset","type":"address","indexed":true,"internalType":"address"}],"anonymous":false},{"type":"event","name":"AssetRemoved","inputs":[{"name":"asset","type":"address","indexed":true,"internalType":"address"}],"anonymous":false},{"type":"event","name":"CustodianAddressAdded","inputs":[{"name":"custodian","type":"address","indexed":true,"internalType":"address"}],"anonymous":false},{"type":"event","name":"CustodianAddressRemoved","inputs":[{"name":"custodian","type":"address","indexed":true,"internalType":"address"}],"anonymous":false},{"type":"event","name":"CustodyTransfer","inputs":[{"name":"wallet","type":"address","indexed":true,"internalType":"address"},{"name":"asset","type":"address","indexed":true,"internalType":"address"},{"name":"amount","type":"uint256","indexed":false,"internalType":"uint256"}],"anonymous":false},{"type":"event","name":"DelegatedSignerAdded","inputs":[{"name":"signer","type":"address","indexed":true,"internalType":"address"},{"name":"delegator","type":"address","indexed":true,"internalType":"address"}],"anonymous":false},{"type":"event","name":"DelegatedSignerInitiated","inputs":[{"name":"signer","type":"address","indexed":true,"internalType":"address"},{"name":"delegator","type":"address","indexed":true,"internalType":"address"}],"anonymous":false},{"type":"event","name":"DelegatedSignerRemoved","inputs":[{"name":"signer","type":"address","indexed":true,"internalType":"address"},{"name":"delegator","type":"address","indexed":true,"internalType":"address"}],"anonymous":false},{"type":"event","name":"MaxMintPerBlockChanged","inputs":[{"name":"oldMaxMintPerBlock","type":"uint256","indexed":false,"internalType":"uint256"},{"name":"newMaxMintPerBlock","type":"uint256","indexed":false,"internalType":"uint256"}],"anonymous":false},{"type":"event","name":"MaxRedeemPerBlockChanged","inputs":[{"name":"oldMaxRedeemPerBlock","type":"uint256","indexed":false,"internalType":"uint256"},{"name":"newMaxRedeemPerBlock","type":"uint256","indexed":false,"internalType":"uint256"}],"anonymous":false},{"type":"event","name":"Mint","inputs":[{"name":"minter","type":"address","indexed":true,"internalType":"address"},{"name":"benefactor","type":"address","indexed":true,"internalType":"address"},{"name":"beneficiary","type":"address","indexed":true,"internalType":"address"},{"name":"collateral_asset","type":"address","indexed":false,"internalType":"address"},{"name":"collateral_amount","type":"uint256","indexed":false,"internalType":"uint256"},{"name":"usde_amount","type":"uint256","indexed":false,"internalType":"uint256"}],"anonymous":false},{"type":"event","name":"Received","inputs":[{"name":"","type":"address","indexed":false,"internalType":"address"},{"name":"","type":"uint256","indexed":false,"internalType":"uint256"}],"anonymous":false},{"type":"event","name":"Redeem","inputs":[{"name":"redeemer","type":"address","indexed":true,"internalType":"address"},{"name":"benefactor","type":"address","indexed":true,"internalType":"address"},{"name":"beneficiary","type":"address","indexed":true,"internalType":"address"},{"name":"collateral_asset","type":"address","indexed":false,"internalType":"address"},{"name":"collateral_amount","type":"uint256","indexed":false,"internalType":"uint256"},{"name":"usde_amount","type":"uint256","indexed":false,"internalType":"uint256"}],"anonymous":false},{"type":"event","name":"RoleAdminChanged","inputs":[{"name":"role","type":"bytes32","indexed":true,"internalType":"bytes32"},{"name":"previousAdminRole","type":"bytes32","indexed":true,"internalType":"bytes32"},{"name":"newAdminRole","type":"bytes32","indexed":true,"internalType":"bytes32"}],"anonymous":false},{"type":"event","name":"RoleGranted","inputs":[{"name":"role","type":"bytes32","indexed":true,"internalType":"bytes32"},{"name":"account","type":"address","indexed":true,"internalType":"address"},{"name":"sender","type":"address","indexed":true,"internalType":"address"}],"anonymous":false},{"type":"event","name":"RoleRevoked","inputs":[{"name":"role","type":"bytes32","indexed":true,"internalType":"bytes32"},{"name":"account","type":"address","indexed":true,"internalType":"address"},{"name":"sender","type":"address","indexed":true,"internalType":"address"}],"anonymous":false},{"type":"event","name":"USDeSet","inputs":[{"name":"USDe","type":"address","indexed":true,"internalType":"address"}],"anonymous":false},{"type":"error","name":"DelegationNotInitiated","inputs":[]},{"type":"error","name":"InvalidAddress","inputs":[]},{"type":"error","name":"InvalidAdminChange","inputs":[]},{"type":"error","name":"InvalidAmount","inputs":[]},{"type":"error","name":"InvalidAssetAddress","inputs":[]},{"type":"error","name":"InvalidCustodianAddress","inputs":[]},{"type":"error","name":"InvalidNonce","inputs":[]},{"type":"error","name":"InvalidOrder","inputs":[]},{"type":"error","name":"InvalidRoute","inputs":[]},{"type":"error","name":"InvalidSignature","inputs":[]},{"type":"error","name":"InvalidUSDeAddress","inputs":[]},{"type":"error","name":"InvalidZeroAddress","inputs":[]},{"type":"error","name":"MaxMintPerBlockExceeded","inputs":[]},{"type":"error","name":"MaxRedeemPerBlockExceeded","inputs":[]},{"type":"error","name":"NoAssetsProvided","inputs":[]},{"type":"error","name":"NotPendingAdmin","inputs":[]},{"type":"error","name":"SignatureExpired","inputs":[]},{"type":"error","name":"TransferFailed","inputs":[]},{"type":"error","name":"UnsupportedAsset","inputs":[]}],"bytecode":{"object":"0x61010060405234801562000011575f80fd5b5060405162006bed38038062006bed83398181016040528101906200003791906200111a565b60016003819055505f73ffffffffffffffffffffffffffffffffffffffff168773ffffffffffffffffffffffffffffffffffffffff1603620000a5576040517fb2b3c8dc00000000000000000000000000000000000000000000000000000000815260040160405180910390fd5b5f73ffffffffffffffffffffffffffffffffffffffff168673ffffffffffffffffffffffffffffffffffffffff16036200010b576040517ff6b2911f00000000000000000000000000000000000000000000000000000000815260040160405180910390fd5b5f85510362000146576040517fdde4739400000000000000000000000000000000000000000000000000000000815260040160405180910390fd5b5f73ffffffffffffffffffffffffffffffffffffffff168373ffffffffffffffffffffffffffffffffffffffff1603620001ac576040517ff6b2911f00000000000000000000000000000000000000000000000000000000815260040160405180910390fd5b8673ffffffffffffffffffffffffffffffffffffffff1660a08173ffffffffffffffffffffffffffffffffffffffff16815250508573ffffffffffffffffffffffffffffffffffffffff1660808173ffffffffffffffffffffffffffffffffffffffff1681525050620002285f801b336200039060201b60201c565b5f5b85518110156200026e57620002628682815181106200024e576200024d62001206565b5b6020026020010151620004c560201b60201c565b8060010190506200022a565b505f5b8451811015620002b557620002a985828151811062000295576200029462001206565b5b6020026020010151620005df60201b60201c565b80600101905062000271565b50620002c782620006f960201b60201c565b620002d8816200074760201b60201c565b8273ffffffffffffffffffffffffffffffffffffffff163373ffffffffffffffffffffffffffffffffffffffff16146200032157620003205f801b846200039060201b60201c565b5b4660c08181525050620003396200079560201b60201c565b60e081815250508673ffffffffffffffffffffffffffffffffffffffff167f72fb0d31878f6e7247733418a2aeabf201fddda56677167f041e9bb10ffd5c9e60405160405180910390a25050505050505062001603565b5f801b8203620004af578073ffffffffffffffffffffffffffffffffffffffff1660015f9054906101000a900473ffffffffffffffffffffffffffffffffffffffff1673ffffffffffffffffffffffffffffffffffffffff167ff8ccb027dfcd135e000e9d45e6cc2d662578a8825d4c45b5e32e0adf67e79ec660405160405180910390a36200044a5f801b60015f9054906101000a900473ffffffffffffffffffffffffffffffffffffffff166200082c60201b60201c565b8060015f6101000a81548173ffffffffffffffffffffffffffffffffffffffff021916908373ffffffffffffffffffffffffffffffffffffffff16021790555060025f6101000a81549073ffffffffffffffffffffffffffffffffffffffff02191690555b620004c182826200091760201b60201c565b5050565b5f801b620004d98162000a0260201b60201c565b5f73ffffffffffffffffffffffffffffffffffffffff168273ffffffffffffffffffffffffffffffffffffffff16148062000541575060a05173ffffffffffffffffffffffffffffffffffffffff168273ffffffffffffffffffffffffffffffffffffffff16145b806200056057506200055e82600462000a2660201b90919060201c565b155b1562000598576040517f3334921400000000000000000000000000000000000000000000000000000000815260040160405180910390fd5b8173ffffffffffffffffffffffffffffffffffffffff167f0e3c58ebfb2e7465fbb1c32e6b4f40c3c4f5ca77e8218a386aff8617831260d760405160405180910390a25050565b5f801b620005f38162000a0260201b60201c565b5f73ffffffffffffffffffffffffffffffffffffffff168273ffffffffffffffffffffffffffffffffffffffff1614806200065b575060a05173ffffffffffffffffffffffffffffffffffffffff168273ffffffffffffffffffffffffffffffffffffffff16145b806200067a57506200067882600662000a2660201b90919060201c565b155b15620006b2576040517facb80c5e00000000000000000000000000000000000000000000000000000000815260040160405180910390fd5b8173ffffffffffffffffffffffffffffffffffffffff167ffbd30b5bdd51f5de989170dc23d65aac2de0a6099f5d9d200bc5779d883abcd460405160405180910390a25050565b5f600c54905081600c819055507fb4a832eb73ba0066dc45acd0d1f4454cdee155b17bdb1ccbabb428cc39750ad181600c546040516200073b92919062001244565b60405180910390a15050565b5f600d54905081600d819055507f6fd3eacad9328fdc902c323518cfef3a2f6a9da89c40a7b82428adc2370114c381600d546040516200078992919062001244565b60405180910390a15050565b5f7f8b73c3c69bb8fe3d512ecc4cf759cc79239f7b179b0ffacaa9a75d522b39400f7fdfc7060bb2e53279833759ad83d246a6016adac9d59a3fc1c0c23c3d495e137e7fc89efdaa54c0f20c7adf612882df0950f5a951637e0307cdcb4c672f298b8bc64630604051602001620008119594939291906200129a565b60405160208183030381529060405280519060200120905090565b6200083e828262000a5b60201b60201c565b1562000913575f805f8481526020019081526020015f205f015f8373ffffffffffffffffffffffffffffffffffffffff1673ffffffffffffffffffffffffffffffffffffffff1681526020019081526020015f205f6101000a81548160ff021916908315150217905550620008b862000abe60201b60201c565b73ffffffffffffffffffffffffffffffffffffffff168173ffffffffffffffffffffffffffffffffffffffff16837ff6391f5c32d9c69d2a47ea670b442974b53935d1edc7fd64eb21e047a839171b60405160405180910390a45b5050565b62000929828262000a5b60201b60201c565b620009fe5760015f808481526020019081526020015f205f015f8373ffffffffffffffffffffffffffffffffffffffff1673ffffffffffffffffffffffffffffffffffffffff1681526020019081526020015f205f6101000a81548160ff021916908315150217905550620009a362000abe60201b60201c565b73ffffffffffffffffffffffffffffffffffffffff168173ffffffffffffffffffffffffffffffffffffffff16837f2f8788117e7eff1d82e926ec794901d17c78024a50270940304540a733656f0d60405160405180910390a45b5050565b62000a238162000a1762000abe60201b60201c565b62000ac560201b60201c565b50565b5f62000a53835f018373ffffffffffffffffffffffffffffffffffffffff165f1b62000b6660201b60201c565b905092915050565b5f805f8481526020019081526020015f205f015f8373ffffffffffffffffffffffffffffffffffffffff1673ffffffffffffffffffffffffffffffffffffffff1681526020019081526020015f205f9054906101000a900460ff16905092915050565b5f33905090565b62000ad7828262000a5b60201b60201c565b62000b625762000aed8162000bd760201b60201c565b62000b02835f1c602062000c0c60201b60201c565b60405160200162000b1592919062001405565b6040516020818303038152906040526040517f08c379a000000000000000000000000000000000000000000000000000000000815260040162000b59919062001496565b60405180910390fd5b5050565b5f62000b79838362000e6060201b60201c565b62000bcd57825f0182908060018154018082558091505060019003905f5260205f20015f9091909190915055825f0180549050836001015f8481526020019081526020015f20819055506001905062000bd1565b5f90505b92915050565b606062000c058273ffffffffffffffffffffffffffffffffffffffff16601460ff1662000c0c60201b60201c565b9050919050565b60605f600283600262000c209190620014e5565b62000c2c91906200152f565b67ffffffffffffffff81111562000c485762000c4762000f5b565b5b6040519080825280601f01601f19166020018201604052801562000c7b5781602001600182028036833780820191505090505b5090507f3000000000000000000000000000000000000000000000000000000000000000815f8151811062000cb55762000cb462001206565b5b60200101907effffffffffffffffffffffffffffffffffffffffffffffffffffffffffffff191690815f1a9053507f78000000000000000000000000000000000000000000000000000000000000008160018151811062000d1b5762000d1a62001206565b5b60200101907effffffffffffffffffffffffffffffffffffffffffffffffffffffffffffff191690815f1a9053505f600184600262000d5b9190620014e5565b62000d6791906200152f565b90505b600181111562000e10577f3031323334353637383961626364656600000000000000000000000000000000600f86166010811062000dad5762000dac62001206565b5b1a60f81b82828151811062000dc75762000dc662001206565b5b60200101907effffffffffffffffffffffffffffffffffffffffffffffffffffffffffffff191690815f1a905350600485901c94508062000e089062001569565b905062000d6a565b505f841462000e56576040517f08c379a000000000000000000000000000000000000000000000000000000000815260040162000e4d90620015e3565b60405180910390fd5b8091505092915050565b5f80836001015f8481526020019081526020015f20541415905092915050565b5f604051905090565b5f80fd5b5f80fd5b5f73ffffffffffffffffffffffffffffffffffffffff82169050919050565b5f62000ebc8262000e91565b9050919050565b5f62000ecf8262000eb0565b9050919050565b62000ee18162000ec3565b811462000eec575f80fd5b50565b5f8151905062000eff8162000ed6565b92915050565b5f62000f118262000eb0565b9050919050565b62000f238162000f05565b811462000f2e575f80fd5b50565b5f8151905062000f418162000f18565b92915050565b5f80fd5b5f601f19601f8301169050919050565b7f4e487b71000000000000000000000000000000000000000000000000000000005f52604160045260245ffd5b62000f938262000f4b565b810181811067ffffffffffffffff8211171562000fb55762000fb462000f5b565b5b80604052505050565b5f62000fc962000e80565b905062000fd7828262000f88565b919050565b5f67ffffffffffffffff82111562000ff95762000ff862000f5b565b5b602082029050602081019050919050565b5f80fd5b620010198162000eb0565b811462001024575f80fd5b50565b5f8151905062001037816200100e565b92915050565b5f620010536200104d8462000fdc565b62000fbe565b905080838252602082019050602084028301858111156200107957620010786200100a565b5b835b81811015620010a6578062001091888262001027565b8452602084019350506020810190506200107b565b5050509392505050565b5f82601f830112620010c757620010c662000f47565b5b8151620010d98482602086016200103d565b91505092915050565b5f819050919050565b620010f681620010e2565b811462001101575f80fd5b50565b5f815190506200111481620010eb565b92915050565b5f805f805f805f60e0888a03121562001138576200113762000e89565b5b5f620011478a828b0162000eef565b97505060206200115a8a828b0162000f31565b965050604088015167ffffffffffffffff8111156200117e576200117d62000e8d565b5b6200118c8a828b01620010b0565b955050606088015167ffffffffffffffff811115620011b057620011af62000e8d565b5b620011be8a828b01620010b0565b9450506080620011d18a828b0162001027565b93505060a0620011e48a828b0162001104565b92505060c0620011f78a828b0162001104565b91505092959891949750929550565b7f4e487b71000000000000000000000000000000000000000000000000000000005f52603260045260245ffd5b6200123e81620010e2565b82525050565b5f604082019050620012595f83018562001233565b62001268602083018462001233565b9392505050565b5f819050919050565b62001283816200126f565b82525050565b620012948162000eb0565b82525050565b5f60a082019050620012af5f83018862001278565b620012be602083018762001278565b620012cd604083018662001278565b620012dc606083018562001233565b620012eb608083018462001289565b9695505050505050565b5f81905092915050565b7f416363657373436f6e74726f6c3a206163636f756e74200000000000000000005f82015250565b5f62001335601783620012f5565b91506200134282620012ff565b601782019050919050565b5f81519050919050565b5f5b838110156200137657808201518184015260208101905062001359565b5f8484015250505050565b5f6200138d826200134d565b620013998185620012f5565b9350620013ab81856020860162001357565b80840191505092915050565b7f206973206d697373696e6720726f6c65200000000000000000000000000000005f82015250565b5f620013ed601183620012f5565b9150620013fa82620013b7565b601182019050919050565b5f620014118262001327565b91506200141f828562001381565b91506200142c82620013df565b91506200143a828462001381565b91508190509392505050565b5f82825260208201905092915050565b5f62001462826200134d565b6200146e818562001446565b93506200148081856020860162001357565b6200148b8162000f4b565b840191505092915050565b5f6020820190508181035f830152620014b0818462001456565b905092915050565b7f4e487b71000000000000000000000000000000000000000000000000000000005f52601160045260245ffd5b5f620014f182620010e2565b9150620014fe83620010e2565b92508282026200150e81620010e2565b91508282048414831517620015285762001527620014b8565b5b5092915050565b5f6200153b82620010e2565b91506200154883620010e2565b9250828201905080821115620015635762001562620014b8565b5b92915050565b5f6200157582620010e2565b91505f82036200158a5762001589620014b8565b5b600182039050919050565b7f537472696e67733a20686578206c656e67746820696e73756666696369656e745f82015250565b5f620015cb60208362001446565b9150620015d88262001595565b602082019050919050565b5f6020820190508181035f830152620015fc81620015bd565b9050919050565b60805160a05160c05160e05161558c620016615f395f6123e401525f6123bd01525f8181610aab015281816112fc0152818161190501528181611ef1015281816126ff01526128ab01525f81816133d1015261348a015261558c5ff3fe60806040526004361061023e575f3560e01c80638da5cb5b1161012d578063cf9cc766116100aa578063e0f3fc9f1161006e578063e0f3fc9f146108bc578063ed24911d146108e4578063f4ee2a8b1461090e578063f5c42eb31461094c578063fac09e87146109745761027e565b8063cf9cc766146107cc578063d48c03e514610808578063d547741f14610830578063d8369d7514610858578063d8f065bd146108805761027e565b80639cd29136116100f15780639cd29136146106ec578063a217fddf14610714578063b6c780631461073e578063c5ff38bd1461077a578063ccb2676b146107905761027e565b80638da5cb5b146105f857806391d1485414610622578063928907dd1461065e57806395165e8b146106885780639be918e6146106b05761027e565b8063402a8d37116101bb578063538636131161017f578063538636131461052e57806354f1e126146105565780637274c25c1461057e57806375829def146105a6578063844452fa146105ce5761027e565b8063402a8d371461045257806340e492161461048e5780634ba87af9146104b65780634be7a64b146104de578063532c3f82146105065761027e565b80631c46bc6f116102025780631c46bc6f14610362578063248a9ca31461038a5780632ba32991146103c65780632f2ff15d1461040257806336568abe1461042a5761027e565b806301ffc9a7146102825780630e18b681146102be5780630fd761e0146102d4578063157a4028146102fe57806319bfcdec146103265761027e565b3661027e577f88a5966d370b9919b20f3e2c13ff65706f196a4e32cc2c12bf57088f88525874333460405161027492919061426b565b60405180910390a1005b5f80fd5b34801561028d575f80fd5b506102a860048036038101906102a391906142ef565b61099c565b6040516102b59190614334565b60405180910390f35b3480156102c9575f80fd5b506102d2610a15565b005b3480156102df575f80fd5b506102e8610aa9565b6040516102f591906143a8565b60405180910390f35b348015610309575f80fd5b50610324600480360381019061031f91906143eb565b610acd565b005b348015610331575f80fd5b5061034c60048036038101906103479190614439565b610cac565b604051610359919061447d565b60405180910390f35b34801561036d575f80fd5b50610388600480360381019061038391906143eb565b610cd4565b005b348015610395575f80fd5b506103b060048036038101906103ab91906144c0565b610d71565b6040516103bd919061447d565b60405180910390f35b3480156103d1575f80fd5b506103ec60048036038101906103e79190614515565b610d8d565b6040516103f99190614540565b60405180910390f35b34801561040d575f80fd5b5061042860048036038101906104239190614559565b610da2565b005b348015610435575f80fd5b50610450600480360381019061044b9190614559565b610dfa565b005b34801561045d575f80fd5b50610478600480360381019061047391906145b5565b610e45565b604051610485919061447d565b60405180910390f35b348015610499575f80fd5b506104b460048036038101906104af91906143eb565b611120565b005b3480156104c1575f80fd5b506104dc60048036038101906104d791906143eb565b61121c565b005b3480156104e9575f80fd5b5061050460048036038101906104ff91906143eb565b6112b9565b005b348015610511575f80fd5b5061052c600480360381019061052791906143eb565b6113e4565b005b348015610539575f80fd5b50610554600480360381019061054f91906143eb565b61143c565b005b348015610561575f80fd5b5061057c600480360381019061057791906143eb565b611539565b005b348015610589575f80fd5b506105a4600480360381019061059f91906143eb565b611591565b005b3480156105b1575f80fd5b506105cc60048036038101906105c791906143eb565b6115e9565b005b3480156105d9575f80fd5b506105e2611719565b6040516105ef9190614540565b60405180910390f35b348015610603575f80fd5b5061060c61171f565b6040516106199190614611565b60405180910390f35b34801561062d575f80fd5b5061064860048036038101906106439190614559565b611747565b6040516106559190614334565b60405180910390f35b348015610669575f80fd5b506106726117aa565b60405161067f9190614540565b60405180910390f35b348015610693575f80fd5b506106ae60048036038101906106a991906145b5565b6117b0565b005b3480156106bb575f80fd5b506106d660048036038101906106d191906143eb565b611aa0565b6040516106e39190614334565b60405180910390f35b3480156106f7575f80fd5b50610712600480360381019061070d9190614515565b611abc565b005b34801561071f575f80fd5b50610728611ad5565b604051610735919061447d565b60405180910390f35b348015610749575f80fd5b50610764600480360381019061075f9190614515565b611adb565b6040516107719190614540565b60405180910390f35b348015610785575f80fd5b5061078e611af0565b005b34801561079b575f80fd5b506107b660048036038101906107b19190614648565b611b2f565b6040516107c39190614334565b60405180910390f35b3480156107d7575f80fd5b506107f260048036038101906107ed919061468f565b611ce1565b6040516107ff9190614740565b60405180910390f35b348015610813575f80fd5b5061082e60048036038101906108299190614759565b611d0b565b005b34801561083b575f80fd5b5061085660048036038101906108519190614559565b61205a565b005b348015610863575f80fd5b5061087e60048036038101906108799190614515565b6120b2565b005b34801561088b575f80fd5b506108a660048036038101906108a19190614439565b6120cb565b6040516108b3919061486e565b60405180910390f35b3480156108c7575f80fd5b506108e260048036038101906108dd919061488e565b61217b565b005b3480156108ef575f80fd5b506108f86123ba565b604051610905919061447d565b60405180910390f35b348015610919575f80fd5b50610934600480360381019061092f91906148de565b612418565b6040516109439392919061491c565b60405180910390f35b348015610957575f80fd5b50610972600480360381019061096d9190614759565b612519565b005b34801561097f575f80fd5b5061099a600480360381019061099591906143eb565b612868565b005b5f7f7965db0b000000000000000000000000000000000000000000000000000000007bffffffffffffffffffffffffffffffffffffffffffffffffffffffff1916827bffffffffffffffffffffffffffffffffffffffffffffffffffffffff19161480610a0e5750610a0d82612993565b5b9050919050565b60025f9054906101000a900473ffffffffffffffffffffffffffffffffffffffff1673ffffffffffffffffffffffffffffffffffffffff163373ffffffffffffffffffffffffffffffffffffffff1614610a9b576040517f058d9a1b00000000000000000000000000000000000000000000000000000000815260040160405180910390fd5b610aa75f801b336129fc565b565b7f000000000000000000000000000000000000000000000000000000000000000081565b60016002811115610ae157610ae06146cd565b5b600b5f3373ffffffffffffffffffffffffffffffffffffffff1673ffffffffffffffffffffffffffffffffffffffff1681526020019081526020015f205f8373ffffffffffffffffffffffffffffffffffffffff1673ffffffffffffffffffffffffffffffffffffffff1681526020019081526020015f205f9054906101000a900460ff166002811115610b7857610b776146cd565b5b14610baf576040517f7b5afc0c00000000000000000000000000000000000000000000000000000000815260040160405180910390fd5b6002600b5f3373ffffffffffffffffffffffffffffffffffffffff1673ffffffffffffffffffffffffffffffffffffffff1681526020019081526020015f205f8373ffffffffffffffffffffffffffffffffffffffff1673ffffffffffffffffffffffffffffffffffffffff1681526020019081526020015f205f6101000a81548160ff02191690836002811115610c4a57610c496146cd565b5b02179055508073ffffffffffffffffffffffffffffffffffffffff163373ffffffffffffffffffffffffffffffffffffffff167fed6a1f03e365a374bf7e9fe68b09cf74960528af699108cb461241efc5ded90960405160405180910390a350565b5f610ccd610cb86123ba565b610cc1846120cb565b80519060200120612b20565b9050919050565b5f801b610ce081612b60565b610cf4826004612b7490919063ffffffff16565b610d2a576040517f3334921400000000000000000000000000000000000000000000000000000000815260040160405180910390fd5b8173ffffffffffffffffffffffffffffffffffffffff167f37803e2125c48ee96c38ddf04e826daf335b0e1603579040fd275aba6d06b6fc60405160405180910390a25050565b5f805f8381526020019081526020015f20600101549050919050565b6009602052805f5260405f205f915090505481565b5f801b610dae81612b60565b825f801b8103610dea576040517f6317a0fa00000000000000000000000000000000000000000000000000000000815260040160405180910390fd5b610df484846129fc565b50505050565b815f801b8103610e36576040517f6317a0fa00000000000000000000000000000000000000000000000000000000815260040160405180910390fd5b610e408383612ba1565b505050565b5f610e4f83610cac565b90505f610ead82848060200190610e66919061495d565b8080601f0160208091040260200160405190810160405280939291908181526020018383808284375f81840152601f19601f82011690508083019250505050505050612c24565b9050836060016020810190610ec291906143eb565b73ffffffffffffffffffffffffffffffffffffffff168173ffffffffffffffffffffffffffffffffffffffff161480610fb45750600280811115610f0957610f086146cd565b5b600b5f8373ffffffffffffffffffffffffffffffffffffffff1673ffffffffffffffffffffffffffffffffffffffff1681526020019081526020015f205f866060016020810190610f5a91906143eb565b73ffffffffffffffffffffffffffffffffffffffff1673ffffffffffffffffffffffffffffffffffffffff1681526020019081526020015f205f9054906101000a900460ff166002811115610fb257610fb16146cd565b5b145b610fea576040517f8baa579f00000000000000000000000000000000000000000000000000000000815260040160405180910390fd5b5f73ffffffffffffffffffffffffffffffffffffffff1684608001602081019061101491906143eb565b73ffffffffffffffffffffffffffffffffffffffff1603611061576040517fe6c4247b00000000000000000000000000000000000000000000000000000000815260040160405180910390fd5b5f8460c001350361109e576040517f2c5211c600000000000000000000000000000000000000000000000000000000815260040160405180910390fd5b5f8460e00135036110db576040517f2c5211c600000000000000000000000000000000000000000000000000000000815260040160405180910390fd5b8360200135421115611119576040517f0819bdcd00000000000000000000000000000000000000000000000000000000815260040160405180910390fd5b5092915050565b5f600b5f8373ffffffffffffffffffffffffffffffffffffffff1673ffffffffffffffffffffffffffffffffffffffff1681526020019081526020015f205f3373ffffffffffffffffffffffffffffffffffffffff1673ffffffffffffffffffffffffffffffffffffffff1681526020019081526020015f205f6101000a81548160ff021916908360028111156111ba576111b96146cd565b5b02179055503373ffffffffffffffffffffffffffffffffffffffff168173ffffffffffffffffffffffffffffffffffffffff167f97b59d736dc70ae61c6b68295c19a1311cc4a48cbb9eb25c4dabf18c7f650a8a60405160405180910390a350565b5f801b61122881612b60565b61123c826006612b7490919063ffffffff16565b611272576040517facb80c5e00000000000000000000000000000000000000000000000000000000815260040160405180910390fd5b8173ffffffffffffffffffffffffffffffffffffffff167f75567811df62a6b68bd5ee394d5808ad7282e19541858be466bc789cad9d4dfb60405160405180910390a25050565b5f801b6112c581612b60565b5f73ffffffffffffffffffffffffffffffffffffffff168273ffffffffffffffffffffffffffffffffffffffff16148061134a57507f000000000000000000000000000000000000000000000000000000000000000073ffffffffffffffffffffffffffffffffffffffff168273ffffffffffffffffffffffffffffffffffffffff16145b806113665750611364826006612c4990919063ffffffff16565b155b1561139d576040517facb80c5e00000000000000000000000000000000000000000000000000000000815260040160405180910390fd5b8173ffffffffffffffffffffffffffffffffffffffff167ffbd30b5bdd51f5de989170dc23d65aac2de0a6099f5d9d200bc5779d883abcd460405160405180910390a25050565b7f3c63e605be3290ab6b04cfc46c6e1516e626d43236b034f09d7ede1d017beb0c61140e81612b60565b6114387f44ac9762eec3a11893fefb11d028bb3102560094137c3ed4518712475b2577cc83612c76565b5050565b6001600b5f8373ffffffffffffffffffffffffffffffffffffffff1673ffffffffffffffffffffffffffffffffffffffff1681526020019081526020015f205f3373ffffffffffffffffffffffffffffffffffffffff1673ffffffffffffffffffffffffffffffffffffffff1681526020019081526020015f205f6101000a81548160ff021916908360028111156114d7576114d66146cd565b5b02179055503373ffffffffffffffffffffffffffffffffffffffff168173ffffffffffffffffffffffffffffffffffffffff167f769c75d94dacde64c18415b5a72f6d26e7f62b356387f8da812c4b0aa66a0f2560405160405180910390a350565b7f3c63e605be3290ab6b04cfc46c6e1516e626d43236b034f09d7ede1d017beb0c61156381612b60565b61158d7f9f2df0fed2c77648de5860a4cc508cd0818c85b8b8a1ab4ceeef8d981c8956a683612c76565b5050565b7f3c63e605be3290ab6b04cfc46c6e1516e626d43236b034f09d7ede1d017beb0c6115bb81612b60565b6115e57f85e8f2d6819d6b24108062d87ea08f54651bcb8960d98062d3faf96e7873b8b983612c76565b5050565b5f801b6115f581612b60565b3373ffffffffffffffffffffffffffffffffffffffff168273ffffffffffffffffffffffffffffffffffffffff160361165a576040517f6317a0fa00000000000000000000000000000000000000000000000000000000815260040160405180910390fd5b8160025f6101000a81548173ffffffffffffffffffffffffffffffffffffffff021916908373ffffffffffffffffffffffffffffffffffffffff1602179055508173ffffffffffffffffffffffffffffffffffffffff1660015f9054906101000a900473ffffffffffffffffffffffffffffffffffffffff1673ffffffffffffffffffffffffffffffffffffffff167fefdcbba819467e00b0262c12892dda980bac68580b72178e57a162368b80876660405160405180910390a35050565b600d5481565b5f60015f9054906101000a900473ffffffffffffffffffffffffffffffffffffffff16905090565b5f805f8481526020019081526020015f205f015f8373ffffffffffffffffffffffffffffffffffffffff1673ffffffffffffffffffffffffffffffffffffffff1681526020019081526020015f205f9054906101000a900460ff16905092915050565b600c5481565b6117b8612d50565b7f44ac9762eec3a11893fefb11d028bb3102560094137c3ed4518712475b2577cc6117e281612b60565b8260e00135600d5481600a5f4381526020019081526020015f205461180791906149ec565b111561183f576040517f4d4ea7ce00000000000000000000000000000000000000000000000000000000815260040160405180910390fd5b600180811115611852576118516146cd565b5b845f0160208101906118649190614a42565b6001811115611876576118756146cd565b5b146118ad576040517faf61069300000000000000000000000000000000000000000000000000000000815260040160405180910390fd5b6118b78484610e45565b506118d88460600160208101906118ce91906143eb565b8560400135612d9f565b8360e00135600a5f4381526020019081526020015f205f8282546118fc91906149ec565b925050819055507f000000000000000000000000000000000000000000000000000000000000000073ffffffffffffffffffffffffffffffffffffffff166379cc679085606001602081019061195291906143eb565b8660e001356040518363ffffffff1660e01b815260040161197492919061426b565b5f604051808303815f87803b15801561198b575f80fd5b505af115801561199d573d5f803e3d5ffd5b505050506119d48460800160208101906119b791906143eb565b8560a00160208101906119ca91906143eb565b8660c00135612e0c565b8360800160208101906119e791906143eb565b73ffffffffffffffffffffffffffffffffffffffff16846060016020810190611a1091906143eb565b73ffffffffffffffffffffffffffffffffffffffff163373ffffffffffffffffffffffffffffffffffffffff167f18fd144d7dbcbaa6f00fd47a84adc7dc3cc64a326ffa2dc7691a25e3837dba038760a0016020810190611a7191906143eb565b8860c001358960e00135604051611a8a93929190614a6d565b60405180910390a45050611a9c612fad565b5050565b5f611ab5826004612fb790919063ffffffff16565b9050919050565b5f801b611ac881612b60565b611ad182612fe4565b5050565b5f801b81565b600a602052805f5260405f205f915090505481565b7f3c63e605be3290ab6b04cfc46c6e1516e626d43236b034f09d7ede1d017beb0c611b1a81612b60565b611b235f612fe4565b611b2c5f613030565b50565b5f805f9050828060200190611b449190614aa2565b905083805f0190611b559190614b04565b905014611b65575f915050611cdc565b5f83805f0190611b759190614b04565b905003611b85575f915050611cdc565b5f5b83805f0190611b969190614b04565b9050811015611cd257611be784805f0190611bb19190614b04565b83818110611bc257611bc1614b66565b5b9050602002016020810190611bd791906143eb565b6006612fb790919063ffffffff16565b1580611c5257505f73ffffffffffffffffffffffffffffffffffffffff1684805f0190611c149190614b04565b83818110611c2557611c24614b66565b5b9050602002016020810190611c3a91906143eb565b73ffffffffffffffffffffffffffffffffffffffff16145b80611c8357505f848060200190611c699190614aa2565b83818110611c7a57611c79614b66565b5b90506020020135145b15611c92575f92505050611cdc565b838060200190611ca29190614aa2565b82818110611cb357611cb2614b66565b5b9050602002013582611cc591906149ec565b9150806001019050611b87565b5061271081149150505b919050565b600b602052815f5260405f20602052805f5260405f205f915091509054906101000a900460ff1681565b611d13612d50565b7f9f2df0fed2c77648de5860a4cc508cd0818c85b8b8a1ab4ceeef8d981c8956a6611d3d81612b60565b8360e00135600c548160095f4381526020019081526020015f2054611d6291906149ec565b1115611d9a576040517f0fbf0bc900000000000000000000000000000000000000000000000000000000815260040160405180910390fd5b5f6001811115611dad57611dac6146cd565b5b855f016020810190611dbf9190614a42565b6001811115611dd157611dd06146cd565b5b14611e08576040517faf61069300000000000000000000000000000000000000000000000000000000815260040160405180910390fd5b611e128584610e45565b50611e1c84611b2f565b611e52576040517f84e505d200000000000000000000000000000000000000000000000000000000815260040160405180910390fd5b611e72856060016020810190611e6891906143eb565b8660400135612d9f565b8460e0013560095f4381526020019081526020015f205f828254611e9691906149ec565b92505081905550611eef8560c001358660a0016020810190611eb891906143eb565b876060016020810190611ecb91906143eb565b87805f0190611eda9190614b04565b898060200190611eea9190614aa2565b61307c565b7f000000000000000000000000000000000000000000000000000000000000000073ffffffffffffffffffffffffffffffffffffffff166340c10f19866080016020810190611f3e91906143eb565b8760e001356040518363ffffffff1660e01b8152600401611f6092919061426b565b5f604051808303815f87803b158015611f77575f80fd5b505af1158015611f89573d5f803e3d5ffd5b50505050846080016020810190611fa091906143eb565b73ffffffffffffffffffffffffffffffffffffffff16856060016020810190611fc991906143eb565b73ffffffffffffffffffffffffffffffffffffffff163373ffffffffffffffffffffffffffffffffffffffff167ff114ca9eb82947af39f957fa726280fd3d5d81c3d7635a4aeb5c302962856eba8860a001602081019061202a91906143eb565b8960c001358a60e0013560405161204393929190614a6d565b60405180910390a45050612055612fad565b505050565b5f801b61206681612b60565b825f801b81036120a2576040517f6317a0fa00000000000000000000000000000000000000000000000000000000815260040160405180910390fd5b6120ac8484612c76565b50505050565b5f801b6120be81612b60565b6120c782613030565b5050565b60607fadd81430b566ae2d49ebbbd6d0bbf5717dd8781caa842362ba2b8bf25c0288b5825f0160208101906121009190614a42565b8360200135846040013585606001602081019061211d91906143eb565b86608001602081019061213091906143eb565b8760a001602081019061214391906143eb565b8860c001358960e0013560405160200161216599989796959493929190614bd9565b6040516020818303038152906040529050919050565b612183612d50565b7f85e8f2d6819d6b24108062d87ea08f54651bcb8960d98062d3faf96e7873b8b96121ad81612b60565b5f73ffffffffffffffffffffffffffffffffffffffff168473ffffffffffffffffffffffffffffffffffffffff1614806121f857506121f6846006612fb790919063ffffffff16565b155b1561222f576040517fe6c4247b00000000000000000000000000000000000000000000000000000000815260040160405180910390fd5b73eeeeeeeeeeeeeeeeeeeeeeeeeeeeeeeeeeeeeeee73ffffffffffffffffffffffffffffffffffffffff168373ffffffffffffffffffffffffffffffffffffffff160361231b575f8473ffffffffffffffffffffffffffffffffffffffff168360405161229b90614c91565b5f6040518083038185875af1925050503d805f81146122d5576040519150601f19603f3d011682016040523d82523d5f602084013e6122da565b606091505b5050905080612315576040517f90b8ec1800000000000000000000000000000000000000000000000000000000815260040160405180910390fd5b50612347565b61234684838573ffffffffffffffffffffffffffffffffffffffff1661324f9092919063ffffffff16565b5b8273ffffffffffffffffffffffffffffffffffffffff168473ffffffffffffffffffffffffffffffffffffffff167f90c5d8794dcf7c60ab2d20912d5228389b28f74d32af01e40894a784a90b9ac2846040516123a49190614540565b60405180910390a3506123b5612fad565b505050565b5f7f0000000000000000000000000000000000000000000000000000000000000000460361240a577f00000000000000000000000000000000000000000000000000000000000000009050612415565b6124126132d5565b90505b90565b5f805f808403612454576040517f756688fe00000000000000000000000000000000000000000000000000000000815260040160405180910390fd5b5f60088567ffffffffffffffff16901c67ffffffffffffffff1690505f8560ff166001901b90505f60085f8973ffffffffffffffffffffffffffffffffffffffff1673ffffffffffffffffffffffffffffffffffffffff1681526020019081526020015f205f8481526020019081526020015f205490505f82821614612506576040517f756688fe00000000000000000000000000000000000000000000000000000000815260040160405180910390fd5b8281839550955095505050509250925092565b612521612d50565b7f9f2df0fed2c77648de5860a4cc508cd0818c85b8b8a1ab4ceeef8d981c8956a661254b81612b60565b8360e00135600c548160095f4381526020019081526020015f205461257091906149ec565b11156125a8576040517f0fbf0bc900000000000000000000000000000000000000000000000000000000815260040160405180910390fd5b5f60018111156125bb576125ba6146cd565b5b855f0160208101906125cd9190614a42565b60018111156125df576125de6146cd565b5b14612616576040517faf61069300000000000000000000000000000000000000000000000000000000815260040160405180910390fd5b6126208584610e45565b5061262a84611b2f565b612660576040517f84e505d200000000000000000000000000000000000000000000000000000000815260040160405180910390fd5b61268085606001602081019061267691906143eb565b8660400135612d9f565b8460e0013560095f4381526020019081526020015f205f8282546126a491906149ec565b925050819055506126fd8560c001358660a00160208101906126c691906143eb565b8760600160208101906126d991906143eb565b87805f01906126e89190614b04565b8980602001906126f89190614aa2565b61336a565b7f000000000000000000000000000000000000000000000000000000000000000073ffffffffffffffffffffffffffffffffffffffff166340c10f1986608001602081019061274c91906143eb565b8760e001356040518363ffffffff1660e01b815260040161276e92919061426b565b5f604051808303815f87803b158015612785575f80fd5b505af1158015612797573d5f803e3d5ffd5b505050508460800160208101906127ae91906143eb565b73ffffffffffffffffffffffffffffffffffffffff168560600160208101906127d791906143eb565b73ffffffffffffffffffffffffffffffffffffffff163373ffffffffffffffffffffffffffffffffffffffff167ff114ca9eb82947af39f957fa726280fd3d5d81c3d7635a4aeb5c302962856eba8860a001602081019061283891906143eb565b8960c001358a60e0013560405161285193929190614a6d565b60405180910390a45050612863612fad565b505050565b5f801b61287481612b60565b5f73ffffffffffffffffffffffffffffffffffffffff168273ffffffffffffffffffffffffffffffffffffffff1614806128f957507f000000000000000000000000000000000000000000000000000000000000000073ffffffffffffffffffffffffffffffffffffffff168273ffffffffffffffffffffffffffffffffffffffff16145b806129155750612913826004612c4990919063ffffffff16565b155b1561294c576040517f3334921400000000000000000000000000000000000000000000000000000000815260040160405180910390fd5b8173ffffffffffffffffffffffffffffffffffffffff167f0e3c58ebfb2e7465fbb1c32e6b4f40c3c4f5ca77e8218a386aff8617831260d760405160405180910390a25050565b5f7f01ffc9a7000000000000000000000000000000000000000000000000000000007bffffffffffffffffffffffffffffffffffffffffffffffffffffffff1916827bffffffffffffffffffffffffffffffffffffffffffffffffffffffff1916149050919050565b5f801b8203612b12578073ffffffffffffffffffffffffffffffffffffffff1660015f9054906101000a900473ffffffffffffffffffffffffffffffffffffffff1673ffffffffffffffffffffffffffffffffffffffff167ff8ccb027dfcd135e000e9d45e6cc2d662578a8825d4c45b5e32e0adf67e79ec660405160405180910390a3612aad5f801b60015f9054906101000a900473ffffffffffffffffffffffffffffffffffffffff16612c76565b8060015f6101000a81548173ffffffffffffffffffffffffffffffffffffffff021916908373ffffffffffffffffffffffffffffffffffffffff16021790555060025f6101000a81549073ffffffffffffffffffffffffffffffffffffffff02191690555b612b1c828261372d565b5050565b5f6040517f190100000000000000000000000000000000000000000000000000000000000081528360028201528260228201526042812091505092915050565b612b7181612b6c613807565b61380e565b50565b5f612b99835f018373ffffffffffffffffffffffffffffffffffffffff165f1b613892565b905092915050565b612ba9613807565b73ffffffffffffffffffffffffffffffffffffffff168173ffffffffffffffffffffffffffffffffffffffff1614612c16576040517f08c379a0000000000000000000000000000000000000000000000000000000008152600401612c0d90614d25565b60405180910390fd5b612c208282612c76565b5050565b5f805f612c31858561398e565b91509150612c3e816139da565b819250505092915050565b5f612c6e835f018373ffffffffffffffffffffffffffffffffffffffff165f1b613b3f565b905092915050565b612c808282611747565b15612d4c575f805f8481526020019081526020015f205f015f8373ffffffffffffffffffffffffffffffffffffffff1673ffffffffffffffffffffffffffffffffffffffff1681526020019081526020015f205f6101000a81548160ff021916908315150217905550612cf1613807565b73ffffffffffffffffffffffffffffffffffffffff168173ffffffffffffffffffffffffffffffffffffffff16837ff6391f5c32d9c69d2a47ea670b442974b53935d1edc7fd64eb21e047a839171b60405160405180910390a45b5050565b600260035403612d95576040517f08c379a0000000000000000000000000000000000000000000000000000000008152600401612d8c90614d8d565b60405180910390fd5b6002600381905550565b5f805f612dac8585612418565b92509250925080821760085f8773ffffffffffffffffffffffffffffffffffffffff1673ffffffffffffffffffffffffffffffffffffffff1681526020019081526020015f205f8581526020019081526020015f20819055505050505050565b73eeeeeeeeeeeeeeeeeeeeeeeeeeeeeeeeeeeeeeee73ffffffffffffffffffffffffffffffffffffffff168273ffffffffffffffffffffffffffffffffffffffff1603612f325780471015612e8d576040517f2c5211c600000000000000000000000000000000000000000000000000000000815260040160405180910390fd5b5f8373ffffffffffffffffffffffffffffffffffffffff1682604051612eb290614c91565b5f6040518083038185875af1925050503d805f8114612eec576040519150601f19603f3d011682016040523d82523d5f602084013e612ef1565b606091505b5050905080612f2c576040517f90b8ec1800000000000000000000000000000000000000000000000000000000815260040160405180910390fd5b50612fa8565b612f46826004612fb790919063ffffffff16565b612f7c576040517f24a0114400000000000000000000000000000000000000000000000000000000815260040160405180910390fd5b612fa783828473ffffffffffffffffffffffffffffffffffffffff1661324f9092919063ffffffff16565b5b505050565b6001600381905550565b5f612fdc835f018373ffffffffffffffffffffffffffffffffffffffff165f1b613ba6565b905092915050565b5f600c54905081600c819055507fb4a832eb73ba0066dc45acd0d1f4454cdee155b17bdb1ccbabb428cc39750ad181600c54604051613024929190614dab565b60405180910390a15050565b5f600d54905081600d819055507f6fd3eacad9328fdc902c323518cfef3a2f6a9da89c40a7b82428adc2370114c381600d54604051613070929190614dab565b60405180910390a15050565b613090866004612fb790919063ffffffff16565b15806130db575073eeeeeeeeeeeeeeeeeeeeeeeeeeeeeeeeeeeeeeee73ffffffffffffffffffffffffffffffffffffffff168673ffffffffffffffffffffffffffffffffffffffff16145b15613112576040517f24a0114400000000000000000000000000000000000000000000000000000000815260040160405180910390fd5b5f8690505f805b868690508110156131c7575f61271086868481811061313b5761313a614b66565b5b905060200201358c61314d9190614dd2565b6131579190614e40565b90506131ad898989858181106131705761316f614b66565b5b905060200201602081019061318591906143eb565b838773ffffffffffffffffffffffffffffffffffffffff16613bc6909392919063ffffffff16565b80836131b991906149ec565b925081600101915050613119565b505f818a6131d59190614e70565b90505f8111156132435761324288888860018b8b90506131f59190614e70565b81811061320557613204614b66565b5b905060200201602081019061321a91906143eb565b838673ffffffffffffffffffffffffffffffffffffffff16613bc6909392919063ffffffff16565b5b50505050505050505050565b6132d08363a9059cbb60e01b848460405160240161326e92919061426b565b604051602081830303815290604052907bffffffffffffffffffffffffffffffffffffffffffffffffffffffff19166020820180517bffffffffffffffffffffffffffffffffffffffffffffffffffffffff8381831617835250505050613c4f565b505050565b5f7f8b73c3c69bb8fe3d512ecc4cf759cc79239f7b179b0ffacaa9a75d522b39400f7fdfc7060bb2e53279833759ad83d246a6016adac9d59a3fc1c0c23c3d495e137e7fc89efdaa54c0f20c7adf612882df0950f5a951637e0307cdcb4c672f298b8bc6463060405160200161334f959493929190614ea3565b60405160208183030381529060405280519060200120905090565b61337e866004612fb790919063ffffffff16565b15806133c9575073eeeeeeeeeeeeeeeeeeeeeeeeeeeeeeeeeeeeeeee73ffffffffffffffffffffffffffffffffffffffff168673ffffffffffffffffffffffffffffffffffffffff16145b8061342057507f000000000000000000000000000000000000000000000000000000000000000073ffffffffffffffffffffffffffffffffffffffff168673ffffffffffffffffffffffffffffffffffffffff1614155b15613457576040517f24a0114400000000000000000000000000000000000000000000000000000000815260040160405180910390fd5b5f86905061348886308a8473ffffffffffffffffffffffffffffffffffffffff16613bc6909392919063ffffffff16565b7f000000000000000000000000000000000000000000000000000000000000000073ffffffffffffffffffffffffffffffffffffffff16632e1a7d4d896040518263ffffffff1660e01b81526004016134e19190614540565b5f604051808303815f87803b1580156134f8575f80fd5b505af115801561350a573d5f803e3d5ffd5b505050505f805b86869050811015613632575f61271086868481811061353357613532614b66565b5b905060200201358c6135459190614dd2565b61354f9190614e40565b90505f88888481811061356557613564614b66565b5b905060200201602081019061357a91906143eb565b73ffffffffffffffffffffffffffffffffffffffff168260405161359d90614c91565b5f6040518083038185875af1925050503d805f81146135d7576040519150601f19603f3d011682016040523d82523d5f602084013e6135dc565b606091505b5050905080613617576040517f90b8ec1800000000000000000000000000000000000000000000000000000000815260040160405180910390fd5b818461362391906149ec565b93508260010192505050613511565b505f818a6136409190614e70565b90505f811115613721575f878760018a8a905061365d9190614e70565b81811061366d5761366c614b66565b5b905060200201602081019061368291906143eb565b73ffffffffffffffffffffffffffffffffffffffff16826040516136a590614c91565b5f6040518083038185875af1925050503d805f81146136df576040519150601f19603f3d011682016040523d82523d5f602084013e6136e4565b606091505b505090508061371f576040517f90b8ec1800000000000000000000000000000000000000000000000000000000815260040160405180910390fd5b505b50505050505050505050565b6137378282611747565b6138035760015f808481526020019081526020015f205f015f8373ffffffffffffffffffffffffffffffffffffffff1673ffffffffffffffffffffffffffffffffffffffff1681526020019081526020015f205f6101000a81548160ff0219169083151502179055506137a8613807565b73ffffffffffffffffffffffffffffffffffffffff168173ffffffffffffffffffffffffffffffffffffffff16837f2f8788117e7eff1d82e926ec794901d17c78024a50270940304540a733656f0d60405160405180910390a45b5050565b5f33905090565b6138188282611747565b61388e5761382581613d15565b613832835f1c6020613d42565b604051602001613843929190614fcc565b6040516020818303038152906040526040517f08c379a0000000000000000000000000000000000000000000000000000000008152600401613885919061503d565b60405180910390fd5b5050565b5f80836001015f8481526020019081526020015f205490505f8114613983575f6001826138bf9190614e70565b90505f6001865f01805490506138d59190614e70565b905081811461393b575f865f0182815481106138f4576138f3614b66565b5b905f5260205f200154905080875f01848154811061391557613914614b66565b5b905f5260205f20018190555083876001015f8381526020019081526020015f2081905550505b855f0180548061394e5761394d61505d565b5b600190038181905f5260205f20015f90559055856001015f8681526020019081526020015f205f905560019350505050613988565b5f9150505b92915050565b5f8060418351036139cb575f805f602086015192506040860151915060608601515f1a90506139bf87828585613f77565b945094505050506139d3565b5f6002915091505b9250929050565b5f60048111156139ed576139ec6146cd565b5b816004811115613a00576139ff6146cd565b5b0315613b3c5760016004811115613a1a57613a196146cd565b5b816004811115613a2d57613a2c6146cd565b5b03613a6d576040517f08c379a0000000000000000000000000000000000000000000000000000000008152600401613a64906150d4565b60405180910390fd5b60026004811115613a8157613a806146cd565b5b816004811115613a9457613a936146cd565b5b03613ad4576040517f08c379a0000000000000000000000000000000000000000000000000000000008152600401613acb9061513c565b60405180910390fd5b60036004811115613ae857613ae76146cd565b5b816004811115613afb57613afa6146cd565b5b03613b3b576040517f08c379a0000000000000000000000000000000000000000000000000000000008152600401613b32906151ca565b60405180910390fd5b5b50565b5f613b4a8383613ba6565b613b9c57825f0182908060018154018082558091505060019003905f5260205f20015f9091909190915055825f0180549050836001015f8481526020019081526020015f208190555060019050613ba0565b5f90505b92915050565b5f80836001015f8481526020019081526020015f20541415905092915050565b613c49846323b872dd60e01b858585604051602401613be7939291906151e8565b604051602081830303815290604052907bffffffffffffffffffffffffffffffffffffffffffffffffffffffff19166020820180517bffffffffffffffffffffffffffffffffffffffffffffffffffffffff8381831617835250505050613c4f565b50505050565b5f613cb0826040518060400160405280602081526020017f5361666545524332303a206c6f772d6c6576656c2063616c6c206661696c65648152508573ffffffffffffffffffffffffffffffffffffffff1661404f9092919063ffffffff16565b90505f81511480613cd1575080806020019051810190613cd09190615247565b5b613d10576040517f08c379a0000000000000000000000000000000000000000000000000000000008152600401613d07906152e2565b60405180910390fd5b505050565b6060613d3b8273ffffffffffffffffffffffffffffffffffffffff16601460ff16613d42565b9050919050565b60605f6002836002613d549190614dd2565b613d5e91906149ec565b67ffffffffffffffff811115613d7757613d76615300565b5b6040519080825280601f01601f191660200182016040528015613da95781602001600182028036833780820191505090505b5090507f3000000000000000000000000000000000000000000000000000000000000000815f81518110613de057613ddf614b66565b5b60200101907effffffffffffffffffffffffffffffffffffffffffffffffffffffffffffff191690815f1a9053507f780000000000000000000000000000000000000000000000000000000000000081600181518110613e4357613e42614b66565b5b60200101907effffffffffffffffffffffffffffffffffffffffffffffffffffffffffffff191690815f1a9053505f6001846002613e819190614dd2565b613e8b91906149ec565b90505b6001811115613f2a577f3031323334353637383961626364656600000000000000000000000000000000600f861660108110613ecd57613ecc614b66565b5b1a60f81b828281518110613ee457613ee3614b66565b5b60200101907effffffffffffffffffffffffffffffffffffffffffffffffffffffffffffff191690815f1a905350600485901c945080613f239061532d565b9050613e8e565b505f8414613f6d576040517f08c379a0000000000000000000000000000000000000000000000000000000008152600401613f649061539e565b60405180910390fd5b8091505092915050565b5f807f7fffffffffffffffffffffffffffffff5d576e7357a4501ddfe92f46681b20a0835f1c1115613faf575f600391509150614046565b5f6001878787876040515f8152602001604052604051613fd294939291906153d7565b6020604051602081039080840390855afa158015613ff2573d5f803e3d5ffd5b5050506020604051035190505f73ffffffffffffffffffffffffffffffffffffffff168173ffffffffffffffffffffffffffffffffffffffff160361403e575f60019250925050614046565b805f92509250505b94509492505050565b606061405d84845f85614066565b90509392505050565b6060824710156140ab576040517f08c379a00000000000000000000000000000000000000000000000000000000081526004016140a29061548a565b60405180910390fd5b5f808673ffffffffffffffffffffffffffffffffffffffff1685876040516140d391906154d8565b5f6040518083038185875af1925050503d805f811461410d576040519150601f19603f3d011682016040523d82523d5f602084013e614112565b606091505b50915091506141238783838761412f565b92505050949350505050565b60608315614190575f83510361418857614148856141a3565b614187576040517f08c379a000000000000000000000000000000000000000000000000000000000815260040161417e90615538565b60405180910390fd5b5b82905061419b565b61419a83836141c5565b5b949350505050565b5f808273ffffffffffffffffffffffffffffffffffffffff163b119050919050565b5f825111156141d75781518083602001fd5b806040517f08c379a000000000000000000000000000000000000000000000000000000000815260040161420b919061503d565b60405180910390fd5b5f73ffffffffffffffffffffffffffffffffffffffff82169050919050565b5f61423d82614214565b9050919050565b61424d81614233565b82525050565b5f819050919050565b61426581614253565b82525050565b5f60408201905061427e5f830185614244565b61428b602083018461425c565b9392505050565b5f80fd5b5f80fd5b5f7fffffffff0000000000000000000000000000000000000000000000000000000082169050919050565b6142ce8161429a565b81146142d8575f80fd5b50565b5f813590506142e9816142c5565b92915050565b5f6020828403121561430457614303614292565b5b5f614311848285016142db565b91505092915050565b5f8115159050919050565b61432e8161431a565b82525050565b5f6020820190506143475f830184614325565b92915050565b5f819050919050565b5f61437061436b61436684614214565b61434d565b614214565b9050919050565b5f61438182614356565b9050919050565b5f61439282614377565b9050919050565b6143a281614388565b82525050565b5f6020820190506143bb5f830184614399565b92915050565b6143ca81614233565b81146143d4575f80fd5b50565b5f813590506143e5816143c1565b92915050565b5f60208284031215614400576143ff614292565b5b5f61440d848285016143d7565b91505092915050565b5f80fd5b5f61010082840312156144305761442f614416565b5b81905092915050565b5f610100828403121561444f5761444e614292565b5b5f61445c8482850161441a565b91505092915050565b5f819050919050565b61447781614465565b82525050565b5f6020820190506144905f83018461446e565b92915050565b61449f81614465565b81146144a9575f80fd5b50565b5f813590506144ba81614496565b92915050565b5f602082840312156144d5576144d4614292565b5b5f6144e2848285016144ac565b91505092915050565b6144f481614253565b81146144fe575f80fd5b50565b5f8135905061450f816144eb565b92915050565b5f6020828403121561452a57614529614292565b5b5f61453784828501614501565b91505092915050565b5f6020820190506145535f83018461425c565b92915050565b5f806040838503121561456f5761456e614292565b5b5f61457c858286016144ac565b925050602061458d858286016143d7565b9150509250929050565b5f604082840312156145ac576145ab614416565b5b81905092915050565b5f8061012083850312156145cc576145cb614292565b5b5f6145d98582860161441a565b92505061010083013567ffffffffffffffff8111156145fb576145fa614296565b5b61460785828601614597565b9150509250929050565b5f6020820190506146245f830184614244565b92915050565b5f6040828403121561463f5761463e614416565b5b81905092915050565b5f6020828403121561465d5761465c614292565b5b5f82013567ffffffffffffffff81111561467a57614679614296565b5b6146868482850161462a565b91505092915050565b5f80604083850312156146a5576146a4614292565b5b5f6146b2858286016143d7565b92505060206146c3858286016143d7565b9150509250929050565b7f4e487b71000000000000000000000000000000000000000000000000000000005f52602160045260245ffd5b6003811061470b5761470a6146cd565b5b50565b5f81905061471b826146fa565b919050565b5f61472a8261470e565b9050919050565b61473a81614720565b82525050565b5f6020820190506147535f830184614731565b92915050565b5f805f610140848603121561477157614770614292565b5b5f61477e8682870161441a565b93505061010084013567ffffffffffffffff8111156147a05761479f614296565b5b6147ac8682870161462a565b92505061012084013567ffffffffffffffff8111156147ce576147cd614296565b5b6147da86828701614597565b9150509250925092565b5f81519050919050565b5f82825260208201905092915050565b5f5b8381101561481b578082015181840152602081019050614800565b5f8484015250505050565b5f601f19601f8301169050919050565b5f614840826147e4565b61484a81856147ee565b935061485a8185602086016147fe565b61486381614826565b840191505092915050565b5f6020820190508181035f8301526148868184614836565b905092915050565b5f805f606084860312156148a5576148a4614292565b5b5f6148b2868287016143d7565b93505060206148c3868287016143d7565b92505060406148d486828701614501565b9150509250925092565b5f80604083850312156148f4576148f3614292565b5b5f614901858286016143d7565b925050602061491285828601614501565b9150509250929050565b5f60608201905061492f5f83018661425c565b61493c602083018561425c565b614949604083018461425c565b949350505050565b5f80fd5b5f80fd5b5f80fd5b5f808335600160200384360303811261497957614978614951565b5b80840192508235915067ffffffffffffffff82111561499b5761499a614955565b5b6020830192506001820236038313156149b7576149b6614959565b5b509250929050565b7f4e487b71000000000000000000000000000000000000000000000000000000005f52601160045260245ffd5b5f6149f682614253565b9150614a0183614253565b9250828201905080821115614a1957614a186149bf565b5b92915050565b60028110614a2b575f80fd5b50565b5f81359050614a3c81614a1f565b92915050565b5f60208284031215614a5757614a56614292565b5b5f614a6484828501614a2e565b91505092915050565b5f606082019050614a805f830186614244565b614a8d602083018561425c565b614a9a604083018461425c565b949350505050565b5f8083356001602003843603038112614abe57614abd614951565b5b80840192508235915067ffffffffffffffff821115614ae057614adf614955565b5b602083019250602082023603831315614afc57614afb614959565b5b509250929050565b5f8083356001602003843603038112614b2057614b1f614951565b5b80840192508235915067ffffffffffffffff821115614b4257614b41614955565b5b602083019250602082023603831315614b5e57614b5d614959565b5b509250929050565b7f4e487b71000000000000000000000000000000000000000000000000000000005f52603260045260245ffd5b60028110614ba457614ba36146cd565b5b50565b5f819050614bb482614b93565b919050565b5f614bc382614ba7565b9050919050565b614bd381614bb9565b82525050565b5f61012082019050614bed5f83018c61446e565b614bfa602083018b614bca565b614c07604083018a61425c565b614c14606083018961425c565b614c216080830188614244565b614c2e60a0830187614244565b614c3b60c0830186614244565b614c4860e083018561425c565b614c5661010083018461425c565b9a9950505050505050505050565b5f81905092915050565b50565b5f614c7c5f83614c64565b9150614c8782614c6e565b5f82019050919050565b5f614c9b82614c71565b9150819050919050565b5f82825260208201905092915050565b7f416363657373436f6e74726f6c3a2063616e206f6e6c792072656e6f756e63655f8201527f20726f6c657320666f722073656c660000000000000000000000000000000000602082015250565b5f614d0f602f83614ca5565b9150614d1a82614cb5565b604082019050919050565b5f6020820190508181035f830152614d3c81614d03565b9050919050565b7f5265656e7472616e637947756172643a207265656e7472616e742063616c6c005f82015250565b5f614d77601f83614ca5565b9150614d8282614d43565b602082019050919050565b5f6020820190508181035f830152614da481614d6b565b9050919050565b5f604082019050614dbe5f83018561425c565b614dcb602083018461425c565b9392505050565b5f614ddc82614253565b9150614de783614253565b9250828202614df581614253565b91508282048414831517614e0c57614e0b6149bf565b5b5092915050565b7f4e487b71000000000000000000000000000000000000000000000000000000005f52601260045260245ffd5b5f614e4a82614253565b9150614e5583614253565b925082614e6557614e64614e13565b5b828204905092915050565b5f614e7a82614253565b9150614e8583614253565b9250828203905081811115614e9d57614e9c6149bf565b5b92915050565b5f60a082019050614eb65f83018861446e565b614ec3602083018761446e565b614ed0604083018661446e565b614edd606083018561425c565b614eea6080830184614244565b9695505050505050565b5f81905092915050565b7f416363657373436f6e74726f6c3a206163636f756e74200000000000000000005f82015250565b5f614f32601783614ef4565b9150614f3d82614efe565b601782019050919050565b5f81519050919050565b5f614f5c82614f48565b614f668185614ef4565b9350614f768185602086016147fe565b80840191505092915050565b7f206973206d697373696e6720726f6c65200000000000000000000000000000005f82015250565b5f614fb6601183614ef4565b9150614fc182614f82565b601182019050919050565b5f614fd682614f26565b9150614fe28285614f52565b9150614fed82614faa565b9150614ff98284614f52565b91508190509392505050565b5f61500f82614f48565b6150198185614ca5565b93506150298185602086016147fe565b61503281614826565b840191505092915050565b5f6020820190508181035f8301526150558184615005565b905092915050565b7f4e487b71000000000000000000000000000000000000000000000000000000005f52603160045260245ffd5b7f45434453413a20696e76616c6964207369676e617475726500000000000000005f82015250565b5f6150be601883614ca5565b91506150c98261508a565b602082019050919050565b5f6020820190508181035f8301526150eb816150b2565b9050919050565b7f45434453413a20696e76616c6964207369676e6174757265206c656e677468005f82015250565b5f615126601f83614ca5565b9150615131826150f2565b602082019050919050565b5f6020820190508181035f8301526151538161511a565b9050919050565b7f45434453413a20696e76616c6964207369676e6174757265202773272076616c5f8201527f7565000000000000000000000000000000000000000000000000000000000000602082015250565b5f6151b4602283614ca5565b91506151bf8261515a565b604082019050919050565b5f6020820190508181035f8301526151e1816151a8565b9050919050565b5f6060820190506151fb5f830186614244565b6152086020830185614244565b615215604083018461425c565b949350505050565b6152268161431a565b8114615230575f80fd5b50565b5f815190506152418161521d565b92915050565b5f6020828403121561525c5761525b614292565b5b5f61526984828501615233565b91505092915050565b7f5361666545524332303a204552433230206f7065726174696f6e20646964206e5f8201527f6f74207375636365656400000000000000000000000000000000000000000000602082015250565b5f6152cc602a83614ca5565b91506152d782615272565b604082019050919050565b5f6020820190508181035f8301526152f9816152c0565b9050919050565b7f4e487b71000000000000000000000000000000000000000000000000000000005f52604160045260245ffd5b5f61533782614253565b91505f8203615349576153486149bf565b5b600182039050919050565b7f537472696e67733a20686578206c656e67746820696e73756666696369656e745f82015250565b5f615388602083614ca5565b915061539382615354565b602082019050919050565b5f6020820190508181035f8301526153b58161537c565b9050919050565b5f60ff82169050919050565b6153d1816153bc565b82525050565b5f6080820190506153ea5f83018761446e565b6153f760208301866153c8565b615404604083018561446e565b615411606083018461446e565b95945050505050565b7f416464726573733a20696e73756666696369656e742062616c616e636520666f5f8201527f722063616c6c0000000000000000000000000000000000000000000000000000602082015250565b5f615474602683614ca5565b915061547f8261541a565b604082019050919050565b5f6020820190508181035f8301526154a181615468565b9050919050565b5f6154b2826147e4565b6154bc8185614c64565b93506154cc8185602086016147fe565b80840191505092915050565b5f6154e382846154a8565b915081905092915050565b7f416464726573733a2063616c6c20746f206e6f6e2d636f6e74726163740000005f82015250565b5f615522601d83614ca5565b915061552d826154ee565b602082019050919050565b5f6020820190508181035f83015261554f81615516565b905091905056fea2646970667358221220b1ab7d7afdb3615c5091b90f1d6c592cde5656e70be22ca1305112276613089764736f6c63430008140033","linkReferences":{}},"methodIdentifiers":{"DEFAULT_ADMIN_ROLE()":"a217fddf","acceptAdmin()":"0e18b681","addCustodianAddress(address)":"4be7a64b","addSupportedAsset(address)":"fac09e87","confirmDelegatedSigner(address)":"157a4028","delegatedSigner(address,address)":"cf9cc766","disableMintRedeem()":"c5ff38bd","encodeOrder((uint8,uint256,uint256,address,address,address,uint256,uint256))":"d8f065bd","getDomainSeparator()":"ed24911d","getRoleAdmin(bytes32)":"248a9ca3","grantRole(bytes32,address)":"2f2ff15d","hasRole(bytes32,address)":"91d14854","hashOrder((uint8,uint256,uint256,address,address,address,uint256,uint256))":"19bfcdec","isSupportedAsset(address)":"9be918e6","maxMintPerBlock()":"928907dd","maxRedeemPerBlock()":"844452fa","mint((uint8,uint256,uint256,address,address,address,uint256,uint256),(address[],uint256[]),(uint8,bytes))":"d48c03e5","mintWETH((uint8,uint256,uint256,address,address,address,uint256,uint256),(address[],uint256[]),(uint8,bytes))":"f5c42eb3","mintedPerBlock(uint256)":"2ba32991","owner()":"8da5cb5b","redeem((uint8,uint256,uint256,address,address,address,uint256,uint256),(uint8,bytes))":"95165e8b","redeemedPerBlock(uint256)":"b6c78063","removeCollateralManagerRole(address)":"7274c25c","removeCustodianAddress(address)":"4ba87af9","removeDelegatedSigner(address)":"40e49216","removeMinterRole(address)":"54f1e126","removeRedeemerRole(address)":"532c3f82","removeSupportedAsset(address)":"1c46bc6f","renounceRole(bytes32,address)":"36568abe","revokeRole(bytes32,address)":"d547741f","setDelegatedSigner(address)":"53863613","setMaxMintPerBlock(uint256)":"9cd29136","setMaxRedeemPerBlock(uint256)":"d8369d75","supportsInterface(bytes4)":"01ffc9a7","transferAdmin(address)":"75829def","transferToCustody(address,address,uint256)":"e0f3fc9f","usde()":"0fd761e0","verifyNonce(address,uint256)":"f4ee2a8b","verifyOrder((uint8,uint256,uint256,address,address,address,uint256,uint256),(uint8,bytes))":"402a8d37","verifyRoute((address[],uint256[]))":"ccb2676b"},"id":3}