{"abi":[{"type":"constructor","inputs":[{"name":"name","type":"string","internalType":"string"},{"name":"symbol","type":"string","internalType":"string"},{"name":"_decimals","type":"uint8","internalType":"uint8"},{"name":"owner","type":"address","internalType":"address"}],"stateMutability":"nonpayable"},{"type":"function","name":"DOMAIN_SEPARATOR","inputs":[],"outputs":[{"name":"","type":"bytes32","internalType":"bytes32"}],"stateMutability":"view"},{"type":"function","name":"allowance","inputs":[{"name":"owner","type":"address","internalType":"address"},{"name":"spender","type":"address","internalType":"address"}],"outputs":[{"name":"","type":"uint256","internalType":"uint256"}],"stateMutability":"view"},{"type":"function","name":"approve","inputs":[{"name":"spender","type":"address","internalType":"address"},{"name":"amount","type":"uint256","internalType":"uint256"}],"outputs":[{"name":"","type":"bool","internalType":"bool"}],"stateMutability":"nonpayable"},{"type":"function","name":"balanceOf","inputs":[{"name":"account","type":"address","internalType":"address"}],"outputs":[{"name":"","type":"uint256","internalType":"uint256"}],"stateMutability":"view"},{"type":"function","name":"decimals","inputs":[],"outputs":[{"name":"","type":"uint8","internalType":"uint8"}],"stateMutability":"view"},{"type":"function","name":"decreaseAllowance","inputs":[{"name":"spender","type":"address","internalType":"address"},{"name":"subtractedValue","type":"uint256","internalType":"uint256"}],"outputs":[{"name":"","type":"bool","internalType":"bool"}],"stateMutability":"nonpayable"},{"type":"function","name":"eip712Domain","inputs":[],"outputs":[{"name":"fields","type":"bytes1","internalType":"bytes1"},{"name":"name","type":"string","internalType":"string"},{"name":"version","type":"string","internalType":"string"},{"name":"chainId","type":"uint256","internalType":"uint256"},{"name":"verifyingContract","type":"address","internalType":"address"},{"name":"salt","type":"bytes32","internalType":"bytes32"},{"name":"extensions","type":"uint256[]","internalType":"uint256[]"}],"stateMutability":"view"},{"type":"function","name":"increaseAllowance","inputs":[{"name":"spender","type":"address","internalType":"address"},{"name":"addedValue","type":"uint256","internalType":"uint256"}],"outputs":[{"name":"","type":"bool","internalType":"bool"}],"stateMutability":"nonpayable"},{"type":"function","name":"mint","inputs":[{"name":"amount","type":"uint256","internalType":"uint256"},{"name":"receiver","type":"address","internalType":"address"}],"outputs":[],"stateMutability":"nonpayable"},{"type":"function","name":"mint","inputs":[{"name":"amount","type":"uint256","internalType":"uint256"}],"outputs":[],"stateMutability":"nonpayable"},{"type":"function","name":"name","inputs":[],"outputs":[{"name":"","type":"string","internalType":"string"}],"stateMutability":"view"},{"type":"function","name":"nonces","inputs":[{"name":"owner","type":"address","internalType":"address"}],"outputs":[{"name":"","type":"uint256","internalType":"uint256"}],"stateMutability":"view"},{"type":"function","name":"permit","inputs":[{"name":"owner","type":"address","internalType":"address"},{"name":"spender","type":"address","internalType":"address"},{"name":"value","type":"uint256","internalType":"uint256"},{"name":"deadline","type":"uint256","internalType":"uint256"},{"name":"v","type":"uint8","internalType":"uint8"},{"name":"r","type":"bytes32","internalType":"bytes32"},{"name":"s","type":"bytes32","internalType":"bytes32"}],"outputs":[],"stateMutability":"nonpayable"},{"type":"function","name":"symbol","inputs":[],"outputs":[{"name":"","type":"string","internalType":"string"}],"stateMutability":"view"},{"type":"function","name":"totalSupply","inputs":[],"outputs":[{"name":"","type":"uint256","internalType":"uint256"}],"stateMutability":"view"},{"type":"function","name":"transfer","inputs":[{"name":"to","type":"address","internalType":"address"},{"name":"amount","type":"uint256","internalType":"uint256"}],"outputs":[{"name":"","type":"bool","internalType":"bool"}],"stateMutability":"nonpayable"},{"type":"function","name":"transferFrom","inputs":[{"name":"from","type":"address","internalType":"address"},{"name":"to","type":"address","internalType":"address"},{"name":"amount","type":"uint256","internalType":"uint256"}],"outputs":[{"name":"","type":"bool","internalType":"bool"}],"stateMutability":"nonpayable"},{"type":"event","name":"Approval","inputs":[{"name":"owner","type":"address","indexed":true,"internalType":"address"},{"name":"spender","type":"address","indexed":true,"internalType":"address"},{"name":"value","type":"uint256","indexed":false,"internalType":"uint256"}],"anonymous":false},{"type":"event","name":"EIP712DomainChanged","inputs":[],"anonymous":false},{"type":"event","name":"Transfer","inputs":[{"name":"from","type":"address","indexed":true,"internalType":"address"},{"name":"to","type":"address","indexed":true,"internalType":"address"},{"name":"value","type":"uint256","indexed":false,"internalType":"uint256"}],"anonymous":false},{"type":"error","name":"InvalidShortString","inputs":[]},{"type":"error","name":"StringTooLong","inputs":[{"name":"str","type":"string","internalType":"string"}]}],"bytecode":{"object":"0x61016060405234801562000011575f80fd5b50604051620033a5380380620033a58339818101604052810190620000379190620006c2565b83806040518060400160405280600181526020017f310000000000000000000000000000000000000000000000000000000000000081525086868160039081620000829190620009a6565b508060049081620000949190620009a6565b505050620000ad6005836200020e60201b90919060201c565b6101208181525050620000cb6006826200020e60201b90919060201c565b6101408181525050818051906020012060e08181525050808051906020012061010081815250504660a081815250506200010a6200026360201b60201c565b608081815250503073ffffffffffffffffffffffffffffffffffffffff1660c08173ffffffffffffffffffffffffffffffffffffffff16815250505050508160095f6101000a81548160ff021916908360ff1602179055505f73ffffffffffffffffffffffffffffffffffffffff168173ffffffffffffffffffffffffffffffffffffffff1603620001d3576040517f08c379a0000000000000000000000000000000000000000000000000000000008152600401620001ca9062000ae8565b60405180910390fd5b620002048183600a620001e7919062000c85565b6305f5e100620001f8919062000cd5565b620002bf60201b60201c565b5050505062000f79565b5f60208351101562000233576200022b836200042460201b60201c565b90506200025d565b8262000245836200048e60201b60201c565b5f019081620002559190620009a6565b5060ff5f1b90505b92915050565b5f7f8b73c3c69bb8fe3d512ecc4cf759cc79239f7b179b0ffacaa9a75d522b39400f60e051610100514630604051602001620002a495949392919062000d5b565b60405160208183030381529060405280519060200120905090565b5f73ffffffffffffffffffffffffffffffffffffffff168273ffffffffffffffffffffffffffffffffffffffff160362000330576040517f08c379a0000000000000000000000000000000000000000000000000000000008152600401620003279062000e04565b60405180910390fd5b620003435f83836200049760201b60201c565b8060025f82825462000356919062000e24565b92505081905550805f808473ffffffffffffffffffffffffffffffffffffffff1673ffffffffffffffffffffffffffffffffffffffff1681526020019081526020015f205f82825401925050819055508173ffffffffffffffffffffffffffffffffffffffff165f73ffffffffffffffffffffffffffffffffffffffff167fddf252ad1be2c89b69c2b068fc378daa952ba7f163c4a11628f55a4df523b3ef8360405162000405919062000e5e565b60405180910390a3620004205f83836200049c60201b60201c565b5050565b5f80829050601f815111156200047357826040517f305a27a90000000000000000000000000000000000000000000000000000000081526004016200046a919062000eb9565b60405180910390fd5b805181620004819062000f0a565b5f1c175f1b915050919050565b5f819050919050565b505050565b505050565b5f604051905090565b5f80fd5b5f80fd5b5f80fd5b5f80fd5b5f601f19601f8301169050919050565b7f4e487b71000000000000000000000000000000000000000000000000000000005f52604160045260245ffd5b6200050282620004ba565b810181811067ffffffffffffffff82111715620005245762000523620004ca565b5b80604052505050565b5f62000538620004a1565b9050620005468282620004f7565b919050565b5f67ffffffffffffffff821115620005685762000567620004ca565b5b6200057382620004ba565b9050602081019050919050565b5f5b838110156200059f57808201518184015260208101905062000582565b5f8484015250505050565b5f620005c0620005ba846200054b565b6200052d565b905082815260208101848484011115620005df57620005de620004b6565b5b620005ec84828562000580565b509392505050565b5f82601f8301126200060b576200060a620004b2565b5b81516200061d848260208601620005aa565b91505092915050565b5f60ff82169050919050565b6200063d8162000626565b811462000648575f80fd5b50565b5f815190506200065b8162000632565b92915050565b5f73ffffffffffffffffffffffffffffffffffffffff82169050919050565b5f6200068c8262000661565b9050919050565b6200069e8162000680565b8114620006a9575f80fd5b50565b5f81519050620006bc8162000693565b92915050565b5f805f8060808587031215620006dd57620006dc620004aa565b5b5f85015167ffffffffffffffff811115620006fd57620006fc620004ae565b5b6200070b87828801620005f4565b945050602085015167ffffffffffffffff8111156200072f576200072e620004ae565b5b6200073d87828801620005f4565b935050604062000750878288016200064b565b92505060606200076387828801620006ac565b91505092959194509250565b5f81519050919050565b7f4e487b71000000000000000000000000000000000000000000000000000000005f52602260045260245ffd5b5f6002820490506001821680620007be57607f821691505b602082108103620007d457620007d362000779565b5b50919050565b5f819050815f5260205f209050919050565b5f6020601f8301049050919050565b5f82821b905092915050565b5f60088302620008387fffffffffffffffffffffffffffffffffffffffffffffffffffffffffffffffff82620007fb565b620008448683620007fb565b95508019841693508086168417925050509392505050565b5f819050919050565b5f819050919050565b5f6200088e6200088862000882846200085c565b62000865565b6200085c565b9050919050565b5f819050919050565b620008a9836200086e565b620008c1620008b88262000895565b84845462000807565b825550505050565b5f90565b620008d7620008c9565b620008e48184846200089e565b505050565b5b818110156200090b57620008ff5f82620008cd565b600181019050620008ea565b5050565b601f8211156200095a576200092481620007da565b6200092f84620007ec565b810160208510156200093f578190505b620009576200094e85620007ec565b830182620008e9565b50505b505050565b5f82821c905092915050565b5f6200097c5f19846008026200095f565b1980831691505092915050565b5f6200099683836200096b565b9150826002028217905092915050565b620009b1826200076f565b67ffffffffffffffff811115620009cd57620009cc620004ca565b5b620009d98254620007a6565b620009e68282856200090f565b5f60209050601f83116001811462000a1c575f841562000a07578287015190505b62000a13858262000989565b86555062000a82565b601f19841662000a2c86620007da565b5f5b8281101562000a555784890151825560018201915060208501945060208101905062000a2e565b8683101562000a75578489015162000a71601f8916826200096b565b8355505b6001600288020188555050505b505050505050565b5f82825260208201905092915050565b7f5a65726f2061646472657373206e6f742076616c6964000000000000000000005f82015250565b5f62000ad060168362000a8a565b915062000add8262000a9a565b602082019050919050565b5f6020820190508181035f83015262000b018162000ac2565b9050919050565b7f4e487b71000000000000000000000000000000000000000000000000000000005f52601160045260245ffd5b5f8160011c9050919050565b5f808291508390505b600185111562000b925780860481111562000b6a5762000b6962000b08565b5b600185161562000b7a5780820291505b808102905062000b8a8562000b35565b945062000b4a565b94509492505050565b5f8262000bac576001905062000c7e565b8162000bbb575f905062000c7e565b816001811462000bd4576002811462000bdf5762000c15565b600191505062000c7e565b60ff84111562000bf45762000bf362000b08565b5b8360020a91508482111562000c0e5762000c0d62000b08565b5b5062000c7e565b5060208310610133831016604e8410600b841016171562000c4f5782820a90508381111562000c495762000c4862000b08565b5b62000c7e565b62000c5e848484600162000b41565b9250905081840481111562000c785762000c7762000b08565b5b81810290505b9392505050565b5f62000c91826200085c565b915062000c9e8362000626565b925062000ccd7fffffffffffffffffffffffffffffffffffffffffffffffffffffffffffffffff848462000b9b565b905092915050565b5f62000ce1826200085c565b915062000cee836200085c565b925082820262000cfe816200085c565b9150828204841483151762000d185762000d1762000b08565b5b5092915050565b5f819050919050565b62000d338162000d1f565b82525050565b62000d44816200085c565b82525050565b62000d558162000680565b82525050565b5f60a08201905062000d705f83018862000d28565b62000d7f602083018762000d28565b62000d8e604083018662000d28565b62000d9d606083018562000d39565b62000dac608083018462000d4a565b9695505050505050565b7f45524332303a206d696e7420746f20746865207a65726f2061646472657373005f82015250565b5f62000dec601f8362000a8a565b915062000df98262000db6565b602082019050919050565b5f6020820190508181035f83015262000e1d8162000dde565b9050919050565b5f62000e30826200085c565b915062000e3d836200085c565b925082820190508082111562000e585762000e5762000b08565b5b92915050565b5f60208201905062000e735f83018462000d39565b92915050565b5f62000e85826200076f565b62000e91818562000a8a565b935062000ea381856020860162000580565b62000eae81620004ba565b840191505092915050565b5f6020820190508181035f83015262000ed3818462000e79565b905092915050565b5f81519050919050565b5f819050602082019050919050565b5f62000f01825162000d1f565b80915050919050565b5f62000f168262000edb565b8262000f228462000ee5565b905062000f2f8162000ef4565b9250602082101562000f725762000f6d7fffffffffffffffffffffffffffffffffffffffffffffffffffffffffffffffff83602003600802620007fb565b831692505b5050919050565b60805160a05160c05160e0516101005161012051610140516123da62000fcb5f395f6105b301525f61057f01525f6111d901525f6111b801525f610e3301525f610e8901525f610eb201526123da5ff3fe608060405234801561000f575f80fd5b5060043610610109575f3560e01c80637ecebe00116100a0578063a0712d681161006f578063a0712d68146102d3578063a457c2d7146102ef578063a9059cbb1461031f578063d505accf1461034f578063dd62ed3e1461036b57610109565b80637ecebe001461024557806384b0196e1461027557806394bf804d1461029957806395d89b41146102b557610109565b8063313ce567116100dc578063313ce567146101a95780633644e515146101c757806339509351146101e557806370a082311461021557610109565b806306fdde031461010d578063095ea7b31461012b57806318160ddd1461015b57806323b872dd14610179575b5f80fd5b61011561039b565b6040516101229190611604565b60405180910390f35b610145600480360381019061014091906116b5565b61042b565b604051610152919061170d565b60405180910390f35b61016361044d565b6040516101709190611735565b60405180910390f35b610193600480360381019061018e919061174e565b610456565b6040516101a0919061170d565b60405180910390f35b6101b1610484565b6040516101be91906117b9565b60405180910390f35b6101cf610499565b6040516101dc91906117ea565b60405180910390f35b6101ff60048036038101906101fa91906116b5565b6104a7565b60405161020c919061170d565b60405180910390f35b61022f600480360381019061022a9190611803565b6104dd565b60405161023c9190611735565b60405180910390f35b61025f600480360381019061025a9190611803565b610522565b60405161026c9190611735565b60405180910390f35b61027d61056f565b604051610290979695949392919061192e565b60405180910390f35b6102b360048036038101906102ae91906119b0565b61066c565b005b6102bd61067a565b6040516102ca9190611604565b60405180910390f35b6102ed60048036038101906102e891906119ee565b61070a565b005b610309600480360381019061030491906116b5565b610717565b604051610316919061170d565b60405180910390f35b610339600480360381019061033491906116b5565b61078c565b604051610346919061170d565b60405180910390f35b61036960048036038101906103649190611a6d565b6107ae565b005b61038560048036038101906103809190611b0a565b6108ed565b6040516103929190611735565b60405180910390f35b6060600380546103aa90611b75565b80601f01602080910402602001604051908101604052809291908181526020018280546103d690611b75565b80156104215780601f106103f857610100808354040283529160200191610421565b820191905f5260205f20905b81548152906001019060200180831161040457829003601f168201915b5050505050905090565b5f8061043561096f565b9050610442818585610976565b600191505092915050565b5f600254905090565b5f8061046061096f565b905061046d858285610b39565b610478858585610bc4565b60019150509392505050565b5f60095f9054906101000a900460ff16905090565b5f6104a2610e30565b905090565b5f806104b161096f565b90506104d28185856104c385896108ed565b6104cd9190611bd2565b610976565b600191505092915050565b5f805f8373ffffffffffffffffffffffffffffffffffffffff1673ffffffffffffffffffffffffffffffffffffffff1681526020019081526020015f20549050919050565b5f61056860075f8473ffffffffffffffffffffffffffffffffffffffff1673ffffffffffffffffffffffffffffffffffffffff1681526020019081526020015f20610ee6565b9050919050565b5f6060805f805f60606105ac60057f0000000000000000000000000000000000000000000000000000000000000000610ef290919063ffffffff16565b6105e060067f0000000000000000000000000000000000000000000000000000000000000000610ef290919063ffffffff16565b46305f801b5f67ffffffffffffffff8111156105ff576105fe611c05565b5b60405190808252806020026020018201604052801561062d5781602001602082028036833780820191505090505b507f0f00000000000000000000000000000000000000000000000000000000000000959493929190965096509650965096509650965090919293949596565b6106768183610f9f565b5050565b60606004805461068990611b75565b80601f01602080910402602001604051908101604052809291908181526020018280546106b590611b75565b80156107005780601f106106d757610100808354040283529160200191610700565b820191905f5260205f20905b8154815290600101906020018083116106e357829003601f168201915b5050505050905090565b6107143382610f9f565b50565b5f8061072161096f565b90505f61072e82866108ed565b905083811015610773576040517f08c379a000000000000000000000000000000000000000000000000000000000815260040161076a90611ca2565b60405180910390fd5b6107808286868403610976565b60019250505092915050565b5f8061079661096f565b90506107a3818585610bc4565b600191505092915050565b834211156107f1576040517f08c379a00000000000000000000000000000000000000000000000000000000081526004016107e890611d0a565b60405180910390fd5b5f7f6e71edae12b1b97f4d1f60370fef10105fa2faae0126114a169c64845d6126c988888861081f8c6110ed565b8960405160200161083596959493929190611d28565b6040516020818303038152906040528051906020012090505f61085782611148565b90505f61086682878787611161565b90508973ffffffffffffffffffffffffffffffffffffffff168173ffffffffffffffffffffffffffffffffffffffff16146108d6576040517f08c379a00000000000000000000000000000000000000000000000000000000081526004016108cd90611dd1565b60405180910390fd5b6108e18a8a8a610976565b50505050505050505050565b5f60015f8473ffffffffffffffffffffffffffffffffffffffff1673ffffffffffffffffffffffffffffffffffffffff1681526020019081526020015f205f8373ffffffffffffffffffffffffffffffffffffffff1673ffffffffffffffffffffffffffffffffffffffff1681526020019081526020015f2054905092915050565b5f33905090565b5f73ffffffffffffffffffffffffffffffffffffffff168373ffffffffffffffffffffffffffffffffffffffff16036109e4576040517f08c379a00000000000000000000000000000000000000000000000000000000081526004016109db90611e5f565b60405180910390fd5b5f73ffffffffffffffffffffffffffffffffffffffff168273ffffffffffffffffffffffffffffffffffffffff1603610a52576040517f08c379a0000000000000000000000000000000000000000000000000000000008152600401610a4990611eed565b60405180910390fd5b8060015f8573ffffffffffffffffffffffffffffffffffffffff1673ffffffffffffffffffffffffffffffffffffffff1681526020019081526020015f205f8473ffffffffffffffffffffffffffffffffffffffff1673ffffffffffffffffffffffffffffffffffffffff1681526020019081526020015f20819055508173ffffffffffffffffffffffffffffffffffffffff168373ffffffffffffffffffffffffffffffffffffffff167f8c5be1e5ebec7d5bd14f71427d1e84f3dd0314c0f7b2291e5b200ac8c7c3b92583604051610b2c9190611735565b60405180910390a3505050565b5f610b4484846108ed565b90507fffffffffffffffffffffffffffffffffffffffffffffffffffffffffffffffff8114610bbe5781811015610bb0576040517f08c379a0000000000000000000000000000000000000000000000000000000008152600401610ba790611f55565b60405180910390fd5b610bbd8484848403610976565b5b50505050565b5f73ffffffffffffffffffffffffffffffffffffffff168373ffffffffffffffffffffffffffffffffffffffff1603610c32576040517f08c379a0000000000000000000000000000000000000000000000000000000008152600401610c2990611fe3565b60405180910390fd5b5f73ffffffffffffffffffffffffffffffffffffffff168273ffffffffffffffffffffffffffffffffffffffff1603610ca0576040517f08c379a0000000000000000000000000000000000000000000000000000000008152600401610c9790612071565b60405180910390fd5b610cab83838361118a565b5f805f8573ffffffffffffffffffffffffffffffffffffffff1673ffffffffffffffffffffffffffffffffffffffff1681526020019081526020015f2054905081811015610d2e576040517f08c379a0000000000000000000000000000000000000000000000000000000008152600401610d25906120ff565b60405180910390fd5b8181035f808673ffffffffffffffffffffffffffffffffffffffff1673ffffffffffffffffffffffffffffffffffffffff1681526020019081526020015f2081905550815f808573ffffffffffffffffffffffffffffffffffffffff1673ffffffffffffffffffffffffffffffffffffffff1681526020019081526020015f205f82825401925050819055508273ffffffffffffffffffffffffffffffffffffffff168473ffffffffffffffffffffffffffffffffffffffff167fddf252ad1be2c89b69c2b068fc378daa952ba7f163c4a11628f55a4df523b3ef84604051610e179190611735565b60405180910390a3610e2a84848461118f565b50505050565b5f7f000000000000000000000000000000000000000000000000000000000000000073ffffffffffffffffffffffffffffffffffffffff163073ffffffffffffffffffffffffffffffffffffffff16148015610eab57507f000000000000000000000000000000000000000000000000000000000000000046145b15610ed8577f00000000000000000000000000000000000000000000000000000000000000009050610ee3565b610ee0611194565b90505b90565b5f815f01549050919050565b606060ff5f1b8314610f0e57610f0783611229565b9050610f99565b818054610f1a90611b75565b80601f0160208091040260200160405190810160405280929190818152602001828054610f4690611b75565b8015610f915780601f10610f6857610100808354040283529160200191610f91565b820191905f5260205f20905b815481529060010190602001808311610f7457829003601f168201915b505050505090505b92915050565b5f73ffffffffffffffffffffffffffffffffffffffff168273ffffffffffffffffffffffffffffffffffffffff160361100d576040517f08c379a000000000000000000000000000000000000000000000000000000000815260040161100490612167565b60405180910390fd5b6110185f838361118a565b8060025f8282546110299190611bd2565b92505081905550805f808473ffffffffffffffffffffffffffffffffffffffff1673ffffffffffffffffffffffffffffffffffffffff1681526020019081526020015f205f82825401925050819055508173ffffffffffffffffffffffffffffffffffffffff165f73ffffffffffffffffffffffffffffffffffffffff167fddf252ad1be2c89b69c2b068fc378daa952ba7f163c4a11628f55a4df523b3ef836040516110d69190611735565b60405180910390a36110e95f838361118f565b5050565b5f8060075f8473ffffffffffffffffffffffffffffffffffffffff1673ffffffffffffffffffffffffffffffffffffffff1681526020019081526020015f20905061113781610ee6565b91506111428161129b565b50919050565b5f61115a611154610e30565b836112af565b9050919050565b5f805f611170878787876112ef565b9150915061117d816113c7565b8192505050949350505050565b505050565b505050565b5f7f8b73c3c69bb8fe3d512ecc4cf759cc79239f7b179b0ffacaa9a75d522b39400f7f00000000000000000000000000000000000000000000000000000000000000007f0000000000000000000000000000000000000000000000000000000000000000463060405160200161120e959493929190612185565b60405160208183030381529060405280519060200120905090565b60605f6112358361152c565b90505f602067ffffffffffffffff81111561125357611252611c05565b5b6040519080825280601f01601f1916602001820160405280156112855781602001600182028036833780820191505090505b5090508181528360208201528092505050919050565b6001815f015f828254019250508190555050565b5f6040517f190100000000000000000000000000000000000000000000000000000000000081528360028201528260228201526042812091505092915050565b5f807f7fffffffffffffffffffffffffffffff5d576e7357a4501ddfe92f46681b20a0835f1c1115611327575f6003915091506113be565b5f6001878787876040515f815260200160405260405161134a94939291906121d6565b6020604051602081039080840390855afa15801561136a573d5f803e3d5ffd5b5050506020604051035190505f73ffffffffffffffffffffffffffffffffffffffff168173ffffffffffffffffffffffffffffffffffffffff16036113b6575f600192509250506113be565b805f92509250505b94509492505050565b5f60048111156113da576113d9612219565b5b8160048111156113ed576113ec612219565b5b0315611529576001600481111561140757611406612219565b5b81600481111561141a57611419612219565b5b0361145a576040517f08c379a000000000000000000000000000000000000000000000000000000000815260040161145190612290565b60405180910390fd5b6002600481111561146e5761146d612219565b5b81600481111561148157611480612219565b5b036114c1576040517f08c379a00000000000000000000000000000000000000000000000000000000081526004016114b8906122f8565b60405180910390fd5b600360048111156114d5576114d4612219565b5b8160048111156114e8576114e7612219565b5b03611528576040517f08c379a000000000000000000000000000000000000000000000000000000000815260040161151f90612386565b60405180910390fd5b5b50565b5f8060ff835f1c169050601f811115611571576040517fb3512b0c00000000000000000000000000000000000000000000000000000000815260040160405180910390fd5b80915050919050565b5f81519050919050565b5f82825260208201905092915050565b5f5b838110156115b1578082015181840152602081019050611596565b5f8484015250505050565b5f601f19601f8301169050919050565b5f6115d68261157a565b6115e08185611584565b93506115f0818560208601611594565b6115f9816115bc565b840191505092915050565b5f6020820190508181035f83015261161c81846115cc565b905092915050565b5f80fd5b5f73ffffffffffffffffffffffffffffffffffffffff82169050919050565b5f61165182611628565b9050919050565b61166181611647565b811461166b575f80fd5b50565b5f8135905061167c81611658565b92915050565b5f819050919050565b61169481611682565b811461169e575f80fd5b50565b5f813590506116af8161168b565b92915050565b5f80604083850312156116cb576116ca611624565b5b5f6116d88582860161166e565b92505060206116e9858286016116a1565b9150509250929050565b5f8115159050919050565b611707816116f3565b82525050565b5f6020820190506117205f8301846116fe565b92915050565b61172f81611682565b82525050565b5f6020820190506117485f830184611726565b92915050565b5f805f6060848603121561176557611764611624565b5b5f6117728682870161166e565b93505060206117838682870161166e565b9250506040611794868287016116a1565b9150509250925092565b5f60ff82169050919050565b6117b38161179e565b82525050565b5f6020820190506117cc5f8301846117aa565b92915050565b5f819050919050565b6117e4816117d2565b82525050565b5f6020820190506117fd5f8301846117db565b92915050565b5f6020828403121561181857611817611624565b5b5f6118258482850161166e565b91505092915050565b5f7fff0000000000000000000000000000000000000000000000000000000000000082169050919050565b6118628161182e565b82525050565b61187181611647565b82525050565b5f81519050919050565b5f82825260208201905092915050565b5f819050602082019050919050565b6118a981611682565b82525050565b5f6118ba83836118a0565b60208301905092915050565b5f602082019050919050565b5f6118dc82611877565b6118e68185611881565b93506118f183611891565b805f5b8381101561192157815161190888826118af565b9750611913836118c6565b9250506001810190506118f4565b5085935050505092915050565b5f60e0820190506119415f83018a611859565b818103602083015261195381896115cc565b9050818103604083015261196781886115cc565b90506119766060830187611726565b6119836080830186611868565b61199060a08301856117db565b81810360c08301526119a281846118d2565b905098975050505050505050565b5f80604083850312156119c6576119c5611624565b5b5f6119d3858286016116a1565b92505060206119e48582860161166e565b9150509250929050565b5f60208284031215611a0357611a02611624565b5b5f611a10848285016116a1565b91505092915050565b611a228161179e565b8114611a2c575f80fd5b50565b5f81359050611a3d81611a19565b92915050565b611a4c816117d2565b8114611a56575f80fd5b50565b5f81359050611a6781611a43565b92915050565b5f805f805f805f60e0888a031215611a8857611a87611624565b5b5f611a958a828b0161166e565b9750506020611aa68a828b0161166e565b9650506040611ab78a828b016116a1565b9550506060611ac88a828b016116a1565b9450506080611ad98a828b01611a2f565b93505060a0611aea8a828b01611a59565b92505060c0611afb8a828b01611a59565b91505092959891949750929550565b5f8060408385031215611b2057611b1f611624565b5b5f611b2d8582860161166e565b9250506020611b3e8582860161166e565b9150509250929050565b7f4e487b71000000000000000000000000000000000000000000000000000000005f52602260045260245ffd5b5f6002820490506001821680611b8c57607f821691505b602082108103611b9f57611b9e611b48565b5b50919050565b7f4e487b71000000000000000000000000000000000000000000000000000000005f52601160045260245ffd5b5f611bdc82611682565b9150611be783611682565b9250828201905080821115611bff57611bfe611ba5565b5b92915050565b7f4e487b71000000000000000000000000000000000000000000000000000000005f52604160045260245ffd5b7f45524332303a2064656372656173656420616c6c6f77616e63652062656c6f775f8201527f207a65726f000000000000000000000000000000000000000000000000000000602082015250565b5f611c8c602583611584565b9150611c9782611c32565b604082019050919050565b5f6020820190508181035f830152611cb981611c80565b9050919050565b7f45524332305065726d69743a206578706972656420646561646c696e650000005f82015250565b5f611cf4601d83611584565b9150611cff82611cc0565b602082019050919050565b5f6020820190508181035f830152611d2181611ce8565b9050919050565b5f60c082019050611d3b5f8301896117db565b611d486020830188611868565b611d556040830187611868565b611d626060830186611726565b611d6f6080830185611726565b611d7c60a0830184611726565b979650505050505050565b7f45524332305065726d69743a20696e76616c6964207369676e617475726500005f82015250565b5f611dbb601e83611584565b9150611dc682611d87565b602082019050919050565b5f6020820190508181035f830152611de881611daf565b9050919050565b7f45524332303a20617070726f76652066726f6d20746865207a65726f206164645f8201527f7265737300000000000000000000000000000000000000000000000000000000602082015250565b5f611e49602483611584565b9150611e5482611def565b604082019050919050565b5f6020820190508181035f830152611e7681611e3d565b9050919050565b7f45524332303a20617070726f766520746f20746865207a65726f2061646472655f8201527f7373000000000000000000000000000000000000000000000000000000000000602082015250565b5f611ed7602283611584565b9150611ee282611e7d565b604082019050919050565b5f6020820190508181035f830152611f0481611ecb565b9050919050565b7f45524332303a20696e73756666696369656e7420616c6c6f77616e63650000005f82015250565b5f611f3f601d83611584565b9150611f4a82611f0b565b602082019050919050565b5f6020820190508181035f830152611f6c81611f33565b9050919050565b7f45524332303a207472616e736665722066726f6d20746865207a65726f2061645f8201527f6472657373000000000000000000000000000000000000000000000000000000602082015250565b5f611fcd602583611584565b9150611fd882611f73565b604082019050919050565b5f6020820190508181035f830152611ffa81611fc1565b9050919050565b7f45524332303a207472616e7366657220746f20746865207a65726f20616464725f8201527f6573730000000000000000000000000000000000000000000000000000000000602082015250565b5f61205b602383611584565b915061206682612001565b604082019050919050565b5f6020820190508181035f8301526120888161204f565b9050919050565b7f45524332303a207472616e7366657220616d6f756e74206578636565647320625f8201527f616c616e63650000000000000000000000000000000000000000000000000000602082015250565b5f6120e9602683611584565b91506120f48261208f565b604082019050919050565b5f6020820190508181035f830152612116816120dd565b9050919050565b7f45524332303a206d696e7420746f20746865207a65726f2061646472657373005f82015250565b5f612151601f83611584565b915061215c8261211d565b602082019050919050565b5f6020820190508181035f83015261217e81612145565b9050919050565b5f60a0820190506121985f8301886117db565b6121a560208301876117db565b6121b260408301866117db565b6121bf6060830185611726565b6121cc6080830184611868565b9695505050505050565b5f6080820190506121e95f8301876117db565b6121f660208301866117aa565b61220360408301856117db565b61221060608301846117db565b95945050505050565b7f4e487b71000000000000000000000000000000000000000000000000000000005f52602160045260245ffd5b7f45434453413a20696e76616c6964207369676e617475726500000000000000005f82015250565b5f61227a601883611584565b915061228582612246565b602082019050919050565b5f6020820190508181035f8301526122a78161226e565b9050919050565b7f45434453413a20696e76616c6964207369676e6174757265206c656e677468005f82015250565b5f6122e2601f83611584565b91506122ed826122ae565b602082019050919050565b5f6020820190508181035f83015261230f816122d6565b9050919050565b7f45434453413a20696e76616c6964207369676e6174757265202773272076616c5f8201527f7565000000000000000000000000000000000000000000000000000000000000602082015250565b5f612370602283611584565b915061237b82612316565b604082019050919050565b5f6020820190508181035f83015261239d81612364565b905091905056fea264697066735822122007ae965332ea3d3e90644e17178f26e9f68711fa1e2e787c8808bf71865b0f0b64736f6c63430008140033","linkReferences":{}},"methodIdentifiers":{"DOMAIN_SEPARATOR()":"3644e515","allowance(address,address)":"dd62ed3e","approve(address,uint256)":"095ea7b3","balanceOf(address)":"70a08231","decimals()":"313ce567","decreaseAllowance(address,uint256)":"a457c2d7","eip712Domain()":"84b0196e","increaseAllowance(address,uint256)":"39509351","mint(uint256)":"a0712d68","mint(uint256,address)":"94bf804d","name()":"06fdde03","nonces(address)":"7ecebe00","permit(address,address,uint256,uint256,uint8,bytes32,bytes32)":"d505accf","symbol()":"95d89b41","totalSupply()":"18160ddd","transfer(address,uint256)":"a9059cbb","transferFrom(address,address,uint256)":"23b872dd"},"id":45}