{"abi":[{"type":"constructor","inputs":[{"name":"admin","type":"address","internalType":"address"}],"stateMutability":"nonpayable"},{"type":"function","name":"DOMAIN_SEPARATOR","inputs":[],"outputs":[{"name":"","type":"bytes32","internalType":"bytes32"}],"stateMutability":"view"},{"type":"function","name":"acceptOwnership","inputs":[],"outputs":[],"stateMutability":"nonpayable"},{"type":"function","name":"allowance","inputs":[{"name":"owner","type":"address","internalType":"address"},{"name":"spender","type":"address","internalType":"address"}],"outputs":[{"name":"","type":"uint256","internalType":"uint256"}],"stateMutability":"view"},{"type":"function","name":"approve","inputs":[{"name":"spender","type":"address","internalType":"address"},{"name":"amount","type":"uint256","internalType":"uint256"}],"outputs":[{"name":"","type":"bool","internalType":"bool"}],"stateMutability":"nonpayable"},{"type":"function","name":"balanceOf","inputs":[{"name":"account","type":"address","internalType":"address"}],"outputs":[{"name":"","type":"uint256","internalType":"uint256"}],"stateMutability":"view"},{"type":"function","name":"burn","inputs":[{"name":"amount","type":"uint256","internalType":"uint256"}],"outputs":[],"stateMutability":"nonpayable"},{"type":"function","name":"burnFrom","inputs":[{"name":"account","type":"address","internalType":"address"},{"name":"amount","type":"uint256","internalType":"uint256"}],"outputs":[],"stateMutability":"nonpayable"},{"type":"function","name":"decimals","inputs":[],"outputs":[{"name":"","type":"uint8","internalType":"uint8"}],"stateMutability":"view"},{"type":"function","name":"decreaseAllowance","inputs":[{"name":"spender","type":"address","internalType":"address"},{"name":"subtractedValue","type":"uint256","internalType":"uint256"}],"outputs":[{"name":"","type":"bool","internalType":"bool"}],"stateMutability":"nonpayable"},{"type":"function","name":"eip712Domain","inputs":[],"outputs":[{"name":"fields","type":"bytes1","internalType":"bytes1"},{"name":"name","type":"string","internalType":"string"},{"name":"version","type":"string","internalType":"string"},{"name":"chainId","type":"uint256","internalType":"uint256"},{"name":"verifyingContract","type":"address","internalType":"address"},{"name":"salt","type":"bytes32","internalType":"bytes32"},{"name":"extensions","type":"uint256[]","internalType":"uint256[]"}],"stateMutability":"view"},{"type":"function","name":"increaseAllowance","inputs":[{"name":"spender","type":"address","internalType":"address"},{"name":"addedValue","type":"uint256","internalType":"uint256"}],"outputs":[{"name":"","type":"bool","internalType":"bool"}],"stateMutability":"nonpayable"},{"type":"function","name":"mint","inputs":[{"name":"to","type":"address","internalType":"address"},{"name":"amount","type":"uint256","internalType":"uint256"}],"outputs":[],"stateMutability":"nonpayable"},{"type":"function","name":"minter","inputs":[],"outputs":[{"name":"","type":"address","internalType":"address"}],"stateMutability":"view"},{"type":"function","name":"name","inputs":[],"outputs":[{"name":"","type":"string","internalType":"string"}],"stateMutability":"view"},{"type":"function","name":"nonces","inputs":[{"name":"owner","type":"address","internalType":"address"}],"outputs":[{"name":"","type":"uint256","internalType":"uint256"}],"stateMutability":"view"},{"type":"function","name":"owner","inputs":[],"outputs":[{"name":"","type":"address","internalType":"address"}],"stateMutability":"view"},{"type":"function","name":"pendingOwner","inputs":[],"outputs":[{"name":"","type":"address","internalType":"address"}],"stateMutability":"view"},{"type":"function","name":"permit","inputs":[{"name":"owner","type":"address","internalType":"address"},{"name":"spender","type":"address","internalType":"address"},{"name":"value","type":"uint256","internalType":"uint256"},{"name":"deadline","type":"uint256","internalType":"uint256"},{"name":"v","type":"uint8","internalType":"uint8"},{"name":"r","type":"bytes32","internalType":"bytes32"},{"name":"s","type":"bytes32","internalType":"bytes32"}],"outputs":[],"stateMutability":"nonpayable"},{"type":"function","name":"renounceOwnership","inputs":[],"outputs":[],"stateMutability":"view"},{"type":"function","name":"setMinter","inputs":[{"name":"newMinter","type":"address","internalType":"address"}],"outputs":[],"stateMutability":"nonpayable"},{"type":"function","name":"symbol","inputs":[],"outputs":[{"name":"","type":"string","internalType":"string"}],"stateMutability":"view"},{"type":"function","name":"totalSupply","inputs":[],"outputs":[{"name":"","type":"uint256","internalType":"uint256"}],"stateMutability":"view"},{"type":"function","name":"transfer","inputs":[{"name":"to","type":"address","internalType":"address"},{"name":"amount","type":"uint256","internalType":"uint256"}],"outputs":[{"name":"","type":"bool","internalType":"bool"}],"stateMutability":"nonpayable"},{"type":"function","name":"transferFrom","inputs":[{"name":"from","type":"address","internalType":"address"},{"name":"to","type":"address","internalType":"address"},{"name":"amount","type":"uint256","internalType":"uint256"}],"outputs":[{"name":"","type":"bool","internalType":"bool"}],"stateMutability":"nonpayable"},{"type":"function","name":"transferOwnership","inputs":[{"name":"newOwner","type":"address","internalType":"address"}],"outputs":[],"stateMutability":"nonpayable"},{"type":"event","name":"Approval","inputs":[{"name":"owner","type":"address","indexed":true,"internalType":"address"},{"name":"spender","type":"address","indexed":true,"internalType":"address"},{"name":"value","type":"uint256","indexed":false,"internalType":"uint256"}],"anonymous":false},{"type":"event","name":"EIP712DomainChanged","inputs":[],"anonymous":false},{"type":"event","name":"MinterUpdated","inputs":[{"name":"newMinter","type":"address","indexed":true,"internalType":"address"},{"name":"oldMinter","type":"address","indexed":true,"internalType":"address"}],"anonymous":false},{"type":"event","name":"OwnershipTransferStarted","inputs":[{"name":"previousOwner","type":"address","indexed":true,"internalType":"address"},{"name":"newOwner","type":"address","indexed":true,"internalType":"address"}],"anonymous":false},{"type":"event","name":"OwnershipTransferred","inputs":[{"name":"previousOwner","type":"address","indexed":true,"internalType":"address"},{"name":"newOwner","type":"address","indexed":true,"internalType":"address"}],"anonymous":false},{"type":"event","name":"Transfer","inputs":[{"name":"from","type":"address","indexed":true,"internalType":"address"},{"name":"to","type":"address","indexed":true,"internalType":"address"},{"name":"value","type":"uint256","indexed":false,"internalType":"uint256"}],"anonymous":false},{"type":"error","name":"CantRenounceOwnership","inputs":[]},{"type":"error","name":"InvalidShortString","inputs":[]},{"type":"error","name":"OnlyMinter","inputs":[]},{"type":"error","name":"StringTooLong","inputs":[{"name":"str","type":"string","internalType":"string"}]},{"type":"error","name":"ZeroAddressException","inputs":[]}],"bytecode":{"object":"0x61016060405234801562000011575f80fd5b506040516200382f3803806200382f83398181016040528101906200003791906200050e565b6040518060400160405280600481526020017f5553446500000000000000000000000000000000000000000000000000000000815250806040518060400160405280600181526020017f31000000000000000000000000000000000000000000000000000000000000008152506040518060400160405280600481526020017f55534465000000000000000000000000000000000000000000000000000000008152506040518060400160405280600481526020017f555344650000000000000000000000000000000000000000000000000000000081525062000130620001246200028560201b60201c565b6200028c60201b60201c565b8160059081620001419190620007a2565b508060069081620001539190620007a2565b5050506200016c600783620002c460201b90919060201c565b61012081815250506200018a600882620002c460201b90919060201c565b6101408181525050818051906020012060e08181525050808051906020012061010081815250504660a08181525050620001c96200031960201b60201c565b608081815250503073ffffffffffffffffffffffffffffffffffffffff1660c08173ffffffffffffffffffffffffffffffffffffffff16815250505050505f73ffffffffffffffffffffffffffffffffffffffff168173ffffffffffffffffffffffffffffffffffffffff16036200026d576040517fb2335f2e00000000000000000000000000000000000000000000000000000000815260040160405180910390fd5b6200027e816200028c60201b60201c565b5062000a67565b5f33905090565b60015f6101000a81549073ffffffffffffffffffffffffffffffffffffffff0219169055620002c1816200037560201b60201c565b50565b5f602083511015620002e957620002e1836200043660201b60201c565b905062000313565b82620002fb83620004a060201b60201c565b5f0190816200030b9190620007a2565b5060ff5f1b90505b92915050565b5f7f8b73c3c69bb8fe3d512ecc4cf759cc79239f7b179b0ffacaa9a75d522b39400f60e0516101005146306040516020016200035a959493929190620008c2565b60405160208183030381529060405280519060200120905090565b5f805f9054906101000a900473ffffffffffffffffffffffffffffffffffffffff169050815f806101000a81548173ffffffffffffffffffffffffffffffffffffffff021916908373ffffffffffffffffffffffffffffffffffffffff1602179055508173ffffffffffffffffffffffffffffffffffffffff168173ffffffffffffffffffffffffffffffffffffffff167f8be0079c531659141344cd1fd0a4f28419497f9722a3daafe3b4186f6b6457e060405160405180910390a35050565b5f80829050601f815111156200048557826040517f305a27a90000000000000000000000000000000000000000000000000000000081526004016200047c9190620009a7565b60405180910390fd5b8051816200049390620009f8565b5f1c175f1b915050919050565b5f819050919050565b5f80fd5b5f73ffffffffffffffffffffffffffffffffffffffff82169050919050565b5f620004d882620004ad565b9050919050565b620004ea81620004cc565b8114620004f5575f80fd5b50565b5f815190506200050881620004df565b92915050565b5f60208284031215620005265762000525620004a9565b5b5f6200053584828501620004f8565b91505092915050565b5f81519050919050565b7f4e487b71000000000000000000000000000000000000000000000000000000005f52604160045260245ffd5b7f4e487b71000000000000000000000000000000000000000000000000000000005f52602260045260245ffd5b5f6002820490506001821680620005ba57607f821691505b602082108103620005d057620005cf62000575565b5b50919050565b5f819050815f5260205f209050919050565b5f6020601f8301049050919050565b5f82821b905092915050565b5f60088302620006347fffffffffffffffffffffffffffffffffffffffffffffffffffffffffffffffff82620005f7565b620006408683620005f7565b95508019841693508086168417925050509392505050565b5f819050919050565b5f819050919050565b5f6200068a620006846200067e8462000658565b62000661565b62000658565b9050919050565b5f819050919050565b620006a5836200066a565b620006bd620006b48262000691565b84845462000603565b825550505050565b5f90565b620006d3620006c5565b620006e08184846200069a565b505050565b5b818110156200070757620006fb5f82620006c9565b600181019050620006e6565b5050565b601f82111562000756576200072081620005d6565b6200072b84620005e8565b810160208510156200073b578190505b620007536200074a85620005e8565b830182620006e5565b50505b505050565b5f82821c905092915050565b5f620007785f19846008026200075b565b1980831691505092915050565b5f62000792838362000767565b9150826002028217905092915050565b620007ad826200053e565b67ffffffffffffffff811115620007c957620007c862000548565b5b620007d58254620005a2565b620007e28282856200070b565b5f60209050601f83116001811462000818575f841562000803578287015190505b6200080f858262000785565b8655506200087e565b601f1984166200082886620005d6565b5f5b8281101562000851578489015182556001820191506020850194506020810190506200082a565b868310156200087157848901516200086d601f89168262000767565b8355505b6001600288020188555050505b505050505050565b5f819050919050565b6200089a8162000886565b82525050565b620008ab8162000658565b82525050565b620008bc81620004cc565b82525050565b5f60a082019050620008d75f8301886200088f565b620008e660208301876200088f565b620008f560408301866200088f565b620009046060830185620008a0565b620009136080830184620008b1565b9695505050505050565b5f82825260208201905092915050565b5f5b838110156200094c5780820151818401526020810190506200092f565b5f8484015250505050565b5f601f19601f8301169050919050565b5f62000973826200053e565b6200097f81856200091d565b9350620009918185602086016200092d565b6200099c8162000957565b840191505092915050565b5f6020820190508181035f830152620009c1818462000967565b905092915050565b5f81519050919050565b5f819050602082019050919050565b5f620009ef825162000886565b80915050919050565b5f62000a0482620009c9565b8262000a1084620009d3565b905062000a1d81620009e2565b9250602082101562000a605762000a5b7fffffffffffffffffffffffffffffffffffffffffffffffffffffffffffffffff83602003600802620005f7565b831692505b5050919050565b60805160a05160c05160e051610100516101205161014051612d7662000ab95f395f61088401525f61085001525f6118c701525f6118a601525f6112ad01525f61130301525f61132c0152612d765ff3fe608060405234801561000f575f80fd5b5060043610610171575f3560e01c806379ba5097116100dc578063a457c2d711610095578063dd62ed3e1161006f578063dd62ed3e1461043f578063e30c39781461046f578063f2fde38b1461048d578063fca3b5aa146104a957610171565b8063a457c2d7146103c3578063a9059cbb146103f3578063d505accf1461042357610171565b806379ba50971461030d57806379cc6790146103175780637ecebe001461033357806384b0196e146103635780638da5cb5b1461038757806395d89b41146103a557610171565b80633644e5151161012e5780633644e5151461024d578063395093511461026b57806340c10f191461029b57806342966c68146102b757806370a08231146102d3578063715018a61461030357610171565b806306fdde03146101755780630754617214610193578063095ea7b3146101b157806318160ddd146101e157806323b872dd146101ff578063313ce5671461022f575b5f80fd5b61017d6104c5565b60405161018a9190611db3565b60405180910390f35b61019b610555565b6040516101a89190611e12565b60405180910390f35b6101cb60048036038101906101c69190611e8c565b61057a565b6040516101d89190611ee4565b60405180910390f35b6101e961059c565b6040516101f69190611f0c565b60405180910390f35b61021960048036038101906102149190611f25565b6105a5565b6040516102269190611ee4565b60405180910390f35b6102376105d3565b6040516102449190611f90565b60405180910390f35b6102556105db565b6040516102629190611fc1565b60405180910390f35b61028560048036038101906102809190611e8c565b6105e9565b6040516102929190611ee4565b60405180910390f35b6102b560048036038101906102b09190611e8c565b61061f565b005b6102d160048036038101906102cc9190611fda565b6106b3565b005b6102ed60048036038101906102e89190612005565b6106c7565b6040516102fa9190611f0c565b60405180910390f35b61030b61070d565b005b610315610747565b005b610331600480360381019061032c9190611e8c565b6107d3565b005b61034d60048036038101906103489190612005565b6107f3565b60405161035a9190611f0c565b60405180910390f35b61036b610840565b60405161037e9796959493929190612121565b60405180910390f35b61038f61093d565b60405161039c9190611e12565b60405180910390f35b6103ad610964565b6040516103ba9190611db3565b60405180910390f35b6103dd60048036038101906103d89190611e8c565b6109f4565b6040516103ea9190611ee4565b60405180910390f35b61040d60048036038101906104089190611e8c565b610a69565b60405161041a9190611ee4565b60405180910390f35b61043d600480360381019061043891906121f7565b610a8b565b005b61045960048036038101906104549190612294565b610bca565b6040516104669190611f0c565b60405180910390f35b610477610c4c565b6040516104849190611e12565b60405180910390f35b6104a760048036038101906104a29190612005565b610c74565b005b6104c360048036038101906104be9190612005565b610d20565b005b6060600580546104d4906122ff565b80601f0160208091040260200160405190810160405280929190818152602001828054610500906122ff565b801561054b5780601f106105225761010080835404028352916020019161054b565b820191905f5260205f20905b81548152906001019060200180831161052e57829003601f168201915b5050505050905090565b600b5f9054906101000a900473ffffffffffffffffffffffffffffffffffffffff1681565b5f80610584610de6565b9050610591818585610ded565b600191505092915050565b5f600454905090565b5f806105af610de6565b90506105bc858285610fb0565b6105c785858561103b565b60019150509392505050565b5f6012905090565b5f6105e46112aa565b905090565b5f806105f3610de6565b90506106148185856106058589610bca565b61060f919061235c565b610ded565b600191505092915050565b600b5f9054906101000a900473ffffffffffffffffffffffffffffffffffffffff1673ffffffffffffffffffffffffffffffffffffffff163373ffffffffffffffffffffffffffffffffffffffff16146106a5576040517f9cdc2ed500000000000000000000000000000000000000000000000000000000815260040160405180910390fd5b6106af8282611360565b5050565b6106c46106be610de6565b826114af565b50565b5f60025f8373ffffffffffffffffffffffffffffffffffffffff1673ffffffffffffffffffffffffffffffffffffffff1681526020019081526020015f20549050919050565b610715611674565b6040517f185b73b100000000000000000000000000000000000000000000000000000000815260040160405180910390fd5b5f610750610de6565b90508073ffffffffffffffffffffffffffffffffffffffff16610771610c4c565b73ffffffffffffffffffffffffffffffffffffffff16146107c7576040517f08c379a00000000000000000000000000000000000000000000000000000000081526004016107be906123ff565b60405180910390fd5b6107d0816116f2565b50565b6107e5826107df610de6565b83610fb0565b6107ef82826114af565b5050565b5f61083960095f8473ffffffffffffffffffffffffffffffffffffffff1673ffffffffffffffffffffffffffffffffffffffff1681526020019081526020015f20611722565b9050919050565b5f6060805f805f606061087d60077f000000000000000000000000000000000000000000000000000000000000000061172e90919063ffffffff16565b6108b160087f000000000000000000000000000000000000000000000000000000000000000061172e90919063ffffffff16565b46305f801b5f67ffffffffffffffff8111156108d0576108cf61241d565b5b6040519080825280602002602001820160405280156108fe5781602001602082028036833780820191505090505b507f0f00000000000000000000000000000000000000000000000000000000000000959493929190965096509650965096509650965090919293949596565b5f805f9054906101000a900473ffffffffffffffffffffffffffffffffffffffff16905090565b606060068054610973906122ff565b80601f016020809104026020016040519081016040528092919081815260200182805461099f906122ff565b80156109ea5780601f106109c1576101008083540402835291602001916109ea565b820191905f5260205f20905b8154815290600101906020018083116109cd57829003601f168201915b5050505050905090565b5f806109fe610de6565b90505f610a0b8286610bca565b905083811015610a50576040517f08c379a0000000000000000000000000000000000000000000000000000000008152600401610a47906124ba565b60405180910390fd5b610a5d8286868403610ded565b60019250505092915050565b5f80610a73610de6565b9050610a8081858561103b565b600191505092915050565b83421115610ace576040517f08c379a0000000000000000000000000000000000000000000000000000000008152600401610ac590612522565b60405180910390fd5b5f7f6e71edae12b1b97f4d1f60370fef10105fa2faae0126114a169c64845d6126c9888888610afc8c6117db565b89604051602001610b1296959493929190612540565b6040516020818303038152906040528051906020012090505f610b3482611836565b90505f610b438287878761184f565b90508973ffffffffffffffffffffffffffffffffffffffff168173ffffffffffffffffffffffffffffffffffffffff1614610bb3576040517f08c379a0000000000000000000000000000000000000000000000000000000008152600401610baa906125e9565b60405180910390fd5b610bbe8a8a8a610ded565b50505050505050505050565b5f60035f8473ffffffffffffffffffffffffffffffffffffffff1673ffffffffffffffffffffffffffffffffffffffff1681526020019081526020015f205f8373ffffffffffffffffffffffffffffffffffffffff1673ffffffffffffffffffffffffffffffffffffffff1681526020019081526020015f2054905092915050565b5f60015f9054906101000a900473ffffffffffffffffffffffffffffffffffffffff16905090565b610c7c611674565b8060015f6101000a81548173ffffffffffffffffffffffffffffffffffffffff021916908373ffffffffffffffffffffffffffffffffffffffff1602179055508073ffffffffffffffffffffffffffffffffffffffff16610cdb61093d565b73ffffffffffffffffffffffffffffffffffffffff167f38d16b8cac22d99fc7c124b9cd0de2d3fa1faef420bfe791d8c362d765e2270060405160405180910390a350565b610d28611674565b600b5f9054906101000a900473ffffffffffffffffffffffffffffffffffffffff1673ffffffffffffffffffffffffffffffffffffffff168173ffffffffffffffffffffffffffffffffffffffff167f1cf2de25c5bf439ac0287061c3a0fa69b3b02867d0ccfd2ded34e42577050b7360405160405180910390a380600b5f6101000a81548173ffffffffffffffffffffffffffffffffffffffff021916908373ffffffffffffffffffffffffffffffffffffffff16021790555050565b5f33905090565b5f73ffffffffffffffffffffffffffffffffffffffff168373ffffffffffffffffffffffffffffffffffffffff1603610e5b576040517f08c379a0000000000000000000000000000000000000000000000000000000008152600401610e5290612677565b60405180910390fd5b5f73ffffffffffffffffffffffffffffffffffffffff168273ffffffffffffffffffffffffffffffffffffffff1603610ec9576040517f08c379a0000000000000000000000000000000000000000000000000000000008152600401610ec090612705565b60405180910390fd5b8060035f8573ffffffffffffffffffffffffffffffffffffffff1673ffffffffffffffffffffffffffffffffffffffff1681526020019081526020015f205f8473ffffffffffffffffffffffffffffffffffffffff1673ffffffffffffffffffffffffffffffffffffffff1681526020019081526020015f20819055508173ffffffffffffffffffffffffffffffffffffffff168373ffffffffffffffffffffffffffffffffffffffff167f8c5be1e5ebec7d5bd14f71427d1e84f3dd0314c0f7b2291e5b200ac8c7c3b92583604051610fa39190611f0c565b60405180910390a3505050565b5f610fbb8484610bca565b90507fffffffffffffffffffffffffffffffffffffffffffffffffffffffffffffffff81146110355781811015611027576040517f08c379a000000000000000000000000000000000000000000000000000000000815260040161101e9061276d565b60405180910390fd5b6110348484848403610ded565b5b50505050565b5f73ffffffffffffffffffffffffffffffffffffffff168373ffffffffffffffffffffffffffffffffffffffff16036110a9576040517f08c379a00000000000000000000000000000000000000000000000000000000081526004016110a0906127fb565b60405180910390fd5b5f73ffffffffffffffffffffffffffffffffffffffff168273ffffffffffffffffffffffffffffffffffffffff1603611117576040517f08c379a000000000000000000000000000000000000000000000000000000000815260040161110e90612889565b60405180910390fd5b611122838383611878565b5f60025f8573ffffffffffffffffffffffffffffffffffffffff1673ffffffffffffffffffffffffffffffffffffffff1681526020019081526020015f20549050818110156111a6576040517f08c379a000000000000000000000000000000000000000000000000000000000815260040161119d90612917565b60405180910390fd5b81810360025f8673ffffffffffffffffffffffffffffffffffffffff1673ffffffffffffffffffffffffffffffffffffffff1681526020019081526020015f20819055508160025f8573ffffffffffffffffffffffffffffffffffffffff1673ffffffffffffffffffffffffffffffffffffffff1681526020019081526020015f205f82825401925050819055508273ffffffffffffffffffffffffffffffffffffffff168473ffffffffffffffffffffffffffffffffffffffff167fddf252ad1be2c89b69c2b068fc378daa952ba7f163c4a11628f55a4df523b3ef846040516112919190611f0c565b60405180910390a36112a484848461187d565b50505050565b5f7f000000000000000000000000000000000000000000000000000000000000000073ffffffffffffffffffffffffffffffffffffffff163073ffffffffffffffffffffffffffffffffffffffff1614801561132557507f000000000000000000000000000000000000000000000000000000000000000046145b15611352577f0000000000000000000000000000000000000000000000000000000000000000905061135d565b61135a611882565b90505b90565b5f73ffffffffffffffffffffffffffffffffffffffff168273ffffffffffffffffffffffffffffffffffffffff16036113ce576040517f08c379a00000000000000000000000000000000000000000000000000000000081526004016113c59061297f565b60405180910390fd5b6113d95f8383611878565b8060045f8282546113ea919061235c565b925050819055508060025f8473ffffffffffffffffffffffffffffffffffffffff1673ffffffffffffffffffffffffffffffffffffffff1681526020019081526020015f205f82825401925050819055508173ffffffffffffffffffffffffffffffffffffffff165f73ffffffffffffffffffffffffffffffffffffffff167fddf252ad1be2c89b69c2b068fc378daa952ba7f163c4a11628f55a4df523b3ef836040516114989190611f0c565b60405180910390a36114ab5f838361187d565b5050565b5f73ffffffffffffffffffffffffffffffffffffffff168273ffffffffffffffffffffffffffffffffffffffff160361151d576040517f08c379a000000000000000000000000000000000000000000000000000000000815260040161151490612a0d565b60405180910390fd5b611528825f83611878565b5f60025f8473ffffffffffffffffffffffffffffffffffffffff1673ffffffffffffffffffffffffffffffffffffffff1681526020019081526020015f20549050818110156115ac576040517f08c379a00000000000000000000000000000000000000000000000000000000081526004016115a390612a9b565b60405180910390fd5b81810360025f8573ffffffffffffffffffffffffffffffffffffffff1673ffffffffffffffffffffffffffffffffffffffff1681526020019081526020015f20819055508160045f82825403925050819055505f73ffffffffffffffffffffffffffffffffffffffff168373ffffffffffffffffffffffffffffffffffffffff167fddf252ad1be2c89b69c2b068fc378daa952ba7f163c4a11628f55a4df523b3ef8460405161165c9190611f0c565b60405180910390a361166f835f8461187d565b505050565b61167c610de6565b73ffffffffffffffffffffffffffffffffffffffff1661169a61093d565b73ffffffffffffffffffffffffffffffffffffffff16146116f0576040517f08c379a00000000000000000000000000000000000000000000000000000000081526004016116e790612b03565b60405180910390fd5b565b60015f6101000a81549073ffffffffffffffffffffffffffffffffffffffff021916905561171f81611917565b50565b5f815f01549050919050565b606060ff5f1b831461174a57611743836119d8565b90506117d5565b818054611756906122ff565b80601f0160208091040260200160405190810160405280929190818152602001828054611782906122ff565b80156117cd5780601f106117a4576101008083540402835291602001916117cd565b820191905f5260205f20905b8154815290600101906020018083116117b057829003601f168201915b505050505090505b92915050565b5f8060095f8473ffffffffffffffffffffffffffffffffffffffff1673ffffffffffffffffffffffffffffffffffffffff1681526020019081526020015f20905061182581611722565b915061183081611a4a565b50919050565b5f6118486118426112aa565b83611a5e565b9050919050565b5f805f61185e87878787611a9e565b9150915061186b81611b76565b8192505050949350505050565b505050565b505050565b5f7f8b73c3c69bb8fe3d512ecc4cf759cc79239f7b179b0ffacaa9a75d522b39400f7f00000000000000000000000000000000000000000000000000000000000000007f000000000000000000000000000000000000000000000000000000000000000046306040516020016118fc959493929190612b21565b60405160208183030381529060405280519060200120905090565b5f805f9054906101000a900473ffffffffffffffffffffffffffffffffffffffff169050815f806101000a81548173ffffffffffffffffffffffffffffffffffffffff021916908373ffffffffffffffffffffffffffffffffffffffff1602179055508173ffffffffffffffffffffffffffffffffffffffff168173ffffffffffffffffffffffffffffffffffffffff167f8be0079c531659141344cd1fd0a4f28419497f9722a3daafe3b4186f6b6457e060405160405180910390a35050565b60605f6119e483611cdb565b90505f602067ffffffffffffffff811115611a0257611a0161241d565b5b6040519080825280601f01601f191660200182016040528015611a345781602001600182028036833780820191505090505b5090508181528360208201528092505050919050565b6001815f015f828254019250508190555050565b5f6040517f190100000000000000000000000000000000000000000000000000000000000081528360028201528260228201526042812091505092915050565b5f807f7fffffffffffffffffffffffffffffff5d576e7357a4501ddfe92f46681b20a0835f1c1115611ad6575f600391509150611b6d565b5f6001878787876040515f8152602001604052604051611af99493929190612b72565b6020604051602081039080840390855afa158015611b19573d5f803e3d5ffd5b5050506020604051035190505f73ffffffffffffffffffffffffffffffffffffffff168173ffffffffffffffffffffffffffffffffffffffff1603611b65575f60019250925050611b6d565b805f92509250505b94509492505050565b5f6004811115611b8957611b88612bb5565b5b816004811115611b9c57611b9b612bb5565b5b0315611cd85760016004811115611bb657611bb5612bb5565b5b816004811115611bc957611bc8612bb5565b5b03611c09576040517f08c379a0000000000000000000000000000000000000000000000000000000008152600401611c0090612c2c565b60405180910390fd5b60026004811115611c1d57611c1c612bb5565b5b816004811115611c3057611c2f612bb5565b5b03611c70576040517f08c379a0000000000000000000000000000000000000000000000000000000008152600401611c6790612c94565b60405180910390fd5b60036004811115611c8457611c83612bb5565b5b816004811115611c9757611c96612bb5565b5b03611cd7576040517f08c379a0000000000000000000000000000000000000000000000000000000008152600401611cce90612d22565b60405180910390fd5b5b50565b5f8060ff835f1c169050601f811115611d20576040517fb3512b0c00000000000000000000000000000000000000000000000000000000815260040160405180910390fd5b80915050919050565b5f81519050919050565b5f82825260208201905092915050565b5f5b83811015611d60578082015181840152602081019050611d45565b5f8484015250505050565b5f601f19601f8301169050919050565b5f611d8582611d29565b611d8f8185611d33565b9350611d9f818560208601611d43565b611da881611d6b565b840191505092915050565b5f6020820190508181035f830152611dcb8184611d7b565b905092915050565b5f73ffffffffffffffffffffffffffffffffffffffff82169050919050565b5f611dfc82611dd3565b9050919050565b611e0c81611df2565b82525050565b5f602082019050611e255f830184611e03565b92915050565b5f80fd5b611e3881611df2565b8114611e42575f80fd5b50565b5f81359050611e5381611e2f565b92915050565b5f819050919050565b611e6b81611e59565b8114611e75575f80fd5b50565b5f81359050611e8681611e62565b92915050565b5f8060408385031215611ea257611ea1611e2b565b5b5f611eaf85828601611e45565b9250506020611ec085828601611e78565b9150509250929050565b5f8115159050919050565b611ede81611eca565b82525050565b5f602082019050611ef75f830184611ed5565b92915050565b611f0681611e59565b82525050565b5f602082019050611f1f5f830184611efd565b92915050565b5f805f60608486031215611f3c57611f3b611e2b565b5b5f611f4986828701611e45565b9350506020611f5a86828701611e45565b9250506040611f6b86828701611e78565b9150509250925092565b5f60ff82169050919050565b611f8a81611f75565b82525050565b5f602082019050611fa35f830184611f81565b92915050565b5f819050919050565b611fbb81611fa9565b82525050565b5f602082019050611fd45f830184611fb2565b92915050565b5f60208284031215611fef57611fee611e2b565b5b5f611ffc84828501611e78565b91505092915050565b5f6020828403121561201a57612019611e2b565b5b5f61202784828501611e45565b91505092915050565b5f7fff0000000000000000000000000000000000000000000000000000000000000082169050919050565b61206481612030565b82525050565b5f81519050919050565b5f82825260208201905092915050565b5f819050602082019050919050565b61209c81611e59565b82525050565b5f6120ad8383612093565b60208301905092915050565b5f602082019050919050565b5f6120cf8261206a565b6120d98185612074565b93506120e483612084565b805f5b838110156121145781516120fb88826120a2565b9750612106836120b9565b9250506001810190506120e7565b5085935050505092915050565b5f60e0820190506121345f83018a61205b565b81810360208301526121468189611d7b565b9050818103604083015261215a8188611d7b565b90506121696060830187611efd565b6121766080830186611e03565b61218360a0830185611fb2565b81810360c083015261219581846120c5565b905098975050505050505050565b6121ac81611f75565b81146121b6575f80fd5b50565b5f813590506121c7816121a3565b92915050565b6121d681611fa9565b81146121e0575f80fd5b50565b5f813590506121f1816121cd565b92915050565b5f805f805f805f60e0888a03121561221257612211611e2b565b5b5f61221f8a828b01611e45565b97505060206122308a828b01611e45565b96505060406122418a828b01611e78565b95505060606122528a828b01611e78565b94505060806122638a828b016121b9565b93505060a06122748a828b016121e3565b92505060c06122858a828b016121e3565b91505092959891949750929550565b5f80604083850312156122aa576122a9611e2b565b5b5f6122b785828601611e45565b92505060206122c885828601611e45565b9150509250929050565b7f4e487b71000000000000000000000000000000000000000000000000000000005f52602260045260245ffd5b5f600282049050600182168061231657607f821691505b602082108103612329576123286122d2565b5b50919050565b7f4e487b71000000000000000000000000000000000000000000000000000000005f52601160045260245ffd5b5f61236682611e59565b915061237183611e59565b92508282019050808211156123895761238861232f565b5b92915050565b7f4f776e61626c6532537465703a2063616c6c6572206973206e6f7420746865205f8201527f6e6577206f776e65720000000000000000000000000000000000000000000000602082015250565b5f6123e9602983611d33565b91506123f48261238f565b604082019050919050565b5f6020820190508181035f830152612416816123dd565b9050919050565b7f4e487b71000000000000000000000000000000000000000000000000000000005f52604160045260245ffd5b7f45524332303a2064656372656173656420616c6c6f77616e63652062656c6f775f8201527f207a65726f000000000000000000000000000000000000000000000000000000602082015250565b5f6124a4602583611d33565b91506124af8261244a565b604082019050919050565b5f6020820190508181035f8301526124d181612498565b9050919050565b7f45524332305065726d69743a206578706972656420646561646c696e650000005f82015250565b5f61250c601d83611d33565b9150612517826124d8565b602082019050919050565b5f6020820190508181035f83015261253981612500565b9050919050565b5f60c0820190506125535f830189611fb2565b6125606020830188611e03565b61256d6040830187611e03565b61257a6060830186611efd565b6125876080830185611efd565b61259460a0830184611efd565b979650505050505050565b7f45524332305065726d69743a20696e76616c6964207369676e617475726500005f82015250565b5f6125d3601e83611d33565b91506125de8261259f565b602082019050919050565b5f6020820190508181035f830152612600816125c7565b9050919050565b7f45524332303a20617070726f76652066726f6d20746865207a65726f206164645f8201527f7265737300000000000000000000000000000000000000000000000000000000602082015250565b5f612661602483611d33565b915061266c82612607565b604082019050919050565b5f6020820190508181035f83015261268e81612655565b9050919050565b7f45524332303a20617070726f766520746f20746865207a65726f2061646472655f8201527f7373000000000000000000000000000000000000000000000000000000000000602082015250565b5f6126ef602283611d33565b91506126fa82612695565b604082019050919050565b5f6020820190508181035f83015261271c816126e3565b9050919050565b7f45524332303a20696e73756666696369656e7420616c6c6f77616e63650000005f82015250565b5f612757601d83611d33565b915061276282612723565b602082019050919050565b5f6020820190508181035f8301526127848161274b565b9050919050565b7f45524332303a207472616e736665722066726f6d20746865207a65726f2061645f8201527f6472657373000000000000000000000000000000000000000000000000000000602082015250565b5f6127e5602583611d33565b91506127f08261278b565b604082019050919050565b5f6020820190508181035f830152612812816127d9565b9050919050565b7f45524332303a207472616e7366657220746f20746865207a65726f20616464725f8201527f6573730000000000000000000000000000000000000000000000000000000000602082015250565b5f612873602383611d33565b915061287e82612819565b604082019050919050565b5f6020820190508181035f8301526128a081612867565b9050919050565b7f45524332303a207472616e7366657220616d6f756e74206578636565647320625f8201527f616c616e63650000000000000000000000000000000000000000000000000000602082015250565b5f612901602683611d33565b915061290c826128a7565b604082019050919050565b5f6020820190508181035f83015261292e816128f5565b9050919050565b7f45524332303a206d696e7420746f20746865207a65726f2061646472657373005f82015250565b5f612969601f83611d33565b915061297482612935565b602082019050919050565b5f6020820190508181035f8301526129968161295d565b9050919050565b7f45524332303a206275726e2066726f6d20746865207a65726f206164647265735f8201527f7300000000000000000000000000000000000000000000000000000000000000602082015250565b5f6129f7602183611d33565b9150612a028261299d565b604082019050919050565b5f6020820190508181035f830152612a24816129eb565b9050919050565b7f45524332303a206275726e20616d6f756e7420657863656564732062616c616e5f8201527f6365000000000000000000000000000000000000000000000000000000000000602082015250565b5f612a85602283611d33565b9150612a9082612a2b565b604082019050919050565b5f6020820190508181035f830152612ab281612a79565b9050919050565b7f4f776e61626c653a2063616c6c6572206973206e6f7420746865206f776e65725f82015250565b5f612aed602083611d33565b9150612af882612ab9565b602082019050919050565b5f6020820190508181035f830152612b1a81612ae1565b9050919050565b5f60a082019050612b345f830188611fb2565b612b416020830187611fb2565b612b4e6040830186611fb2565b612b5b6060830185611efd565b612b686080830184611e03565b9695505050505050565b5f608082019050612b855f830187611fb2565b612b926020830186611f81565b612b9f6040830185611fb2565b612bac6060830184611fb2565b95945050505050565b7f4e487b71000000000000000000000000000000000000000000000000000000005f52602160045260245ffd5b7f45434453413a20696e76616c6964207369676e617475726500000000000000005f82015250565b5f612c16601883611d33565b9150612c2182612be2565b602082019050919050565b5f6020820190508181035f830152612c4381612c0a565b9050919050565b7f45434453413a20696e76616c6964207369676e6174757265206c656e677468005f82015250565b5f612c7e601f83611d33565b9150612c8982612c4a565b602082019050919050565b5f6020820190508181035f830152612cab81612c72565b9050919050565b7f45434453413a20696e76616c6964207369676e6174757265202773272076616c5f8201527f7565000000000000000000000000000000000000000000000000000000000000602082015250565b5f612d0c602283611d33565b9150612d1782612cb2565b604082019050919050565b5f6020820190508181035f830152612d3981612d00565b905091905056fea264697066735822122049ff622ddd745064d2f38b8f7476926d10bdbfad2ade814917042a287ce31b2964736f6c63430008140033","linkReferences":{}},"methodIdentifiers":{"DOMAIN_SEPARATOR()":"3644e515","acceptOwnership()":"79ba5097","allowance(address,address)":"dd62ed3e","approve(address,uint256)":"095ea7b3","balanceOf(address)":"70a08231","burn(uint256)":"42966c68","burnFrom(address,uint256)":"79cc6790","decimals()":"313ce567","decreaseAllowance(address,uint256)":"a457c2d7","eip712Domain()":"84b0196e","increaseAllowance(address,uint256)":"39509351","mint(address,uint256)":"40c10f19","minter()":"07546172","name()":"06fdde03","nonces(address)":"7ecebe00","owner()":"8da5cb5b","pendingOwner()":"e30c3978","permit(address,address,uint256,uint256,uint8,bytes32,bytes32)":"d505accf","renounceOwnership()":"715018a6","setMinter(address)":"fca3b5aa","symbol()":"95d89b41","totalSupply()":"18160ddd","transfer(address,uint256)":"a9059cbb","transferFrom(address,address,uint256)":"23b872dd","transferOwnership(address)":"f2fde38b"},"id":9}