{"abi":[{"type":"constructor","inputs":[{"name":"_mint_contract","type":"address","internalType":"contract EthenaMinting"},{"name":"_staking_vault","type":"address","internalType":"contract IStakedUSDe"},{"name":"_usde","type":"address","internalType":"contract IUSDe"},{"name":"_assets","type":"address[]","internalType":"address[]"},{"name":"_admin","type":"address","internalType":"address"},{"name":"_operator","type":"address","internalType":"address"}],"stateMutability":"nonpayable"},{"type":"function","name":"STAKING_VAULT","inputs":[],"outputs":[{"name":"","type":"address","internalType":"contract IStakedUSDe"}],"stateMutability":"view"},{"type":"function","name":"USDE_TOKEN","inputs":[],"outputs":[{"name":"","type":"address","internalType":"contract IUSDe"}],"stateMutability":"view"},{"type":"function","name":"acceptOwnership","inputs":[],"outputs":[],"stateMutability":"nonpayable"},{"type":"function","name":"approveToMintContract","inputs":[{"name":"_assets","type":"address[]","internalType":"address[]"}],"outputs":[],"stateMutability":"nonpayable"},{"type":"function","name":"mintContract","inputs":[],"outputs":[{"name":"","type":"address","internalType":"contract EthenaMinting"}],"stateMutability":"view"},{"type":"function","name":"operator","inputs":[],"outputs":[{"name":"","type":"address","internalType":"address"}],"stateMutability":"view"},{"type":"function","name":"owner","inputs":[],"outputs":[{"name":"","type":"address","internalType":"address"}],"stateMutability":"view"},{"type":"function","name":"pendingOwner","inputs":[],"outputs":[{"name":"","type":"address","internalType":"address"}],"stateMutability":"view"},{"type":"function","name":"renounceOwnership","inputs":[],"outputs":[],"stateMutability":"view"},{"type":"function","name":"rescueTokens","inputs":[{"name":"_token","type":"address","internalType":"address"},{"name":"_to","type":"address","internalType":"address"},{"name":"_amount","type":"uint256","internalType":"uint256"}],"outputs":[],"stateMutability":"nonpayable"},{"type":"function","name":"revokeApprovals","inputs":[{"name":"_assets","type":"address[]","internalType":"address[]"},{"name":"_target","type":"address","internalType":"address"}],"outputs":[],"stateMutability":"nonpayable"},{"type":"function","name":"setMintingContract","inputs":[{"name":"_newMintingContract","type":"address","internalType":"contract EthenaMinting"}],"outputs":[],"stateMutability":"nonpayable"},{"type":"function","name":"setOperator","inputs":[{"name":"_newOperator","type":"address","internalType":"address"}],"outputs":[],"stateMutability":"nonpayable"},{"type":"function","name":"transferInRewards","inputs":[{"name":"_rewardsAmount","type":"uint256","internalType":"uint256"}],"outputs":[],"stateMutability":"nonpayable"},{"type":"function","name":"transferOwnership","inputs":[{"name":"newOwner","type":"address","internalType":"address"}],"outputs":[],"stateMutability":"nonpayable"},{"type":"event","name":"MintingContractUpdated","inputs":[{"name":"newMintingContract","type":"address","indexed":true,"internalType":"address"},{"name":"previousMintingContract","type":"address","indexed":true,"internalType":"address"}],"anonymous":false},{"type":"event","name":"OperatorUpdated","inputs":[{"name":"newOperator","type":"address","indexed":true,"internalType":"address"},{"name":"previousOperator","type":"address","indexed":true,"internalType":"address"}],"anonymous":false},{"type":"event","name":"OwnershipTransferStarted","inputs":[{"name":"previousOwner","type":"address","indexed":true,"internalType":"address"},{"name":"newOwner","type":"address","indexed":true,"internalType":"address"}],"anonymous":false},{"type":"event","name":"OwnershipTransferred","inputs":[{"name":"previousOwner","type":"address","indexed":true,"internalType":"address"},{"name":"newOwner","type":"address","indexed":true,"internalType":"address"}],"anonymous":false},{"type":"event","name":"TokensRescued","inputs":[{"name":"token","type":"address","indexed":true,"internalType":"address"},{"name":"to","type":"address","indexed":true,"internalType":"address"},{"name":"amount","type":"uint256","indexed":false,"internalType":"uint256"}],"anonymous":false},{"type":"error","name":"CantRenounceOwnership","inputs":[]},{"type":"error","name":"InsufficientFunds","inputs":[]},{"type":"error","name":"InvalidAddressCurrentMintContract","inputs":[]},{"type":"error","name":"InvalidAmount","inputs":[]},{"type":"error","name":"InvalidZeroAddress","inputs":[]},{"type":"error","name":"NoAssetsProvided","inputs":[]},{"type":"error","name":"OnlyOperator","inputs":[]},{"type":"error","name":"TransferFailed","inputs":[]}],"bytecode":{"object":"0x60c060405234801562000010575f80fd5b506040516200362d3803806200362d833981810160405281019062000036919062000f23565b620000566200004a6200041560201b60201c565b6200041c60201b60201c565b60016002819055505f73ffffffffffffffffffffffffffffffffffffffff168673ffffffffffffffffffffffffffffffffffffffff1603620000c4576040517ff6b2911f00000000000000000000000000000000000000000000000000000000815260040160405180910390fd5b5f73ffffffffffffffffffffffffffffffffffffffff168573ffffffffffffffffffffffffffffffffffffffff16036200012a576040517ff6b2911f00000000000000000000000000000000000000000000000000000000815260040160405180910390fd5b5f73ffffffffffffffffffffffffffffffffffffffff168473ffffffffffffffffffffffffffffffffffffffff160362000190576040517ff6b2911f00000000000000000000000000000000000000000000000000000000815260040160405180910390fd5b5f835103620001cb576040517fdde4739400000000000000000000000000000000000000000000000000000000815260040160405180910390fd5b5f73ffffffffffffffffffffffffffffffffffffffff168273ffffffffffffffffffffffffffffffffffffffff160362000231576040517ff6b2911f00000000000000000000000000000000000000000000000000000000815260040160405180910390fd5b5f73ffffffffffffffffffffffffffffffffffffffff168173ffffffffffffffffffffffffffffffffffffffff160362000297576040517ff6b2911f00000000000000000000000000000000000000000000000000000000815260040160405180910390fd5b8473ffffffffffffffffffffffffffffffffffffffff1660808173ffffffffffffffffffffffffffffffffffffffff16815250508373ffffffffffffffffffffffffffffffffffffffff1660a08173ffffffffffffffffffffffffffffffffffffffff16815250508560035f6101000a81548173ffffffffffffffffffffffffffffffffffffffff021916908373ffffffffffffffffffffffffffffffffffffffff16021790555062000350336200041c60201b60201c565b62000361816200045460201b60201c565b62000372836200065960201b60201c565b620003c36080517fffffffffffffffffffffffffffffffffffffffffffffffffffffffffffffffff60a05173ffffffffffffffffffffffffffffffffffffffff166200071060201b9092919060201c565b8173ffffffffffffffffffffffffffffffffffffffff163373ffffffffffffffffffffffffffffffffffffffff1614620004095762000408826200041c60201b60201c565b5b505050505050620014df565b5f33905090565b60015f6101000a81549073ffffffffffffffffffffffffffffffffffffffff021916905562000451816200083060201b60201c565b50565b62000464620008f160201b60201c565b60035f9054906101000a900473ffffffffffffffffffffffffffffffffffffffff1673ffffffffffffffffffffffffffffffffffffffff166340e4921660045f9054906101000a900473ffffffffffffffffffffffffffffffffffffffff166040518263ffffffff1660e01b8152600401620004e1919062000feb565b5f604051808303815f87803b158015620004f9575f80fd5b505af11580156200050c573d5f803e3d5ffd5b5050505060035f9054906101000a900473ffffffffffffffffffffffffffffffffffffffff1673ffffffffffffffffffffffffffffffffffffffff166353863613826040518263ffffffff1660e01b81526004016200056c919062000feb565b5f604051808303815f87803b15801562000584575f80fd5b505af115801562000597573d5f803e3d5ffd5b5050505060045f9054906101000a900473ffffffffffffffffffffffffffffffffffffffff1673ffffffffffffffffffffffffffffffffffffffff168173ffffffffffffffffffffffffffffffffffffffff167ffbe5b6cbafb274f445d7fed869dc77a838d8243a22c460de156560e8857cad0360405160405180910390a38060045f6101000a81548173ffffffffffffffffffffffffffffffffffffffff021916908373ffffffffffffffffffffffffffffffffffffffff16021790555050565b62000669620008f160201b60201c565b5f5b81518110156200070c576200070060035f9054906101000a900473ffffffffffffffffffffffffffffffffffffffff167fffffffffffffffffffffffffffffffffffffffffffffffffffffffffffffffff848481518110620006d257620006d162001006565b5b602002602001015173ffffffffffffffffffffffffffffffffffffffff166200071060201b9092919060201c565b8060010190506200066b565b5050565b5f8373ffffffffffffffffffffffffffffffffffffffff1663dd62ed3e30856040518363ffffffff1660e01b81526004016200074e92919062001033565b602060405180830381865afa1580156200076a573d5f803e3d5ffd5b505050506040513d601f19601f8201168201806040525081019062000790919062001096565b90506200082a8463095ea7b360e01b858585620007ae9190620010f3565b604051602401620007c19291906200113e565b604051602081830303815290604052907bffffffffffffffffffffffffffffffffffffffffffffffffffffffff19166020820180517bffffffffffffffffffffffffffffffffffffffffffffffffffffffff83818316178352505050506200098260201b60201c565b50505050565b5f805f9054906101000a900473ffffffffffffffffffffffffffffffffffffffff169050815f806101000a81548173ffffffffffffffffffffffffffffffffffffffff021916908373ffffffffffffffffffffffffffffffffffffffff1602179055508173ffffffffffffffffffffffffffffffffffffffff168173ffffffffffffffffffffffffffffffffffffffff167f8be0079c531659141344cd1fd0a4f28419497f9722a3daafe3b4186f6b6457e060405160405180910390a35050565b620009016200041560201b60201c565b73ffffffffffffffffffffffffffffffffffffffff166200092762000a5060201b60201c565b73ffffffffffffffffffffffffffffffffffffffff161462000980576040517f08c379a00000000000000000000000000000000000000000000000000000000081526004016200097790620011c7565b60405180910390fd5b565b5f620009e5826040518060400160405280602081526020017f5361666545524332303a206c6f772d6c6576656c2063616c6c206661696c65648152508573ffffffffffffffffffffffffffffffffffffffff1662000a7760201b9092919060201c565b90505f8151148062000a0957508080602001905181019062000a08919062001221565b5b62000a4b576040517f08c379a000000000000000000000000000000000000000000000000000000000815260040162000a4290620012c5565b60405180910390fd5b505050565b5f805f9054906101000a900473ffffffffffffffffffffffffffffffffffffffff16905090565b606062000a8d84845f8562000a9660201b60201c565b90509392505050565b60608247101562000ade576040517f08c379a000000000000000000000000000000000000000000000000000000000815260040162000ad59062001359565b60405180910390fd5b5f808673ffffffffffffffffffffffffffffffffffffffff16858760405162000b089190620013ed565b5f6040518083038185875af1925050503d805f811462000b44576040519150601f19603f3d011682016040523d82523d5f602084013e62000b49565b606091505b509150915062000b628783838762000b6e60201b60201c565b92505050949350505050565b6060831562000bdd575f83510362000bd45762000b918562000bf860201b60201c565b62000bd3576040517f08c379a000000000000000000000000000000000000000000000000000000000815260040162000bca9062001453565b60405180910390fd5b5b82905062000bf0565b62000bef838362000c1a60201b60201c565b5b949350505050565b5f808273ffffffffffffffffffffffffffffffffffffffff163b119050919050565b5f8251111562000c2d5781518083602001fd5b806040517f08c379a000000000000000000000000000000000000000000000000000000000815260040162000c639190620014bd565b60405180910390fd5b5f604051905090565b5f80fd5b5f80fd5b5f73ffffffffffffffffffffffffffffffffffffffff82169050919050565b5f62000ca88262000c7d565b9050919050565b5f62000cbb8262000c9c565b9050919050565b62000ccd8162000caf565b811462000cd8575f80fd5b50565b5f8151905062000ceb8162000cc2565b92915050565b5f62000cfd8262000c7d565b9050919050565b5f62000d108262000cf1565b9050919050565b62000d228162000d04565b811462000d2d575f80fd5b50565b5f8151905062000d408162000d17565b92915050565b5f62000d528262000cf1565b9050919050565b62000d648162000d46565b811462000d6f575f80fd5b50565b5f8151905062000d828162000d59565b92915050565b5f80fd5b5f601f19601f8301169050919050565b7f4e487b71000000000000000000000000000000000000000000000000000000005f52604160045260245ffd5b62000dd48262000d8c565b810181811067ffffffffffffffff8211171562000df65762000df562000d9c565b5b80604052505050565b5f62000e0a62000c6c565b905062000e18828262000dc9565b919050565b5f67ffffffffffffffff82111562000e3a5762000e3962000d9c565b5b602082029050602081019050919050565b5f80fd5b62000e5a8162000cf1565b811462000e65575f80fd5b50565b5f8151905062000e788162000e4f565b92915050565b5f62000e9462000e8e8462000e1d565b62000dff565b9050808382526020820190506020840283018581111562000eba5762000eb962000e4b565b5b835b8181101562000ee7578062000ed2888262000e68565b84526020840193505060208101905062000ebc565b5050509392505050565b5f82601f83011262000f085762000f0762000d88565b5b815162000f1a84826020860162000e7e565b91505092915050565b5f805f805f8060c0878903121562000f405762000f3f62000c75565b5b5f62000f4f89828a0162000cdb565b965050602062000f6289828a0162000d30565b955050604062000f7589828a0162000d72565b945050606087015167ffffffffffffffff81111562000f995762000f9862000c79565b5b62000fa789828a0162000ef1565b935050608062000fba89828a0162000e68565b92505060a062000fcd89828a0162000e68565b9150509295509295509295565b62000fe58162000cf1565b82525050565b5f602082019050620010005f83018462000fda565b92915050565b7f4e487b71000000000000000000000000000000000000000000000000000000005f52603260045260245ffd5b5f604082019050620010485f83018562000fda565b62001057602083018462000fda565b9392505050565b5f819050919050565b62001072816200105e565b81146200107d575f80fd5b50565b5f81519050620010908162001067565b92915050565b5f60208284031215620010ae57620010ad62000c75565b5b5f620010bd8482850162001080565b91505092915050565b7f4e487b71000000000000000000000000000000000000000000000000000000005f52601160045260245ffd5b5f620010ff826200105e565b91506200110c836200105e565b9250828201905080821115620011275762001126620010c6565b5b92915050565b62001138816200105e565b82525050565b5f604082019050620011535f83018562000fda565b6200116260208301846200112d565b9392505050565b5f82825260208201905092915050565b7f4f776e61626c653a2063616c6c6572206973206e6f7420746865206f776e65725f82015250565b5f620011af60208362001169565b9150620011bc8262001179565b602082019050919050565b5f6020820190508181035f830152620011e081620011a1565b9050919050565b5f8115159050919050565b620011fd81620011e7565b811462001208575f80fd5b50565b5f815190506200121b81620011f2565b92915050565b5f6020828403121562001239576200123862000c75565b5b5f62001248848285016200120b565b91505092915050565b7f5361666545524332303a204552433230206f7065726174696f6e20646964206e5f8201527f6f74207375636365656400000000000000000000000000000000000000000000602082015250565b5f620012ad602a8362001169565b9150620012ba8262001251565b604082019050919050565b5f6020820190508181035f830152620012de816200129f565b9050919050565b7f416464726573733a20696e73756666696369656e742062616c616e636520666f5f8201527f722063616c6c0000000000000000000000000000000000000000000000000000602082015250565b5f6200134160268362001169565b91506200134e82620012e5565b604082019050919050565b5f6020820190508181035f830152620013728162001333565b9050919050565b5f81519050919050565b5f81905092915050565b5f5b83811015620013ac5780820151818401526020810190506200138f565b5f8484015250505050565b5f620013c38262001379565b620013cf818562001383565b9350620013e18185602086016200138d565b80840191505092915050565b5f620013fa8284620013b7565b915081905092915050565b7f416464726573733a2063616c6c20746f206e6f6e2d636f6e74726163740000005f82015250565b5f6200143b601d8362001169565b9150620014488262001405565b602082019050919050565b5f6020820190508181035f8301526200146c816200142d565b9050919050565b5f81519050919050565b5f620014898262001473565b62001495818562001169565b9350620014a78185602086016200138d565b620014b28162000d8c565b840191505092915050565b5f6020820190508181035f830152620014d781846200147d565b905092915050565b60805160a05161211e6200150f5f395f81816102a9015261082e01525f818161028501526108fe015261211e5ff3fe608060405234801561000f575f80fd5b50600436106100f3575f3560e01c8063b3ab15fb11610095578063d0b6b6db11610064578063d0b6b6db1461020f578063d3bdc2851461022d578063e30c397814610249578063f2fde38b14610267576100f3565b8063b3ab15fb1461019f578063c56e1375146101bb578063c80ef110146101d7578063cea9d26f146101f3576100f3565b80636250e33c116100d15780636250e33c14610151578063715018a61461016d57806379ba5097146101775780638da5cb5b14610181576100f3565b8063398387c1146100f757806343b4733b14610115578063570ca73514610133575b5f80fd5b6100ff610283565b60405161010c919061165a565b60405180910390f35b61011d6102a7565b60405161012a9190611693565b60405180910390f35b61013b6102cb565b60405161014891906116cc565b60405180910390f35b61016b60048036038101906101669190611870565b6102f0565b005b610175610398565b005b61017f6103d2565b005b61018961045e565b60405161019691906116cc565b60405180910390f35b6101b960048036038101906101b491906118b7565b610485565b005b6101d560048036038101906101d0919061192e565b61067a565b005b6101f160048036038101906101ec919061198c565b6107a5565b005b61020d600480360381019061020891906119b7565b610985565b005b610217610c22565b6040516102249190611a38565b60405180910390f35b61024760048036038101906102429190611a51565b610c47565b005b610251610dd4565b60405161025e91906116cc565b60405180910390f35b610281600480360381019061027c91906118b7565b610dfc565b005b7f000000000000000000000000000000000000000000000000000000000000000081565b7f000000000000000000000000000000000000000000000000000000000000000081565b60045f9054906101000a900473ffffffffffffffffffffffffffffffffffffffff1681565b6102f8610ea8565b5f5b81518110156103945761038960035f9054906101000a900473ffffffffffffffffffffffffffffffffffffffff167fffffffffffffffffffffffffffffffffffffffffffffffffffffffffffffffff84848151811061035c5761035b611aab565b5b602002602001015173ffffffffffffffffffffffffffffffffffffffff16610f269092919063ffffffff16565b8060010190506102fa565b5050565b6103a0610ea8565b6040517f185b73b100000000000000000000000000000000000000000000000000000000815260040160405180910390fd5b5f6103db611035565b90508073ffffffffffffffffffffffffffffffffffffffff166103fc610dd4565b73ffffffffffffffffffffffffffffffffffffffff1614610452576040517f08c379a000000000000000000000000000000000000000000000000000000000815260040161044990611b58565b60405180910390fd5b61045b8161103c565b50565b5f805f9054906101000a900473ffffffffffffffffffffffffffffffffffffffff16905090565b61048d610ea8565b60035f9054906101000a900473ffffffffffffffffffffffffffffffffffffffff1673ffffffffffffffffffffffffffffffffffffffff166340e4921660045f9054906101000a900473ffffffffffffffffffffffffffffffffffffffff166040518263ffffffff1660e01b815260040161050891906116cc565b5f604051808303815f87803b15801561051f575f80fd5b505af1158015610531573d5f803e3d5ffd5b5050505060035f9054906101000a900473ffffffffffffffffffffffffffffffffffffffff1673ffffffffffffffffffffffffffffffffffffffff166353863613826040518263ffffffff1660e01b815260040161058f91906116cc565b5f604051808303815f87803b1580156105a6575f80fd5b505af11580156105b8573d5f803e3d5ffd5b5050505060045f9054906101000a900473ffffffffffffffffffffffffffffffffffffffff1673ffffffffffffffffffffffffffffffffffffffff168173ffffffffffffffffffffffffffffffffffffffff167ffbe5b6cbafb274f445d7fed869dc77a838d8243a22c460de156560e8857cad0360405160405180910390a38060045f6101000a81548173ffffffffffffffffffffffffffffffffffffffff021916908373ffffffffffffffffffffffffffffffffffffffff16021790555050565b610682610ea8565b5f73ffffffffffffffffffffffffffffffffffffffff168173ffffffffffffffffffffffffffffffffffffffff16036106e7576040517ff6b2911f00000000000000000000000000000000000000000000000000000000815260040160405180910390fd5b60035f9054906101000a900473ffffffffffffffffffffffffffffffffffffffff1673ffffffffffffffffffffffffffffffffffffffff168173ffffffffffffffffffffffffffffffffffffffff167f125ff1248e44c8fcb7ecacec5cbe30f1a41a8b86ed5844a881d0d111de565d5e60405160405180910390a38060035f6101000a81548173ffffffffffffffffffffffffffffffffffffffff021916908373ffffffffffffffffffffffffffffffffffffffff16021790555050565b60045f9054906101000a900473ffffffffffffffffffffffffffffffffffffffff1673ffffffffffffffffffffffffffffffffffffffff163373ffffffffffffffffffffffffffffffffffffffff161461082b576040517f27e1f1e500000000000000000000000000000000000000000000000000000000815260040160405180910390fd5b807f000000000000000000000000000000000000000000000000000000000000000073ffffffffffffffffffffffffffffffffffffffff166370a08231306040518263ffffffff1660e01b815260040161088591906116cc565b602060405180830381865afa1580156108a0573d5f803e3d5ffd5b505050506040513d601f19601f820116820180604052508101906108c49190611b8a565b10156108fc576040517f356680b700000000000000000000000000000000000000000000000000000000815260040160405180910390fd5b7f000000000000000000000000000000000000000000000000000000000000000073ffffffffffffffffffffffffffffffffffffffff1663c80ef110826040518263ffffffff1660e01b81526004016109559190611bc4565b5f604051808303815f87803b15801561096c575f80fd5b505af115801561097e573d5f803e3d5ffd5b5050505050565b61098d61106c565b610995610ea8565b5f73ffffffffffffffffffffffffffffffffffffffff168373ffffffffffffffffffffffffffffffffffffffff16036109fa576040517ff6b2911f00000000000000000000000000000000000000000000000000000000815260040160405180910390fd5b5f73ffffffffffffffffffffffffffffffffffffffff168273ffffffffffffffffffffffffffffffffffffffff1603610a5f576040517ff6b2911f00000000000000000000000000000000000000000000000000000000815260040160405180910390fd5b5f8103610a98576040517f2c5211c600000000000000000000000000000000000000000000000000000000815260040160405180910390fd5b73eeeeeeeeeeeeeeeeeeeeeeeeeeeeeeeeeeeeeeee73ffffffffffffffffffffffffffffffffffffffff168373ffffffffffffffffffffffffffffffffffffffff1603610b84575f8273ffffffffffffffffffffffffffffffffffffffff1682604051610b0490611c0a565b5f6040518083038185875af1925050503d805f8114610b3e576040519150601f19603f3d011682016040523d82523d5f602084013e610b43565b606091505b5050905080610b7e576040517f90b8ec1800000000000000000000000000000000000000000000000000000000815260040160405180910390fd5b50610bb0565b610baf82828573ffffffffffffffffffffffffffffffffffffffff166110b99092919063ffffffff16565b5b8173ffffffffffffffffffffffffffffffffffffffff168373ffffffffffffffffffffffffffffffffffffffff167f77023e19c7343ad491fd706c36335ca0e738340a91f29b1fd81e2673d44896c483604051610c0d9190611bc4565b60405180910390a3610c1d61113f565b505050565b60035f9054906101000a900473ffffffffffffffffffffffffffffffffffffffff1681565b610c4f610ea8565b5f825103610c89576040517fdde4739400000000000000000000000000000000000000000000000000000000815260040160405180910390fd5b5f73ffffffffffffffffffffffffffffffffffffffff168173ffffffffffffffffffffffffffffffffffffffff1603610cee576040517ff6b2911f00000000000000000000000000000000000000000000000000000000815260040160405180910390fd5b60035f9054906101000a900473ffffffffffffffffffffffffffffffffffffffff1673ffffffffffffffffffffffffffffffffffffffff168173ffffffffffffffffffffffffffffffffffffffff1603610d74576040517f318346df00000000000000000000000000000000000000000000000000000000815260040160405180910390fd5b5f5b8251811015610dcf57610dc4825f858481518110610d9757610d96611aab565b5b602002602001015173ffffffffffffffffffffffffffffffffffffffff166111499092919063ffffffff16565b806001019050610d76565b505050565b5f60015f9054906101000a900473ffffffffffffffffffffffffffffffffffffffff16905090565b610e04610ea8565b8060015f6101000a81548173ffffffffffffffffffffffffffffffffffffffff021916908373ffffffffffffffffffffffffffffffffffffffff1602179055508073ffffffffffffffffffffffffffffffffffffffff16610e6361045e565b73ffffffffffffffffffffffffffffffffffffffff167f38d16b8cac22d99fc7c124b9cd0de2d3fa1faef420bfe791d8c362d765e2270060405160405180910390a350565b610eb0611035565b73ffffffffffffffffffffffffffffffffffffffff16610ece61045e565b73ffffffffffffffffffffffffffffffffffffffff1614610f24576040517f08c379a0000000000000000000000000000000000000000000000000000000008152600401610f1b90611c68565b60405180910390fd5b565b5f8373ffffffffffffffffffffffffffffffffffffffff1663dd62ed3e30856040518363ffffffff1660e01b8152600401610f62929190611c86565b602060405180830381865afa158015610f7d573d5f803e3d5ffd5b505050506040513d601f19601f82011682018060405250810190610fa19190611b8a565b905061102f8463095ea7b360e01b858585610fbc9190611cda565b604051602401610fcd929190611d0d565b604051602081830303815290604052907bffffffffffffffffffffffffffffffffffffffffffffffffffffffff19166020820180517bffffffffffffffffffffffffffffffffffffffffffffffffffffffff8381831617835250505050611294565b50505050565b5f33905090565b60015f6101000a81549073ffffffffffffffffffffffffffffffffffffffff02191690556110698161135a565b50565b60028054036110b0576040517f08c379a00000000000000000000000000000000000000000000000000000000081526004016110a790611d7e565b60405180910390fd5b60028081905550565b61113a8363a9059cbb60e01b84846040516024016110d8929190611d0d565b604051602081830303815290604052907bffffffffffffffffffffffffffffffffffffffffffffffffffffffff19166020820180517bffffffffffffffffffffffffffffffffffffffffffffffffffffffff8381831617835250505050611294565b505050565b6001600281905550565b5f8114806111cf57505f8373ffffffffffffffffffffffffffffffffffffffff1663dd62ed3e30856040518363ffffffff1660e01b815260040161118e929190611c86565b602060405180830381865afa1580156111a9573d5f803e3d5ffd5b505050506040513d601f19601f820116820180604052508101906111cd9190611b8a565b145b61120e576040517f08c379a000000000000000000000000000000000000000000000000000000000815260040161120590611e0c565b60405180910390fd5b61128f8363095ea7b360e01b848460405160240161122d929190611d0d565b604051602081830303815290604052907bffffffffffffffffffffffffffffffffffffffffffffffffffffffff19166020820180517bffffffffffffffffffffffffffffffffffffffffffffffffffffffff8381831617835250505050611294565b505050565b5f6112f5826040518060400160405280602081526020017f5361666545524332303a206c6f772d6c6576656c2063616c6c206661696c65648152508573ffffffffffffffffffffffffffffffffffffffff1661141b9092919063ffffffff16565b90505f815114806113165750808060200190518101906113159190611e5f565b5b611355576040517f08c379a000000000000000000000000000000000000000000000000000000000815260040161134c90611efa565b60405180910390fd5b505050565b5f805f9054906101000a900473ffffffffffffffffffffffffffffffffffffffff169050815f806101000a81548173ffffffffffffffffffffffffffffffffffffffff021916908373ffffffffffffffffffffffffffffffffffffffff1602179055508173ffffffffffffffffffffffffffffffffffffffff168173ffffffffffffffffffffffffffffffffffffffff167f8be0079c531659141344cd1fd0a4f28419497f9722a3daafe3b4186f6b6457e060405160405180910390a35050565b606061142984845f85611432565b90509392505050565b606082471015611477576040517f08c379a000000000000000000000000000000000000000000000000000000000815260040161146e90611f88565b60405180910390fd5b5f808673ffffffffffffffffffffffffffffffffffffffff16858760405161149f9190612008565b5f6040518083038185875af1925050503d805f81146114d9576040519150601f19603f3d011682016040523d82523d5f602084013e6114de565b606091505b50915091506114ef878383876114fb565b92505050949350505050565b6060831561155c575f835103611554576115148561156f565b611553576040517f08c379a000000000000000000000000000000000000000000000000000000000815260040161154a90612068565b60405180910390fd5b5b829050611567565b6115668383611591565b5b949350505050565b5f808273ffffffffffffffffffffffffffffffffffffffff163b119050919050565b5f825111156115a35781518083602001fd5b806040517f08c379a00000000000000000000000000000000000000000000000000000000081526004016115d791906120c8565b60405180910390fd5b5f73ffffffffffffffffffffffffffffffffffffffff82169050919050565b5f819050919050565b5f61162261161d611618846115e0565b6115ff565b6115e0565b9050919050565b5f61163382611608565b9050919050565b5f61164482611629565b9050919050565b6116548161163a565b82525050565b5f60208201905061166d5f83018461164b565b92915050565b5f61167d82611629565b9050919050565b61168d81611673565b82525050565b5f6020820190506116a65f830184611684565b92915050565b5f6116b6826115e0565b9050919050565b6116c6816116ac565b82525050565b5f6020820190506116df5f8301846116bd565b92915050565b5f604051905090565b5f80fd5b5f80fd5b5f80fd5b5f601f19601f8301169050919050565b7f4e487b71000000000000000000000000000000000000000000000000000000005f52604160045260245ffd5b611740826116fa565b810181811067ffffffffffffffff8211171561175f5761175e61170a565b5b80604052505050565b5f6117716116e5565b905061177d8282611737565b919050565b5f67ffffffffffffffff82111561179c5761179b61170a565b5b602082029050602081019050919050565b5f80fd5b6117ba816116ac565b81146117c4575f80fd5b50565b5f813590506117d5816117b1565b92915050565b5f6117ed6117e884611782565b611768565b905080838252602082019050602084028301858111156118105761180f6117ad565b5b835b81811015611839578061182588826117c7565b845260208401935050602081019050611812565b5050509392505050565b5f82601f830112611857576118566116f6565b5b81356118678482602086016117db565b91505092915050565b5f60208284031215611885576118846116ee565b5b5f82013567ffffffffffffffff8111156118a2576118a16116f2565b5b6118ae84828501611843565b91505092915050565b5f602082840312156118cc576118cb6116ee565b5b5f6118d9848285016117c7565b91505092915050565b5f6118ec826115e0565b9050919050565b5f6118fd826118e2565b9050919050565b61190d816118f3565b8114611917575f80fd5b50565b5f8135905061192881611904565b92915050565b5f60208284031215611943576119426116ee565b5b5f6119508482850161191a565b91505092915050565b5f819050919050565b61196b81611959565b8114611975575f80fd5b50565b5f8135905061198681611962565b92915050565b5f602082840312156119a1576119a06116ee565b5b5f6119ae84828501611978565b91505092915050565b5f805f606084860312156119ce576119cd6116ee565b5b5f6119db868287016117c7565b93505060206119ec868287016117c7565b92505060406119fd86828701611978565b9150509250925092565b5f611a1182611608565b9050919050565b5f611a2282611a07565b9050919050565b611a3281611a18565b82525050565b5f602082019050611a4b5f830184611a29565b92915050565b5f8060408385031215611a6757611a666116ee565b5b5f83013567ffffffffffffffff811115611a8457611a836116f2565b5b611a9085828601611843565b9250506020611aa1858286016117c7565b9150509250929050565b7f4e487b71000000000000000000000000000000000000000000000000000000005f52603260045260245ffd5b5f82825260208201905092915050565b7f4f776e61626c6532537465703a2063616c6c6572206973206e6f7420746865205f8201527f6e6577206f776e65720000000000000000000000000000000000000000000000602082015250565b5f611b42602983611ad8565b9150611b4d82611ae8565b604082019050919050565b5f6020820190508181035f830152611b6f81611b36565b9050919050565b5f81519050611b8481611962565b92915050565b5f60208284031215611b9f57611b9e6116ee565b5b5f611bac84828501611b76565b91505092915050565b611bbe81611959565b82525050565b5f602082019050611bd75f830184611bb5565b92915050565b5f81905092915050565b50565b5f611bf55f83611bdd565b9150611c0082611be7565b5f82019050919050565b5f611c1482611bea565b9150819050919050565b7f4f776e61626c653a2063616c6c6572206973206e6f7420746865206f776e65725f82015250565b5f611c52602083611ad8565b9150611c5d82611c1e565b602082019050919050565b5f6020820190508181035f830152611c7f81611c46565b9050919050565b5f604082019050611c995f8301856116bd565b611ca660208301846116bd565b9392505050565b7f4e487b71000000000000000000000000000000000000000000000000000000005f52601160045260245ffd5b5f611ce482611959565b9150611cef83611959565b9250828201905080821115611d0757611d06611cad565b5b92915050565b5f604082019050611d205f8301856116bd565b611d2d6020830184611bb5565b9392505050565b7f5265656e7472616e637947756172643a207265656e7472616e742063616c6c005f82015250565b5f611d68601f83611ad8565b9150611d7382611d34565b602082019050919050565b5f6020820190508181035f830152611d9581611d5c565b9050919050565b7f5361666545524332303a20617070726f76652066726f6d206e6f6e2d7a65726f5f8201527f20746f206e6f6e2d7a65726f20616c6c6f77616e636500000000000000000000602082015250565b5f611df6603683611ad8565b9150611e0182611d9c565b604082019050919050565b5f6020820190508181035f830152611e2381611dea565b9050919050565b5f8115159050919050565b611e3e81611e2a565b8114611e48575f80fd5b50565b5f81519050611e5981611e35565b92915050565b5f60208284031215611e7457611e736116ee565b5b5f611e8184828501611e4b565b91505092915050565b7f5361666545524332303a204552433230206f7065726174696f6e20646964206e5f8201527f6f74207375636365656400000000000000000000000000000000000000000000602082015250565b5f611ee4602a83611ad8565b9150611eef82611e8a565b604082019050919050565b5f6020820190508181035f830152611f1181611ed8565b9050919050565b7f416464726573733a20696e73756666696369656e742062616c616e636520666f5f8201527f722063616c6c0000000000000000000000000000000000000000000000000000602082015250565b5f611f72602683611ad8565b9150611f7d82611f18565b604082019050919050565b5f6020820190508181035f830152611f9f81611f66565b9050919050565b5f81519050919050565b5f5b83811015611fcd578082015181840152602081019050611fb2565b5f8484015250505050565b5f611fe282611fa6565b611fec8185611bdd565b9350611ffc818560208601611fb0565b80840191505092915050565b5f6120138284611fd8565b915081905092915050565b7f416464726573733a2063616c6c20746f206e6f6e2d636f6e74726163740000005f82015250565b5f612052601d83611ad8565b915061205d8261201e565b602082019050919050565b5f6020820190508181035f83015261207f81612046565b9050919050565b5f81519050919050565b5f61209a82612086565b6120a48185611ad8565b93506120b4818560208601611fb0565b6120bd816116fa565b840191505092915050565b5f6020820190508181035f8301526120e08184612090565b90509291505056fea264697066735822122095f1732df901e132a90072485364ec886b653dbf55c554bd484687535503e2f864736f6c63430008140033","linkReferences":{}},"methodIdentifiers":{"STAKING_VAULT()":"398387c1","USDE_TOKEN()":"43b4733b","acceptOwnership()":"79ba5097","approveToMintContract(address[])":"6250e33c","mintContract()":"d0b6b6db","operator()":"570ca735","owner()":"8da5cb5b","pendingOwner()":"e30c3978","renounceOwnership()":"715018a6","rescueTokens(address,address,uint256)":"cea9d26f","revokeApprovals(address[],address)":"d3bdc285","setMintingContract(address)":"c56e1375","setOperator(address)":"b3ab15fb","transferInRewards(uint256)":"c80ef110","transferOwnership(address)":"f2fde38b"},"id":7}