{"abi":[{"type":"constructor","inputs":[{"name":"_initialOwner","type":"address","internalType":"address"}],"stateMutability":"nonpayable"},{"type":"function","name":"acceptOwnership","inputs":[],"outputs":[],"stateMutability":"nonpayable"},{"type":"function","name":"currentEpoch","inputs":[],"outputs":[{"name":"","type":"uint8","internalType":"uint8"}],"stateMutability":"view"},{"type":"function","name":"owner","inputs":[],"outputs":[{"name":"","type":"address","internalType":"address"}],"stateMutability":"view"},{"type":"function","name":"pendingOwner","inputs":[],"outputs":[{"name":"","type":"address","internalType":"address"}],"stateMutability":"view"},{"type":"function","name":"renounceOwnership","inputs":[],"outputs":[],"stateMutability":"view"},{"type":"function","name":"rescueTokens","inputs":[{"name":"token","type":"address","internalType":"address"},{"name":"to","type":"address","internalType":"address"},{"name":"amount","type":"uint256","internalType":"uint256"}],"outputs":[],"stateMutability":"nonpayable"},{"type":"function","name":"setEpoch","inputs":[{"name":"newEpoch","type":"uint8","internalType":"uint8"}],"outputs":[],"stateMutability":"nonpayable"},{"type":"function","name":"stake","inputs":[{"name":"token","type":"address","internalType":"address"},{"name":"amount","type":"uint104","internalType":"uint104"}],"outputs":[],"stateMutability":"nonpayable"},{"type":"function","name":"stakeParametersByToken","inputs":[{"name":"","type":"address","internalType":"address"}],"outputs":[{"name":"epoch","type":"uint8","internalType":"uint8"},{"name":"stakeLimit","type":"uint248","internalType":"uint248"},{"name":"totalStaked","type":"uint104","internalType":"uint104"},{"name":"totalCoolingDown","type":"uint104","internalType":"uint104"},{"name":"cooldown","type":"uint48","internalType":"uint48"}],"stateMutability":"view"},{"type":"function","name":"stakes","inputs":[{"name":"","type":"address","internalType":"address"},{"name":"","type":"address","internalType":"address"}],"outputs":[{"name":"stakedAmount","type":"uint256","internalType":"uint256"},{"name":"coolingDownAmount","type":"uint152","internalType":"uint152"},{"name":"cooldownStartTimestamp","type":"uint104","internalType":"uint104"}],"stateMutability":"view"},{"type":"function","name":"transferOwnership","inputs":[{"name":"newOwner","type":"address","internalType":"address"}],"outputs":[],"stateMutability":"nonpayable"},{"type":"function","name":"unstake","inputs":[{"name":"token","type":"address","internalType":"address"},{"name":"amount","type":"uint104","internalType":"uint104"}],"outputs":[],"stateMutability":"nonpayable"},{"type":"function","name":"updateStakeParameters","inputs":[{"name":"token","type":"address","internalType":"address"},{"name":"epoch","type":"uint8","internalType":"uint8"},{"name":"stakeLimit","type":"uint248","internalType":"uint248"},{"name":"cooldown","type":"uint48","internalType":"uint48"}],"outputs":[],"stateMutability":"nonpayable"},{"type":"function","name":"withdraw","inputs":[{"name":"token","type":"address","internalType":"address"},{"name":"amount","type":"uint104","internalType":"uint104"}],"outputs":[],"stateMutability":"nonpayable"},{"type":"event","name":"NewEpoch","inputs":[{"name":"newEpoch","type":"uint8","indexed":true,"internalType":"uint8"},{"name":"previousEpoch","type":"uint8","indexed":true,"internalType":"uint8"}],"anonymous":false},{"type":"event","name":"OwnershipTransferStarted","inputs":[{"name":"previousOwner","type":"address","indexed":true,"internalType":"address"},{"name":"newOwner","type":"address","indexed":true,"internalType":"address"}],"anonymous":false},{"type":"event","name":"OwnershipTransferred","inputs":[{"name":"previousOwner","type":"address","indexed":true,"internalType":"address"},{"name":"newOwner","type":"address","indexed":true,"internalType":"address"}],"anonymous":false},{"type":"event","name":"Stake","inputs":[{"name":"user","type":"address","indexed":true,"internalType":"address"},{"name":"lpToken","type":"address","indexed":true,"internalType":"address"},{"name":"amount","type":"uint256","indexed":false,"internalType":"uint256"}],"anonymous":false},{"type":"event","name":"StakeParametersUpdated","inputs":[{"name":"lpToken","type":"address","indexed":true,"internalType":"address"},{"name":"epoch","type":"uint8","indexed":true,"internalType":"uint8"},{"name":"stakeLimit","type":"uint248","indexed":false,"internalType":"uint248"},{"name":"cooldown","type":"uint104","indexed":false,"internalType":"uint104"}],"anonymous":false},{"type":"event","name":"TokensRescued","inputs":[{"name":"token","type":"address","indexed":true,"internalType":"address"},{"name":"to","type":"address","indexed":true,"internalType":"address"},{"name":"amount","type":"uint256","indexed":false,"internalType":"uint256"}],"anonymous":false},{"type":"event","name":"Unstake","inputs":[{"name":"user","type":"address","indexed":true,"internalType":"address"},{"name":"lpToken","type":"address","indexed":true,"internalType":"address"},{"name":"amount","type":"uint256","indexed":false,"internalType":"uint256"}],"anonymous":false},{"type":"event","name":"Withdraw","inputs":[{"name":"user","type":"address","indexed":true,"internalType":"address"},{"name":"lpToken","type":"address","indexed":true,"internalType":"address"},{"name":"amount","type":"uint256","indexed":false,"internalType":"uint256"}],"anonymous":false},{"type":"error","name":"CantRenounceOwnership","inputs":[]},{"type":"error","name":"CooldownNotOver","inputs":[]},{"type":"error","name":"InvalidAmount","inputs":[]},{"type":"error","name":"InvalidEpoch","inputs":[]},{"type":"error","name":"InvariantBroken","inputs":[]},{"type":"error","name":"MaxCooldownExceeded","inputs":[]},{"type":"error","name":"StakeLimitExceeded","inputs":[]},{"type":"error","name":"TransferFailed","inputs":[]},{"type":"error","name":"ZeroAddressException","inputs":[]}],"bytecode":{"object":"0x608060405234801562000010575f80fd5b506040516200299738038062002997833981810160405281019062000036919062000241565b620000566200004a620000dc60201b60201c565b620000e360201b60201c565b60016002819055505f73ffffffffffffffffffffffffffffffffffffffff168173ffffffffffffffffffffffffffffffffffffffff1603620000c4576040517fb2335f2e00000000000000000000000000000000000000000000000000000000815260040160405180910390fd5b620000d581620000e360201b60201c565b5062000271565b5f33905090565b60015f6101000a81549073ffffffffffffffffffffffffffffffffffffffff021916905562000118816200011b60201b60201c565b50565b5f805f9054906101000a900473ffffffffffffffffffffffffffffffffffffffff169050815f806101000a81548173ffffffffffffffffffffffffffffffffffffffff021916908373ffffffffffffffffffffffffffffffffffffffff1602179055508173ffffffffffffffffffffffffffffffffffffffff168173ffffffffffffffffffffffffffffffffffffffff167f8be0079c531659141344cd1fd0a4f28419497f9722a3daafe3b4186f6b6457e060405160405180910390a35050565b5f80fd5b5f73ffffffffffffffffffffffffffffffffffffffff82169050919050565b5f6200020b82620001e0565b9050919050565b6200021d81620001ff565b811462000228575f80fd5b50565b5f815190506200023b8162000212565b92915050565b5f60208284031215620002595762000258620001dc565b5b5f62000268848285016200022b565b91505092915050565b612718806200027f5f395ff3fe608060405234801561000f575f80fd5b50600436106100e8575f3560e01c8063a4e47b661161008a578063cea9d26f11610064578063cea9d26f146101fa578063e30c397814610216578063e76c3f5514610234578063f2fde38b14610268576100e8565b8063a4e47b6614610190578063b3dd411d146101c2578063b5a2e01b146101de576100e8565b8063715018a6116100c6578063715018a614610140578063766718081461014a57806379ba5097146101685780638da5cb5b14610172576100e8565b806317105417146100ec57806321ec52b4146101085780636ab498a314610124575b5f80fd5b61010660048036038101906101019190611c2f565b610284565b005b610122600480360381019061011d9190611cd5565b61040e565b005b61013e60048036038101906101399190611cd5565b610773565b005b610148610b1d565b005b610152610b57565b60405161015f9190611d22565b60405180910390f35b610170610b69565b005b61017a610bf5565b6040516101879190611d4a565b60405180910390f35b6101aa60048036038101906101a59190611d63565b610c1c565b6040516101b993929190611df5565b60405180910390f35b6101dc60048036038101906101d79190611cd5565b610c84565b005b6101f860048036038101906101f39190611e2a565b610fe2565b005b610214600480360381019061020f9190611e7f565b611096565b005b61021e6112d9565b60405161022b9190611d4a565b60405180910390f35b61024e60048036038101906102499190611ecf565b611301565b60405161025f959493929190611f18565b60405180910390f35b610282600480360381019061027d9190611ecf565b6113ac565b005b61028c611458565b6276a70065ffffffffffff168165ffffffffffff1611156102d9576040517f97e2d36d00000000000000000000000000000000000000000000000000000000815260040160405180910390fd5b5f60055f8673ffffffffffffffffffffffffffffffffffffffff1673ffffffffffffffffffffffffffffffffffffffff1681526020019081526020015f20905083815f015f6101000a81548160ff021916908360ff16021790555082815f0160016101000a8154817effffffffffffffffffffffffffffffffffffffffffffffffffffffffffffff02191690837effffffffffffffffffffffffffffffffffffffffffffffffffffffffffffff1602179055508181600101601a6101000a81548165ffffffffffff021916908365ffffffffffff1602179055508360ff168573ffffffffffffffffffffffffffffffffffffffff167fe9ea56618d31afea8558726ec90e5fef0c46d19e0674b8462b208da51359ed7985856040516103ff929190611fa2565b60405180910390a35050505050565b6104166114d6565b806cffffffffffffffffffffffffff165f810361045f576040517f2c5211c600000000000000000000000000000000000000000000000000000000815260040160405180910390fd5b5f60055f8573ffffffffffffffffffffffffffffffffffffffff1673ffffffffffffffffffffffffffffffffffffffff1681526020019081526020015f2090505f60045f3373ffffffffffffffffffffffffffffffffffffffff1673ffffffffffffffffffffffffffffffffffffffff1681526020019081526020015f205f8673ffffffffffffffffffffffffffffffffffffffff1673ffffffffffffffffffffffffffffffffffffffff1681526020019081526020015f209050836cffffffffffffffffffffffffff16815f01541015610566576040517f2c5211c600000000000000000000000000000000000000000000000000000000815260040160405180910390fd5b836cffffffffffffffffffffffffff16815f015f8282546105879190611ff6565b92505081905550836cffffffffffffffffffffffffff16816001015f8282829054906101000a900472ffffffffffffffffffffffffffffffffffffff166105ce9190612029565b92506101000a81548172ffffffffffffffffffffffffffffffffffffff021916908372ffffffffffffffffffffffffffffffffffffff160217905550428160010160136101000a8154816cffffffffffffffffffffffffff02191690836cffffffffffffffffffffffffff16021790555083826001015f8282829054906101000a90046cffffffffffffffffffffffffff1661066a919061206f565b92506101000a8154816cffffffffffffffffffffffffff02191690836cffffffffffffffffffffffffff1602179055508382600101600d8282829054906101000a90046cffffffffffffffffffffffffff166106c691906120af565b92506101000a8154816cffffffffffffffffffffffffff02191690836cffffffffffffffffffffffffff1602179055506106ff85611523565b8473ffffffffffffffffffffffffffffffffffffffff163373ffffffffffffffffffffffffffffffffffffffff167f390b1276974b9463e5d66ab10df69b6f3d7b930eb066a0e66df327edd2cc811c8660405161075c919061211f565b60405180910390a350505061076f611670565b5050565b61077b6114d6565b806cffffffffffffffffffffffffff165f81036107c4576040517f2c5211c600000000000000000000000000000000000000000000000000000000815260040160405180910390fd5b5f60055f8573ffffffffffffffffffffffffffffffffffffffff1673ffffffffffffffffffffffffffffffffffffffff1681526020019081526020015f2090505f60045f3373ffffffffffffffffffffffffffffffffffffffff1673ffffffffffffffffffffffffffffffffffffffff1681526020019081526020015f205f8673ffffffffffffffffffffffffffffffffffffffff1673ffffffffffffffffffffffffffffffffffffffff1681526020019081526020015f209050836cffffffffffffffffffffffffff16816001015f9054906101000a900472ffffffffffffffffffffffffffffffffffffff1672ffffffffffffffffffffffffffffffffffffff1610156108ff576040517f2c5211c600000000000000000000000000000000000000000000000000000000815260040160405180910390fd5b81600101601a9054906101000a900465ffffffffffff1665ffffffffffff168160010160139054906101000a90046cffffffffffffffffffffffffff1661094691906120af565b6cffffffffffffffffffffffffff1642101561098e576040517fae04b1c700000000000000000000000000000000000000000000000000000000815260040160405180910390fd5b836cffffffffffffffffffffffffff16816001015f8282829054906101000a900472ffffffffffffffffffffffffffffffffffffff166109ce9190612138565b92506101000a81548172ffffffffffffffffffffffffffffffffffffff021916908372ffffffffffffffffffffffffffffffffffffff1602179055508382600101600d8282829054906101000a90046cffffffffffffffffffffffffff16610a36919061206f565b92506101000a8154816cffffffffffffffffffffffffff02191690836cffffffffffffffffffffffffff160217905550610aa033856cffffffffffffffffffffffffff168773ffffffffffffffffffffffffffffffffffffffff1661167a9092919063ffffffff16565b610aa985611523565b8473ffffffffffffffffffffffffffffffffffffffff163373ffffffffffffffffffffffffffffffffffffffff167f9b1bfa7fa9ee420a16e124f794c35ac9f90472acc99140eb2f6447c714cad8eb86604051610b06919061211f565b60405180910390a3505050610b19611670565b5050565b610b25611458565b6040517f185b73b100000000000000000000000000000000000000000000000000000000815260040160405180910390fd5b60035f9054906101000a900460ff1681565b5f610b72611700565b90508073ffffffffffffffffffffffffffffffffffffffff16610b936112d9565b73ffffffffffffffffffffffffffffffffffffffff1614610be9576040517f08c379a0000000000000000000000000000000000000000000000000000000008152600401610be0906121fe565b60405180910390fd5b610bf281611707565b50565b5f805f9054906101000a900473ffffffffffffffffffffffffffffffffffffffff16905090565b6004602052815f5260405f20602052805f5260405f205f9150915050805f015490806001015f9054906101000a900472ffffffffffffffffffffffffffffffffffffff16908060010160139054906101000a90046cffffffffffffffffffffffffff16905083565b610c8c6114d6565b806cffffffffffffffffffffffffff165f8103610cd5576040517f2c5211c600000000000000000000000000000000000000000000000000000000815260040160405180910390fd5b5f60055f8573ffffffffffffffffffffffffffffffffffffffff1673ffffffffffffffffffffffffffffffffffffffff1681526020019081526020015f209050805f015f9054906101000a900460ff1660ff1660035f9054906101000a900460ff1660ff1614610d71576040517fd5b25b6300000000000000000000000000000000000000000000000000000000815260040160405180910390fd5b805f0160019054906101000a90047effffffffffffffffffffffffffffffffffffffffffffffffffffffffffffff167effffffffffffffffffffffffffffffffffffffffffffffffffffffffffffff1683826001015f9054906101000a90046cffffffffffffffffffffffffff16610de991906120af565b6cffffffffffffffffffffffffff161115610e30576040517ff897f62800000000000000000000000000000000000000000000000000000000815260040160405180910390fd5b82816001015f8282829054906101000a90046cffffffffffffffffffffffffff16610e5b91906120af565b92506101000a8154816cffffffffffffffffffffffffff02191690836cffffffffffffffffffffffffff160217905550826cffffffffffffffffffffffffff1660045f3373ffffffffffffffffffffffffffffffffffffffff1673ffffffffffffffffffffffffffffffffffffffff1681526020019081526020015f205f8673ffffffffffffffffffffffffffffffffffffffff1673ffffffffffffffffffffffffffffffffffffffff1681526020019081526020015f205f015f828254610f23919061221c565b92505081905550610f663330856cffffffffffffffffffffffffff168773ffffffffffffffffffffffffffffffffffffffff16611737909392919063ffffffff16565b610f6f84611523565b8373ffffffffffffffffffffffffffffffffffffffff163373ffffffffffffffffffffffffffffffffffffffff167f99039fcf0a98f484616c5196ee8b2ecfa971babf0b519848289ea4db381f85f785604051610fcc919061211f565b60405180910390a35050610fde611670565b5050565b610fea611458565b60035f9054906101000a900460ff1660ff168160ff1603611037576040517fd5b25b6300000000000000000000000000000000000000000000000000000000815260040160405180910390fd5b60035f9054906101000a900460ff1660ff168160ff167f168c41a8a7f5d81176dd8b849fe1dd8791803a3b75f63bd1987452a09385b90a60405160405180910390a38060035f6101000a81548160ff021916908360ff16021790555050565b61109e611458565b6110a66114d6565b805f81036110e0576040517f2c5211c600000000000000000000000000000000000000000000000000000000815260040160405180910390fd5b5f73ffffffffffffffffffffffffffffffffffffffff168373ffffffffffffffffffffffffffffffffffffffff1603611145576040517fb2335f2e00000000000000000000000000000000000000000000000000000000815260040160405180910390fd5b73eeeeeeeeeeeeeeeeeeeeeeeeeeeeeeeeeeeeeeee73ffffffffffffffffffffffffffffffffffffffff168473ffffffffffffffffffffffffffffffffffffffff1603611231575f8373ffffffffffffffffffffffffffffffffffffffff16836040516111b19061227c565b5f6040518083038185875af1925050503d805f81146111eb576040519150601f19603f3d011682016040523d82523d5f602084013e6111f0565b606091505b505090508061122b576040517f90b8ec1800000000000000000000000000000000000000000000000000000000815260040160405180910390fd5b50611266565b61125c83838673ffffffffffffffffffffffffffffffffffffffff1661167a9092919063ffffffff16565b61126584611523565b5b8273ffffffffffffffffffffffffffffffffffffffff168473ffffffffffffffffffffffffffffffffffffffff167f77023e19c7343ad491fd706c36335ca0e738340a91f29b1fd81e2673d44896c4846040516112c39190612290565b60405180910390a3506112d4611670565b505050565b5f60015f9054906101000a900473ffffffffffffffffffffffffffffffffffffffff16905090565b6005602052805f5260405f205f91509050805f015f9054906101000a900460ff1690805f0160019054906101000a90047effffffffffffffffffffffffffffffffffffffffffffffffffffffffffffff1690806001015f9054906101000a90046cffffffffffffffffffffffffff169080600101600d9054906101000a90046cffffffffffffffffffffffffff169080600101601a9054906101000a900465ffffffffffff16905085565b6113b4611458565b8060015f6101000a81548173ffffffffffffffffffffffffffffffffffffffff021916908373ffffffffffffffffffffffffffffffffffffffff1602179055508073ffffffffffffffffffffffffffffffffffffffff16611413610bf5565b73ffffffffffffffffffffffffffffffffffffffff167f38d16b8cac22d99fc7c124b9cd0de2d3fa1faef420bfe791d8c362d765e2270060405160405180910390a350565b611460611700565b73ffffffffffffffffffffffffffffffffffffffff1661147e610bf5565b73ffffffffffffffffffffffffffffffffffffffff16146114d4576040517f08c379a00000000000000000000000000000000000000000000000000000000081526004016114cb906122f3565b60405180910390fd5b565b600280540361151a576040517f08c379a00000000000000000000000000000000000000000000000000000000081526004016115119061235b565b60405180910390fd5b60028081905550565b5f60055f8373ffffffffffffffffffffffffffffffffffffffff1673ffffffffffffffffffffffffffffffffffffffff1681526020019081526020015f2090505f8273ffffffffffffffffffffffffffffffffffffffff166370a08231306040518263ffffffff1660e01b815260040161159d9190611d4a565b602060405180830381865afa1580156115b8573d5f803e3d5ffd5b505050506040513d601f19601f820116820180604052508101906115dc919061238d565b905081600101600d9054906101000a90046cffffffffffffffffffffffffff16826001015f9054906101000a90046cffffffffffffffffffffffffff1661162391906120af565b6cffffffffffffffffffffffffff1681101561166b576040517fb215190700000000000000000000000000000000000000000000000000000000815260040160405180910390fd5b505050565b6001600281905550565b6116fb8363a9059cbb60e01b84846040516024016116999291906123b8565b604051602081830303815290604052907bffffffffffffffffffffffffffffffffffffffffffffffffffffffff19166020820180517bffffffffffffffffffffffffffffffffffffffffffffffffffffffff83818316178352505050506117c0565b505050565b5f33905090565b60015f6101000a81549073ffffffffffffffffffffffffffffffffffffffff021916905561173481611886565b50565b6117ba846323b872dd60e01b858585604051602401611758939291906123df565b604051602081830303815290604052907bffffffffffffffffffffffffffffffffffffffffffffffffffffffff19166020820180517bffffffffffffffffffffffffffffffffffffffffffffffffffffffff83818316178352505050506117c0565b50505050565b5f611821826040518060400160405280602081526020017f5361666545524332303a206c6f772d6c6576656c2063616c6c206661696c65648152508573ffffffffffffffffffffffffffffffffffffffff166119479092919063ffffffff16565b90505f815114806118425750808060200190518101906118419190612449565b5b611881576040517f08c379a0000000000000000000000000000000000000000000000000000000008152600401611878906124e4565b60405180910390fd5b505050565b5f805f9054906101000a900473ffffffffffffffffffffffffffffffffffffffff169050815f806101000a81548173ffffffffffffffffffffffffffffffffffffffff021916908373ffffffffffffffffffffffffffffffffffffffff1602179055508173ffffffffffffffffffffffffffffffffffffffff168173ffffffffffffffffffffffffffffffffffffffff167f8be0079c531659141344cd1fd0a4f28419497f9722a3daafe3b4186f6b6457e060405160405180910390a35050565b606061195584845f8561195e565b90509392505050565b6060824710156119a3576040517f08c379a000000000000000000000000000000000000000000000000000000000815260040161199a90612572565b60405180910390fd5b5f808673ffffffffffffffffffffffffffffffffffffffff1685876040516119cb91906125f2565b5f6040518083038185875af1925050503d805f8114611a05576040519150601f19603f3d011682016040523d82523d5f602084013e611a0a565b606091505b5091509150611a1b87838387611a27565b92505050949350505050565b60608315611a88575f835103611a8057611a4085611a9b565b611a7f576040517f08c379a0000000000000000000000000000000000000000000000000000000008152600401611a7690612652565b60405180910390fd5b5b829050611a93565b611a928383611abd565b5b949350505050565b5f808273ffffffffffffffffffffffffffffffffffffffff163b119050919050565b5f82511115611acf5781518083602001fd5b806040517f08c379a0000000000000000000000000000000000000000000000000000000008152600401611b0391906126c2565b60405180910390fd5b5f80fd5b5f73ffffffffffffffffffffffffffffffffffffffff82169050919050565b5f611b3982611b10565b9050919050565b611b4981611b2f565b8114611b53575f80fd5b50565b5f81359050611b6481611b40565b92915050565b5f60ff82169050919050565b611b7f81611b6a565b8114611b89575f80fd5b50565b5f81359050611b9a81611b76565b92915050565b5f7effffffffffffffffffffffffffffffffffffffffffffffffffffffffffffff82169050919050565b611bd381611ba0565b8114611bdd575f80fd5b50565b5f81359050611bee81611bca565b92915050565b5f65ffffffffffff82169050919050565b611c0e81611bf4565b8114611c18575f80fd5b50565b5f81359050611c2981611c05565b92915050565b5f805f8060808587031215611c4757611c46611b0c565b5b5f611c5487828801611b56565b9450506020611c6587828801611b8c565b9350506040611c7687828801611be0565b9250506060611c8787828801611c1b565b91505092959194509250565b5f6cffffffffffffffffffffffffff82169050919050565b611cb481611c93565b8114611cbe575f80fd5b50565b5f81359050611ccf81611cab565b92915050565b5f8060408385031215611ceb57611cea611b0c565b5b5f611cf885828601611b56565b9250506020611d0985828601611cc1565b9150509250929050565b611d1c81611b6a565b82525050565b5f602082019050611d355f830184611d13565b92915050565b611d4481611b2f565b82525050565b5f602082019050611d5d5f830184611d3b565b92915050565b5f8060408385031215611d7957611d78611b0c565b5b5f611d8685828601611b56565b9250506020611d9785828601611b56565b9150509250929050565b5f819050919050565b611db381611da1565b82525050565b5f72ffffffffffffffffffffffffffffffffffffff82169050919050565b611de081611db9565b82525050565b611def81611c93565b82525050565b5f606082019050611e085f830186611daa565b611e156020830185611dd7565b611e226040830184611de6565b949350505050565b5f60208284031215611e3f57611e3e611b0c565b5b5f611e4c84828501611b8c565b91505092915050565b611e5e81611da1565b8114611e68575f80fd5b50565b5f81359050611e7981611e55565b92915050565b5f805f60608486031215611e9657611e95611b0c565b5b5f611ea386828701611b56565b9350506020611eb486828701611b56565b9250506040611ec586828701611e6b565b9150509250925092565b5f60208284031215611ee457611ee3611b0c565b5b5f611ef184828501611b56565b91505092915050565b611f0381611ba0565b82525050565b611f1281611bf4565b82525050565b5f60a082019050611f2b5f830188611d13565b611f386020830187611efa565b611f456040830186611de6565b611f526060830185611de6565b611f5f6080830184611f09565b9695505050505050565b5f819050919050565b5f611f8c611f87611f8284611bf4565b611f69565b611c93565b9050919050565b611f9c81611f72565b82525050565b5f604082019050611fb55f830185611efa565b611fc26020830184611f93565b9392505050565b7f4e487b71000000000000000000000000000000000000000000000000000000005f52601160045260245ffd5b5f61200082611da1565b915061200b83611da1565b925082820390508181111561202357612022611fc9565b5b92915050565b5f61203382611db9565b915061203e83611db9565b9250828201905072ffffffffffffffffffffffffffffffffffffff81111561206957612068611fc9565b5b92915050565b5f61207982611c93565b915061208483611c93565b925082820390506cffffffffffffffffffffffffff8111156120a9576120a8611fc9565b5b92915050565b5f6120b982611c93565b91506120c483611c93565b925082820190506cffffffffffffffffffffffffff8111156120e9576120e8611fc9565b5b92915050565b5f6121096121046120ff84611c93565b611f69565b611da1565b9050919050565b612119816120ef565b82525050565b5f6020820190506121325f830184612110565b92915050565b5f61214282611db9565b915061214d83611db9565b9250828203905072ffffffffffffffffffffffffffffffffffffff81111561217857612177611fc9565b5b92915050565b5f82825260208201905092915050565b7f4f776e61626c6532537465703a2063616c6c6572206973206e6f7420746865205f8201527f6e6577206f776e65720000000000000000000000000000000000000000000000602082015250565b5f6121e860298361217e565b91506121f38261218e565b604082019050919050565b5f6020820190508181035f830152612215816121dc565b9050919050565b5f61222682611da1565b915061223183611da1565b925082820190508082111561224957612248611fc9565b5b92915050565b5f81905092915050565b50565b5f6122675f8361224f565b915061227282612259565b5f82019050919050565b5f6122868261225c565b9150819050919050565b5f6020820190506122a35f830184611daa565b92915050565b7f4f776e61626c653a2063616c6c6572206973206e6f7420746865206f776e65725f82015250565b5f6122dd60208361217e565b91506122e8826122a9565b602082019050919050565b5f6020820190508181035f83015261230a816122d1565b9050919050565b7f5265656e7472616e637947756172643a207265656e7472616e742063616c6c005f82015250565b5f612345601f8361217e565b915061235082612311565b602082019050919050565b5f6020820190508181035f83015261237281612339565b9050919050565b5f8151905061238781611e55565b92915050565b5f602082840312156123a2576123a1611b0c565b5b5f6123af84828501612379565b91505092915050565b5f6040820190506123cb5f830185611d3b565b6123d86020830184611daa565b9392505050565b5f6060820190506123f25f830186611d3b565b6123ff6020830185611d3b565b61240c6040830184611daa565b949350505050565b5f8115159050919050565b61242881612414565b8114612432575f80fd5b50565b5f815190506124438161241f565b92915050565b5f6020828403121561245e5761245d611b0c565b5b5f61246b84828501612435565b91505092915050565b7f5361666545524332303a204552433230206f7065726174696f6e20646964206e5f8201527f6f74207375636365656400000000000000000000000000000000000000000000602082015250565b5f6124ce602a8361217e565b91506124d982612474565b604082019050919050565b5f6020820190508181035f8301526124fb816124c2565b9050919050565b7f416464726573733a20696e73756666696369656e742062616c616e636520666f5f8201527f722063616c6c0000000000000000000000000000000000000000000000000000602082015250565b5f61255c60268361217e565b915061256782612502565b604082019050919050565b5f6020820190508181035f83015261258981612550565b9050919050565b5f81519050919050565b5f5b838110156125b757808201518184015260208101905061259c565b5f8484015250505050565b5f6125cc82612590565b6125d6818561224f565b93506125e681856020860161259a565b80840191505092915050565b5f6125fd82846125c2565b915081905092915050565b7f416464726573733a2063616c6c20746f206e6f6e2d636f6e74726163740000005f82015250565b5f61263c601d8361217e565b915061264782612608565b602082019050919050565b5f6020820190508181035f83015261266981612630565b9050919050565b5f81519050919050565b5f601f19601f8301169050919050565b5f61269482612670565b61269e818561217e565b93506126ae81856020860161259a565b6126b78161267a565b840191505092915050565b5f6020820190508181035f8301526126da818461268a565b90509291505056fea264697066735822122067eda3eba08da25dcf61a6cf7e2490f2026bf9451f58798f6e9a1beb4c2dc5d164736f6c63430008140033","linkReferences":{}},"methodIdentifiers":{"acceptOwnership()":"79ba5097","currentEpoch()":"76671808","owner()":"8da5cb5b","pendingOwner()":"e30c3978","renounceOwnership()":"715018a6","rescueTokens(address,address,uint256)":"cea9d26f","setEpoch(uint8)":"b5a2e01b","stake(address,uint104)":"b3dd411d","stakeParametersByToken(address)":"e76c3f55","stakes(address,address)":"a4e47b66","transferOwnership(address)":"f2fde38b","unstake(address,uint104)":"21ec52b4","updateStakeParameters(address,uint8,uint248,uint48)":"17105417","withdraw(address,uint104)":"6ab498a3"},"id":2}