{"abi":[{"type":"constructor","inputs":[{"name":"stakingVault","type":"address","internalType":"address"},{"name":"usde","type":"address","internalType":"address"}],"stateMutability":"nonpayable"},{"type":"function","name":"withdraw","inputs":[{"name":"to","type":"address","internalType":"address"},{"name":"amount","type":"uint256","internalType":"uint256"}],"outputs":[],"stateMutability":"nonpayable"},{"type":"error","name":"OnlyStakingVault","inputs":[]}],"bytecode":{"object":"0x60c060405234801561000f575f80fd5b50604051610473380380610473833981810160405281019061003191906100fe565b8173ffffffffffffffffffffffffffffffffffffffff1660808173ffffffffffffffffffffffffffffffffffffffff16815250508073ffffffffffffffffffffffffffffffffffffffff1660a08173ffffffffffffffffffffffffffffffffffffffff1681525050505061013c565b5f80fd5b5f73ffffffffffffffffffffffffffffffffffffffff82169050919050565b5f6100cd826100a4565b9050919050565b6100dd816100c3565b81146100e7575f80fd5b50565b5f815190506100f8816100d4565b92915050565b5f8060408385031215610114576101136100a0565b5b5f610121858286016100ea565b9250506020610132858286016100ea565b9150509250929050565b60805160a05161031861015b5f395f60d001525f604b01526103185ff3fe608060405234801561000f575f80fd5b5060043610610029575f3560e01c8063f3fef3a31461002d575b5f80fd5b610047600480360381019061004291906101ff565b610049565b005b7f000000000000000000000000000000000000000000000000000000000000000073ffffffffffffffffffffffffffffffffffffffff163373ffffffffffffffffffffffffffffffffffffffff16146100ce576040517f17dd114500000000000000000000000000000000000000000000000000000000815260040160405180910390fd5b7f000000000000000000000000000000000000000000000000000000000000000073ffffffffffffffffffffffffffffffffffffffff1663a9059cbb83836040518363ffffffff1660e01b815260040161012992919061025b565b6020604051808303815f875af1158015610145573d5f803e3d5ffd5b505050506040513d601f19601f8201168201806040525081019061016991906102b7565b505050565b5f80fd5b5f73ffffffffffffffffffffffffffffffffffffffff82169050919050565b5f61019b82610172565b9050919050565b6101ab81610191565b81146101b5575f80fd5b50565b5f813590506101c6816101a2565b92915050565b5f819050919050565b6101de816101cc565b81146101e8575f80fd5b50565b5f813590506101f9816101d5565b92915050565b5f80604083850312156102155761021461016e565b5b5f610222858286016101b8565b9250506020610233858286016101eb565b9150509250929050565b61024681610191565b82525050565b610255816101cc565b82525050565b5f60408201905061026e5f83018561023d565b61027b602083018461024c565b9392505050565b5f8115159050919050565b61029681610282565b81146102a0575f80fd5b50565b5f815190506102b18161028d565b92915050565b5f602082840312156102cc576102cb61016e565b5b5f6102d9848285016102a3565b9150509291505056fea264697066735822122004d54edf8aa24536b51267b7a537366dca2ea6680a79a916cd848c2d9abd78cd64736f6c63430008140033","linkReferences":{}},"methodIdentifiers":{"withdraw(address,uint256)":"f3fef3a3"},"id":10}