{"abi":[{"type":"constructor","inputs":[{"name":"name","type":"string","internalType":"string"},{"name":"symbol","type":"string","internalType":"string"},{"name":"owner","type":"address","internalType":"address"}],"stateMutability":"nonpayable"},{"type":"function","name":"DOMAIN_SEPARATOR","inputs":[],"outputs":[{"name":"","type":"bytes32","internalType":"bytes32"}],"stateMutability":"view"},{"type":"function","name":"EIP712_REVISION","inputs":[],"outputs":[{"name":"","type":"bytes","internalType":"bytes"}],"stateMutability":"view"},{"type":"function","name":"PERMIT_TYPEHASH","inputs":[],"outputs":[{"name":"","type":"bytes32","internalType":"bytes32"}],"stateMutability":"view"},{"type":"function","name":"allowance","inputs":[{"name":"owner","type":"address","internalType":"address"},{"name":"spender","type":"address","internalType":"address"}],"outputs":[{"name":"","type":"uint256","internalType":"uint256"}],"stateMutability":"view"},{"type":"function","name":"approve","inputs":[{"name":"spender","type":"address","internalType":"address"},{"name":"amount","type":"uint256","internalType":"uint256"}],"outputs":[{"name":"","type":"bool","internalType":"bool"}],"stateMutability":"nonpayable"},{"type":"function","name":"balanceOf","inputs":[{"name":"account","type":"address","internalType":"address"}],"outputs":[{"name":"","type":"uint256","internalType":"uint256"}],"stateMutability":"view"},{"type":"function","name":"decimals","inputs":[],"outputs":[{"name":"","type":"uint8","internalType":"uint8"}],"stateMutability":"view"},{"type":"function","name":"decreaseAllowance","inputs":[{"name":"spender","type":"address","internalType":"address"},{"name":"subtractedValue","type":"uint256","internalType":"uint256"}],"outputs":[{"name":"","type":"bool","internalType":"bool"}],"stateMutability":"nonpayable"},{"type":"function","name":"increaseAllowance","inputs":[{"name":"spender","type":"address","internalType":"address"},{"name":"addedValue","type":"uint256","internalType":"uint256"}],"outputs":[{"name":"","type":"bool","internalType":"bool"}],"stateMutability":"nonpayable"},{"type":"function","name":"mint","inputs":[{"name":"account","type":"address","internalType":"address"},{"name":"value","type":"uint256","internalType":"uint256"}],"outputs":[{"name":"","type":"bool","internalType":"bool"}],"stateMutability":"nonpayable"},{"type":"function","name":"mint","inputs":[{"name":"value","type":"uint256","internalType":"uint256"}],"outputs":[{"name":"","type":"bool","internalType":"bool"}],"stateMutability":"nonpayable"},{"type":"function","name":"name","inputs":[],"outputs":[{"name":"","type":"string","internalType":"string"}],"stateMutability":"view"},{"type":"function","name":"nonces","inputs":[{"name":"owner","type":"address","internalType":"address"}],"outputs":[{"name":"","type":"uint256","internalType":"uint256"}],"stateMutability":"view"},{"type":"function","name":"owner","inputs":[],"outputs":[{"name":"","type":"address","internalType":"address"}],"stateMutability":"view"},{"type":"function","name":"permit","inputs":[{"name":"owner","type":"address","internalType":"address"},{"name":"spender","type":"address","internalType":"address"},{"name":"value","type":"uint256","internalType":"uint256"},{"name":"deadline","type":"uint256","internalType":"uint256"},{"name":"v","type":"uint8","internalType":"uint8"},{"name":"r","type":"bytes32","internalType":"bytes32"},{"name":"s","type":"bytes32","internalType":"bytes32"}],"outputs":[],"stateMutability":"nonpayable"},{"type":"function","name":"renounceOwnership","inputs":[],"outputs":[],"stateMutability":"nonpayable"},{"type":"function","name":"symbol","inputs":[],"outputs":[{"name":"","type":"string","internalType":"string"}],"stateMutability":"view"},{"type":"function","name":"totalSupply","inputs":[],"outputs":[{"name":"","type":"uint256","internalType":"uint256"}],"stateMutability":"view"},{"type":"function","name":"transfer","inputs":[{"name":"to","type":"address","internalType":"address"},{"name":"amount","type":"uint256","internalType":"uint256"}],"outputs":[{"name":"","type":"bool","internalType":"bool"}],"stateMutability":"nonpayable"},{"type":"function","name":"transferFrom","inputs":[{"name":"from","type":"address","internalType":"address"},{"name":"to","type":"address","internalType":"address"},{"name":"amount","type":"uint256","internalType":"uint256"}],"outputs":[{"name":"","type":"bool","internalType":"bool"}],"stateMutability":"nonpayable"},{"type":"function","name":"transferOwnership","inputs":[{"name":"newOwner","type":"address","internalType":"address"}],"outputs":[],"stateMutability":"nonpayable"},{"type":"event","name":"Approval","inputs":[{"name":"owner","type":"address","indexed":true,"internalType":"address"},{"name":"spender","type":"address","indexed":true,"internalType":"address"},{"name":"value","type":"uint256","indexed":false,"internalType":"uint256"}],"anonymous":false},{"type":"event","name":"OwnershipTransferred","inputs":[{"name":"previousOwner","type":"address","indexed":true,"internalType":"address"},{"name":"newOwner","type":"address","indexed":true,"internalType":"address"}],"anonymous":false},{"type":"event","name":"Transfer","inputs":[{"name":"from","type":"address","indexed":true,"internalType":"address"},{"name":"to","type":"address","indexed":true,"internalType":"address"},{"name":"value","type":"uint256","indexed":false,"internalType":"uint256"}],"anonymous":false}],"bytecode":{"object":"0x608060405234801562000010575f80fd5b5060405162002afc38038062002afc83398181016040528101906200003691906200056d565b828281600390816200004991906200083b565b5080600490816200005b91906200083b565b5050506200007e620000726200016f60201b60201c565b6200017660201b60201c565b5f4690507f8b73c3c69bb8fe3d512ecc4cf759cc79239f7b179b0ffacaa9a75d522b39400f84805190602001206040518060400160405280600181526020017f3100000000000000000000000000000000000000000000000000000000000000815250805190602001208330604051602001620001009594939291906200095b565b604051602081830303815290604052805190602001206007819055505f73ffffffffffffffffffffffffffffffffffffffff168273ffffffffffffffffffffffffffffffffffffffff160362000154575f80fd5b62000165826200023960201b60201c565b5050505062000ac8565b5f33905090565b5f60055f9054906101000a900473ffffffffffffffffffffffffffffffffffffffff1690508160055f6101000a81548173ffffffffffffffffffffffffffffffffffffffff021916908373ffffffffffffffffffffffffffffffffffffffff1602179055508173ffffffffffffffffffffffffffffffffffffffff168173ffffffffffffffffffffffffffffffffffffffff167f8be0079c531659141344cd1fd0a4f28419497f9722a3daafe3b4186f6b6457e060405160405180910390a35050565b62000249620002ce60201b60201c565b5f73ffffffffffffffffffffffffffffffffffffffff168173ffffffffffffffffffffffffffffffffffffffff1603620002ba576040517f08c379a0000000000000000000000000000000000000000000000000000000008152600401620002b19062000a3a565b60405180910390fd5b620002cb816200017660201b60201c565b50565b620002de6200016f60201b60201c565b73ffffffffffffffffffffffffffffffffffffffff16620003046200035f60201b60201c565b73ffffffffffffffffffffffffffffffffffffffff16146200035d576040517f08c379a0000000000000000000000000000000000000000000000000000000008152600401620003549062000aa8565b60405180910390fd5b565b5f60055f9054906101000a900473ffffffffffffffffffffffffffffffffffffffff16905090565b5f604051905090565b5f80fd5b5f80fd5b5f80fd5b5f80fd5b5f601f19601f8301169050919050565b7f4e487b71000000000000000000000000000000000000000000000000000000005f52604160045260245ffd5b620003e882620003a0565b810181811067ffffffffffffffff821117156200040a5762000409620003b0565b5b80604052505050565b5f6200041e62000387565b90506200042c8282620003dd565b919050565b5f67ffffffffffffffff8211156200044e576200044d620003b0565b5b6200045982620003a0565b9050602081019050919050565b5f5b838110156200048557808201518184015260208101905062000468565b5f8484015250505050565b5f620004a6620004a08462000431565b62000413565b905082815260208101848484011115620004c557620004c46200039c565b5b620004d284828562000466565b509392505050565b5f82601f830112620004f157620004f062000398565b5b81516200050384826020860162000490565b91505092915050565b5f73ffffffffffffffffffffffffffffffffffffffff82169050919050565b5f62000537826200050c565b9050919050565b62000549816200052b565b811462000554575f80fd5b50565b5f8151905062000567816200053e565b92915050565b5f805f6060848603121562000587576200058662000390565b5b5f84015167ffffffffffffffff811115620005a757620005a662000394565b5b620005b586828701620004da565b935050602084015167ffffffffffffffff811115620005d957620005d862000394565b5b620005e786828701620004da565b9250506040620005fa8682870162000557565b9150509250925092565b5f81519050919050565b7f4e487b71000000000000000000000000000000000000000000000000000000005f52602260045260245ffd5b5f60028204905060018216806200065357607f821691505b6020821081036200066957620006686200060e565b5b50919050565b5f819050815f5260205f209050919050565b5f6020601f8301049050919050565b5f82821b905092915050565b5f60088302620006cd7fffffffffffffffffffffffffffffffffffffffffffffffffffffffffffffffff8262000690565b620006d9868362000690565b95508019841693508086168417925050509392505050565b5f819050919050565b5f819050919050565b5f620007236200071d6200071784620006f1565b620006fa565b620006f1565b9050919050565b5f819050919050565b6200073e8362000703565b620007566200074d826200072a565b8484546200069c565b825550505050565b5f90565b6200076c6200075e565b6200077981848462000733565b505050565b5b81811015620007a057620007945f8262000762565b6001810190506200077f565b5050565b601f821115620007ef57620007b9816200066f565b620007c48462000681565b81016020851015620007d4578190505b620007ec620007e38562000681565b8301826200077e565b50505b505050565b5f82821c905092915050565b5f620008115f1984600802620007f4565b1980831691505092915050565b5f6200082b838362000800565b9150826002028217905092915050565b620008468262000604565b67ffffffffffffffff811115620008625762000861620003b0565b5b6200086e82546200063b565b6200087b828285620007a4565b5f60209050601f831160018114620008b1575f84156200089c578287015190505b620008a885826200081e565b86555062000917565b601f198416620008c1866200066f565b5f5b82811015620008ea57848901518255600182019150602085019450602081019050620008c3565b868310156200090a578489015162000906601f89168262000800565b8355505b6001600288020188555050505b505050505050565b5f819050919050565b62000933816200091f565b82525050565b6200094481620006f1565b82525050565b62000955816200052b565b82525050565b5f60a082019050620009705f83018862000928565b6200097f602083018762000928565b6200098e604083018662000928565b6200099d606083018562000939565b620009ac60808301846200094a565b9695505050505050565b5f82825260208201905092915050565b7f4f776e61626c653a206e6577206f776e657220697320746865207a65726f20615f8201527f6464726573730000000000000000000000000000000000000000000000000000602082015250565b5f62000a22602683620009b6565b915062000a2f82620009c6565b604082019050919050565b5f6020820190508181035f83015262000a538162000a14565b9050919050565b7f4f776e61626c653a2063616c6c6572206973206e6f7420746865206f776e65725f82015250565b5f62000a90602083620009b6565b915062000a9d8262000a5a565b602082019050919050565b5f6020820190508181035f83015262000ac18162000a82565b9050919050565b6120268062000ad65f395ff3fe608060405234801561000f575f80fd5b5060043610610135575f3560e01c8063715018a6116100b6578063a0712d681161007a578063a0712d6814610353578063a457c2d714610383578063a9059cbb146103b3578063d505accf146103e3578063dd62ed3e146103ff578063f2fde38b1461042f57610135565b8063715018a6146102bf57806378160376146102c95780637ecebe00146102e75780638da5cb5b1461031757806395d89b411461033557610135565b8063313ce567116100fd578063313ce567146101f35780633644e51514610211578063395093511461022f57806340c10f191461025f57806370a082311461028f57610135565b806306fdde0314610139578063095ea7b31461015757806318160ddd1461018757806323b872dd146101a557806330adf81f146101d5575b5f80fd5b61014161044b565b60405161014e9190611377565b60405180910390f35b610171600480360381019061016c9190611428565b6104db565b60405161017e9190611480565b60405180910390f35b61018f6104fd565b60405161019c91906114a8565b60405180910390f35b6101bf60048036038101906101ba91906114c1565b610506565b6040516101cc9190611480565b60405180910390f35b6101dd610534565b6040516101ea9190611529565b60405180910390f35b6101fb610558565b604051610208919061155d565b60405180910390f35b610219610560565b6040516102269190611529565b60405180910390f35b61024960048036038101906102449190611428565b610566565b6040516102569190611480565b60405180910390f35b61027960048036038101906102749190611428565b61059c565b6040516102869190611480565b60405180910390f35b6102a960048036038101906102a49190611576565b6105b9565b6040516102b691906114a8565b60405180910390f35b6102c76105fe565b005b6102d1610611565b6040516102de91906115f3565b60405180910390f35b61030160048036038101906102fc9190611576565b61064a565b60405161030e91906114a8565b60405180910390f35b61031f610690565b60405161032c9190611622565b60405180910390f35b61033d6106b8565b60405161034a9190611377565b60405180910390f35b61036d6004803603810190610368919061163b565b610748565b60405161037a9190611480565b60405180910390f35b61039d60048036038101906103989190611428565b61076b565b6040516103aa9190611480565b60405180910390f35b6103cd60048036038101906103c89190611428565b6107e0565b6040516103da9190611480565b60405180910390f35b6103fd60048036038101906103f891906116ba565b610802565b005b61041960048036038101906104149190611757565b610a8f565b60405161042691906114a8565b60405180910390f35b61044960048036038101906104449190611576565b610b11565b005b60606003805461045a906117c2565b80601f0160208091040260200160405190810160405280929190818152602001828054610486906117c2565b80156104d15780601f106104a8576101008083540402835291602001916104d1565b820191905f5260205f20905b8154815290600101906020018083116104b457829003601f168201915b5050505050905090565b5f806104e5610b93565b90506104f2818585610b9a565b600191505092915050565b5f600254905090565b5f80610510610b93565b905061051d858285610d5d565b610528858585610de8565b60019150509392505050565b7f6e71edae12b1b97f4d1f60370fef10105fa2faae0126114a169c64845d6126c981565b5f6012905090565b60075481565b5f80610570610b93565b90506105918185856105828589610a8f565b61058c919061181f565b610b9a565b600191505092915050565b5f6105a5611054565b6105af83836110d2565b6001905092915050565b5f805f8373ffffffffffffffffffffffffffffffffffffffff1673ffffffffffffffffffffffffffffffffffffffff1681526020019081526020015f20549050919050565b610606611054565b61060f5f611220565b565b6040518060400160405280600181526020017f310000000000000000000000000000000000000000000000000000000000000081525081565b5f60065f8373ffffffffffffffffffffffffffffffffffffffff1673ffffffffffffffffffffffffffffffffffffffff1681526020019081526020015f20549050919050565b5f60055f9054906101000a900473ffffffffffffffffffffffffffffffffffffffff16905090565b6060600480546106c7906117c2565b80601f01602080910402602001604051908101604052809291908181526020018280546106f3906117c2565b801561073e5780601f106107155761010080835404028352916020019161073e565b820191905f5260205f20905b81548152906001019060200180831161072157829003601f168201915b5050505050905090565b5f610751611054565b61076261075c610b93565b836110d2565b60019050919050565b5f80610775610b93565b90505f6107828286610a8f565b9050838110156107c7576040517f08c379a00000000000000000000000000000000000000000000000000000000081526004016107be906118c2565b60405180910390fd5b6107d48286868403610b9a565b60019250505092915050565b5f806107ea610b93565b90506107f7818585610de8565b600191505092915050565b5f73ffffffffffffffffffffffffffffffffffffffff168773ffffffffffffffffffffffffffffffffffffffff1603610870576040517f08c379a00000000000000000000000000000000000000000000000000000000081526004016108679061192a565b60405180910390fd5b834211156108b3576040517f08c379a00000000000000000000000000000000000000000000000000000000081526004016108aa90611992565b60405180910390fd5b5f60065f8973ffffffffffffffffffffffffffffffffffffffff1673ffffffffffffffffffffffffffffffffffffffff1681526020019081526020015f205490505f6007547f6e71edae12b1b97f4d1f60370fef10105fa2faae0126114a169c64845d6126c98a8a8a868b604051602001610933969594939291906119b0565b6040516020818303038152906040528051906020012060405160200161095a929190611a83565b6040516020818303038152906040528051906020012090506001818686866040515f81526020016040526040516109949493929190611ab9565b6020604051602081039080840390855afa1580156109b4573d5f803e3d5ffd5b5050506020604051035173ffffffffffffffffffffffffffffffffffffffff168973ffffffffffffffffffffffffffffffffffffffff1614610a2b576040517f08c379a0000000000000000000000000000000000000000000000000000000008152600401610a2290611b46565b60405180910390fd5b600182610a38919061181f565b60065f8b73ffffffffffffffffffffffffffffffffffffffff1673ffffffffffffffffffffffffffffffffffffffff1681526020019081526020015f2081905550610a84898989610b9a565b505050505050505050565b5f60015f8473ffffffffffffffffffffffffffffffffffffffff1673ffffffffffffffffffffffffffffffffffffffff1681526020019081526020015f205f8373ffffffffffffffffffffffffffffffffffffffff1673ffffffffffffffffffffffffffffffffffffffff1681526020019081526020015f2054905092915050565b610b19611054565b5f73ffffffffffffffffffffffffffffffffffffffff168173ffffffffffffffffffffffffffffffffffffffff1603610b87576040517f08c379a0000000000000000000000000000000000000000000000000000000008152600401610b7e90611bd4565b60405180910390fd5b610b9081611220565b50565b5f33905090565b5f73ffffffffffffffffffffffffffffffffffffffff168373ffffffffffffffffffffffffffffffffffffffff1603610c08576040517f08c379a0000000000000000000000000000000000000000000000000000000008152600401610bff90611c62565b60405180910390fd5b5f73ffffffffffffffffffffffffffffffffffffffff168273ffffffffffffffffffffffffffffffffffffffff1603610c76576040517f08c379a0000000000000000000000000000000000000000000000000000000008152600401610c6d90611cf0565b60405180910390fd5b8060015f8573ffffffffffffffffffffffffffffffffffffffff1673ffffffffffffffffffffffffffffffffffffffff1681526020019081526020015f205f8473ffffffffffffffffffffffffffffffffffffffff1673ffffffffffffffffffffffffffffffffffffffff1681526020019081526020015f20819055508173ffffffffffffffffffffffffffffffffffffffff168373ffffffffffffffffffffffffffffffffffffffff167f8c5be1e5ebec7d5bd14f71427d1e84f3dd0314c0f7b2291e5b200ac8c7c3b92583604051610d5091906114a8565b60405180910390a3505050565b5f610d688484610a8f565b90507fffffffffffffffffffffffffffffffffffffffffffffffffffffffffffffffff8114610de25781811015610dd4576040517f08c379a0000000000000000000000000000000000000000000000000000000008152600401610dcb90611d58565b60405180910390fd5b610de18484848403610b9a565b5b50505050565b5f73ffffffffffffffffffffffffffffffffffffffff168373ffffffffffffffffffffffffffffffffffffffff1603610e56576040517f08c379a0000000000000000000000000000000000000000000000000000000008152600401610e4d90611de6565b60405180910390fd5b5f73ffffffffffffffffffffffffffffffffffffffff168273ffffffffffffffffffffffffffffffffffffffff1603610ec4576040517f08c379a0000000000000000000000000000000000000000000000000000000008152600401610ebb90611e74565b60405180910390fd5b610ecf8383836112e3565b5f805f8573ffffffffffffffffffffffffffffffffffffffff1673ffffffffffffffffffffffffffffffffffffffff1681526020019081526020015f2054905081811015610f52576040517f08c379a0000000000000000000000000000000000000000000000000000000008152600401610f4990611f02565b60405180910390fd5b8181035f808673ffffffffffffffffffffffffffffffffffffffff1673ffffffffffffffffffffffffffffffffffffffff1681526020019081526020015f2081905550815f808573ffffffffffffffffffffffffffffffffffffffff1673ffffffffffffffffffffffffffffffffffffffff1681526020019081526020015f205f82825401925050819055508273ffffffffffffffffffffffffffffffffffffffff168473ffffffffffffffffffffffffffffffffffffffff167fddf252ad1be2c89b69c2b068fc378daa952ba7f163c4a11628f55a4df523b3ef8460405161103b91906114a8565b60405180910390a361104e8484846112e8565b50505050565b61105c610b93565b73ffffffffffffffffffffffffffffffffffffffff1661107a610690565b73ffffffffffffffffffffffffffffffffffffffff16146110d0576040517f08c379a00000000000000000000000000000000000000000000000000000000081526004016110c790611f6a565b60405180910390fd5b565b5f73ffffffffffffffffffffffffffffffffffffffff168273ffffffffffffffffffffffffffffffffffffffff1603611140576040517f08c379a000000000000000000000000000000000000000000000000000000000815260040161113790611fd2565b60405180910390fd5b61114b5f83836112e3565b8060025f82825461115c919061181f565b92505081905550805f808473ffffffffffffffffffffffffffffffffffffffff1673ffffffffffffffffffffffffffffffffffffffff1681526020019081526020015f205f82825401925050819055508173ffffffffffffffffffffffffffffffffffffffff165f73ffffffffffffffffffffffffffffffffffffffff167fddf252ad1be2c89b69c2b068fc378daa952ba7f163c4a11628f55a4df523b3ef8360405161120991906114a8565b60405180910390a361121c5f83836112e8565b5050565b5f60055f9054906101000a900473ffffffffffffffffffffffffffffffffffffffff1690508160055f6101000a81548173ffffffffffffffffffffffffffffffffffffffff021916908373ffffffffffffffffffffffffffffffffffffffff1602179055508173ffffffffffffffffffffffffffffffffffffffff168173ffffffffffffffffffffffffffffffffffffffff167f8be0079c531659141344cd1fd0a4f28419497f9722a3daafe3b4186f6b6457e060405160405180910390a35050565b505050565b505050565b5f81519050919050565b5f82825260208201905092915050565b5f5b83811015611324578082015181840152602081019050611309565b5f8484015250505050565b5f601f19601f8301169050919050565b5f611349826112ed565b61135381856112f7565b9350611363818560208601611307565b61136c8161132f565b840191505092915050565b5f6020820190508181035f83015261138f818461133f565b905092915050565b5f80fd5b5f73ffffffffffffffffffffffffffffffffffffffff82169050919050565b5f6113c48261139b565b9050919050565b6113d4816113ba565b81146113de575f80fd5b50565b5f813590506113ef816113cb565b92915050565b5f819050919050565b611407816113f5565b8114611411575f80fd5b50565b5f81359050611422816113fe565b92915050565b5f806040838503121561143e5761143d611397565b5b5f61144b858286016113e1565b925050602061145c85828601611414565b9150509250929050565b5f8115159050919050565b61147a81611466565b82525050565b5f6020820190506114935f830184611471565b92915050565b6114a2816113f5565b82525050565b5f6020820190506114bb5f830184611499565b92915050565b5f805f606084860312156114d8576114d7611397565b5b5f6114e5868287016113e1565b93505060206114f6868287016113e1565b925050604061150786828701611414565b9150509250925092565b5f819050919050565b61152381611511565b82525050565b5f60208201905061153c5f83018461151a565b92915050565b5f60ff82169050919050565b61155781611542565b82525050565b5f6020820190506115705f83018461154e565b92915050565b5f6020828403121561158b5761158a611397565b5b5f611598848285016113e1565b91505092915050565b5f81519050919050565b5f82825260208201905092915050565b5f6115c5826115a1565b6115cf81856115ab565b93506115df818560208601611307565b6115e88161132f565b840191505092915050565b5f6020820190508181035f83015261160b81846115bb565b905092915050565b61161c816113ba565b82525050565b5f6020820190506116355f830184611613565b92915050565b5f602082840312156116505761164f611397565b5b5f61165d84828501611414565b91505092915050565b61166f81611542565b8114611679575f80fd5b50565b5f8135905061168a81611666565b92915050565b61169981611511565b81146116a3575f80fd5b50565b5f813590506116b481611690565b92915050565b5f805f805f805f60e0888a0312156116d5576116d4611397565b5b5f6116e28a828b016113e1565b97505060206116f38a828b016113e1565b96505060406117048a828b01611414565b95505060606117158a828b01611414565b94505060806117268a828b0161167c565b93505060a06117378a828b016116a6565b92505060c06117488a828b016116a6565b91505092959891949750929550565b5f806040838503121561176d5761176c611397565b5b5f61177a858286016113e1565b925050602061178b858286016113e1565b9150509250929050565b7f4e487b71000000000000000000000000000000000000000000000000000000005f52602260045260245ffd5b5f60028204905060018216806117d957607f821691505b6020821081036117ec576117eb611795565b5b50919050565b7f4e487b71000000000000000000000000000000000000000000000000000000005f52601160045260245ffd5b5f611829826113f5565b9150611834836113f5565b925082820190508082111561184c5761184b6117f2565b5b92915050565b7f45524332303a2064656372656173656420616c6c6f77616e63652062656c6f775f8201527f207a65726f000000000000000000000000000000000000000000000000000000602082015250565b5f6118ac6025836112f7565b91506118b782611852565b604082019050919050565b5f6020820190508181035f8301526118d9816118a0565b9050919050565b7f494e56414c49445f4f574e4552000000000000000000000000000000000000005f82015250565b5f611914600d836112f7565b915061191f826118e0565b602082019050919050565b5f6020820190508181035f83015261194181611908565b9050919050565b7f494e56414c49445f45585049524154494f4e00000000000000000000000000005f82015250565b5f61197c6012836112f7565b915061198782611948565b602082019050919050565b5f6020820190508181035f8301526119a981611970565b9050919050565b5f60c0820190506119c35f83018961151a565b6119d06020830188611613565b6119dd6040830187611613565b6119ea6060830186611499565b6119f76080830185611499565b611a0460a0830184611499565b979650505050505050565b5f81905092915050565b7f19010000000000000000000000000000000000000000000000000000000000005f82015250565b5f611a4d600283611a0f565b9150611a5882611a19565b600282019050919050565b5f819050919050565b611a7d611a7882611511565b611a63565b82525050565b5f611a8d82611a41565b9150611a998285611a6c565b602082019150611aa98284611a6c565b6020820191508190509392505050565b5f608082019050611acc5f83018761151a565b611ad9602083018661154e565b611ae6604083018561151a565b611af3606083018461151a565b95945050505050565b7f494e56414c49445f5349474e41545552450000000000000000000000000000005f82015250565b5f611b306011836112f7565b9150611b3b82611afc565b602082019050919050565b5f6020820190508181035f830152611b5d81611b24565b9050919050565b7f4f776e61626c653a206e6577206f776e657220697320746865207a65726f20615f8201527f6464726573730000000000000000000000000000000000000000000000000000602082015250565b5f611bbe6026836112f7565b9150611bc982611b64565b604082019050919050565b5f6020820190508181035f830152611beb81611bb2565b9050919050565b7f45524332303a20617070726f76652066726f6d20746865207a65726f206164645f8201527f7265737300000000000000000000000000000000000000000000000000000000602082015250565b5f611c4c6024836112f7565b9150611c5782611bf2565b604082019050919050565b5f6020820190508181035f830152611c7981611c40565b9050919050565b7f45524332303a20617070726f766520746f20746865207a65726f2061646472655f8201527f7373000000000000000000000000000000000000000000000000000000000000602082015250565b5f611cda6022836112f7565b9150611ce582611c80565b604082019050919050565b5f6020820190508181035f830152611d0781611cce565b9050919050565b7f45524332303a20696e73756666696369656e7420616c6c6f77616e63650000005f82015250565b5f611d42601d836112f7565b9150611d4d82611d0e565b602082019050919050565b5f6020820190508181035f830152611d6f81611d36565b9050919050565b7f45524332303a207472616e736665722066726f6d20746865207a65726f2061645f8201527f6472657373000000000000000000000000000000000000000000000000000000602082015250565b5f611dd06025836112f7565b9150611ddb82611d76565b604082019050919050565b5f6020820190508181035f830152611dfd81611dc4565b9050919050565b7f45524332303a207472616e7366657220746f20746865207a65726f20616464725f8201527f6573730000000000000000000000000000000000000000000000000000000000602082015250565b5f611e5e6023836112f7565b9150611e6982611e04565b604082019050919050565b5f6020820190508181035f830152611e8b81611e52565b9050919050565b7f45524332303a207472616e7366657220616d6f756e74206578636565647320625f8201527f616c616e63650000000000000000000000000000000000000000000000000000602082015250565b5f611eec6026836112f7565b9150611ef782611e92565b604082019050919050565b5f6020820190508181035f830152611f1981611ee0565b9050919050565b7f4f776e61626c653a2063616c6c6572206973206e6f7420746865206f776e65725f82015250565b5f611f546020836112f7565b9150611f5f82611f20565b602082019050919050565b5f6020820190508181035f830152611f8181611f48565b9050919050565b7f45524332303a206d696e7420746f20746865207a65726f2061646472657373005f82015250565b5f611fbc601f836112f7565b9150611fc782611f88565b602082019050919050565b5f6020820190508181035f830152611fe981611fb0565b905091905056fea2646970667358221220028d35e69382bf00995115386871c685e33d46766cca76e8e0a29464c122005d64736f6c63430008140033","linkReferences":{}},"methodIdentifiers":{"DOMAIN_SEPARATOR()":"3644e515","EIP712_REVISION()":"78160376","PERMIT_TYPEHASH()":"30adf81f","allowance(address,address)":"dd62ed3e","approve(address,uint256)":"095ea7b3","balanceOf(address)":"70a08231","decimals()":"313ce567","decreaseAllowance(address,uint256)":"a457c2d7","increaseAllowance(address,uint256)":"39509351","mint(address,uint256)":"40c10f19","mint(uint256)":"a0712d68","name()":"06fdde03","nonces(address)":"7ecebe00","owner()":"8da5cb5b","permit(address,address,uint256,uint256,uint8,bytes32,bytes32)":"d505accf","renounceOwnership()":"715018a6","symbol()":"95d89b41","totalSupply()":"18160ddd","transfer(address,uint256)":"a9059cbb","transferFrom(address,address,uint256)":"23b872dd","transferOwnership(address)":"f2fde38b"},"id":8}