{"abi":[{"type":"constructor","inputs":[{"name":"_initialOwner","type":"address","internalType":"address"},{"name":"_treasury","type":"address","internalType":"address"},{"name":"_foundation","type":"address","internalType":"address"}],"stateMutability":"nonpayable"},{"type":"function","name":"DOMAIN_SEPARATOR","inputs":[],"outputs":[{"name":"","type":"bytes32","internalType":"bytes32"}],"stateMutability":"view"},{"type":"function","name":"MAX_INFLATION","inputs":[],"outputs":[{"name":"","type":"uint8","internalType":"uint8"}],"stateMutability":"view"},{"type":"function","name":"MINT_WAIT_PERIOD","inputs":[],"outputs":[{"name":"","type":"uint32","internalType":"uint32"}],"stateMutability":"view"},{"type":"function","name":"acceptOwnership","inputs":[],"outputs":[],"stateMutability":"nonpayable"},{"type":"function","name":"allowance","inputs":[{"name":"owner","type":"address","internalType":"address"},{"name":"spender","type":"address","internalType":"address"}],"outputs":[{"name":"","type":"uint256","internalType":"uint256"}],"stateMutability":"view"},{"type":"function","name":"approve","inputs":[{"name":"spender","type":"address","internalType":"address"},{"name":"amount","type":"uint256","internalType":"uint256"}],"outputs":[{"name":"","type":"bool","internalType":"bool"}],"stateMutability":"nonpayable"},{"type":"function","name":"balanceOf","inputs":[{"name":"account","type":"address","internalType":"address"}],"outputs":[{"name":"","type":"uint256","internalType":"uint256"}],"stateMutability":"view"},{"type":"function","name":"burn","inputs":[{"name":"amount","type":"uint256","internalType":"uint256"}],"outputs":[],"stateMutability":"nonpayable"},{"type":"function","name":"burnFrom","inputs":[{"name":"account","type":"address","internalType":"address"},{"name":"amount","type":"uint256","internalType":"uint256"}],"outputs":[],"stateMutability":"nonpayable"},{"type":"function","name":"decimals","inputs":[],"outputs":[{"name":"","type":"uint8","internalType":"uint8"}],"stateMutability":"view"},{"type":"function","name":"decreaseAllowance","inputs":[{"name":"spender","type":"address","internalType":"address"},{"name":"subtractedValue","type":"uint256","internalType":"uint256"}],"outputs":[{"name":"","type":"bool","internalType":"bool"}],"stateMutability":"nonpayable"},{"type":"function","name":"eip712Domain","inputs":[],"outputs":[{"name":"fields","type":"bytes1","internalType":"bytes1"},{"name":"name","type":"string","internalType":"string"},{"name":"version","type":"string","internalType":"string"},{"name":"chainId","type":"uint256","internalType":"uint256"},{"name":"verifyingContract","type":"address","internalType":"address"},{"name":"salt","type":"bytes32","internalType":"bytes32"},{"name":"extensions","type":"uint256[]","internalType":"uint256[]"}],"stateMutability":"view"},{"type":"function","name":"increaseAllowance","inputs":[{"name":"spender","type":"address","internalType":"address"},{"name":"addedValue","type":"uint256","internalType":"uint256"}],"outputs":[{"name":"","type":"bool","internalType":"bool"}],"stateMutability":"nonpayable"},{"type":"function","name":"lastMintTimestamp","inputs":[],"outputs":[{"name":"","type":"uint40","internalType":"uint40"}],"stateMutability":"view"},{"type":"function","name":"mint","inputs":[{"name":"to","type":"address","internalType":"address"},{"name":"amount","type":"uint256","internalType":"uint256"}],"outputs":[],"stateMutability":"nonpayable"},{"type":"function","name":"name","inputs":[],"outputs":[{"name":"","type":"string","internalType":"string"}],"stateMutability":"view"},{"type":"function","name":"nonces","inputs":[{"name":"owner","type":"address","internalType":"address"}],"outputs":[{"name":"","type":"uint256","internalType":"uint256"}],"stateMutability":"view"},{"type":"function","name":"owner","inputs":[],"outputs":[{"name":"","type":"address","internalType":"address"}],"stateMutability":"view"},{"type":"function","name":"pendingOwner","inputs":[],"outputs":[{"name":"","type":"address","internalType":"address"}],"stateMutability":"view"},{"type":"function","name":"permit","inputs":[{"name":"owner","type":"address","internalType":"address"},{"name":"spender","type":"address","internalType":"address"},{"name":"value","type":"uint256","internalType":"uint256"},{"name":"deadline","type":"uint256","internalType":"uint256"},{"name":"v","type":"uint8","internalType":"uint8"},{"name":"r","type":"bytes32","internalType":"bytes32"},{"name":"s","type":"bytes32","internalType":"bytes32"}],"outputs":[],"stateMutability":"nonpayable"},{"type":"function","name":"renounceOwnership","inputs":[],"outputs":[],"stateMutability":"view"},{"type":"function","name":"symbol","inputs":[],"outputs":[{"name":"","type":"string","internalType":"string"}],"stateMutability":"view"},{"type":"function","name":"totalSupply","inputs":[],"outputs":[{"name":"","type":"uint256","internalType":"uint256"}],"stateMutability":"view"},{"type":"function","name":"transfer","inputs":[{"name":"to","type":"address","internalType":"address"},{"name":"amount","type":"uint256","internalType":"uint256"}],"outputs":[{"name":"","type":"bool","internalType":"bool"}],"stateMutability":"nonpayable"},{"type":"function","name":"transferFrom","inputs":[{"name":"from","type":"address","internalType":"address"},{"name":"to","type":"address","internalType":"address"},{"name":"amount","type":"uint256","internalType":"uint256"}],"outputs":[{"name":"","type":"bool","internalType":"bool"}],"stateMutability":"nonpayable"},{"type":"function","name":"transferOwnership","inputs":[{"name":"newOwner","type":"address","internalType":"address"}],"outputs":[],"stateMutability":"nonpayable"},{"type":"event","name":"Approval","inputs":[{"name":"owner","type":"address","indexed":true,"internalType":"address"},{"name":"spender","type":"address","indexed":true,"internalType":"address"},{"name":"value","type":"uint256","indexed":false,"internalType":"uint256"}],"anonymous":false},{"type":"event","name":"EIP712DomainChanged","inputs":[],"anonymous":false},{"type":"event","name":"Mint","inputs":[{"name":"to","type":"address","indexed":true,"internalType":"address"},{"name":"amount","type":"uint256","indexed":false,"internalType":"uint256"}],"anonymous":false},{"type":"event","name":"OwnershipTransferStarted","inputs":[{"name":"previousOwner","type":"address","indexed":true,"internalType":"address"},{"name":"newOwner","type":"address","indexed":true,"internalType":"address"}],"anonymous":false},{"type":"event","name":"OwnershipTransferred","inputs":[{"name":"previousOwner","type":"address","indexed":true,"internalType":"address"},{"name":"newOwner","type":"address","indexed":true,"internalType":"address"}],"anonymous":false},{"type":"event","name":"Transfer","inputs":[{"name":"from","type":"address","indexed":true,"internalType":"address"},{"name":"to","type":"address","indexed":true,"internalType":"address"},{"name":"value","type":"uint256","indexed":false,"internalType":"uint256"}],"anonymous":false},{"type":"error","name":"CantRenounceOwnership","inputs":[]},{"type":"error","name":"InvalidShortString","inputs":[]},{"type":"error","name":"MaxInflationExceeded","inputs":[]},{"type":"error","name":"MintWaitPeriodInProgress","inputs":[]},{"type":"error","name":"StringTooLong","inputs":[{"name":"str","type":"string","internalType":"string"}]},{"type":"error","name":"ZeroAddressException","inputs":[]}],"bytecode":{"object":"0x61016060405234801562000011575f80fd5b5060405162003cf538038062003cf583398181016040528101906200003791906200074d565b6040518060400160405280600381526020017f454e410000000000000000000000000000000000000000000000000000000000815250806040518060400160405280600181526020017f31000000000000000000000000000000000000000000000000000000000000008152506040518060400160405280600381526020017f454e4100000000000000000000000000000000000000000000000000000000008152506040518060400160405280600381526020017f454e41000000000000000000000000000000000000000000000000000000000081525062000130620001246200035460201b60201c565b6200035b60201b60201c565b816005908162000141919062000a0a565b50806006908162000153919062000a0a565b5050506200016c6007836200039360201b90919060201c565b61012081815250506200018a6008826200039360201b90919060201c565b6101408181525050818051906020012060e08181525050808051906020012061010081815250504660a08181525050620001c9620003e860201b60201c565b608081815250503073ffffffffffffffffffffffffffffffffffffffff1660c08173ffffffffffffffffffffffffffffffffffffffff168152505050505042600b5f6101000a81548164ffffffffff021916908364ffffffffff1602179055505f73ffffffffffffffffffffffffffffffffffffffff168373ffffffffffffffffffffffffffffffffffffffff1614806200028f57505f73ffffffffffffffffffffffffffffffffffffffff168273ffffffffffffffffffffffffffffffffffffffff16145b80620002c657505f73ffffffffffffffffffffffffffffffffffffffff168173ffffffffffffffffffffffffffffffffffffffff16145b15620002fe576040517fb2335f2e00000000000000000000000000000000000000000000000000000000815260040160405180910390fd5b6200030f836200035b60201b60201c565b6200032d826b0c1ded63574de0e4660000006200044460201b60201c565b6200034b816b2459c82a05e9a2ad320000006200044460201b60201c565b50505062000dbf565b5f33905090565b60015f6101000a81549073ffffffffffffffffffffffffffffffffffffffff02191690556200039081620005aa60201b60201c565b50565b5f602083511015620003b857620003b0836200066b60201b60201c565b9050620003e2565b82620003ca83620006d560201b60201c565b5f019081620003da919062000a0a565b5060ff5f1b90505b92915050565b5f7f8b73c3c69bb8fe3d512ecc4cf759cc79239f7b179b0ffacaa9a75d522b39400f60e0516101005146306040516020016200042995949392919062000b2a565b60405160208183030381529060405280519060200120905090565b5f73ffffffffffffffffffffffffffffffffffffffff168273ffffffffffffffffffffffffffffffffffffffff1603620004b5576040517f08c379a0000000000000000000000000000000000000000000000000000000008152600401620004ac9062000be3565b60405180910390fd5b620004c85f8383620006de60201b60201c565b8060045f828254620004db919062000c30565b925050819055508060025f8473ffffffffffffffffffffffffffffffffffffffff1673ffffffffffffffffffffffffffffffffffffffff1681526020019081526020015f205f82825401925050819055508173ffffffffffffffffffffffffffffffffffffffff165f73ffffffffffffffffffffffffffffffffffffffff167fddf252ad1be2c89b69c2b068fc378daa952ba7f163c4a11628f55a4df523b3ef836040516200058b919062000c6a565b60405180910390a3620005a65f8383620006e360201b60201c565b5050565b5f805f9054906101000a900473ffffffffffffffffffffffffffffffffffffffff169050815f806101000a81548173ffffffffffffffffffffffffffffffffffffffff021916908373ffffffffffffffffffffffffffffffffffffffff1602179055508173ffffffffffffffffffffffffffffffffffffffff168173ffffffffffffffffffffffffffffffffffffffff167f8be0079c531659141344cd1fd0a4f28419497f9722a3daafe3b4186f6b6457e060405160405180910390a35050565b5f80829050601f81511115620006ba57826040517f305a27a9000000000000000000000000000000000000000000000000000000008152600401620006b1919062000cff565b60405180910390fd5b805181620006c89062000d50565b5f1c175f1b915050919050565b5f819050919050565b505050565b505050565b5f80fd5b5f73ffffffffffffffffffffffffffffffffffffffff82169050919050565b5f6200071782620006ec565b9050919050565b62000729816200070b565b811462000734575f80fd5b50565b5f8151905062000747816200071e565b92915050565b5f805f60608486031215620007675762000766620006e8565b5b5f620007768682870162000737565b9350506020620007898682870162000737565b92505060406200079c8682870162000737565b9150509250925092565b5f81519050919050565b7f4e487b71000000000000000000000000000000000000000000000000000000005f52604160045260245ffd5b7f4e487b71000000000000000000000000000000000000000000000000000000005f52602260045260245ffd5b5f60028204905060018216806200082257607f821691505b602082108103620008385762000837620007dd565b5b50919050565b5f819050815f5260205f209050919050565b5f6020601f8301049050919050565b5f82821b905092915050565b5f600883026200089c7fffffffffffffffffffffffffffffffffffffffffffffffffffffffffffffffff826200085f565b620008a886836200085f565b95508019841693508086168417925050509392505050565b5f819050919050565b5f819050919050565b5f620008f2620008ec620008e684620008c0565b620008c9565b620008c0565b9050919050565b5f819050919050565b6200090d83620008d2565b620009256200091c82620008f9565b8484546200086b565b825550505050565b5f90565b6200093b6200092d565b6200094881848462000902565b505050565b5b818110156200096f57620009635f8262000931565b6001810190506200094e565b5050565b601f821115620009be5762000988816200083e565b620009938462000850565b81016020851015620009a3578190505b620009bb620009b28562000850565b8301826200094d565b50505b505050565b5f82821c905092915050565b5f620009e05f1984600802620009c3565b1980831691505092915050565b5f620009fa8383620009cf565b9150826002028217905092915050565b62000a1582620007a6565b67ffffffffffffffff81111562000a315762000a30620007b0565b5b62000a3d82546200080a565b62000a4a82828562000973565b5f60209050601f83116001811462000a80575f841562000a6b578287015190505b62000a778582620009ed565b86555062000ae6565b601f19841662000a90866200083e565b5f5b8281101562000ab95784890151825560018201915060208501945060208101905062000a92565b8683101562000ad9578489015162000ad5601f891682620009cf565b8355505b6001600288020188555050505b505050505050565b5f819050919050565b62000b028162000aee565b82525050565b62000b1381620008c0565b82525050565b62000b24816200070b565b82525050565b5f60a08201905062000b3f5f83018862000af7565b62000b4e602083018762000af7565b62000b5d604083018662000af7565b62000b6c606083018562000b08565b62000b7b608083018462000b19565b9695505050505050565b5f82825260208201905092915050565b7f45524332303a206d696e7420746f20746865207a65726f2061646472657373005f82015250565b5f62000bcb601f8362000b85565b915062000bd88262000b95565b602082019050919050565b5f6020820190508181035f83015262000bfc8162000bbd565b9050919050565b7f4e487b71000000000000000000000000000000000000000000000000000000005f52601160045260245ffd5b5f62000c3c82620008c0565b915062000c4983620008c0565b925082820190508082111562000c645762000c6362000c03565b5b92915050565b5f60208201905062000c7f5f83018462000b08565b92915050565b5f5b8381101562000ca457808201518184015260208101905062000c87565b5f8484015250505050565b5f601f19601f8301169050919050565b5f62000ccb82620007a6565b62000cd7818562000b85565b935062000ce981856020860162000c85565b62000cf48162000caf565b840191505092915050565b5f6020820190508181035f83015262000d19818462000cbf565b905092915050565b5f81519050919050565b5f819050602082019050919050565b5f62000d47825162000aee565b80915050919050565b5f62000d5c8262000d21565b8262000d688462000d2b565b905062000d758162000d3a565b9250602082101562000db85762000db37fffffffffffffffffffffffffffffffffffffffffffffffffffffffffffffffff836020036008026200085f565b831692505b5050919050565b60805160a05160c05160e051610100516101205161014051612ee462000e115f395f61095d01525f61092901525f6118f501525f6118d401525f6112db01525f61133101525f61135a0152612ee45ff3fe608060405234801561000f575f80fd5b506004361061018c575f3560e01c806379cc6790116100dc578063a457c2d711610095578063dd62ed3e1161006f578063dd62ed3e14610478578063e30c3978146104a8578063f2fde38b146104c6578063fdb04bbf146104e25761018c565b8063a457c2d7146103fc578063a9059cbb1461042c578063d505accf1461045c5761018c565b806379cc6790146103325780637ecebe001461034e57806384b0196e1461037e5780638da5cb5b146103a25780638e80ff5d146103c057806395d89b41146103de5761018c565b80633644e5151161014957806342966c681161012357806342966c68146102d257806370a08231146102ee578063715018a61461031e57806379ba5097146103285761018c565b80633644e51514610268578063395093511461028657806340c10f19146102b65761018c565b806306fdde0314610190578063095ea7b3146101ae57806318160ddd146101de57806323b872dd146101fc578063313ce5671461022c5780633544fd2b1461024a575b5f80fd5b610198610500565b6040516101a59190611de1565b60405180910390f35b6101c860048036038101906101c39190611e92565b610590565b6040516101d59190611eea565b60405180910390f35b6101e66105b2565b6040516101f39190611f12565b60405180910390f35b61021660048036038101906102119190611f2b565b6105bb565b6040516102239190611eea565b60405180910390f35b6102346105e9565b6040516102419190611f96565b60405180910390f35b6102526105f1565b60405161025f9190611fcd565b60405180910390f35b6102706105f9565b60405161027d9190611ffe565b60405180910390f35b6102a0600480360381019061029b9190611e92565b610607565b6040516102ad9190611eea565b60405180910390f35b6102d060048036038101906102cb9190611e92565b61063d565b005b6102ec60048036038101906102e79190612017565b61078c565b005b61030860048036038101906103039190612042565b6107a0565b6040516103159190611f12565b60405180910390f35b6103266107e6565b005b610330610820565b005b61034c60048036038101906103479190611e92565b6108ac565b005b61036860048036038101906103639190612042565b6108cc565b6040516103759190611f12565b60405180910390f35b610386610919565b604051610399979695949392919061216d565b60405180910390f35b6103aa610a16565b6040516103b791906121ef565b60405180910390f35b6103c8610a3d565b6040516103d59190612227565b60405180910390f35b6103e6610a53565b6040516103f39190611de1565b60405180910390f35b61041660048036038101906104119190611e92565b610ae3565b6040516104239190611eea565b60405180910390f35b61044660048036038101906104419190611e92565b610b58565b6040516104539190611eea565b60405180910390f35b61047660048036038101906104719190612294565b610b7a565b005b610492600480360381019061048d9190612331565b610cb9565b60405161049f9190611f12565b60405180910390f35b6104b0610d3b565b6040516104bd91906121ef565b60405180910390f35b6104e060048036038101906104db9190612042565b610d63565b005b6104ea610e0f565b6040516104f79190611f96565b60405180910390f35b60606005805461050f9061239c565b80601f016020809104026020016040519081016040528092919081815260200182805461053b9061239c565b80156105865780601f1061055d57610100808354040283529160200191610586565b820191905f5260205f20905b81548152906001019060200180831161056957829003601f168201915b5050505050905090565b5f8061059a610e14565b90506105a7818585610e1b565b600191505092915050565b5f600454905090565b5f806105c5610e14565b90506105d2858285610fde565b6105dd858585611069565b60019150509392505050565b5f6012905090565b6301e1338081565b5f6106026112d8565b905090565b5f80610611610e14565b90506106328185856106238589610cb9565b61062d91906123f9565b610e1b565b600191505092915050565b61064561138e565b6301e1338063ffffffff16600b5f9054906101000a900464ffffffffff1664ffffffffff1642610675919061242c565b10156106ad576040517fea0c9af500000000000000000000000000000000000000000000000000000000815260040160405180910390fd5b5f6064600a60ff166106bd6105b2565b6106c7919061245f565b6106d191906124cd565b90508082111561070d576040517fc507dd3b00000000000000000000000000000000000000000000000000000000815260040160405180910390fd5b42600b5f6101000a81548164ffffffffff021916908364ffffffffff160217905550610739838361140c565b8273ffffffffffffffffffffffffffffffffffffffff167f0f6798a560793a54c3bcfe86a93cde1e73087d944c0ea20544137d41213968858360405161077f9190611f12565b60405180910390a2505050565b61079d610797610e14565b8261155b565b50565b5f60025f8373ffffffffffffffffffffffffffffffffffffffff1673ffffffffffffffffffffffffffffffffffffffff1681526020019081526020015f20549050919050565b6107ee61138e565b6040517f185b73b100000000000000000000000000000000000000000000000000000000815260040160405180910390fd5b5f610829610e14565b90508073ffffffffffffffffffffffffffffffffffffffff1661084a610d3b565b73ffffffffffffffffffffffffffffffffffffffff16146108a0576040517f08c379a00000000000000000000000000000000000000000000000000000000081526004016108979061256d565b60405180910390fd5b6108a981611720565b50565b6108be826108b8610e14565b83610fde565b6108c8828261155b565b5050565b5f61091260095f8473ffffffffffffffffffffffffffffffffffffffff1673ffffffffffffffffffffffffffffffffffffffff1681526020019081526020015f20611750565b9050919050565b5f6060805f805f606061095660077f000000000000000000000000000000000000000000000000000000000000000061175c90919063ffffffff16565b61098a60087f000000000000000000000000000000000000000000000000000000000000000061175c90919063ffffffff16565b46305f801b5f67ffffffffffffffff8111156109a9576109a861258b565b5b6040519080825280602002602001820160405280156109d75781602001602082028036833780820191505090505b507f0f00000000000000000000000000000000000000000000000000000000000000959493929190965096509650965096509650965090919293949596565b5f805f9054906101000a900473ffffffffffffffffffffffffffffffffffffffff16905090565b600b5f9054906101000a900464ffffffffff1681565b606060068054610a629061239c565b80601f0160208091040260200160405190810160405280929190818152602001828054610a8e9061239c565b8015610ad95780601f10610ab057610100808354040283529160200191610ad9565b820191905f5260205f20905b815481529060010190602001808311610abc57829003601f168201915b5050505050905090565b5f80610aed610e14565b90505f610afa8286610cb9565b905083811015610b3f576040517f08c379a0000000000000000000000000000000000000000000000000000000008152600401610b3690612628565b60405180910390fd5b610b4c8286868403610e1b565b60019250505092915050565b5f80610b62610e14565b9050610b6f818585611069565b600191505092915050565b83421115610bbd576040517f08c379a0000000000000000000000000000000000000000000000000000000008152600401610bb490612690565b60405180910390fd5b5f7f6e71edae12b1b97f4d1f60370fef10105fa2faae0126114a169c64845d6126c9888888610beb8c611809565b89604051602001610c01969594939291906126ae565b6040516020818303038152906040528051906020012090505f610c2382611864565b90505f610c328287878761187d565b90508973ffffffffffffffffffffffffffffffffffffffff168173ffffffffffffffffffffffffffffffffffffffff1614610ca2576040517f08c379a0000000000000000000000000000000000000000000000000000000008152600401610c9990612757565b60405180910390fd5b610cad8a8a8a610e1b565b50505050505050505050565b5f60035f8473ffffffffffffffffffffffffffffffffffffffff1673ffffffffffffffffffffffffffffffffffffffff1681526020019081526020015f205f8373ffffffffffffffffffffffffffffffffffffffff1673ffffffffffffffffffffffffffffffffffffffff1681526020019081526020015f2054905092915050565b5f60015f9054906101000a900473ffffffffffffffffffffffffffffffffffffffff16905090565b610d6b61138e565b8060015f6101000a81548173ffffffffffffffffffffffffffffffffffffffff021916908373ffffffffffffffffffffffffffffffffffffffff1602179055508073ffffffffffffffffffffffffffffffffffffffff16610dca610a16565b73ffffffffffffffffffffffffffffffffffffffff167f38d16b8cac22d99fc7c124b9cd0de2d3fa1faef420bfe791d8c362d765e2270060405160405180910390a350565b600a81565b5f33905090565b5f73ffffffffffffffffffffffffffffffffffffffff168373ffffffffffffffffffffffffffffffffffffffff1603610e89576040517f08c379a0000000000000000000000000000000000000000000000000000000008152600401610e80906127e5565b60405180910390fd5b5f73ffffffffffffffffffffffffffffffffffffffff168273ffffffffffffffffffffffffffffffffffffffff1603610ef7576040517f08c379a0000000000000000000000000000000000000000000000000000000008152600401610eee90612873565b60405180910390fd5b8060035f8573ffffffffffffffffffffffffffffffffffffffff1673ffffffffffffffffffffffffffffffffffffffff1681526020019081526020015f205f8473ffffffffffffffffffffffffffffffffffffffff1673ffffffffffffffffffffffffffffffffffffffff1681526020019081526020015f20819055508173ffffffffffffffffffffffffffffffffffffffff168373ffffffffffffffffffffffffffffffffffffffff167f8c5be1e5ebec7d5bd14f71427d1e84f3dd0314c0f7b2291e5b200ac8c7c3b92583604051610fd19190611f12565b60405180910390a3505050565b5f610fe98484610cb9565b90507fffffffffffffffffffffffffffffffffffffffffffffffffffffffffffffffff81146110635781811015611055576040517f08c379a000000000000000000000000000000000000000000000000000000000815260040161104c906128db565b60405180910390fd5b6110628484848403610e1b565b5b50505050565b5f73ffffffffffffffffffffffffffffffffffffffff168373ffffffffffffffffffffffffffffffffffffffff16036110d7576040517f08c379a00000000000000000000000000000000000000000000000000000000081526004016110ce90612969565b60405180910390fd5b5f73ffffffffffffffffffffffffffffffffffffffff168273ffffffffffffffffffffffffffffffffffffffff1603611145576040517f08c379a000000000000000000000000000000000000000000000000000000000815260040161113c906129f7565b60405180910390fd5b6111508383836118a6565b5f60025f8573ffffffffffffffffffffffffffffffffffffffff1673ffffffffffffffffffffffffffffffffffffffff1681526020019081526020015f20549050818110156111d4576040517f08c379a00000000000000000000000000000000000000000000000000000000081526004016111cb90612a85565b60405180910390fd5b81810360025f8673ffffffffffffffffffffffffffffffffffffffff1673ffffffffffffffffffffffffffffffffffffffff1681526020019081526020015f20819055508160025f8573ffffffffffffffffffffffffffffffffffffffff1673ffffffffffffffffffffffffffffffffffffffff1681526020019081526020015f205f82825401925050819055508273ffffffffffffffffffffffffffffffffffffffff168473ffffffffffffffffffffffffffffffffffffffff167fddf252ad1be2c89b69c2b068fc378daa952ba7f163c4a11628f55a4df523b3ef846040516112bf9190611f12565b60405180910390a36112d28484846118ab565b50505050565b5f7f000000000000000000000000000000000000000000000000000000000000000073ffffffffffffffffffffffffffffffffffffffff163073ffffffffffffffffffffffffffffffffffffffff1614801561135357507f000000000000000000000000000000000000000000000000000000000000000046145b15611380577f0000000000000000000000000000000000000000000000000000000000000000905061138b565b6113886118b0565b90505b90565b611396610e14565b73ffffffffffffffffffffffffffffffffffffffff166113b4610a16565b73ffffffffffffffffffffffffffffffffffffffff161461140a576040517f08c379a000000000000000000000000000000000000000000000000000000000815260040161140190612aed565b60405180910390fd5b565b5f73ffffffffffffffffffffffffffffffffffffffff168273ffffffffffffffffffffffffffffffffffffffff160361147a576040517f08c379a000000000000000000000000000000000000000000000000000000000815260040161147190612b55565b60405180910390fd5b6114855f83836118a6565b8060045f82825461149691906123f9565b925050819055508060025f8473ffffffffffffffffffffffffffffffffffffffff1673ffffffffffffffffffffffffffffffffffffffff1681526020019081526020015f205f82825401925050819055508173ffffffffffffffffffffffffffffffffffffffff165f73ffffffffffffffffffffffffffffffffffffffff167fddf252ad1be2c89b69c2b068fc378daa952ba7f163c4a11628f55a4df523b3ef836040516115449190611f12565b60405180910390a36115575f83836118ab565b5050565b5f73ffffffffffffffffffffffffffffffffffffffff168273ffffffffffffffffffffffffffffffffffffffff16036115c9576040517f08c379a00000000000000000000000000000000000000000000000000000000081526004016115c090612be3565b60405180910390fd5b6115d4825f836118a6565b5f60025f8473ffffffffffffffffffffffffffffffffffffffff1673ffffffffffffffffffffffffffffffffffffffff1681526020019081526020015f2054905081811015611658576040517f08c379a000000000000000000000000000000000000000000000000000000000815260040161164f90612c71565b60405180910390fd5b81810360025f8573ffffffffffffffffffffffffffffffffffffffff1673ffffffffffffffffffffffffffffffffffffffff1681526020019081526020015f20819055508160045f82825403925050819055505f73ffffffffffffffffffffffffffffffffffffffff168373ffffffffffffffffffffffffffffffffffffffff167fddf252ad1be2c89b69c2b068fc378daa952ba7f163c4a11628f55a4df523b3ef846040516117089190611f12565b60405180910390a361171b835f846118ab565b505050565b60015f6101000a81549073ffffffffffffffffffffffffffffffffffffffff021916905561174d81611945565b50565b5f815f01549050919050565b606060ff5f1b83146117785761177183611a06565b9050611803565b8180546117849061239c565b80601f01602080910402602001604051908101604052809291908181526020018280546117b09061239c565b80156117fb5780601f106117d2576101008083540402835291602001916117fb565b820191905f5260205f20905b8154815290600101906020018083116117de57829003601f168201915b505050505090505b92915050565b5f8060095f8473ffffffffffffffffffffffffffffffffffffffff1673ffffffffffffffffffffffffffffffffffffffff1681526020019081526020015f20905061185381611750565b915061185e81611a78565b50919050565b5f6118766118706112d8565b83611a8c565b9050919050565b5f805f61188c87878787611acc565b9150915061189981611ba4565b8192505050949350505050565b505050565b505050565b5f7f8b73c3c69bb8fe3d512ecc4cf759cc79239f7b179b0ffacaa9a75d522b39400f7f00000000000000000000000000000000000000000000000000000000000000007f0000000000000000000000000000000000000000000000000000000000000000463060405160200161192a959493929190612c8f565b60405160208183030381529060405280519060200120905090565b5f805f9054906101000a900473ffffffffffffffffffffffffffffffffffffffff169050815f806101000a81548173ffffffffffffffffffffffffffffffffffffffff021916908373ffffffffffffffffffffffffffffffffffffffff1602179055508173ffffffffffffffffffffffffffffffffffffffff168173ffffffffffffffffffffffffffffffffffffffff167f8be0079c531659141344cd1fd0a4f28419497f9722a3daafe3b4186f6b6457e060405160405180910390a35050565b60605f611a1283611d09565b90505f602067ffffffffffffffff811115611a3057611a2f61258b565b5b6040519080825280601f01601f191660200182016040528015611a625781602001600182028036833780820191505090505b5090508181528360208201528092505050919050565b6001815f015f828254019250508190555050565b5f6040517f190100000000000000000000000000000000000000000000000000000000000081528360028201528260228201526042812091505092915050565b5f807f7fffffffffffffffffffffffffffffff5d576e7357a4501ddfe92f46681b20a0835f1c1115611b04575f600391509150611b9b565b5f6001878787876040515f8152602001604052604051611b279493929190612ce0565b6020604051602081039080840390855afa158015611b47573d5f803e3d5ffd5b5050506020604051035190505f73ffffffffffffffffffffffffffffffffffffffff168173ffffffffffffffffffffffffffffffffffffffff1603611b93575f60019250925050611b9b565b805f92509250505b94509492505050565b5f6004811115611bb757611bb6612d23565b5b816004811115611bca57611bc9612d23565b5b0315611d065760016004811115611be457611be3612d23565b5b816004811115611bf757611bf6612d23565b5b03611c37576040517f08c379a0000000000000000000000000000000000000000000000000000000008152600401611c2e90612d9a565b60405180910390fd5b60026004811115611c4b57611c4a612d23565b5b816004811115611c5e57611c5d612d23565b5b03611c9e576040517f08c379a0000000000000000000000000000000000000000000000000000000008152600401611c9590612e02565b60405180910390fd5b60036004811115611cb257611cb1612d23565b5b816004811115611cc557611cc4612d23565b5b03611d05576040517f08c379a0000000000000000000000000000000000000000000000000000000008152600401611cfc90612e90565b60405180910390fd5b5b50565b5f8060ff835f1c169050601f811115611d4e576040517fb3512b0c00000000000000000000000000000000000000000000000000000000815260040160405180910390fd5b80915050919050565b5f81519050919050565b5f82825260208201905092915050565b5f5b83811015611d8e578082015181840152602081019050611d73565b5f8484015250505050565b5f601f19601f8301169050919050565b5f611db382611d57565b611dbd8185611d61565b9350611dcd818560208601611d71565b611dd681611d99565b840191505092915050565b5f6020820190508181035f830152611df98184611da9565b905092915050565b5f80fd5b5f73ffffffffffffffffffffffffffffffffffffffff82169050919050565b5f611e2e82611e05565b9050919050565b611e3e81611e24565b8114611e48575f80fd5b50565b5f81359050611e5981611e35565b92915050565b5f819050919050565b611e7181611e5f565b8114611e7b575f80fd5b50565b5f81359050611e8c81611e68565b92915050565b5f8060408385031215611ea857611ea7611e01565b5b5f611eb585828601611e4b565b9250506020611ec685828601611e7e565b9150509250929050565b5f8115159050919050565b611ee481611ed0565b82525050565b5f602082019050611efd5f830184611edb565b92915050565b611f0c81611e5f565b82525050565b5f602082019050611f255f830184611f03565b92915050565b5f805f60608486031215611f4257611f41611e01565b5b5f611f4f86828701611e4b565b9350506020611f6086828701611e4b565b9250506040611f7186828701611e7e565b9150509250925092565b5f60ff82169050919050565b611f9081611f7b565b82525050565b5f602082019050611fa95f830184611f87565b92915050565b5f63ffffffff82169050919050565b611fc781611faf565b82525050565b5f602082019050611fe05f830184611fbe565b92915050565b5f819050919050565b611ff881611fe6565b82525050565b5f6020820190506120115f830184611fef565b92915050565b5f6020828403121561202c5761202b611e01565b5b5f61203984828501611e7e565b91505092915050565b5f6020828403121561205757612056611e01565b5b5f61206484828501611e4b565b91505092915050565b5f7fff0000000000000000000000000000000000000000000000000000000000000082169050919050565b6120a18161206d565b82525050565b6120b081611e24565b82525050565b5f81519050919050565b5f82825260208201905092915050565b5f819050602082019050919050565b6120e881611e5f565b82525050565b5f6120f983836120df565b60208301905092915050565b5f602082019050919050565b5f61211b826120b6565b61212581856120c0565b9350612130836120d0565b805f5b8381101561216057815161214788826120ee565b975061215283612105565b925050600181019050612133565b5085935050505092915050565b5f60e0820190506121805f83018a612098565b81810360208301526121928189611da9565b905081810360408301526121a68188611da9565b90506121b56060830187611f03565b6121c260808301866120a7565b6121cf60a0830185611fef565b81810360c08301526121e18184612111565b905098975050505050505050565b5f6020820190506122025f8301846120a7565b92915050565b5f64ffffffffff82169050919050565b61222181612208565b82525050565b5f60208201905061223a5f830184612218565b92915050565b61224981611f7b565b8114612253575f80fd5b50565b5f8135905061226481612240565b92915050565b61227381611fe6565b811461227d575f80fd5b50565b5f8135905061228e8161226a565b92915050565b5f805f805f805f60e0888a0312156122af576122ae611e01565b5b5f6122bc8a828b01611e4b565b97505060206122cd8a828b01611e4b565b96505060406122de8a828b01611e7e565b95505060606122ef8a828b01611e7e565b94505060806123008a828b01612256565b93505060a06123118a828b01612280565b92505060c06123228a828b01612280565b91505092959891949750929550565b5f806040838503121561234757612346611e01565b5b5f61235485828601611e4b565b925050602061236585828601611e4b565b9150509250929050565b7f4e487b71000000000000000000000000000000000000000000000000000000005f52602260045260245ffd5b5f60028204905060018216806123b357607f821691505b6020821081036123c6576123c561236f565b5b50919050565b7f4e487b71000000000000000000000000000000000000000000000000000000005f52601160045260245ffd5b5f61240382611e5f565b915061240e83611e5f565b9250828201905080821115612426576124256123cc565b5b92915050565b5f61243682611e5f565b915061244183611e5f565b9250828203905081811115612459576124586123cc565b5b92915050565b5f61246982611e5f565b915061247483611e5f565b925082820261248281611e5f565b91508282048414831517612499576124986123cc565b5b5092915050565b7f4e487b71000000000000000000000000000000000000000000000000000000005f52601260045260245ffd5b5f6124d782611e5f565b91506124e283611e5f565b9250826124f2576124f16124a0565b5b828204905092915050565b7f4f776e61626c6532537465703a2063616c6c6572206973206e6f7420746865205f8201527f6e6577206f776e65720000000000000000000000000000000000000000000000602082015250565b5f612557602983611d61565b9150612562826124fd565b604082019050919050565b5f6020820190508181035f8301526125848161254b565b9050919050565b7f4e487b71000000000000000000000000000000000000000000000000000000005f52604160045260245ffd5b7f45524332303a2064656372656173656420616c6c6f77616e63652062656c6f775f8201527f207a65726f000000000000000000000000000000000000000000000000000000602082015250565b5f612612602583611d61565b915061261d826125b8565b604082019050919050565b5f6020820190508181035f83015261263f81612606565b9050919050565b7f45524332305065726d69743a206578706972656420646561646c696e650000005f82015250565b5f61267a601d83611d61565b915061268582612646565b602082019050919050565b5f6020820190508181035f8301526126a78161266e565b9050919050565b5f60c0820190506126c15f830189611fef565b6126ce60208301886120a7565b6126db60408301876120a7565b6126e86060830186611f03565b6126f56080830185611f03565b61270260a0830184611f03565b979650505050505050565b7f45524332305065726d69743a20696e76616c6964207369676e617475726500005f82015250565b5f612741601e83611d61565b915061274c8261270d565b602082019050919050565b5f6020820190508181035f83015261276e81612735565b9050919050565b7f45524332303a20617070726f76652066726f6d20746865207a65726f206164645f8201527f7265737300000000000000000000000000000000000000000000000000000000602082015250565b5f6127cf602483611d61565b91506127da82612775565b604082019050919050565b5f6020820190508181035f8301526127fc816127c3565b9050919050565b7f45524332303a20617070726f766520746f20746865207a65726f2061646472655f8201527f7373000000000000000000000000000000000000000000000000000000000000602082015250565b5f61285d602283611d61565b915061286882612803565b604082019050919050565b5f6020820190508181035f83015261288a81612851565b9050919050565b7f45524332303a20696e73756666696369656e7420616c6c6f77616e63650000005f82015250565b5f6128c5601d83611d61565b91506128d082612891565b602082019050919050565b5f6020820190508181035f8301526128f2816128b9565b9050919050565b7f45524332303a207472616e736665722066726f6d20746865207a65726f2061645f8201527f6472657373000000000000000000000000000000000000000000000000000000602082015250565b5f612953602583611d61565b915061295e826128f9565b604082019050919050565b5f6020820190508181035f83015261298081612947565b9050919050565b7f45524332303a207472616e7366657220746f20746865207a65726f20616464725f8201527f6573730000000000000000000000000000000000000000000000000000000000602082015250565b5f6129e1602383611d61565b91506129ec82612987565b604082019050919050565b5f6020820190508181035f830152612a0e816129d5565b9050919050565b7f45524332303a207472616e7366657220616d6f756e74206578636565647320625f8201527f616c616e63650000000000000000000000000000000000000000000000000000602082015250565b5f612a6f602683611d61565b9150612a7a82612a15565b604082019050919050565b5f6020820190508181035f830152612a9c81612a63565b9050919050565b7f4f776e61626c653a2063616c6c6572206973206e6f7420746865206f776e65725f82015250565b5f612ad7602083611d61565b9150612ae282612aa3565b602082019050919050565b5f6020820190508181035f830152612b0481612acb565b9050919050565b7f45524332303a206d696e7420746f20746865207a65726f2061646472657373005f82015250565b5f612b3f601f83611d61565b9150612b4a82612b0b565b602082019050919050565b5f6020820190508181035f830152612b6c81612b33565b9050919050565b7f45524332303a206275726e2066726f6d20746865207a65726f206164647265735f8201527f7300000000000000000000000000000000000000000000000000000000000000602082015250565b5f612bcd602183611d61565b9150612bd882612b73565b604082019050919050565b5f6020820190508181035f830152612bfa81612bc1565b9050919050565b7f45524332303a206275726e20616d6f756e7420657863656564732062616c616e5f8201527f6365000000000000000000000000000000000000000000000000000000000000602082015250565b5f612c5b602283611d61565b9150612c6682612c01565b604082019050919050565b5f6020820190508181035f830152612c8881612c4f565b9050919050565b5f60a082019050612ca25f830188611fef565b612caf6020830187611fef565b612cbc6040830186611fef565b612cc96060830185611f03565b612cd660808301846120a7565b9695505050505050565b5f608082019050612cf35f830187611fef565b612d006020830186611f87565b612d0d6040830185611fef565b612d1a6060830184611fef565b95945050505050565b7f4e487b71000000000000000000000000000000000000000000000000000000005f52602160045260245ffd5b7f45434453413a20696e76616c6964207369676e617475726500000000000000005f82015250565b5f612d84601883611d61565b9150612d8f82612d50565b602082019050919050565b5f6020820190508181035f830152612db181612d78565b9050919050565b7f45434453413a20696e76616c6964207369676e6174757265206c656e677468005f82015250565b5f612dec601f83611d61565b9150612df782612db8565b602082019050919050565b5f6020820190508181035f830152612e1981612de0565b9050919050565b7f45434453413a20696e76616c6964207369676e6174757265202773272076616c5f8201527f7565000000000000000000000000000000000000000000000000000000000000602082015250565b5f612e7a602283611d61565b9150612e8582612e20565b604082019050919050565b5f6020820190508181035f830152612ea781612e6e565b905091905056fea264697066735822122008e996f36bc9cdf77278725c9944c24df7bf4fb39741e211c5aa454c12c8170664736f6c63430008140033","linkReferences":{}},"methodIdentifiers":{"DOMAIN_SEPARATOR()":"3644e515","MAX_INFLATION()":"fdb04bbf","MINT_WAIT_PERIOD()":"3544fd2b","acceptOwnership()":"79ba5097","allowance(address,address)":"dd62ed3e","approve(address,uint256)":"095ea7b3","balanceOf(address)":"70a08231","burn(uint256)":"42966c68","burnFrom(address,uint256)":"79cc6790","decimals()":"313ce567","decreaseAllowance(address,uint256)":"a457c2d7","eip712Domain()":"84b0196e","increaseAllowance(address,uint256)":"39509351","lastMintTimestamp()":"8e80ff5d","mint(address,uint256)":"40c10f19","name()":"06fdde03","nonces(address)":"7ecebe00","owner()":"8da5cb5b","pendingOwner()":"e30c3978","permit(address,address,uint256,uint256,uint8,bytes32,bytes32)":"d505accf","renounceOwnership()":"715018a6","symbol()":"95d89b41","totalSupply()":"18160ddd","transfer(address,uint256)":"a9059cbb","transferFrom(address,address,uint256)":"23b872dd","transferOwnership(address)":"f2fde38b"},"id":0}