{"abi":[{"type":"constructor","inputs":[{"name":"_asset","type":"address","internalType":"contract IERC20"},{"name":"initialRewarder","type":"address","internalType":"address"},{"name":"_owner","type":"address","internalType":"address"}],"stateMutability":"nonpayable"},{"type":"function","name":"DEFAULT_ADMIN_ROLE","inputs":[],"outputs":[{"name":"","type":"bytes32","internalType":"bytes32"}],"stateMutability":"view"},{"type":"function","name":"DOMAIN_SEPARATOR","inputs":[],"outputs":[{"name":"","type":"bytes32","internalType":"bytes32"}],"stateMutability":"view"},{"type":"function","name":"MAX_COOLDOWN_DURATION","inputs":[],"outputs":[{"name":"","type":"uint24","internalType":"uint24"}],"stateMutability":"view"},{"type":"function","name":"acceptAdmin","inputs":[],"outputs":[],"stateMutability":"nonpayable"},{"type":"function","name":"addToBlacklist","inputs":[{"name":"target","type":"address","internalType":"address"},{"name":"isFullBlacklisting","type":"bool","internalType":"bool"}],"outputs":[],"stateMutability":"nonpayable"},{"type":"function","name":"allowance","inputs":[{"name":"owner","type":"address","internalType":"address"},{"name":"spender","type":"address","internalType":"address"}],"outputs":[{"name":"","type":"uint256","internalType":"uint256"}],"stateMutability":"view"},{"type":"function","name":"approve","inputs":[{"name":"spender","type":"address","internalType":"address"},{"name":"amount","type":"uint256","internalType":"uint256"}],"outputs":[{"name":"","type":"bool","internalType":"bool"}],"stateMutability":"nonpayable"},{"type":"function","name":"asset","inputs":[],"outputs":[{"name":"","type":"address","internalType":"address"}],"stateMutability":"view"},{"type":"function","name":"balanceOf","inputs":[{"name":"account","type":"address","internalType":"address"}],"outputs":[{"name":"","type":"uint256","internalType":"uint256"}],"stateMutability":"view"},{"type":"function","name":"convertToAssets","inputs":[{"name":"shares","type":"uint256","internalType":"uint256"}],"outputs":[{"name":"","type":"uint256","internalType":"uint256"}],"stateMutability":"view"},{"type":"function","name":"convertToShares","inputs":[{"name":"assets","type":"uint256","internalType":"uint256"}],"outputs":[{"name":"","type":"uint256","internalType":"uint256"}],"stateMutability":"view"},{"type":"function","name":"cooldownAssets","inputs":[{"name":"assets","type":"uint256","internalType":"uint256"}],"outputs":[{"name":"shares","type":"uint256","internalType":"uint256"}],"stateMutability":"nonpayable"},{"type":"function","name":"cooldownDuration","inputs":[],"outputs":[{"name":"","type":"uint24","internalType":"uint24"}],"stateMutability":"view"},{"type":"function","name":"cooldownShares","inputs":[{"name":"shares","type":"uint256","internalType":"uint256"}],"outputs":[{"name":"assets","type":"uint256","internalType":"uint256"}],"stateMutability":"nonpayable"},{"type":"function","name":"cooldowns","inputs":[{"name":"","type":"address","internalType":"address"}],"outputs":[{"name":"cooldownEnd","type":"uint104","internalType":"uint104"},{"name":"underlyingAmount","type":"uint152","internalType":"uint152"}],"stateMutability":"view"},{"type":"function","name":"decimals","inputs":[],"outputs":[{"name":"","type":"uint8","internalType":"uint8"}],"stateMutability":"pure"},{"type":"function","name":"decreaseAllowance","inputs":[{"name":"spender","type":"address","internalType":"address"},{"name":"subtractedValue","type":"uint256","internalType":"uint256"}],"outputs":[{"name":"","type":"bool","internalType":"bool"}],"stateMutability":"nonpayable"},{"type":"function","name":"deposit","inputs":[{"name":"assets","type":"uint256","internalType":"uint256"},{"name":"receiver","type":"address","internalType":"address"}],"outputs":[{"name":"","type":"uint256","internalType":"uint256"}],"stateMutability":"nonpayable"},{"type":"function","name":"eip712Domain","inputs":[],"outputs":[{"name":"fields","type":"bytes1","internalType":"bytes1"},{"name":"name","type":"string","internalType":"string"},{"name":"version","type":"string","internalType":"string"},{"name":"chainId","type":"uint256","internalType":"uint256"},{"name":"verifyingContract","type":"address","internalType":"address"},{"name":"salt","type":"bytes32","internalType":"bytes32"},{"name":"extensions","type":"uint256[]","internalType":"uint256[]"}],"stateMutability":"view"},{"type":"function","name":"getRoleAdmin","inputs":[{"name":"role","type":"bytes32","internalType":"bytes32"}],"outputs":[{"name":"","type":"bytes32","internalType":"bytes32"}],"stateMutability":"view"},{"type":"function","name":"getUnvestedAmount","inputs":[],"outputs":[{"name":"","type":"uint256","internalType":"uint256"}],"stateMutability":"view"},{"type":"function","name":"grantRole","inputs":[{"name":"role","type":"bytes32","internalType":"bytes32"},{"name":"account","type":"address","internalType":"address"}],"outputs":[],"stateMutability":"nonpayable"},{"type":"function","name":"hasRole","inputs":[{"name":"role","type":"bytes32","internalType":"bytes32"},{"name":"account","type":"address","internalType":"address"}],"outputs":[{"name":"","type":"bool","internalType":"bool"}],"stateMutability":"view"},{"type":"function","name":"increaseAllowance","inputs":[{"name":"spender","type":"address","internalType":"address"},{"name":"addedValue","type":"uint256","internalType":"uint256"}],"outputs":[{"name":"","type":"bool","internalType":"bool"}],"stateMutability":"nonpayable"},{"type":"function","name":"lastDistributionTimestamp","inputs":[],"outputs":[{"name":"","type":"uint256","internalType":"uint256"}],"stateMutability":"view"},{"type":"function","name":"maxDeposit","inputs":[{"name":"","type":"address","internalType":"address"}],"outputs":[{"name":"","type":"uint256","internalType":"uint256"}],"stateMutability":"view"},{"type":"function","name":"maxMint","inputs":[{"name":"","type":"address","internalType":"address"}],"outputs":[{"name":"","type":"uint256","internalType":"uint256"}],"stateMutability":"view"},{"type":"function","name":"maxRedeem","inputs":[{"name":"owner","type":"address","internalType":"address"}],"outputs":[{"name":"","type":"uint256","internalType":"uint256"}],"stateMutability":"view"},{"type":"function","name":"maxWithdraw","inputs":[{"name":"owner","type":"address","internalType":"address"}],"outputs":[{"name":"","type":"uint256","internalType":"uint256"}],"stateMutability":"view"},{"type":"function","name":"mint","inputs":[{"name":"shares","type":"uint256","internalType":"uint256"},{"name":"receiver","type":"address","internalType":"address"}],"outputs":[{"name":"","type":"uint256","internalType":"uint256"}],"stateMutability":"nonpayable"},{"type":"function","name":"name","inputs":[],"outputs":[{"name":"","type":"string","internalType":"string"}],"stateMutability":"view"},{"type":"function","name":"nonces","inputs":[{"name":"owner","type":"address","internalType":"address"}],"outputs":[{"name":"","type":"uint256","internalType":"uint256"}],"stateMutability":"view"},{"type":"function","name":"owner","inputs":[],"outputs":[{"name":"","type":"address","internalType":"address"}],"stateMutability":"view"},{"type":"function","name":"permit","inputs":[{"name":"owner","type":"address","internalType":"address"},{"name":"spender","type":"address","internalType":"address"},{"name":"value","type":"uint256","internalType":"uint256"},{"name":"deadline","type":"uint256","internalType":"uint256"},{"name":"v","type":"uint8","internalType":"uint8"},{"name":"r","type":"bytes32","internalType":"bytes32"},{"name":"s","type":"bytes32","internalType":"bytes32"}],"outputs":[],"stateMutability":"nonpayable"},{"type":"function","name":"previewDeposit","inputs":[{"name":"assets","type":"uint256","internalType":"uint256"}],"outputs":[{"name":"","type":"uint256","internalType":"uint256"}],"stateMutability":"view"},{"type":"function","name":"previewMint","inputs":[{"name":"shares","type":"uint256","internalType":"uint256"}],"outputs":[{"name":"","type":"uint256","internalType":"uint256"}],"stateMutability":"view"},{"type":"function","name":"previewRedeem","inputs":[{"name":"shares","type":"uint256","internalType":"uint256"}],"outputs":[{"name":"","type":"uint256","internalType":"uint256"}],"stateMutability":"view"},{"type":"function","name":"previewWithdraw","inputs":[{"name":"assets","type":"uint256","internalType":"uint256"}],"outputs":[{"name":"","type":"uint256","internalType":"uint256"}],"stateMutability":"view"},{"type":"function","name":"redeem","inputs":[{"name":"shares","type":"uint256","internalType":"uint256"},{"name":"receiver","type":"address","internalType":"address"},{"name":"_owner","type":"address","internalType":"address"}],"outputs":[{"name":"","type":"uint256","internalType":"uint256"}],"stateMutability":"nonpayable"},{"type":"function","name":"redistributeLockedAmount","inputs":[{"name":"from","type":"address","internalType":"address"},{"name":"to","type":"address","internalType":"address"}],"outputs":[],"stateMutability":"nonpayable"},{"type":"function","name":"removeFromBlacklist","inputs":[{"name":"target","type":"address","internalType":"address"},{"name":"isFullBlacklisting","type":"bool","internalType":"bool"}],"outputs":[],"stateMutability":"nonpayable"},{"type":"function","name":"renounceRole","inputs":[{"name":"","type":"bytes32","internalType":"bytes32"},{"name":"","type":"address","internalType":"address"}],"outputs":[],"stateMutability":"nonpayable"},{"type":"function","name":"rescueTokens","inputs":[{"name":"token","type":"address","internalType":"address"},{"name":"amount","type":"uint256","internalType":"uint256"},{"name":"to","type":"address","internalType":"address"}],"outputs":[],"stateMutability":"nonpayable"},{"type":"function","name":"revokeRole","inputs":[{"name":"role","type":"bytes32","internalType":"bytes32"},{"name":"account","type":"address","internalType":"address"}],"outputs":[],"stateMutability":"nonpayable"},{"type":"function","name":"setCooldownDuration","inputs":[{"name":"duration","type":"uint24","internalType":"uint24"}],"outputs":[],"stateMutability":"nonpayable"},{"type":"function","name":"silo","inputs":[],"outputs":[{"name":"","type":"address","internalType":"contract USDeSilo"}],"stateMutability":"view"},{"type":"function","name":"supportsInterface","inputs":[{"name":"interfaceId","type":"bytes4","internalType":"bytes4"}],"outputs":[{"name":"","type":"bool","internalType":"bool"}],"stateMutability":"view"},{"type":"function","name":"symbol","inputs":[],"outputs":[{"name":"","type":"string","internalType":"string"}],"stateMutability":"view"},{"type":"function","name":"totalAssets","inputs":[],"outputs":[{"name":"","type":"uint256","internalType":"uint256"}],"stateMutability":"view"},{"type":"function","name":"totalSupply","inputs":[],"outputs":[{"name":"","type":"uint256","internalType":"uint256"}],"stateMutability":"view"},{"type":"function","name":"transfer","inputs":[{"name":"to","type":"address","internalType":"address"},{"name":"amount","type":"uint256","internalType":"uint256"}],"outputs":[{"name":"","type":"bool","internalType":"bool"}],"stateMutability":"nonpayable"},{"type":"function","name":"transferAdmin","inputs":[{"name":"newAdmin","type":"address","internalType":"address"}],"outputs":[],"stateMutability":"nonpayable"},{"type":"function","name":"transferFrom","inputs":[{"name":"from","type":"address","internalType":"address"},{"name":"to","type":"address","internalType":"address"},{"name":"amount","type":"uint256","internalType":"uint256"}],"outputs":[{"name":"","type":"bool","internalType":"bool"}],"stateMutability":"nonpayable"},{"type":"function","name":"transferInRewards","inputs":[{"name":"amount","type":"uint256","internalType":"uint256"}],"outputs":[],"stateMutability":"nonpayable"},{"type":"function","name":"unstake","inputs":[{"name":"receiver","type":"address","internalType":"address"}],"outputs":[],"stateMutability":"nonpayable"},{"type":"function","name":"vestingAmount","inputs":[],"outputs":[{"name":"","type":"uint256","internalType":"uint256"}],"stateMutability":"view"},{"type":"function","name":"withdraw","inputs":[{"name":"assets","type":"uint256","internalType":"uint256"},{"name":"receiver","type":"address","internalType":"address"},{"name":"_owner","type":"address","internalType":"address"}],"outputs":[{"name":"","type":"uint256","internalType":"uint256"}],"stateMutability":"nonpayable"},{"type":"event","name":"AdminTransferRequested","inputs":[{"name":"oldAdmin","type":"address","indexed":true,"internalType":"address"},{"name":"newAdmin","type":"address","indexed":true,"internalType":"address"}],"anonymous":false},{"type":"event","name":"AdminTransferred","inputs":[{"name":"oldAdmin","type":"address","indexed":true,"internalType":"address"},{"name":"newAdmin","type":"address","indexed":true,"internalType":"address"}],"anonymous":false},{"type":"event","name":"Approval","inputs":[{"name":"owner","type":"address","indexed":true,"internalType":"address"},{"name":"spender","type":"address","indexed":true,"internalType":"address"},{"name":"value","type":"uint256","indexed":false,"internalType":"uint256"}],"anonymous":false},{"type":"event","name":"CooldownDurationUpdated","inputs":[{"name":"previousDuration","type":"uint24","indexed":false,"internalType":"uint24"},{"name":"newDuration","type":"uint24","indexed":false,"internalType":"uint24"}],"anonymous":false},{"type":"event","name":"Deposit","inputs":[{"name":"sender","type":"address","indexed":true,"internalType":"address"},{"name":"owner","type":"address","indexed":true,"internalType":"address"},{"name":"assets","type":"uint256","indexed":false,"internalType":"uint256"},{"name":"shares","type":"uint256","indexed":false,"internalType":"uint256"}],"anonymous":false},{"type":"event","name":"EIP712DomainChanged","inputs":[],"anonymous":false},{"type":"event","name":"LockedAmountRedistributed","inputs":[{"name":"from","type":"address","indexed":true,"internalType":"address"},{"name":"to","type":"address","indexed":true,"internalType":"address"},{"name":"amount","type":"uint256","indexed":false,"internalType":"uint256"}],"anonymous":false},{"type":"event","name":"RewardsReceived","inputs":[{"name":"amount","type":"uint256","indexed":false,"internalType":"uint256"}],"anonymous":false},{"type":"event","name":"RoleAdminChanged","inputs":[{"name":"role","type":"bytes32","indexed":true,"internalType":"bytes32"},{"name":"previousAdminRole","type":"bytes32","indexed":true,"internalType":"bytes32"},{"name":"newAdminRole","type":"bytes32","indexed":true,"internalType":"bytes32"}],"anonymous":false},{"type":"event","name":"RoleGranted","inputs":[{"name":"role","type":"bytes32","indexed":true,"internalType":"bytes32"},{"name":"account","type":"address","indexed":true,"internalType":"address"},{"name":"sender","type":"address","indexed":true,"internalType":"address"}],"anonymous":false},{"type":"event","name":"RoleRevoked","inputs":[{"name":"role","type":"bytes32","indexed":true,"internalType":"bytes32"},{"name":"account","type":"address","indexed":true,"internalType":"address"},{"name":"sender","type":"address","indexed":true,"internalType":"address"}],"anonymous":false},{"type":"event","name":"Transfer","inputs":[{"name":"from","type":"address","indexed":true,"internalType":"address"},{"name":"to","type":"address","indexed":true,"internalType":"address"},{"name":"value","type":"uint256","indexed":false,"internalType":"uint256"}],"anonymous":false},{"type":"event","name":"Withdraw","inputs":[{"name":"sender","type":"address","indexed":true,"internalType":"address"},{"name":"receiver","type":"address","indexed":true,"internalType":"address"},{"name":"owner","type":"address","indexed":true,"internalType":"address"},{"name":"assets","type":"uint256","indexed":false,"internalType":"uint256"},{"name":"shares","type":"uint256","indexed":false,"internalType":"uint256"}],"anonymous":false},{"type":"error","name":"CantBlacklistOwner","inputs":[]},{"type":"error","name":"ExcessiveRedeemAmount","inputs":[]},{"type":"error","name":"ExcessiveWithdrawAmount","inputs":[]},{"type":"error","name":"InvalidAdminChange","inputs":[]},{"type":"error","name":"InvalidAmount","inputs":[]},{"type":"error","name":"InvalidCooldown","inputs":[]},{"type":"error","name":"InvalidShortString","inputs":[]},{"type":"error","name":"InvalidToken","inputs":[]},{"type":"error","name":"InvalidZeroAddress","inputs":[]},{"type":"error","name":"MinSharesViolation","inputs":[]},{"type":"error","name":"NotPendingAdmin","inputs":[]},{"type":"error","name":"OperationNotAllowed","inputs":[]},{"type":"error","name":"StillVesting","inputs":[]},{"type":"error","name":"StringTooLong","inputs":[{"name":"str","type":"string","internalType":"string"}]}],"bytecode":{"object":"0x6101c060405234801562000011575f80fd5b506040516200796238038062007962833981810160405281019062000037919062000a95565b828282826040518060400160405280600581526020017f7355534465000000000000000000000000000000000000000000000000000000815250806040518060400160405280600181526020017f31000000000000000000000000000000000000000000000000000000000000008152506040518060400160405280600b81526020017f5374616b656420555344650000000000000000000000000000000000000000008152506040518060400160405280600581526020017f7355534465000000000000000000000000000000000000000000000000000000815250600160038190555081600790816200012d919062000d52565b5080600890816200013f919062000d52565b505050620001586009836200041460201b90919060201c565b610120818152505062000176600a826200041460201b90919060201c565b6101408181525050818051906020012060e08181525050808051906020012061010081815250504660a08181525050620001b56200046960201b60201c565b608081815250503073ffffffffffffffffffffffffffffffffffffffff1660c08173ffffffffffffffffffffffffffffffffffffffff16815250505050505f806200020683620004c560201b60201c565b9150915081620002185760126200021a565b805b60ff166101808160ff16815250508273ffffffffffffffffffffffffffffffffffffffff166101608173ffffffffffffffffffffffffffffffffffffffff16815250505050505f73ffffffffffffffffffffffffffffffffffffffff168173ffffffffffffffffffffffffffffffffffffffff161480620002c657505f73ffffffffffffffffffffffffffffffffffffffff168273ffffffffffffffffffffffffffffffffffffffff16145b80620002fd57505f73ffffffffffffffffffffffffffffffffffffffff168373ffffffffffffffffffffffffffffffffffffffff16145b1562000335576040517ff6b2911f00000000000000000000000000000000000000000000000000000000815260040160405180910390fd5b620003677fbeec13769b5f410b0584f69811bfd923818456d5edcf426b0e31cf90eed7a3f683620005f860201b60201c565b6200037b5f801b82620005f860201b60201c565b50505030836040516200038e90620009e0565b6200039b92919062000e47565b604051809103905ff080158015620003b5573d5f803e3d5ffd5b5073ffffffffffffffffffffffffffffffffffffffff166101a08173ffffffffffffffffffffffffffffffffffffffff16815250506276a70060105f6101000a81548162ffffff021916908362ffffff160217905550505050620010f9565b5f602083511015620004395762000431836200072d60201b60201c565b905062000463565b826200044b836200079760201b60201c565b5f0190816200045b919062000d52565b5060ff5f1b90505b92915050565b5f7f8b73c3c69bb8fe3d512ecc4cf759cc79239f7b179b0ffacaa9a75d522b39400f60e051610100514630604051602001620004aa95949392919062000e9d565b60405160208183030381529060405280519060200120905090565b5f805f808473ffffffffffffffffffffffffffffffffffffffff1663313ce56760e01b604051602401604051602081830303815290604052907bffffffffffffffffffffffffffffffffffffffffffffffffffffffff19166020820180517bffffffffffffffffffffffffffffffffffffffffffffffffffffffff83818316178352505050506040516200055a919062000f6c565b5f60405180830381855afa9150503d805f811462000594576040519150601f19603f3d011682016040523d82523d5f602084013e62000599565b606091505b5091509150818015620005ae57506020815110155b15620005ea575f81806020019051810190620005cb919062000fb3565b905060ff80168111620005e85760018194509450505050620005f3565b505b5f809350935050505b915091565b5f801b820362000717578073ffffffffffffffffffffffffffffffffffffffff1660015f9054906101000a900473ffffffffffffffffffffffffffffffffffffffff1673ffffffffffffffffffffffffffffffffffffffff167ff8ccb027dfcd135e000e9d45e6cc2d662578a8825d4c45b5e32e0adf67e79ec660405160405180910390a3620006b25f801b60015f9054906101000a900473ffffffffffffffffffffffffffffffffffffffff16620007a060201b60201c565b8060015f6101000a81548173ffffffffffffffffffffffffffffffffffffffff021916908373ffffffffffffffffffffffffffffffffffffffff16021790555060025f6101000a81549073ffffffffffffffffffffffffffffffffffffffff02191690555b6200072982826200088b60201b60201c565b5050565b5f80829050601f815111156200077c57826040517f305a27a900000000000000000000000000000000000000000000000000000000815260040162000773919062001043565b60405180910390fd5b8051816200078a906200108a565b5f1c175f1b915050919050565b5f819050919050565b620007b282826200097660201b60201c565b1562000887575f805f8481526020019081526020015f205f015f8373ffffffffffffffffffffffffffffffffffffffff1673ffffffffffffffffffffffffffffffffffffffff1681526020019081526020015f205f6101000a81548160ff0219169083151502179055506200082c620009d960201b60201c565b73ffffffffffffffffffffffffffffffffffffffff168173ffffffffffffffffffffffffffffffffffffffff16837ff6391f5c32d9c69d2a47ea670b442974b53935d1edc7fd64eb21e047a839171b60405160405180910390a45b5050565b6200089d82826200097660201b60201c565b620009725760015f808481526020019081526020015f205f015f8373ffffffffffffffffffffffffffffffffffffffff1673ffffffffffffffffffffffffffffffffffffffff1681526020019081526020015f205f6101000a81548160ff02191690831515021790555062000917620009d960201b60201c565b73ffffffffffffffffffffffffffffffffffffffff168173ffffffffffffffffffffffffffffffffffffffff16837f2f8788117e7eff1d82e926ec794901d17c78024a50270940304540a733656f0d60405160405180910390a45b5050565b5f805f8481526020019081526020015f205f015f8373ffffffffffffffffffffffffffffffffffffffff1673ffffffffffffffffffffffffffffffffffffffff1681526020019081526020015f205f9054906101000a900460ff16905092915050565b5f33905090565b61047380620074ef83390190565b5f80fd5b5f73ffffffffffffffffffffffffffffffffffffffff82169050919050565b5f62000a1d82620009f2565b9050919050565b5f62000a308262000a11565b9050919050565b62000a428162000a24565b811462000a4d575f80fd5b50565b5f8151905062000a608162000a37565b92915050565b62000a718162000a11565b811462000a7c575f80fd5b50565b5f8151905062000a8f8162000a66565b92915050565b5f805f6060848603121562000aaf5762000aae620009ee565b5b5f62000abe8682870162000a50565b935050602062000ad18682870162000a7f565b925050604062000ae48682870162000a7f565b9150509250925092565b5f81519050919050565b7f4e487b71000000000000000000000000000000000000000000000000000000005f52604160045260245ffd5b7f4e487b71000000000000000000000000000000000000000000000000000000005f52602260045260245ffd5b5f600282049050600182168062000b6a57607f821691505b60208210810362000b805762000b7f62000b25565b5b50919050565b5f819050815f5260205f209050919050565b5f6020601f8301049050919050565b5f82821b905092915050565b5f6008830262000be47fffffffffffffffffffffffffffffffffffffffffffffffffffffffffffffffff8262000ba7565b62000bf0868362000ba7565b95508019841693508086168417925050509392505050565b5f819050919050565b5f819050919050565b5f62000c3a62000c3462000c2e8462000c08565b62000c11565b62000c08565b9050919050565b5f819050919050565b62000c558362000c1a565b62000c6d62000c648262000c41565b84845462000bb3565b825550505050565b5f90565b62000c8362000c75565b62000c9081848462000c4a565b505050565b5b8181101562000cb75762000cab5f8262000c79565b60018101905062000c96565b5050565b601f82111562000d065762000cd08162000b86565b62000cdb8462000b98565b8101602085101562000ceb578190505b62000d0362000cfa8562000b98565b83018262000c95565b50505b505050565b5f82821c905092915050565b5f62000d285f198460080262000d0b565b1980831691505092915050565b5f62000d42838362000d17565b9150826002028217905092915050565b62000d5d8262000aee565b67ffffffffffffffff81111562000d795762000d7862000af8565b5b62000d85825462000b52565b62000d9282828562000cbb565b5f60209050601f83116001811462000dc8575f841562000db3578287015190505b62000dbf858262000d35565b86555062000e2e565b601f19841662000dd88662000b86565b5f5b8281101562000e015784890151825560018201915060208501945060208101905062000dda565b8683101562000e21578489015162000e1d601f89168262000d17565b8355505b6001600288020188555050505b505050505050565b62000e418162000a11565b82525050565b5f60408201905062000e5c5f83018562000e36565b62000e6b602083018462000e36565b9392505050565b5f819050919050565b62000e868162000e72565b82525050565b62000e978162000c08565b82525050565b5f60a08201905062000eb25f83018862000e7b565b62000ec1602083018762000e7b565b62000ed0604083018662000e7b565b62000edf606083018562000e8c565b62000eee608083018462000e36565b9695505050505050565b5f81519050919050565b5f81905092915050565b5f5b8381101562000f2b57808201518184015260208101905062000f0e565b5f8484015250505050565b5f62000f428262000ef8565b62000f4e818562000f02565b935062000f6081856020860162000f0c565b80840191505092915050565b5f62000f79828462000f36565b915081905092915050565b62000f8f8162000c08565b811462000f9a575f80fd5b50565b5f8151905062000fad8162000f84565b92915050565b5f6020828403121562000fcb5762000fca620009ee565b5b5f62000fda8482850162000f9d565b91505092915050565b5f82825260208201905092915050565b5f601f19601f8301169050919050565b5f6200100f8262000aee565b6200101b818562000fe3565b93506200102d81856020860162000f0c565b620010388162000ff3565b840191505092915050565b5f6020820190508181035f8301526200105d818462001003565b905092915050565b5f819050602082019050919050565b5f62001081825162000e72565b80915050919050565b5f620010968262000ef8565b82620010a28462001065565b9050620010af8162001074565b92506020821015620010f257620010ed7fffffffffffffffffffffffffffffffffffffffffffffffffffffffffffffffff8360200360080262000ba7565b831692505b5050919050565b60805160a05160c05160e05161010051610120516101405161016051610180516101a051616366620011895f395f818161162201528181611e9d0152818161223101526123a701525f50505f8181610ff301528181613b230152613cdc01525f61130401525f6112d001525f613ace01525f613aad01525f612c7901525f612ccf01525f612cf801526163665ff3fe608060405234801561000f575f80fd5b5060043610610380575f3560e01c80638da5cb5b116101dc578063c63d75b61161010d578063d547741f116100ab578063eb3beb291161007a578063eb3beb2914610b7f578063ef8b30f714610b9d578063f2888dbb14610bcd578063f298f42c14610be957610380565b8063d547741f14610ae5578063d905777e14610b01578063dd62ed3e14610b31578063e7c2a60814610b6157610380565b8063cdac52ed116100e7578063cdac52ed14610a4d578063ce23eb3c14610a7d578063ce96cb7714610a99578063d505accf14610ac957610380565b8063c63d75b6146109d1578063c6e6f59214610a01578063c80ef11014610a3157610380565b8063a457c2d71161017a578063b3d7f6b911610154578063b3d7f6b914610925578063b460af9414610955578063ba08765214610985578063c336a084146109b557610380565b8063a457c2d7146108a9578063a9059cbb146108d9578063b37fd1901461090957610380565b806394bf804d116101b657806394bf804d1461082157806395d89b4114610851578063a0776b821461086f578063a217fddf1461088b57610380565b80638da5cb5b146107a357806391d14854146107c15780639343d9e1146107f157610380565b80632f2ff15d116102b6578063402d267d1161025457806370a082311161022e57806370a082311461070357806375829def146107335780637ecebe001461074f57806384b0196e1461077f57610380565b8063402d267d146106735780634cdad506146106a35780636e553f65146106d357610380565b80633644e515116102905780633644e515146105eb57806336568abe1461060957806338d52e0f14610625578063395093511461064357610380565b80632f2ff15d14610593578063313ce567146105af57806335269315146105cd57610380565b80630a28a477116103235780631e9049cf116102fd5780631e9049cf146104f7578063209509331461051557806323b872dd14610533578063248a9ca31461056357610380565b80630a28a4771461049f5780630e18b681146104cf57806318160ddd146104d957610380565b806301ffc9a71161035f57806301ffc9a7146103f157806306fdde031461042157806307a2d13a1461043f578063095ea7b31461046f57610380565b8062728f761461038457806301320fe2146103a257806301e1d114146103d3575b5f80fd5b61038c610c05565b6040516103999190614675565b60405180910390f35b6103bc60048036038101906103b791906146ec565b610c0b565b6040516103ca92919061476b565b60405180910390f35b6103db610c61565b6040516103e89190614675565b60405180910390f35b61040b600480360381019061040691906147e7565b610cf8565b604051610418919061482c565b60405180910390f35b610429610d71565b60405161043691906148cf565b60405180910390f35b61045960048036038101906104549190614919565b610e01565b6040516104669190614675565b60405180910390f35b61048960048036038101906104849190614944565b610e13565b604051610496919061482c565b60405180910390f35b6104b960048036038101906104b49190614919565b610e35565b6040516104c69190614675565b60405180910390f35b6104d7610e48565b005b6104e1610edc565b6040516104ee9190614675565b60405180910390f35b6104ff610ee5565b60405161050c919061499f565b60405180910390f35b61051d610eec565b60405161052a9190614675565b60405180910390f35b61054d600480360381019061054891906149b8565b610ef2565b60405161055a919061482c565b60405180910390f35b61057d60048036038101906105789190614a3b565b610f20565b60405161058a9190614a75565b60405180910390f35b6105ad60048036038101906105a89190614a8e565b610f3c565b005b6105b7610f94565b6040516105c49190614ae7565b60405180910390f35b6105d5610f9c565b6040516105e2919061499f565b60405180910390f35b6105f3610fb0565b6040516106009190614a75565b60405180910390f35b610623600480360381019061061e9190614a8e565b610fbe565b005b61062d610ff0565b60405161063a9190614b0f565b60405180910390f35b61065d60048036038101906106589190614944565b611017565b60405161066a919061482c565b60405180910390f35b61068d600480360381019061068891906146ec565b61104d565b60405161069a9190614675565b60405180910390f35b6106bd60048036038101906106b89190614919565b611076565b6040516106ca9190614675565b60405180910390f35b6106ed60048036038101906106e89190614b28565b611088565b6040516106fa9190614675565b60405180910390f35b61071d600480360381019061071891906146ec565b6110fd565b60405161072a9190614675565b60405180910390f35b61074d600480360381019061074891906146ec565b611143565b005b610769600480360381019061076491906146ec565b611273565b6040516107769190614675565b60405180910390f35b6107876112c0565b60405161079a9796959493929190614c57565b60405180910390f35b6107ab6113bd565b6040516107b89190614b0f565b60405180910390f35b6107db60048036038101906107d69190614a8e565b6113e5565b6040516107e8919061482c565b60405180910390f35b61080b60048036038101906108069190614919565b611448565b6040516108189190614675565b60405180910390f35b61083b60048036038101906108369190614b28565b61164e565b6040516108489190614675565b60405180910390f35b6108596116c3565b60405161086691906148cf565b60405180910390f35b61088960048036038101906108849190614cd9565b611753565b005b6108936118e2565b6040516108a09190614a75565b60405180910390f35b6108c360048036038101906108be9190614944565b6118e8565b6040516108d0919061482c565b60405180910390f35b6108f360048036038101906108ee9190614944565b61195d565b604051610900919061482c565b60405180910390f35b610923600480360381019061091e9190614d17565b61197f565b005b61093f600480360381019061093a9190614919565b611a38565b60405161094c9190614675565b60405180910390f35b61096f600480360381019061096a9190614d67565b611a4b565b60405161097c9190614675565b60405180910390f35b61099f600480360381019061099a9190614d67565b611aae565b6040516109ac9190614675565b60405180910390f35b6109cf60048036038101906109ca9190614de1565b611b11565b005b6109eb60048036038101906109e691906146ec565b611b9b565b6040516109f89190614675565b60405180910390f35b610a1b6004803603810190610a169190614919565b611bc4565b604051610a289190614675565b60405180910390f35b610a4b6004803603810190610a469190614919565b611bd6565b005b610a676004803603810190610a629190614919565b611cc3565b604051610a749190614675565b60405180910390f35b610a976004803603810190610a929190614e49565b611ec9565b005b610ab36004803603810190610aae91906146ec565b611f9c565b604051610ac09190614675565b60405180910390f35b610ae36004803603810190610ade9190614e9e565b611fb6565b005b610aff6004803603810190610afa9190614a8e565b6120f5565b005b610b1b6004803603810190610b1691906146ec565b61214d565b604051610b289190614675565b60405180910390f35b610b4b6004803603810190610b469190614cd9565b61215e565b604051610b589190614675565b60405180910390f35b610b696121e0565b604051610b769190614675565b60405180910390f35b610b8761222f565b604051610b949190614f96565b60405180910390f35b610bb76004803603810190610bb29190614919565b612253565b604051610bc49190614675565b60405180910390f35b610be76004803603810190610be291906146ec565b612265565b005b610c036004803603810190610bfe9190614de1565b612469565b005b600d5481565b600f602052805f5260405f205f91509050805f015f9054906101000a90046cffffffffffffffffffffffffff1690805f01600d9054906101000a900472ffffffffffffffffffffffffffffffffffffff16905082565b5f610c6a6121e0565b610c72610ff0565b73ffffffffffffffffffffffffffffffffffffffff166370a08231306040518263ffffffff1660e01b8152600401610caa9190614b0f565b602060405180830381865afa158015610cc5573d5f803e3d5ffd5b505050506040513d601f19601f82011682018060405250810190610ce99190614fc3565b610cf3919061501b565b905090565b5f7f7965db0b000000000000000000000000000000000000000000000000000000007bffffffffffffffffffffffffffffffffffffffffffffffffffffffff1916827bffffffffffffffffffffffffffffffffffffffffffffffffffffffff19161480610d6a5750610d6982612561565b5b9050919050565b606060078054610d809061507b565b80601f0160208091040260200160405190810160405280929190818152602001828054610dac9061507b565b8015610df75780601f10610dce57610100808354040283529160200191610df7565b820191905f5260205f20905b815481529060010190602001808311610dda57829003601f168201915b5050505050905090565b5f610e0c825f6125ca565b9050919050565b5f80610e1d612622565b9050610e2a818585612629565b600191505092915050565b5f610e418260016127ec565b9050919050565b60025f9054906101000a900473ffffffffffffffffffffffffffffffffffffffff1673ffffffffffffffffffffffffffffffffffffffff163373ffffffffffffffffffffffffffffffffffffffff1614610ece576040517f058d9a1b00000000000000000000000000000000000000000000000000000000815260040160405180910390fd5b610eda5f801b33612844565b565b5f600654905090565b6276a70081565b600e5481565b5f80610efc612622565b9050610f09858285612968565b610f148585856129f3565b60019150509392505050565b5f805f8381526020019081526020015f20600101549050919050565b5f801b610f4881612c62565b825f801b8103610f84576040517f6317a0fa00000000000000000000000000000000000000000000000000000000815260040160405180910390fd5b610f8e8484612844565b50505050565b5f6012905090565b60105f9054906101000a900462ffffff1681565b5f610fb9612c76565b905090565b6040517ff50a3b5200000000000000000000000000000000000000000000000000000000815260040160405180910390fd5b5f7f0000000000000000000000000000000000000000000000000000000000000000905090565b5f80611021612622565b9050611042818585611033858961215e565b61103d91906150ab565b612629565b600191505092915050565b5f7fffffffffffffffffffffffffffffffffffffffffffffffffffffffffffffffff9050919050565b5f611081825f6125ca565b9050919050565b5f6110928261104d565b8311156110d4576040517f08c379a00000000000000000000000000000000000000000000000000000000081526004016110cb90615128565b60405180910390fd5b5f6110de84612253565b90506110f36110eb612622565b848684612d2c565b8091505092915050565b5f60045f8373ffffffffffffffffffffffffffffffffffffffff1673ffffffffffffffffffffffffffffffffffffffff1681526020019081526020015f20549050919050565b5f801b61114f81612c62565b3373ffffffffffffffffffffffffffffffffffffffff168273ffffffffffffffffffffffffffffffffffffffff16036111b4576040517f6317a0fa00000000000000000000000000000000000000000000000000000000815260040160405180910390fd5b8160025f6101000a81548173ffffffffffffffffffffffffffffffffffffffff021916908373ffffffffffffffffffffffffffffffffffffffff1602179055508173ffffffffffffffffffffffffffffffffffffffff1660015f9054906101000a900473ffffffffffffffffffffffffffffffffffffffff1673ffffffffffffffffffffffffffffffffffffffff167fefdcbba819467e00b0262c12892dda980bac68580b72178e57a162368b80876660405160405180910390a35050565b5f6112b9600b5f8473ffffffffffffffffffffffffffffffffffffffff1673ffffffffffffffffffffffffffffffffffffffff1681526020019081526020015f20612e5e565b9050919050565b5f6060805f805f60606112fd60097f0000000000000000000000000000000000000000000000000000000000000000612e6a90919063ffffffff16565b611331600a7f0000000000000000000000000000000000000000000000000000000000000000612e6a90919063ffffffff16565b46305f801b5f67ffffffffffffffff8111156113505761134f615146565b5b60405190808252806020026020018201604052801561137e5781602001602082028036833780820191505090505b507f0f00000000000000000000000000000000000000000000000000000000000000959493929190965096509650965096509650965090919293949596565b5f60015f9054906101000a900473ffffffffffffffffffffffffffffffffffffffff16905090565b5f805f8481526020019081526020015f205f015f8373ffffffffffffffffffffffffffffffffffffffff1673ffffffffffffffffffffffffffffffffffffffff1681526020019081526020015f205f9054906101000a900460ff16905092915050565b5f8060105f9054906101000a900462ffffff1662ffffff1603611497576040517ff50a3b5200000000000000000000000000000000000000000000000000000000815260040160405180910390fd5b6114a03361214d565b8211156114d9576040517f6334538800000000000000000000000000000000000000000000000000000000815260040160405180910390fd5b6114e282611076565b905060105f9054906101000a900462ffffff1662ffffff16426115059190615173565b600f5f3373ffffffffffffffffffffffffffffffffffffffff1673ffffffffffffffffffffffffffffffffffffffff1681526020019081526020015f205f015f6101000a8154816cffffffffffffffffffffffffff02191690836cffffffffffffffffffffffffff16021790555080600f5f3373ffffffffffffffffffffffffffffffffffffffff1673ffffffffffffffffffffffffffffffffffffffff1681526020019081526020015f205f01600d8282829054906101000a900472ffffffffffffffffffffffffffffffffffffff166115e091906151b3565b92506101000a81548172ffffffffffffffffffffffffffffffffffffff021916908372ffffffffffffffffffffffffffffffffffffff160217905550611649337f0000000000000000000000000000000000000000000000000000000000000000338486612f17565b919050565b5f61165882611b9b565b83111561169a576040517f08c379a000000000000000000000000000000000000000000000000000000000815260040161169190615243565b60405180910390fd5b5f6116a484611a38565b90506116b96116b1612622565b848387612d2c565b8091505092915050565b6060600880546116d29061507b565b80601f01602080910402602001604051908101604052809291908181526020018280546116fe9061507b565b80156117495780601f1061172057610100808354040283529160200191611749565b820191905f5260205f20905b81548152906001019060200180831161172c57829003601f168201915b5050505050905090565b61175b61307c565b5f801b61176781612c62565b6117917f0a4af4bcc1942295207d9f047442ebdae6170a6e324850f758b14cf99b65c3bd846113e5565b80156117c457506117c27f0a4af4bcc1942295207d9f047442ebdae6170a6e324850f758b14cf99b65c3bd836113e5565b155b156118a3575f6117d3846110fd565b90505f6117df82611076565b90506117eb85836130cb565b5f73ffffffffffffffffffffffffffffffffffffffff168473ffffffffffffffffffffffffffffffffffffffff160361182c5761182781613290565b611837565b61183684836132e2565b5b8373ffffffffffffffffffffffffffffffffffffffff168573ffffffffffffffffffffffffffffffffffffffff167fb8ef21f2b52f8ca740012254a6b10f17d2fd6e589f97ebf401fde0e8b9218937846040516118949190614675565b60405180910390a350506118d5565b6040517ff50a3b5200000000000000000000000000000000000000000000000000000000815260040160405180910390fd5b506118de613431565b5050565b5f801b81565b5f806118f2612622565b90505f6118ff828661215e565b905083811015611944576040517f08c379a000000000000000000000000000000000000000000000000000000000815260040161193b906152d1565b60405180910390fd5b6119518286868403612629565b60019250505092915050565b5f80611967612622565b90506119748185856129f3565b600191505092915050565b61198761307c565b5f801b61199381612c62565b61199b610ff0565b73ffffffffffffffffffffffffffffffffffffffff168473ffffffffffffffffffffffffffffffffffffffff16036119ff576040517fc1ab6dc100000000000000000000000000000000000000000000000000000000815260040160405180910390fd5b611a2a82848673ffffffffffffffffffffffffffffffffffffffff1661343b9092919063ffffffff16565b50611a33613431565b505050565b5f611a448260016125ca565b9050919050565b5f8060105f9054906101000a900462ffffff1662ffffff1614611a9a576040517ff50a3b5200000000000000000000000000000000000000000000000000000000815260040160405180910390fd5b611aa58484846134c1565b90509392505050565b5f8060105f9054906101000a900462ffffff1662ffffff1614611afd576040517ff50a3b5200000000000000000000000000000000000000000000000000000000815260040160405180910390fd5b611b08848484613538565b90509392505050565b7ff988e4fb62b8e14f4820fed03192306ddf4d7dbfa215595ba1c6ba4b76b369ee611b3b81612c62565b5f82611b67577f8f7080408a06296c6347c87c115ad99669141ae35eae974c12dff8bd01680cb6611b89565b7f0a4af4bcc1942295207d9f047442ebdae6170a6e324850f758b14cf99b65c3bd5b9050611b9581856135af565b50505050565b5f7fffffffffffffffffffffffffffffffffffffffffffffffffffffffffffffffff9050919050565b5f611bcf825f6127ec565b9050919050565b611bde61307c565b7fbeec13769b5f410b0584f69811bfd923818456d5edcf426b0e31cf90eed7a3f6611c0881612c62565b815f8103611c42576040517f2c5211c600000000000000000000000000000000000000000000000000000000815260040160405180910390fd5b611c4b83613290565b611c7f333085611c59610ff0565b73ffffffffffffffffffffffffffffffffffffffff16613689909392919063ffffffff16565b7fbb28dd7cd6be6f61828ea9158a04c5182c716a946a6d2f31f4864edb87471aa683604051611cae9190614675565b60405180910390a15050611cc0613431565b50565b5f8060105f9054906101000a900462ffffff1662ffffff1603611d12576040517ff50a3b5200000000000000000000000000000000000000000000000000000000815260040160405180910390fd5b611d1b33611f9c565b821115611d54576040517fdf53dde200000000000000000000000000000000000000000000000000000000815260040160405180910390fd5b611d5d82610e35565b905060105f9054906101000a900462ffffff1662ffffff1642611d809190615173565b600f5f3373ffffffffffffffffffffffffffffffffffffffff1673ffffffffffffffffffffffffffffffffffffffff1681526020019081526020015f205f015f6101000a8154816cffffffffffffffffffffffffff02191690836cffffffffffffffffffffffffff16021790555081600f5f3373ffffffffffffffffffffffffffffffffffffffff1673ffffffffffffffffffffffffffffffffffffffff1681526020019081526020015f205f01600d8282829054906101000a900472ffffffffffffffffffffffffffffffffffffff16611e5b91906151b3565b92506101000a81548172ffffffffffffffffffffffffffffffffffffff021916908372ffffffffffffffffffffffffffffffffffffff160217905550611ec4337f0000000000000000000000000000000000000000000000000000000000000000338585612f17565b919050565b5f801b611ed581612c62565b6276a70062ffffff168262ffffff161115611f1c576040517fe8ebb09a00000000000000000000000000000000000000000000000000000000815260040160405180910390fd5b5f60105f9054906101000a900462ffffff1690508260105f6101000a81548162ffffff021916908362ffffff1602179055507f180eacdf7dbaeecaa983d93173b4285db2f2c0de0044697e1f932bbbb73dcaa68160105f9054906101000a900462ffffff16604051611f8f9291906152ef565b60405180910390a1505050565b5f611faf611fa9836110fd565b5f6125ca565b9050919050565b83421115611ff9576040517f08c379a0000000000000000000000000000000000000000000000000000000008152600401611ff090615360565b60405180910390fd5b5f7f6e71edae12b1b97f4d1f60370fef10105fa2faae0126114a169c64845d6126c98888886120278c613712565b8960405160200161203d9695949392919061537e565b6040516020818303038152906040528051906020012090505f61205f8261376d565b90505f61206e82878787613786565b90508973ffffffffffffffffffffffffffffffffffffffff168173ffffffffffffffffffffffffffffffffffffffff16146120de576040517f08c379a00000000000000000000000000000000000000000000000000000000081526004016120d590615427565b60405180910390fd5b6120e98a8a8a612629565b50505050505050505050565b5f801b61210181612c62565b825f801b810361213d576040517f6317a0fa00000000000000000000000000000000000000000000000000000000815260040160405180910390fd5b61214784846135af565b50505050565b5f612157826110fd565b9050919050565b5f60055f8473ffffffffffffffffffffffffffffffffffffffff1673ffffffffffffffffffffffffffffffffffffffff1681526020019081526020015f205f8373ffffffffffffffffffffffffffffffffffffffff1673ffffffffffffffffffffffffffffffffffffffff1681526020019081526020015f2054905092915050565b5f80600e54426121f0919061501b565b90506170808110612204575f91505061222c565b5f81617080039050617080600d548261221d9190615445565b61222791906154b3565b925050505b90565b7f000000000000000000000000000000000000000000000000000000000000000081565b5f61225e825f6127ec565b9050919050565b5f600f5f3373ffffffffffffffffffffffffffffffffffffffff1673ffffffffffffffffffffffffffffffffffffffff1681526020019081526020015f2090505f815f01600d9054906101000a900472ffffffffffffffffffffffffffffffffffffff1672ffffffffffffffffffffffffffffffffffffff169050815f015f9054906101000a90046cffffffffffffffffffffffffff166cffffffffffffffffffffffffff164210158061232d57505f60105f9054906101000a900462ffffff1662ffffff16145b15612432575f825f015f6101000a8154816cffffffffffffffffffffffffff02191690836cffffffffffffffffffffffffff1602179055505f825f01600d6101000a81548172ffffffffffffffffffffffffffffffffffffff021916908372ffffffffffffffffffffffffffffffffffffff1602179055507f000000000000000000000000000000000000000000000000000000000000000073ffffffffffffffffffffffffffffffffffffffff1663f3fef3a384836040518363ffffffff1660e01b81526004016124009291906154e3565b5f604051808303815f87803b158015612417575f80fd5b505af1158015612429573d5f803e3d5ffd5b50505050612464565b6040517fe8ebb09a00000000000000000000000000000000000000000000000000000000815260040160405180910390fd5b505050565b7ff988e4fb62b8e14f4820fed03192306ddf4d7dbfa215595ba1c6ba4b76b369ee61249381612c62565b8261249c6113bd565b73ffffffffffffffffffffffffffffffffffffffff168173ffffffffffffffffffffffffffffffffffffffff1603612500576040517ffe7c574000000000000000000000000000000000000000000000000000000000815260040160405180910390fd5b5f8361252c577f8f7080408a06296c6347c87c115ad99669141ae35eae974c12dff8bd01680cb661254e565b7f0a4af4bcc1942295207d9f047442ebdae6170a6e324850f758b14cf99b65c3bd5b905061255a8186612844565b5050505050565b5f7f01ffc9a7000000000000000000000000000000000000000000000000000000007bffffffffffffffffffffffffffffffffffffffffffffffffffffffff1916827bffffffffffffffffffffffffffffffffffffffffffffffffffffffff1916149050919050565b5f61261a60016125d8610c61565b6125e291906150ab565b6125ea6137af565b600a6125f69190615639565b6125fe610edc565b61260891906150ab565b84866137b3909392919063ffffffff16565b905092915050565b5f33905090565b5f73ffffffffffffffffffffffffffffffffffffffff168373ffffffffffffffffffffffffffffffffffffffff1603612697576040517f08c379a000000000000000000000000000000000000000000000000000000000815260040161268e906156f3565b60405180910390fd5b5f73ffffffffffffffffffffffffffffffffffffffff168273ffffffffffffffffffffffffffffffffffffffff1603612705576040517f08c379a00000000000000000000000000000000000000000000000000000000081526004016126fc90615781565b60405180910390fd5b8060055f8573ffffffffffffffffffffffffffffffffffffffff1673ffffffffffffffffffffffffffffffffffffffff1681526020019081526020015f205f8473ffffffffffffffffffffffffffffffffffffffff1673ffffffffffffffffffffffffffffffffffffffff1681526020019081526020015f20819055508173ffffffffffffffffffffffffffffffffffffffff168373ffffffffffffffffffffffffffffffffffffffff167f8c5be1e5ebec7d5bd14f71427d1e84f3dd0314c0f7b2291e5b200ac8c7c3b925836040516127df9190614675565b60405180910390a3505050565b5f61283c6127f86137af565b600a6128049190615639565b61280c610edc565b61281691906150ab565b6001612820610c61565b61282a91906150ab565b84866137b3909392919063ffffffff16565b905092915050565b5f801b820361295a578073ffffffffffffffffffffffffffffffffffffffff1660015f9054906101000a900473ffffffffffffffffffffffffffffffffffffffff1673ffffffffffffffffffffffffffffffffffffffff167ff8ccb027dfcd135e000e9d45e6cc2d662578a8825d4c45b5e32e0adf67e79ec660405160405180910390a36128f55f801b60015f9054906101000a900473ffffffffffffffffffffffffffffffffffffffff166135af565b8060015f6101000a81548173ffffffffffffffffffffffffffffffffffffffff021916908373ffffffffffffffffffffffffffffffffffffffff16021790555060025f6101000a81549073ffffffffffffffffffffffffffffffffffffffff02191690555b6129648282613827565b5050565b5f612973848461215e565b90507fffffffffffffffffffffffffffffffffffffffffffffffffffffffffffffffff81146129ed57818110156129df576040517f08c379a00000000000000000000000000000000000000000000000000000000081526004016129d6906157e9565b60405180910390fd5b6129ec8484848403612629565b5b50505050565b5f73ffffffffffffffffffffffffffffffffffffffff168373ffffffffffffffffffffffffffffffffffffffff1603612a61576040517f08c379a0000000000000000000000000000000000000000000000000000000008152600401612a5890615877565b60405180910390fd5b5f73ffffffffffffffffffffffffffffffffffffffff168273ffffffffffffffffffffffffffffffffffffffff1603612acf576040517f08c379a0000000000000000000000000000000000000000000000000000000008152600401612ac690615905565b60405180910390fd5b612ada838383613901565b5f60045f8573ffffffffffffffffffffffffffffffffffffffff1673ffffffffffffffffffffffffffffffffffffffff1681526020019081526020015f2054905081811015612b5e576040517f08c379a0000000000000000000000000000000000000000000000000000000008152600401612b5590615993565b60405180910390fd5b81810360045f8673ffffffffffffffffffffffffffffffffffffffff1673ffffffffffffffffffffffffffffffffffffffff1681526020019081526020015f20819055508160045f8573ffffffffffffffffffffffffffffffffffffffff1673ffffffffffffffffffffffffffffffffffffffff1681526020019081526020015f205f82825401925050819055508273ffffffffffffffffffffffffffffffffffffffff168473ffffffffffffffffffffffffffffffffffffffff167fddf252ad1be2c89b69c2b068fc378daa952ba7f163c4a11628f55a4df523b3ef84604051612c499190614675565b60405180910390a3612c5c848484613a00565b50505050565b612c7381612c6e612622565b613a05565b50565b5f7f000000000000000000000000000000000000000000000000000000000000000073ffffffffffffffffffffffffffffffffffffffff163073ffffffffffffffffffffffffffffffffffffffff16148015612cf157507f000000000000000000000000000000000000000000000000000000000000000046145b15612d1e577f00000000000000000000000000000000000000000000000000000000000000009050612d29565b612d26613a89565b90505b90565b612d3461307c565b815f8103612d6e576040517f2c5211c600000000000000000000000000000000000000000000000000000000815260040160405180910390fd5b815f8103612da8576040517f2c5211c600000000000000000000000000000000000000000000000000000000815260040160405180910390fd5b612dd27f8f7080408a06296c6347c87c115ad99669141ae35eae974c12dff8bd01680cb6876113e5565b80612e035750612e027f8f7080408a06296c6347c87c115ad99669141ae35eae974c12dff8bd01680cb6866113e5565b5b15612e3a576040517ff50a3b5200000000000000000000000000000000000000000000000000000000815260040160405180910390fd5b612e4686868686613b1e565b612e4e613bc1565b5050612e58613431565b50505050565b5f815f01549050919050565b606060ff5f1b8314612e8657612e7f83613c1c565b9050612f11565b818054612e929061507b565b80601f0160208091040260200160405190810160405280929190818152602001828054612ebe9061507b565b8015612f095780601f10612ee057610100808354040283529160200191612f09565b820191905f5260205f20905b815481529060010190602001808311612eec57829003601f168201915b505050505090505b92915050565b612f1f61307c565b815f8103612f59576040517f2c5211c600000000000000000000000000000000000000000000000000000000815260040160405180910390fd5b815f8103612f93576040517f2c5211c600000000000000000000000000000000000000000000000000000000815260040160405180910390fd5b612fbd7f0a4af4bcc1942295207d9f047442ebdae6170a6e324850f758b14cf99b65c3bd886113e5565b80612fee5750612fed7f0a4af4bcc1942295207d9f047442ebdae6170a6e324850f758b14cf99b65c3bd876113e5565b5b8061301f575061301e7f0a4af4bcc1942295207d9f047442ebdae6170a6e324850f758b14cf99b65c3bd866113e5565b5b15613056576040517ff50a3b5200000000000000000000000000000000000000000000000000000000815260040160405180910390fd5b6130638787878787613c8e565b61306b613bc1565b5050613075613431565b5050505050565b6002600354036130c1576040517f08c379a00000000000000000000000000000000000000000000000000000000081526004016130b8906159fb565b60405180910390fd5b6002600381905550565b5f73ffffffffffffffffffffffffffffffffffffffff168273ffffffffffffffffffffffffffffffffffffffff1603613139576040517f08c379a000000000000000000000000000000000000000000000000000000000815260040161313090615a89565b60405180910390fd5b613144825f83613901565b5f60045f8473ffffffffffffffffffffffffffffffffffffffff1673ffffffffffffffffffffffffffffffffffffffff1681526020019081526020015f20549050818110156131c8576040517f08c379a00000000000000000000000000000000000000000000000000000000081526004016131bf90615b17565b60405180910390fd5b81810360045f8573ffffffffffffffffffffffffffffffffffffffff1673ffffffffffffffffffffffffffffffffffffffff1681526020019081526020015f20819055508160065f82825403925050819055505f73ffffffffffffffffffffffffffffffffffffffff168373ffffffffffffffffffffffffffffffffffffffff167fddf252ad1be2c89b69c2b068fc378daa952ba7f163c4a11628f55a4df523b3ef846040516132789190614675565b60405180910390a361328b835f84613a00565b505050565b5f6132996121e0565b11156132d1576040517f010133de00000000000000000000000000000000000000000000000000000000815260040160405180910390fd5b80600d8190555042600e8190555050565b5f73ffffffffffffffffffffffffffffffffffffffff168273ffffffffffffffffffffffffffffffffffffffff1603613350576040517f08c379a000000000000000000000000000000000000000000000000000000000815260040161334790615b7f565b60405180910390fd5b61335b5f8383613901565b8060065f82825461336c91906150ab565b925050819055508060045f8473ffffffffffffffffffffffffffffffffffffffff1673ffffffffffffffffffffffffffffffffffffffff1681526020019081526020015f205f82825401925050819055508173ffffffffffffffffffffffffffffffffffffffff165f73ffffffffffffffffffffffffffffffffffffffff167fddf252ad1be2c89b69c2b068fc378daa952ba7f163c4a11628f55a4df523b3ef8360405161341a9190614675565b60405180910390a361342d5f8383613a00565b5050565b6001600381905550565b6134bc8363a9059cbb60e01b848460405160240161345a9291906154e3565b604051602081830303815290604052907bffffffffffffffffffffffffffffffffffffffffffffffffffffffff19166020820180517bffffffffffffffffffffffffffffffffffffffffffffffffffffffff8381831617835250505050613d87565b505050565b5f6134cb82611f9c565b84111561350d576040517f08c379a000000000000000000000000000000000000000000000000000000000815260040161350490615be7565b60405180910390fd5b5f61351785610e35565b905061352d613524612622565b85858885612f17565b809150509392505050565b5f6135428261214d565b841115613584576040517f08c379a000000000000000000000000000000000000000000000000000000000815260040161357b90615c4f565b60405180910390fd5b5f61358e85611076565b90506135a461359b612622565b85858489612f17565b809150509392505050565b6135b982826113e5565b15613685575f805f8481526020019081526020015f205f015f8373ffffffffffffffffffffffffffffffffffffffff1673ffffffffffffffffffffffffffffffffffffffff1681526020019081526020015f205f6101000a81548160ff02191690831515021790555061362a612622565b73ffffffffffffffffffffffffffffffffffffffff168173ffffffffffffffffffffffffffffffffffffffff16837ff6391f5c32d9c69d2a47ea670b442974b53935d1edc7fd64eb21e047a839171b60405160405180910390a45b5050565b61370c846323b872dd60e01b8585856040516024016136aa93929190615c6d565b604051602081830303815290604052907bffffffffffffffffffffffffffffffffffffffffffffffffffffffff19166020820180517bffffffffffffffffffffffffffffffffffffffffffffffffffffffff8381831617835250505050613d87565b50505050565b5f80600b5f8473ffffffffffffffffffffffffffffffffffffffff1673ffffffffffffffffffffffffffffffffffffffff1681526020019081526020015f20905061375c81612e5e565b915061376781613e4d565b50919050565b5f61377f613779612c76565b83613e61565b9050919050565b5f805f61379587878787613ea1565b915091506137a281613f79565b8192505050949350505050565b5f90565b5f806137c08686866140de565b9050600160028111156137d6576137d5615ca2565b5b8360028111156137e9576137e8615ca2565b5b14801561380657505f848061380157613800615486565b5b868809115b1561381b5760018161381891906150ab565b90505b80915050949350505050565b61383182826113e5565b6138fd5760015f808481526020019081526020015f205f015f8373ffffffffffffffffffffffffffffffffffffffff1673ffffffffffffffffffffffffffffffffffffffff1681526020019081526020015f205f6101000a81548160ff0219169083151502179055506138a2612622565b73ffffffffffffffffffffffffffffffffffffffff168173ffffffffffffffffffffffffffffffffffffffff16837f2f8788117e7eff1d82e926ec794901d17c78024a50270940304540a733656f0d60405160405180910390a45b5050565b61392b7f0a4af4bcc1942295207d9f047442ebdae6170a6e324850f758b14cf99b65c3bd846113e5565b801561396357505f73ffffffffffffffffffffffffffffffffffffffff168273ffffffffffffffffffffffffffffffffffffffff1614155b1561399a576040517ff50a3b5200000000000000000000000000000000000000000000000000000000815260040160405180910390fd5b6139c47f0a4af4bcc1942295207d9f047442ebdae6170a6e324850f758b14cf99b65c3bd836113e5565b156139fb576040517ff50a3b5200000000000000000000000000000000000000000000000000000000815260040160405180910390fd5b505050565b505050565b613a0f82826113e5565b613a8557613a1c816141e8565b613a29835f1c6020614215565b604051602001613a3a929190615d9d565b6040516020818303038152906040526040517f08c379a0000000000000000000000000000000000000000000000000000000008152600401613a7c91906148cf565b60405180910390fd5b5050565b5f7f8b73c3c69bb8fe3d512ecc4cf759cc79239f7b179b0ffacaa9a75d522b39400f7f00000000000000000000000000000000000000000000000000000000000000007f00000000000000000000000000000000000000000000000000000000000000004630604051602001613b03959493929190615dd6565b60405160208183030381529060405280519060200120905090565b613b4a7f0000000000000000000000000000000000000000000000000000000000000000853085613689565b613b5483826132e2565b8273ffffffffffffffffffffffffffffffffffffffff168473ffffffffffffffffffffffffffffffffffffffff167fdcbc1c05240f31ff3ad067ef1ee35ce4997762752e3a095284754544f4c709d78484604051613bb3929190615e27565b60405180910390a350505050565b5f613bca610edc565b90505f81118015613be25750670de0b6b3a764000081105b15613c19576040517fb4b836aa00000000000000000000000000000000000000000000000000000000815260040160405180910390fd5b50565b60605f613c288361444a565b90505f602067ffffffffffffffff811115613c4657613c45615146565b5b6040519080825280601f01601f191660200182016040528015613c785781602001600182028036833780820191505090505b5090508181528360208201528092505050919050565b8273ffffffffffffffffffffffffffffffffffffffff168573ffffffffffffffffffffffffffffffffffffffff1614613ccd57613ccc838683612968565b5b613cd783826130cb565b613d027f0000000000000000000000000000000000000000000000000000000000000000858461343b565b8273ffffffffffffffffffffffffffffffffffffffff168473ffffffffffffffffffffffffffffffffffffffff168673ffffffffffffffffffffffffffffffffffffffff167ffbde797d201c681b91056529119e0b02407c7bb96a4a2c75c01fc9667232c8db8585604051613d78929190615e27565b60405180910390a45050505050565b5f613de8826040518060400160405280602081526020017f5361666545524332303a206c6f772d6c6576656c2063616c6c206661696c65648152508573ffffffffffffffffffffffffffffffffffffffff166144989092919063ffffffff16565b90505f81511480613e09575080806020019051810190613e089190615e62565b5b613e48576040517f08c379a0000000000000000000000000000000000000000000000000000000008152600401613e3f90615efd565b60405180910390fd5b505050565b6001815f015f828254019250508190555050565b5f6040517f190100000000000000000000000000000000000000000000000000000000000081528360028201528260228201526042812091505092915050565b5f807f7fffffffffffffffffffffffffffffff5d576e7357a4501ddfe92f46681b20a0835f1c1115613ed9575f600391509150613f70565b5f6001878787876040515f8152602001604052604051613efc9493929190615f1b565b6020604051602081039080840390855afa158015613f1c573d5f803e3d5ffd5b5050506020604051035190505f73ffffffffffffffffffffffffffffffffffffffff168173ffffffffffffffffffffffffffffffffffffffff1603613f68575f60019250925050613f70565b805f92509250505b94509492505050565b5f6004811115613f8c57613f8b615ca2565b5b816004811115613f9f57613f9e615ca2565b5b03156140db5760016004811115613fb957613fb8615ca2565b5b816004811115613fcc57613fcb615ca2565b5b0361400c576040517f08c379a000000000000000000000000000000000000000000000000000000000815260040161400390615fa8565b60405180910390fd5b600260048111156140205761401f615ca2565b5b81600481111561403357614032615ca2565b5b03614073576040517f08c379a000000000000000000000000000000000000000000000000000000000815260040161406a90616010565b60405180910390fd5b6003600481111561408757614086615ca2565b5b81600481111561409a57614099615ca2565b5b036140da576040517f08c379a00000000000000000000000000000000000000000000000000000000081526004016140d19061609e565b60405180910390fd5b5b50565b5f805f80198587098587029250828110838203039150505f81036141165783828161410c5761410b615486565b5b04925050506141e1565b808411614158576040517f08c379a000000000000000000000000000000000000000000000000000000000815260040161414f90616106565b60405180910390fd5b5f8486880990508281118203915080830392505f60018619018616905080860495508084049350600181825f0304019050808302841793505f600287600302189050808702600203810290508087026002038102905080870260020381029050808702600203810290508087026002038102905080870260020381029050808502955050505050505b9392505050565b606061420e8273ffffffffffffffffffffffffffffffffffffffff16601460ff16614215565b9050919050565b60605f60028360026142279190615445565b61423191906150ab565b67ffffffffffffffff81111561424a57614249615146565b5b6040519080825280601f01601f19166020018201604052801561427c5781602001600182028036833780820191505090505b5090507f3000000000000000000000000000000000000000000000000000000000000000815f815181106142b3576142b2616124565b5b60200101907effffffffffffffffffffffffffffffffffffffffffffffffffffffffffffff191690815f1a9053507f78000000000000000000000000000000000000000000000000000000000000008160018151811061431657614315616124565b5b60200101907effffffffffffffffffffffffffffffffffffffffffffffffffffffffffffff191690815f1a9053505f60018460026143549190615445565b61435e91906150ab565b90505b60018111156143fd577f3031323334353637383961626364656600000000000000000000000000000000600f8616601081106143a05761439f616124565b5b1a60f81b8282815181106143b7576143b6616124565b5b60200101907effffffffffffffffffffffffffffffffffffffffffffffffffffffffffffff191690815f1a905350600485901c9450806143f690616151565b9050614361565b505f8414614440576040517f08c379a0000000000000000000000000000000000000000000000000000000008152600401614437906161c2565b60405180910390fd5b8091505092915050565b5f8060ff835f1c169050601f81111561448f576040517fb3512b0c00000000000000000000000000000000000000000000000000000000815260040160405180910390fd5b80915050919050565b60606144a684845f856144af565b90509392505050565b6060824710156144f4576040517f08c379a00000000000000000000000000000000000000000000000000000000081526004016144eb90616250565b60405180910390fd5b5f808673ffffffffffffffffffffffffffffffffffffffff16858760405161451c91906162b2565b5f6040518083038185875af1925050503d805f8114614556576040519150601f19603f3d011682016040523d82523d5f602084013e61455b565b606091505b509150915061456c87838387614578565b92505050949350505050565b606083156145d9575f8351036145d157614591856145ec565b6145d0576040517f08c379a00000000000000000000000000000000000000000000000000000000081526004016145c790616312565b60405180910390fd5b5b8290506145e4565b6145e3838361460e565b5b949350505050565b5f808273ffffffffffffffffffffffffffffffffffffffff163b119050919050565b5f825111156146205781518083602001fd5b806040517f08c379a000000000000000000000000000000000000000000000000000000000815260040161465491906148cf565b60405180910390fd5b5f819050919050565b61466f8161465d565b82525050565b5f6020820190506146885f830184614666565b92915050565b5f80fd5b5f73ffffffffffffffffffffffffffffffffffffffff82169050919050565b5f6146bb82614692565b9050919050565b6146cb816146b1565b81146146d5575f80fd5b50565b5f813590506146e6816146c2565b92915050565b5f602082840312156147015761470061468e565b5b5f61470e848285016146d8565b91505092915050565b5f6cffffffffffffffffffffffffff82169050919050565b61473881614717565b82525050565b5f72ffffffffffffffffffffffffffffffffffffff82169050919050565b6147658161473e565b82525050565b5f60408201905061477e5f83018561472f565b61478b602083018461475c565b9392505050565b5f7fffffffff0000000000000000000000000000000000000000000000000000000082169050919050565b6147c681614792565b81146147d0575f80fd5b50565b5f813590506147e1816147bd565b92915050565b5f602082840312156147fc576147fb61468e565b5b5f614809848285016147d3565b91505092915050565b5f8115159050919050565b61482681614812565b82525050565b5f60208201905061483f5f83018461481d565b92915050565b5f81519050919050565b5f82825260208201905092915050565b5f5b8381101561487c578082015181840152602081019050614861565b5f8484015250505050565b5f601f19601f8301169050919050565b5f6148a182614845565b6148ab818561484f565b93506148bb81856020860161485f565b6148c481614887565b840191505092915050565b5f6020820190508181035f8301526148e78184614897565b905092915050565b6148f88161465d565b8114614902575f80fd5b50565b5f81359050614913816148ef565b92915050565b5f6020828403121561492e5761492d61468e565b5b5f61493b84828501614905565b91505092915050565b5f806040838503121561495a5761495961468e565b5b5f614967858286016146d8565b925050602061497885828601614905565b9150509250929050565b5f62ffffff82169050919050565b61499981614982565b82525050565b5f6020820190506149b25f830184614990565b92915050565b5f805f606084860312156149cf576149ce61468e565b5b5f6149dc868287016146d8565b93505060206149ed868287016146d8565b92505060406149fe86828701614905565b9150509250925092565b5f819050919050565b614a1a81614a08565b8114614a24575f80fd5b50565b5f81359050614a3581614a11565b92915050565b5f60208284031215614a5057614a4f61468e565b5b5f614a5d84828501614a27565b91505092915050565b614a6f81614a08565b82525050565b5f602082019050614a885f830184614a66565b92915050565b5f8060408385031215614aa457614aa361468e565b5b5f614ab185828601614a27565b9250506020614ac2858286016146d8565b9150509250929050565b5f60ff82169050919050565b614ae181614acc565b82525050565b5f602082019050614afa5f830184614ad8565b92915050565b614b09816146b1565b82525050565b5f602082019050614b225f830184614b00565b92915050565b5f8060408385031215614b3e57614b3d61468e565b5b5f614b4b85828601614905565b9250506020614b5c858286016146d8565b9150509250929050565b5f7fff0000000000000000000000000000000000000000000000000000000000000082169050919050565b614b9a81614b66565b82525050565b5f81519050919050565b5f82825260208201905092915050565b5f819050602082019050919050565b614bd28161465d565b82525050565b5f614be38383614bc9565b60208301905092915050565b5f602082019050919050565b5f614c0582614ba0565b614c0f8185614baa565b9350614c1a83614bba565b805f5b83811015614c4a578151614c318882614bd8565b9750614c3c83614bef565b925050600181019050614c1d565b5085935050505092915050565b5f60e082019050614c6a5f83018a614b91565b8181036020830152614c7c8189614897565b90508181036040830152614c908188614897565b9050614c9f6060830187614666565b614cac6080830186614b00565b614cb960a0830185614a66565b81810360c0830152614ccb8184614bfb565b905098975050505050505050565b5f8060408385031215614cef57614cee61468e565b5b5f614cfc858286016146d8565b9250506020614d0d858286016146d8565b9150509250929050565b5f805f60608486031215614d2e57614d2d61468e565b5b5f614d3b868287016146d8565b9350506020614d4c86828701614905565b9250506040614d5d868287016146d8565b9150509250925092565b5f805f60608486031215614d7e57614d7d61468e565b5b5f614d8b86828701614905565b9350506020614d9c868287016146d8565b9250506040614dad868287016146d8565b9150509250925092565b614dc081614812565b8114614dca575f80fd5b50565b5f81359050614ddb81614db7565b92915050565b5f8060408385031215614df757614df661468e565b5b5f614e04858286016146d8565b9250506020614e1585828601614dcd565b9150509250929050565b614e2881614982565b8114614e32575f80fd5b50565b5f81359050614e4381614e1f565b92915050565b5f60208284031215614e5e57614e5d61468e565b5b5f614e6b84828501614e35565b91505092915050565b614e7d81614acc565b8114614e87575f80fd5b50565b5f81359050614e9881614e74565b92915050565b5f805f805f805f60e0888a031215614eb957614eb861468e565b5b5f614ec68a828b016146d8565b9750506020614ed78a828b016146d8565b9650506040614ee88a828b01614905565b9550506060614ef98a828b01614905565b9450506080614f0a8a828b01614e8a565b93505060a0614f1b8a828b01614a27565b92505060c0614f2c8a828b01614a27565b91505092959891949750929550565b5f819050919050565b5f614f5e614f59614f5484614692565b614f3b565b614692565b9050919050565b5f614f6f82614f44565b9050919050565b5f614f8082614f65565b9050919050565b614f9081614f76565b82525050565b5f602082019050614fa95f830184614f87565b92915050565b5f81519050614fbd816148ef565b92915050565b5f60208284031215614fd857614fd761468e565b5b5f614fe584828501614faf565b91505092915050565b7f4e487b71000000000000000000000000000000000000000000000000000000005f52601160045260245ffd5b5f6150258261465d565b91506150308361465d565b925082820390508181111561504857615047614fee565b5b92915050565b7f4e487b71000000000000000000000000000000000000000000000000000000005f52602260045260245ffd5b5f600282049050600182168061509257607f821691505b6020821081036150a5576150a461504e565b5b50919050565b5f6150b58261465d565b91506150c08361465d565b92508282019050808211156150d8576150d7614fee565b5b92915050565b7f455243343632363a206465706f736974206d6f7265207468616e206d617800005f82015250565b5f615112601e8361484f565b915061511d826150de565b602082019050919050565b5f6020820190508181035f83015261513f81615106565b9050919050565b7f4e487b71000000000000000000000000000000000000000000000000000000005f52604160045260245ffd5b5f61517d82614717565b915061518883614717565b925082820190506cffffffffffffffffffffffffff8111156151ad576151ac614fee565b5b92915050565b5f6151bd8261473e565b91506151c88361473e565b9250828201905072ffffffffffffffffffffffffffffffffffffff8111156151f3576151f2614fee565b5b92915050565b7f455243343632363a206d696e74206d6f7265207468616e206d617800000000005f82015250565b5f61522d601b8361484f565b9150615238826151f9565b602082019050919050565b5f6020820190508181035f83015261525a81615221565b9050919050565b7f45524332303a2064656372656173656420616c6c6f77616e63652062656c6f775f8201527f207a65726f000000000000000000000000000000000000000000000000000000602082015250565b5f6152bb60258361484f565b91506152c682615261565b604082019050919050565b5f6020820190508181035f8301526152e8816152af565b9050919050565b5f6040820190506153025f830185614990565b61530f6020830184614990565b9392505050565b7f45524332305065726d69743a206578706972656420646561646c696e650000005f82015250565b5f61534a601d8361484f565b915061535582615316565b602082019050919050565b5f6020820190508181035f8301526153778161533e565b9050919050565b5f60c0820190506153915f830189614a66565b61539e6020830188614b00565b6153ab6040830187614b00565b6153b86060830186614666565b6153c56080830185614666565b6153d260a0830184614666565b979650505050505050565b7f45524332305065726d69743a20696e76616c6964207369676e617475726500005f82015250565b5f615411601e8361484f565b915061541c826153dd565b602082019050919050565b5f6020820190508181035f83015261543e81615405565b9050919050565b5f61544f8261465d565b915061545a8361465d565b92508282026154688161465d565b9150828204841483151761547f5761547e614fee565b5b5092915050565b7f4e487b71000000000000000000000000000000000000000000000000000000005f52601260045260245ffd5b5f6154bd8261465d565b91506154c88361465d565b9250826154d8576154d7615486565b5b828204905092915050565b5f6040820190506154f65f830185614b00565b6155036020830184614666565b9392505050565b5f8160011c9050919050565b5f808291508390505b600185111561555f5780860481111561553b5761553a614fee565b5b600185161561554a5780820291505b80810290506155588561550a565b945061551f565b94509492505050565b5f826155775760019050615632565b81615584575f9050615632565b816001811461559a57600281146155a4576155d3565b6001915050615632565b60ff8411156155b6576155b5614fee565b5b8360020a9150848211156155cd576155cc614fee565b5b50615632565b5060208310610133831016604e8410600b84101617156156085782820a90508381111561560357615602614fee565b5b615632565b6156158484846001615516565b9250905081840481111561562c5761562b614fee565b5b81810290505b9392505050565b5f6156438261465d565b915061564e83614acc565b925061567b7fffffffffffffffffffffffffffffffffffffffffffffffffffffffffffffffff8484615568565b905092915050565b7f45524332303a20617070726f76652066726f6d20746865207a65726f206164645f8201527f7265737300000000000000000000000000000000000000000000000000000000602082015250565b5f6156dd60248361484f565b91506156e882615683565b604082019050919050565b5f6020820190508181035f83015261570a816156d1565b9050919050565b7f45524332303a20617070726f766520746f20746865207a65726f2061646472655f8201527f7373000000000000000000000000000000000000000000000000000000000000602082015250565b5f61576b60228361484f565b915061577682615711565b604082019050919050565b5f6020820190508181035f8301526157988161575f565b9050919050565b7f45524332303a20696e73756666696369656e7420616c6c6f77616e63650000005f82015250565b5f6157d3601d8361484f565b91506157de8261579f565b602082019050919050565b5f6020820190508181035f830152615800816157c7565b9050919050565b7f45524332303a207472616e736665722066726f6d20746865207a65726f2061645f8201527f6472657373000000000000000000000000000000000000000000000000000000602082015250565b5f61586160258361484f565b915061586c82615807565b604082019050919050565b5f6020820190508181035f83015261588e81615855565b9050919050565b7f45524332303a207472616e7366657220746f20746865207a65726f20616464725f8201527f6573730000000000000000000000000000000000000000000000000000000000602082015250565b5f6158ef60238361484f565b91506158fa82615895565b604082019050919050565b5f6020820190508181035f83015261591c816158e3565b9050919050565b7f45524332303a207472616e7366657220616d6f756e74206578636565647320625f8201527f616c616e63650000000000000000000000000000000000000000000000000000602082015250565b5f61597d60268361484f565b915061598882615923565b604082019050919050565b5f6020820190508181035f8301526159aa81615971565b9050919050565b7f5265656e7472616e637947756172643a207265656e7472616e742063616c6c005f82015250565b5f6159e5601f8361484f565b91506159f0826159b1565b602082019050919050565b5f6020820190508181035f830152615a12816159d9565b9050919050565b7f45524332303a206275726e2066726f6d20746865207a65726f206164647265735f8201527f7300000000000000000000000000000000000000000000000000000000000000602082015250565b5f615a7360218361484f565b9150615a7e82615a19565b604082019050919050565b5f6020820190508181035f830152615aa081615a67565b9050919050565b7f45524332303a206275726e20616d6f756e7420657863656564732062616c616e5f8201527f6365000000000000000000000000000000000000000000000000000000000000602082015250565b5f615b0160228361484f565b9150615b0c82615aa7565b604082019050919050565b5f6020820190508181035f830152615b2e81615af5565b9050919050565b7f45524332303a206d696e7420746f20746865207a65726f2061646472657373005f82015250565b5f615b69601f8361484f565b9150615b7482615b35565b602082019050919050565b5f6020820190508181035f830152615b9681615b5d565b9050919050565b7f455243343632363a207769746864726177206d6f7265207468616e206d6178005f82015250565b5f615bd1601f8361484f565b9150615bdc82615b9d565b602082019050919050565b5f6020820190508181035f830152615bfe81615bc5565b9050919050565b7f455243343632363a2072656465656d206d6f7265207468616e206d61780000005f82015250565b5f615c39601d8361484f565b9150615c4482615c05565b602082019050919050565b5f6020820190508181035f830152615c6681615c2d565b9050919050565b5f606082019050615c805f830186614b00565b615c8d6020830185614b00565b615c9a6040830184614666565b949350505050565b7f4e487b71000000000000000000000000000000000000000000000000000000005f52602160045260245ffd5b5f81905092915050565b7f416363657373436f6e74726f6c3a206163636f756e74200000000000000000005f82015250565b5f615d0d601783615ccf565b9150615d1882615cd9565b601782019050919050565b5f615d2d82614845565b615d378185615ccf565b9350615d4781856020860161485f565b80840191505092915050565b7f206973206d697373696e6720726f6c65200000000000000000000000000000005f82015250565b5f615d87601183615ccf565b9150615d9282615d53565b601182019050919050565b5f615da782615d01565b9150615db38285615d23565b9150615dbe82615d7b565b9150615dca8284615d23565b91508190509392505050565b5f60a082019050615de95f830188614a66565b615df66020830187614a66565b615e036040830186614a66565b615e106060830185614666565b615e1d6080830184614b00565b9695505050505050565b5f604082019050615e3a5f830185614666565b615e476020830184614666565b9392505050565b5f81519050615e5c81614db7565b92915050565b5f60208284031215615e7757615e7661468e565b5b5f615e8484828501615e4e565b91505092915050565b7f5361666545524332303a204552433230206f7065726174696f6e20646964206e5f8201527f6f74207375636365656400000000000000000000000000000000000000000000602082015250565b5f615ee7602a8361484f565b9150615ef282615e8d565b604082019050919050565b5f6020820190508181035f830152615f1481615edb565b9050919050565b5f608082019050615f2e5f830187614a66565b615f3b6020830186614ad8565b615f486040830185614a66565b615f556060830184614a66565b95945050505050565b7f45434453413a20696e76616c6964207369676e617475726500000000000000005f82015250565b5f615f9260188361484f565b9150615f9d82615f5e565b602082019050919050565b5f6020820190508181035f830152615fbf81615f86565b9050919050565b7f45434453413a20696e76616c6964207369676e6174757265206c656e677468005f82015250565b5f615ffa601f8361484f565b915061600582615fc6565b602082019050919050565b5f6020820190508181035f83015261602781615fee565b9050919050565b7f45434453413a20696e76616c6964207369676e6174757265202773272076616c5f8201527f7565000000000000000000000000000000000000000000000000000000000000602082015250565b5f61608860228361484f565b91506160938261602e565b604082019050919050565b5f6020820190508181035f8301526160b58161607c565b9050919050565b7f4d6174683a206d756c446976206f766572666c6f7700000000000000000000005f82015250565b5f6160f060158361484f565b91506160fb826160bc565b602082019050919050565b5f6020820190508181035f83015261611d816160e4565b9050919050565b7f4e487b71000000000000000000000000000000000000000000000000000000005f52603260045260245ffd5b5f61615b8261465d565b91505f820361616d5761616c614fee565b5b600182039050919050565b7f537472696e67733a20686578206c656e67746820696e73756666696369656e745f82015250565b5f6161ac60208361484f565b91506161b782616178565b602082019050919050565b5f6020820190508181035f8301526161d9816161a0565b9050919050565b7f416464726573733a20696e73756666696369656e742062616c616e636520666f5f8201527f722063616c6c0000000000000000000000000000000000000000000000000000602082015250565b5f61623a60268361484f565b9150616245826161e0565b604082019050919050565b5f6020820190508181035f8301526162678161622e565b9050919050565b5f81519050919050565b5f81905092915050565b5f61628c8261626e565b6162968185616278565b93506162a681856020860161485f565b80840191505092915050565b5f6162bd8284616282565b915081905092915050565b7f416464726573733a2063616c6c20746f206e6f6e2d636f6e74726163740000005f82015250565b5f6162fc601d8361484f565b9150616307826162c8565b602082019050919050565b5f6020820190508181035f830152616329816162f0565b905091905056fea2646970667358221220c1ae7f0471657bb02ab55546fbcf360018320fe48b4c114bd4b072a8b38a3ba464736f6c6343000814003360c060405234801561000f575f80fd5b50604051610473380380610473833981810160405281019061003191906100fe565b8173ffffffffffffffffffffffffffffffffffffffff1660808173ffffffffffffffffffffffffffffffffffffffff16815250508073ffffffffffffffffffffffffffffffffffffffff1660a08173ffffffffffffffffffffffffffffffffffffffff1681525050505061013c565b5f80fd5b5f73ffffffffffffffffffffffffffffffffffffffff82169050919050565b5f6100cd826100a4565b9050919050565b6100dd816100c3565b81146100e7575f80fd5b50565b5f815190506100f8816100d4565b92915050565b5f8060408385031215610114576101136100a0565b5b5f610121858286016100ea565b9250506020610132858286016100ea565b9150509250929050565b60805160a05161031861015b5f395f60d001525f604b01526103185ff3fe608060405234801561000f575f80fd5b5060043610610029575f3560e01c8063f3fef3a31461002d575b5f80fd5b610047600480360381019061004291906101ff565b610049565b005b7f000000000000000000000000000000000000000000000000000000000000000073ffffffffffffffffffffffffffffffffffffffff163373ffffffffffffffffffffffffffffffffffffffff16146100ce576040517f17dd114500000000000000000000000000000000000000000000000000000000815260040160405180910390fd5b7f000000000000000000000000000000000000000000000000000000000000000073ffffffffffffffffffffffffffffffffffffffff1663a9059cbb83836040518363ffffffff1660e01b815260040161012992919061025b565b6020604051808303815f875af1158015610145573d5f803e3d5ffd5b505050506040513d601f19601f8201168201806040525081019061016991906102b7565b505050565b5f80fd5b5f73ffffffffffffffffffffffffffffffffffffffff82169050919050565b5f61019b82610172565b9050919050565b6101ab81610191565b81146101b5575f80fd5b50565b5f813590506101c6816101a2565b92915050565b5f819050919050565b6101de816101cc565b81146101e8575f80fd5b50565b5f813590506101f9816101d5565b92915050565b5f80604083850312156102155761021461016e565b5b5f610222858286016101b8565b9250506020610233858286016101eb565b9150509250929050565b61024681610191565b82525050565b610255816101cc565b82525050565b5f60408201905061026e5f83018561023d565b61027b602083018461024c565b9392505050565b5f8115159050919050565b61029681610282565b81146102a0575f80fd5b50565b5f815190506102b18161028d565b92915050565b5f602082840312156102cc576102cb61016e565b5b5f6102d9848285016102a3565b9150509291505056fea264697066735822122004d54edf8aa24536b51267b7a537366dca2ea6680a79a916cd848c2d9abd78cd64736f6c63430008140033","linkReferences":{}},"methodIdentifiers":{"DEFAULT_ADMIN_ROLE()":"a217fddf","DOMAIN_SEPARATOR()":"3644e515","MAX_COOLDOWN_DURATION()":"1e9049cf","acceptAdmin()":"0e18b681","addToBlacklist(address,bool)":"f298f42c","allowance(address,address)":"dd62ed3e","approve(address,uint256)":"095ea7b3","asset()":"38d52e0f","balanceOf(address)":"70a08231","convertToAssets(uint256)":"07a2d13a","convertToShares(uint256)":"c6e6f592","cooldownAssets(uint256)":"cdac52ed","cooldownDuration()":"35269315","cooldownShares(uint256)":"9343d9e1","cooldowns(address)":"01320fe2","decimals()":"313ce567","decreaseAllowance(address,uint256)":"a457c2d7","deposit(uint256,address)":"6e553f65","eip712Domain()":"84b0196e","getRoleAdmin(bytes32)":"248a9ca3","getUnvestedAmount()":"e7c2a608","grantRole(bytes32,address)":"2f2ff15d","hasRole(bytes32,address)":"91d14854","increaseAllowance(address,uint256)":"39509351","lastDistributionTimestamp()":"20950933","maxDeposit(address)":"402d267d","maxMint(address)":"c63d75b6","maxRedeem(address)":"d905777e","maxWithdraw(address)":"ce96cb77","mint(uint256,address)":"94bf804d","name()":"06fdde03","nonces(address)":"7ecebe00","owner()":"8da5cb5b","permit(address,address,uint256,uint256,uint8,bytes32,bytes32)":"d505accf","previewDeposit(uint256)":"ef8b30f7","previewMint(uint256)":"b3d7f6b9","previewRedeem(uint256)":"4cdad506","previewWithdraw(uint256)":"0a28a477","redeem(uint256,address,address)":"ba087652","redistributeLockedAmount(address,address)":"a0776b82","removeFromBlacklist(address,bool)":"c336a084","renounceRole(bytes32,address)":"36568abe","rescueTokens(address,uint256,address)":"b37fd190","revokeRole(bytes32,address)":"d547741f","setCooldownDuration(uint24)":"ce23eb3c","silo()":"eb3beb29","supportsInterface(bytes4)":"01ffc9a7","symbol()":"95d89b41","totalAssets()":"01e1d114","totalSupply()":"18160ddd","transfer(address,uint256)":"a9059cbb","transferAdmin(address)":"75829def","transferFrom(address,address,uint256)":"23b872dd","transferInRewards(uint256)":"c80ef110","unstake(address)":"f2888dbb","vestingAmount()":"00728f76","withdraw(uint256,address,address)":"b460af94"},"id":6}